:1000000074C000009AC0000098C0000096C00000B4
:1000100094C0000092C0000090C000008EC000009C
:100020008CC000000C94F02A88C000000C94C62FED
:1000300084C0000082C0000080C000007EC00000BC
:100040000C9430327AC000000C94E7340C941935CB
:1000500074C0000072C0000070C000006EC00000DC
:100060006CC000006AC00000084AD73B3BCE016E5E
:1000700084BCBFFDC12F3D6C74319ABD56833DDAFF
:100080003D00C77F11BED9E4BB4C3E916BAAAABE0E
:10009000000000803F000000000800020100000393
:1000A0000407000000000000000001020408102006
:1000B00040800102040810200102040810200404FA
:1000C0000404040404040202020202020303030300
:1000D000030300000000250028002B0000000000A2
:1000E000240027002A00B8003E3511241FBECFEFA0
:1000F000D8E0DEBFCDBF12E0A0E0B1E0E4ECFCE66A
:1001000002C005900D92AA33B107D9F728E0AAE3FF
:10011000B2E001C01D92AF35B207E1F710E0C5E7CC
:10012000D0E004C02197FE010E943136C337D107C9
:10013000C9F70E94F72B0C94603662CF70E023E081
:10014000829FC0011124865C9D4F0C94173170E092
:1001500023E0829FC0011124865C9D4F0C94533193
:1001600023E0829FC0011124865C9D4F0C94CD3109
:100170008AE392E00E947F308DE392E00C947F301E
:10018000CF93DF93882349F0EB0181500E94103315
:1001900099838883DF91CF910895FB0111821082AA
:1001A000F9CF0F931F938B019C0183E03695279520
:1001B000179507958A95D1F7005C1D4F462F47701C
:1001C00021E030E0F90102C0EE0FFF1F4A95E2F78F
:1001D000AF01F80120812423CB010196211102C037
:1001E00090E080E01F910F9108950F931F938B0172
:1001F0009C0183E036952795179507958A95D1F749
:10020000677081E090E001C0880F6A95EAF7F80115
:10021000E05CFD4F2081452B31F480958223808363
:100220001F910F910895822BFACFCF92DF92EF9218
:10023000FF92CF93DF936B017C0160E08EE0C816E4
:10024000D104E104F10490F48EE08C0D0E9454334B
:10025000E6012196AE01C701B601C7DFCE01DF91ED
:10026000CF91FF90EF90DF90CF9008958C2DEECF3F
:10027000882341F08150682F70E090E080E050E0EA
:1002800040E0B3CF089590E080E008950F931F936E
:10029000009709F485C06115710509F481C00091CA
:1002A00082011091830120918401309185010E3FDC
:1002B0001F4F2F4F3F4F09F064C04FEF5FEFBA0160
:1002C0004093820150938301609384017093850170
:1002D0004091820150918301609184017091850168
:1002E000DC011296ED91FC9180819181A281B38114
:1002F0008093F1029093F202A093F302B093F40280
:1003000084819581A681B7818093ED029093EE025E
:10031000A093EF02B093F00280859185A285B3850A
:100320008093E9029093EA02A093EB02B093EC026F
:1003300084859585A685B7858093E5029093E6022E
:10034000A093E702B093E8021092E1021092E20259
:100350001092E3021092E4020E9486118BEA91E16E
:1003600090934A02809349020E948510009731F4CD
:1003700021E030E03093F6022093F5021F910F91B7
:1003800008950091820110918301209184013091A0
:100390008501DB010D931D932D933C93139798CF0B
:1003A0008FEF9FEFEBCF8F929F92AF92BF92CF9242
:1003B000DF92EF92FF921F93CF93DF934B015C018B
:1003C0001091F80282E090E09093F6028093F5029B
:1003D00081149104A104B10441F48091F8028111C7
:1003E00004C08091F702C1E08111C0E0C12CD12C82
:1003F00076018091F802811106C08091F702811187
:1004000002C0CC23D9F083E090E09093F602809371
:10041000F502CC2381F1CCE9DFEF111102C00E947B
:100420000F15CE01DF91CF911F91FF90EF90DF90DC
:10043000CF90BF90AF909F908F9008956AE070E04A
:1004400080E090E00E949F3280E1C80E87E2D81ED3
:10045000E11CF11C8FEF88169806A806B80631F04B
:10046000C1E08C149D04AE04BF0408F0C0E080E03D
:100470000E94B110BECFD0E0C0E0CFCFCF92DF92CC
:10048000EF92FF921F93CF93DF938F3F910511F06F
:1004900008F042C02091F5023091F6022330310578
:1004A00039F02091F5023091F6022130310531F416
:1004B00024E030E03093F6022093F5026A017B01DC
:1004C000EC01892BB1F011E0AE01C701B6010E9429
:1004D0008410AB01BC0190E080E01123F9F0CE0163
:1004E000DF91CF911F91FF90EF90DF90CF900C9410
:1004F00024178091490290914A02892B21F30E948E
:100500002B17029701F7E0914902F0914A0290E01F
:1005100080E00995182FD8CF8FEF9FEFDF91CF9113
:100520001F91FF90EF90DF90CF90089580E00C94A2
:10053000B110CF93DF9386E090E09093F602809322
:10054000F5020E940A11EC0110924A02109249022F
:100550000E94A7141092F6021092F502CE01DF91CC
:10056000CF9108958091F70208958091E002089557
:10057000609382017093830180938401909385013D
:1005800090E080E00895CF93DF93FC0181E08087C5
:10059000EB0188819981AA81BB8184839583A6839D
:1005A000B78381E090E0A0E0B0E080839183A283F4
:1005B000B38369E080E0DF91CF91C0CDCF92DF922D
:1005C000EF92FF920F931F93CF93DF938C01EB0178
:1005D000FA01C080D180E280F380A70196016C818E
:1005E0007D818E819F810E944A2D882321F0CC82BB
:1005F000DD82EE82FF8280E0B3DD092E000CAA0BC3
:10060000BB0BF80180839183A283B383DF91CF91E9
:100610001F910F91FF90EF90DF90CF9008958F92F0
:100620009F92AF92BF92CF92DF92EF92FF92CF93C1
:10063000DF936B017C0149015A010E947C0F8823E2
:1006400099F06091510870915208809153089091EF
:100650005408DF91CF91FF90EF90DF90CF90BF9043
:10066000AF909F908F900895C501B4010E947C0FB8
:100670008111E7CFC701B6010E94370F8823E1F14E
:10068000C501B4010E94370F8823B1F120E030E0AA
:10069000A901C701B6010E940C2FCFEFDFEF18169A
:1006A00014F4C1E0D0E020E030E0A901C501B401BC
:1006B0000E940C2F6FEF7FEF181614F461E070E0CA
:1006C000072E000C880B990B0E94E42D6B017C0116
:1006D000BE01DD0F880B990B0E94E42DA701960146
:1006E000DF91CF91FF90EF90DF90CF90BF90AF90D0
:1006F0009F908F900C94E42C20E030E0A901C5017C
:10070000B4010E944A2D811116C020E030E0A901F9
:10071000C701B6010E940C2F181694F020E030E0BB
:10072000A901C701B6010E944A2D87FD0EC060E0F5
:1007300070E0CB018ECFA5019401C701B601D0CFE7
:100740006BED7FE089EC9FE384CF6BED7FE089EC7C
:100750009FEB7FCFCF92DF92EF92FF926B017C01F4
:100760009F7720E030E040E859E50E944A2D87FF5E
:100770002BC020E030E040E05FE3C701B6010E94FB
:100780000C2F87FD0EC020E030E040E05FE3C701A2
:10079000B6010E94712CFF90EF90DF90CF900C94E7
:1007A0001F2E20E030E040E05FEBC701B6010E9461
:1007B0000C2F181684F420E030E0A901C701B6011F
:1007C0000E94172F6B017C01C701B601FF90EF90CB
:1007D000DF90CF90089520E030E040E05FE3C70174
:1007E000B6010E94702CFF90EF90DF90CF900C9498
:1007F000372D4F925F926F927F928F929F92AF921E
:10080000BF92CF92DF92EF92FF920F931F93CF93FD
:10081000DF93809127088150823008F441C580E041
:1008200080932708809126088150823008F43AC5C9
:1008300080E080932608809125088150823008F45A
:1008400033C580E080932508809124088150823050
:1008500008F42CC580E080932408809123088150FF
:10086000823008F425C580E0809323088091220817
:100870008150823008F41EC580E080932208809168
:1008800021088150823008F417C580E08093210848
:10089000809120088150823008F410C580E0809358
:1008A000200880911F088150823008F409C580E03B
:1008B00080931F0880911E088150823008F402C581
:1008C00080E080931E0880911D088150823008F4DA
:1008D000FBC480E080931D0880911C088150823009
:1008E00008F4F4C480E080931C0880913B08815098
:1008F000823008F4EDC480E080933B0880911B08AF
:100900008150823008F4E6C480E080931B08809117
:100910001A088150823008F4DFC480E080931A08FE
:10092000809119088150823008F4D8C480E0809307
:100930001908809118088150823008F4D1C480E0F1
:1009400080931808809117088150823008F4CAC437
:1009500080E080931708809116088150823008F457
:10096000C3C480E0809316088091150881508230BE
:1009700008F4BCC480E0809315088091140881506D
:10098000823008F4B5C480E0809314088091130885
:100990008150823008F4AEC480E0809313088091C7
:1009A00012088150823008F4A7C480E080931208B6
:1009B000809111088150823008F4A0C480E08093B7
:1009C0001108C0900801D0900901E0900A01F09050
:1009D0000B01A70196016091C7077091C80780912C
:1009E000C9079091CA070E944A2D882341F0C092FE
:1009F000C707D092C807E092C907F092CA0760E122
:100A000070E080E090E0CDDB9093C6078093C5074F
:100A100043E050E065E777E0B3DBC0901001D09091
:100A20001101E0901201F0901301A701960160916D
:100A3000AF077091B0078091B1079091B2070E9403
:100A40004A2D882341F0C092AF07D092B007E092C0
:100A5000B107F092B20761E170E080E090E0A1DBC5
:100A60009093AE078093AD0743E050E061E777E0F5
:100A700087DB8091710790917207C0917507D091C3
:100A80007607C817D90708F4EC01C0900C01D09084
:100A90000D01E0900E01F0900F01A7019601609109
:100AA000BB077091BC078091BD079091BE070E9463
:100AB0004A2D882341F0C092BB07D092BC07E09238
:100AC000BD07F092BE076FE070E080E090E069DB68
:100AD0009093BA078093B90743E050E063E777E06B
:100AE0004FDBC0901801D0901901E0901A01F090EE
:100AF0001B01A7019601609197077091980780915B
:100B0000990790919A070E944A2D882341F0C0923C
:100B10009707D0929807E0929907F0929A076EE0B3
:100B200070E080E090E03DDB90939607809395071E
:100B300043E050E06DE677E023DBC0901401D090F5
:100B40001501E0901601F0901701A7019601609140
:100B5000A3077091A4078091A5079091A6070E9412
:100B60004A2D882341F0C092A307D092A407E092B7
:100B7000A507F092A60762E170E080E090E011DB4B
:100B80009093A2078093A10743E050E06FE677E0DF
:100B9000F7DAC0901C01D0901D01E0901E01F0908A
:100BA0001F01A701960160918B0770918C078091BE
:100BB0008D0790918E070E944A2D882341F0C092A4
:100BC0008B07D0928C07E0928D07F0928E0763E13D
:100BD00070E080E090E0E5DA90938A0780938907DF
:100BE00043E050E06BE677E0CBDA00916C011091C6
:100BF0006D019801DE010E9437360E94E22D20E04F
:100C000030E040E054E30E94172F4B015C018092DA
:100C1000230790922407A0922507B092260780917F
:100C20006D0790916E072091730730917407281714
:100C3000390708F49C01D8010E9437360E94E22D42
:100C400020E030E040E054E30E94172F6B017C016C
:100C5000C0922707D0922807E0922907F0922A072E
:100C600080916B0790916C0720916F07309170070E
:100C70002817390708F49C01D8010E9437360E94D2
:100C8000E22D20E030E040E054E30E94172F609313
:100C90002B0770932C0780932D0790932E072DE040
:100CA00032E348E45EE3C501B4010E944A2D181600
:100CB0000CF42DC38091540190915501A0915601DF
:100CC000B091570180932F0790933007A09331077D
:100CD000B093320780912108882309F415C383302B
:100CE00009F00EC381E090E0809321082DE032E30B
:100CF00048E45EE3C701B6010E944A2D18160CF4C1
:100D000027C38091580190915901A0915A01B09147
:100D10005B018093330790933407A0933507B0931A
:100D2000360780911F08882309F40FC3833009F028
:100D300008C381E090E080931F08C0902B07D090FB
:100D40002C07E0902D07F0902E072DE032E348E4C9
:100D50005EE3C701B6010E944A2D18160CF419C3B0
:100D600080915C0190915D01A0915E01B0915F0165
:100D70008093370790933807A0933907B0933A07C9
:100D800080911D08882309F401C3833009F0FAC259
:100D900081E090E080931D08609123077091240703
:100DA000809125079091260780902707909028072B
:100DB000A0902907B0902A079B01AC010E94172F31
:100DC0002B013C01A5019401C501B4010E94172F1C
:100DD0009B01AC01C301B2010E94712C4B015C016B
:100DE000A7019601C701B6010E94172F9B01AC0114
:100DF000C501B4010E94712C0E947E2F4B015C0141
:100E0000AC019B0160912F077091300780913107F1
:100E1000909132070E944E2D6B017C01C0923B07DE
:100E2000D0923C07E0923D07F0923E0720913707B1
:100E3000309138074091390750913A076091330754
:100E40007091340780913507909136070E94702C7D
:100E5000A50194010E944E2D60933F0770934007B7
:100E600080934107909342078090600190906101C8
:100E7000A0906201B0906301A7019601D0DB9B01B5
:100E8000AC01C501B4010E94172F60934307709312
:100E9000440780934507909346072091D3073091EC
:100EA000D4074091D5075091D60720934707309338
:100EB00048074093490750934A070E94712C6B01E1
:100EC0007C01C0924B07D0924C07E0924D07F09204
:100ED0004E079F7720E030E044EB52E40E940C2F55
:100EE00018160CF0A4C220E030E0A901C701B60139
:100EF0000E940C2F18160CF06DC2A701960160918C
:100F000000017091010180910201909103010E9402
:100F1000712C6093530770935407809355079093F7
:100F2000560780912508882309F451C2833009F0BF
:100F30004AC281E090E080932508809123088823AD
:100F400009F472C2833009F06BC281E090E08093B3
:100F500023086E9708F0B4C30091730710917407CB
:100F6000C0916D07D0916E07B80190E080E00E94BB
:100F7000E22D6B017C01BE0190E080E00E94E22D39
:100F80009B01AC01C701B6010E940C2F87FFE8014D
:100F900000916F0710917007E0906B07F0906C075D
:100FA000B80190E080E00E94E22D4B015C01B701A6
:100FB00090E080E00E94E22D9B01AC01C501B401EC
:100FC0000E940C2F87FF7801C832D10508F08FC22C
:100FD00089E2E816F10408F48AC246E751E062E3C8
:100FE00078E08BE797E0EADA60917B0770917C0705
:100FF00080917D0790917E070E94E42D2091280129
:101000003091290140912A0150912B010E94702CAE
:101010006B017C01C0926707D0926807E092690774
:10102000F0926A0760916F077091700790E080E01E
:101030000E94E22D2091240130912501409126014A
:10104000509127010E94712C4B015C0160916B074C
:1010500070916C0790E080E00E94E22D9B01AC0152
:10106000C501B4010E944A2D87FF28C220E030E06C
:101070004CEA52E4C701B6010E940C2F87FDF1C172
:1010800080917A0190917B01A0917C01B0917D01CA
:101090008093670790936807A0936907B0936A07E6
:1010A00080911A08882309F406C2833009F0FFC131
:1010B00081E090E080931A0880916707909168071B
:1010C000A0916907B0916A078093570790935807DA
:1010D000A0935907B0935A0780911808882309F400
:1010E00003C2833009F0FCC181E090E080931808CE
:1010F0008091570790915807A0915907B0915A07CE
:1011000080934F0790935007A0935107B0935207D5
:1011100080911208882309F4D0C2833009F0C9C233
:1011200081E090E080931208C0904F07D090500764
:10113000E0905107F090520720E030E048EC52E494
:10114000C701B6010E944A2D8111E3C28091270890
:10115000882309F4DBC2833009F0D4C281E090E037
:101160008093270820E030E044EB52E4609153077D
:101170007091540780915507909156070E94712CE9
:101180006B017C0120E030E0A9010E944A2D87FD1F
:10119000DAC220E030E044E353E4C701B6010E9424
:1011A0000C2F64EB1816DCF0C701B601D3DA6B0123
:1011B0007C0120E030E040E853E40E944A2D6FEFCC
:1011C00087FF0DC020E030E0A901C701B6010E94F1
:1011D0000C2F87FDB8C2C701B6010E94B62D80E072
:1011E0000E94A7004EE751E06CE378E08FE797E0BC
:1011F000E5D960917F077091800780918107909178
:1012000082070E94E42D209168013091690140918C
:101210006A0150916B010E94702C6093D307709308
:10122000D4078093D5079093D6076091BB02709145
:10123000BC028091BD029091BE026F5F7F4F8F4FC5
:101240009F4F6093BB027093BC028093BD0290934A
:10125000BE020E94E22D9B01AC016091BF02709121
:10126000C0028091C1029091C2020E94172F609328
:10127000B7027093B8028093B9029093BA02DF91DB
:10128000CF911F910F91FF90EF90DF90CF90BF9083
:10129000AF909F908F907F906F905F904F90089548
:1012A00083E0BECA83E0C5CA83E0CCCA83E0D3CA68
:1012B00083E0DACA83E0E1CA83E0E8CA83E0EFCAE8
:1012C00083E0F6CA83E0FDCA83E004CB83E00BCB66
:1012D00083E012CB83E019CB83E020CB83E027CBE4
:1012E00083E02ECB83E035CB83E03CCB83E043CB64
:1012F00083E04ACB83E051CB83E058CB83E05FCBE4
:10130000082E000C990BF0CC82E090E0EDCC80929E
:101310002F0790923007A0923107B0923207809148
:101320002008882359F0833029F481E090E08093ED
:101330002008DCCC082E000C990BF9CF82E090E05D
:10134000F6CF082E000C990BF6CC82E090E0F3CC9F
:10135000C0923307D0923407E0923507F0923607F7
:1013600080911E08882359F0833029F481E090E0B1
:1013700080931E08E2CC082E000C990BF9CF82E076
:1013800090E0F6CF082E000C990B04CD82E090E09F
:1013900001CDC0923707D0923807E0923907F0921A
:1013A0003A0780911C08882359F0833029F481E0A2
:1013B00090E080931C08F0CC082E000C990BF9CF1C
:1013C00082E090E0F6CF082E000C990BB4CD82E0BD
:1013D00090E0B1CD209104013091050140910601CA
:1013E00050910701C701B6010E94702C609353070A
:1013F0007093540780935507909356078091240863
:10140000882359F0833029F481E090E08093240808
:1014100094CD082E000C990BF9CF82E090E0F6CF26
:10142000082E000C990B93CD82E090E090CDC092F5
:101430005307D0925407E0925507F09256078091D7
:101440002208882359F0833029F481E090E08093CA
:1014500022087FCD082E000C990BF9CF82E090E096
:10146000F6CFA70196016091200170912101809132
:101470002201909123010E94712C60936707709361
:1014800068078093690790936A0780911B088823F7
:1014900059F0833029F481E090E080931B0800CE5E
:1014A000082E000C990BF9CF82E090E0F6CF082EC1
:1014B000000C990BFFCD82E090E0FCCD80911908E3
:1014C000882359F0833029F481E090E08093190853
:1014D000F3CD082E000C990BF9CF82E090E0F6CF07
:1014E000082E000C990B02CE82E090E0FFCD88E23E
:1014F000E816F10408F0FCCDC932D10508F425C185
:101500004EE651E068E278E087E797E057D86091CF
:101510007707709178078091790790917A070E94F8
:10152000E42D209138013091390140913A015091D8
:101530003B010E94702C6B017C01C0926307D0922A
:101540006407E0926507F0926607609173077091F7
:10155000740790E080E00E94E22D209134013091E8
:10156000350140913601509137010E94712C4B0199
:101570005C0160916D0770916E0790E080E00E94C1
:10158000E22D9B01AC01C501B4010E944A2D87FFE9
:1015900070C020E030E04CEA52ECC701B6010E9476
:1015A0004A2D1816CCF18091720190917301A0918F
:1015B0007401B09175018093630790936407A093C1
:1015C0006507B093660780911608882309F44EC01A
:1015D000833009F047C081E090E080931608809145
:1015E000630790916407A0916507B09166078093A7
:1015F000570790935807A0935907B0935A078091C3
:101600001408882309F44BC0833009F044C081E0FA
:1016100090E0809314086CCD20913001309131011D
:101620004091320150913301C701B6010E94702CE4
:1016300060936307709364078093650790936607D0
:1016400080911708882359F0833029F481E090E0D5
:1016500080931708B8CF082E000C990BF9CF82E0C1
:1016600090E0F6CF082E000C990BB7CF82E090E007
:10167000B4CF80911508882359F0833029F481E094
:1016800090E080931508ABCF082E000C990BF9CF92
:1016900082E090E0F6CF082E000C990BBACF82E0E2
:1016A00090E0B7CF082E000C990BA5C082E090E027
:1016B000A2C0082E000C990B35CD82E090E032CD0F
:1016C0008091500190915101A0915201B09153012C
:1016D00080934F0790935007A0935107B093520700
:1016E00080911108882359F0833029F481E090E03B
:1016F0008093110819CD082E000C990BF9CF82E0C8
:1017000090E0F6CF082E000C990B2ACD82E090E0F5
:1017100027CDC0925307D0925407E0925507F0921C
:10172000560780912608882359F0833029F481E0F8
:1017300090E08093260816CD082E000C990BF9CF67
:1017400082E090E0F6CF60E04ACDA89708F0D0CCD8
:10175000C0904001D0904101E0904201F0904301DF
:10176000A70196016091CF077091D0078091D107B2
:101770009091D2070E944A2D882341F0C092CF0752
:10178000D092D007E092D107F092D20781E00E9478
:10179000B000BC01990F880B990B0E94E42D209199
:1017A00048013091490140914A0150914B010E94FA
:1017B000702C60935B0770935C0780935D07909338
:1017C0005E0760935707709358078093590790936B
:1017D0005A0760935F077093600780936107909347
:1017E000620780911308882309F460CF833009F0E1
:1017F00059CF81E090E0809313087ACC9F92AF920A
:10180000BF92CF92DF92EF92FF920F931F93CF93ED
:10181000DF9384E090E0F4D2E1EAF2E080E090E04F
:10182000A0E8BFEB82A393A3A4A3B5A38DEC9CEC8B
:10183000ACECBDE3868F978FA0A3B1A384ED94ECAD
:10184000A5E0B0E784839583A683B7838FE79AEFFB
:10185000A0E1BEED80879187A287B38784E098E6F8
:10186000A1ECB8E384879587A687B78786EC94EBCD
:10187000A1E2B6E0808B918BA28BB38BA5E9B2E09D
:10188000B383A283EBE4F2E01196FC93EE9380EA3B
:1018900091E0918380839383828327E238E03583CC
:1018A000248326E238E03783268325E238E0318737
:1018B000208724E238E03387228723E238E0358727
:1018C000248722E238E037872687918B808B21E2BC
:1018D00038E0338B228B20E238E0358B248B2FE1EC
:1018E00038E0378B268B2EE138E0318F208F2DE1C9
:1018F00038E0338F228F2CE138E0358F248F978F9B
:10190000868F91A380A393A382A395A384A397A377
:1019100086A391A780A781E198E093A782A783E19E
:1019200098E095A784A797A786A78BE398E091AB4B
:1019300080AB8BE198E093AB82AB8AE198E095AB0A
:1019400084AB89E198E097AB86AB88E198E091AFF2
:1019500080AF93AF82AF81E398E095AF84AF87E12A
:1019600098E097AF86AF86E198E090938C028093E1
:101970008B0285E198E090938E0280938D0284E142
:1019800098E09093900280938F02909392028093BC
:10199000910282E198E0909394028093930285EB08
:1019A00092E015969C938E93149785EA92E0139695
:1019B0009C938E93129787EB92E017969C938E934D
:1019C0001697C3E8D7E000E011E0809164019091A0
:1019D0006501A0916601B09167018093D307909350
:1019E000D407A093D507B093D60783E2A82E87E04B
:1019F000B82EF80184A595A5A6A5B7A5809367077D
:101A000090936807A0936907B0936A0766E771E04F
:101A100082E398E00E94C302F80184AD95ADA6ADC3
:101A2000B7AD8093630790936407A0936507B09365
:101A300066076EE671E088E298E00E94C30280913A
:101A4000400190914101A0914201B09143018093E6
:101A5000CF079093D007A093D107B093D207C12CA2
:101A6000D12C7601C394C092CB07D092CC07E092E0
:101A7000CD07F092CE0762E081E00E949E00809147
:101A8000440190914501A0914601B0914701F501B3
:101A900084AF95AFA6AFB7AF80914C0190914D0147
:101AA000A0914E01B0914F0184AB95ABA6ABB7AB03
:101AB0001CAEF80180859185A285B3858093C70708
:101AC0009093C807A093C907B093CA0724ECA22E2D
:101AD00027E0B22EF5011082C092C007D092C10754
:101AE000E092C207F092C30760E170E080E090E00E
:101AF0000E9415019093C6078093C507992493947B
:101B0000F50190821CA2F80180899189A289B3898C
:101B10008CA79DA7AEA7BFA719A6CDA2DEA2EFA254
:101B2000F8A661E170E080E090E00E9415019BA7BB
:101B30008AA799A618AAF80184859585A685B785F0
:101B400088AF99AFAAAFBBAF1DAAC9AADAAAEBAA00
:101B5000FCAA6FE070E080E090E00E9415019FAB6E
:101B60008EAB9DAA1C86F801808D918DA28DB38DC0
:101B70008C8B9D8BAE8BBF8B198ACD86DE86EF86D4
:101B8000F88A6EE070E080E090E00E9415019B8B87
:101B90008A8B998A188EF80184899589A689B789D4
:101BA00088A399A3AAA3BBA31D8EC98EDA8EEB8E40
:101BB000FC8E62E170E080E090E00E9415019F8F52
:101BC0008E8F9D8E1882F801848D958DA68DB78D90
:101BD00088879987AA87BB871D82C982DA82EB82B0
:101BE000FC8263E170E080E090E00E9415019F8339
:101BF0008E839D8269E080E00E949E006EE771E026
:101C00008CE398E0DF91CF911F910F91FF90EF90BF
:101C1000DF90CF90BF90AF909F900C94C3028091C3
:101C2000BF0781111FC081E08093BF078091C0076B
:101C30009091C107A091C207B091C3070197A10578
:101C4000B10581F48091C407882361F060E170E000
:101C500080E090E00E94D1009093C6078093C50772
:101C60000E9438018091A70781111FC081E08093F5
:101C7000A7078091A8079091A907A091AA07B09102
:101C8000AB070197A105B10581F48091AC078823CA
:101C900061F061E170E080E090E00E94D1009093FB
:101CA000AE078093AD070E9438018091B307811180
:101CB0001FC081E08093B3078091B4079091B5076E
:101CC000A091B607B091B7070197A105B10581F4BE
:101CD0008091B807882361F06FE070E080E090E0C9
:101CE0000E94D1009093BA078093B9070E943801EF
:101CF00080918F0781111FC081E080938F078091B1
:101D0000900790919107A0919207B0919307019746
:101D1000A105B10581F480919407882361F06EE0FC
:101D200070E080E090E00E94D1009093960780934D
:101D300095070E94380180919B0781111FC081E0A7
:101D400080939B0780919C0790919D07A0919E078F
:101D5000B0919F070197A105B10581F48091A0077B
:101D6000882361F062E170E080E090E00E94D100A1
:101D70009093A2078093A1070E9438018091830766
:101D800081111FC081E08093830780918407909127
:101D90008507A0918607B09187070197A105B10536
:101DA00081F480918807882361F063E170E080E02E
:101DB00090E00E94D10090938A07809389070C9449
:101DC0003801089560E070E080E89FE7089560E0E2
:101DD00070E080E89FE7089560E070E080E89FEFA2
:101DE000089560E070E080E89FEF089560E070E0A3
:101DF00080EC9FEF089560E070E080EC9FEF089525
:101E0000F5DF6093510870935208809353089093C4
:101E10005408F1DF609345087093460880934708A3
:101E200090934808CFDF60934D0870934E088093DD
:101E30004F0890935008CBDF6093490870934A088D
:101E400080934B0890934C08C7DF609355087093BC
:101E500056088093570890935808C3DF6093590839
:101E600070935A0880935B0890935C080895CF9212
:101E7000DF92EF92FF92CF936B017C01AC019B014B
:101E800060914D0870914E0880914F0890915008D4
:101E90000E944A2DC1E0882371F0A701960160914C
:101EA00055087091560880915708909158080E94E3
:101EB0004A2D8111C0E08C2FCF91FF90EF90DF90E1
:101EC000CF9008950F931F938B019C01002711273A
:101ED00020783F770115110520483F4749F4AB01B1
:101EE000BC016F77772781E0452B462B472B09F400
:101EF00080E01F910F910895E5CF4F925F926F920E
:101F00007F928F929F92AF92BF92CF92DF92EF9289
:101F1000FF920F931F93F8944090D4025090D502F3
:101F20006090D6027090D702C090C802D090C902CB
:101F3000E090CA02F090CB02452B09F0A6C09B01AD
:101F4000AC01241935094609570929013A010091C4
:101F5000D0021091D1022091D2023091D3024801D7
:101F60005901840C951CA61CB71C80169106A2066C
:101F7000B306A0F40091CC021091CD022091CE02C4
:101F80003091CF020F5F1F4F2F4F3F4F0093CC0276
:101F90001093CD022093CE023093CF028092D002D4
:101FA0009092D102A092D202B092D3020091CC02C0
:101FB0001091CD022091CE023091CF028092D802B2
:101FC0009092D902A092DA02B092DB020093DC0276
:101FD0001093DD022093DE023093DF026093D4027F
:101FE0007093D5028093D6029093D702A3019201F9
:101FF00060EA76E881E090E00E94D8356C0D7D1DA6
:102000008E1D9F1D6093C8027093C9028093CA02FF
:102010009093CB0200918201109183012091840161
:10202000309185010F3F1F4F2F4F3F4FF1F000912F
:1020300082011091830120918401309185010E3F2E
:102040001F4F2F4F3F4F89F0C0908201D0908301E6
:10205000E0908401F090850121E08C149D04AE0491
:10206000BF0408F420E02093E00278941F910F91C0
:10207000FF90EF90DF90CF90BF90AF909F908F90A8
:102080007F906F905F904F9008954B015C01841892
:102090009508A608B708A3019201261B370B480B29
:1020A000590B6415750586059705E0F082169306B1
:1020B000A406B50640F420E030E0A90181149104A3
:1020C000A104B104A1F460EA76E881E090E00E9406
:1020D000D835A7019601261B370B480B590BCA01AF
:1020E000B901C3CF82169306A406B50660F7A50111
:1020F000940160EA76E881E090E00E94D8356C0DAA
:102100007D1D8E1D9F1DB1CFF8CECF93DF9300D0E4
:1021100000D0CDB7DEB71C821B821A821982BE01A5
:102120006F5F7F4FCE0103960E94D72A69817A8123
:102130008B819C810E940824009761F4BE016F5F2F
:102140007F4FCE0103960E94E32A69817A818B81B9
:102150009C8124D50F900F900F900F90DF91CF911D
:102160000895FF920F931F93CF93DF93082F60E0A2
:1021700070E0CB010E949F32FF24F3940E94F3226F
:10218000EC01892B89F010E0CE3F8FEFD80769F082
:10219000002361F160E070E0CB010E949F3281E09A
:1021A00090E0892B59F322C011E01BD5EC01892B5B
:1021B00021F0CE3F8FEFD80759F711111EC011E063
:1021C000229609F410E00E94A422EC01892B21F050
:1021D000CE3F8FEFD807E1F6111111C011E0CE3FCD
:1021E0008FEFD80709F410E001110BC0CE01DF9189
:1021F000CF911F910F91FF90089511E0E4CF11E06E
:10220000F3CF60E070E0CB010E949F321F25812F49
:1022100090E0C7CFCF93DF931ED6D0E0C0E0892BEC
:1022200071F06AE070E080E090E00E949F3281E00F
:1022300098DF11D62196C03D27E0D20781F710D64E
:102240000E945C241092F8021092F7021092F102A0
:102250001092F2021092F3021092F4021092ED0228
:102260001092EE021092EF021092F0021092E90228
:102270001092EA021092EB021092EC021092E50228
:102280001092E6021092E7021092E8021092E10228
:102290001092E2021092E3021092E4024EEF5FEF1E
:1022A0006FEF7FEF4093820150938301609384012D
:1022B000709385011092E002E8EDF2E028E0DF0182
:1022C0001D922A95E9F71092D4021092D50210922D
:1022D000D6021092D7021092D0021092D102109220
:1022E000D2021092D3021092CC021092CD02109220
:1022F000CE021092CF021092C8021092C902109220
:10230000CA021092CB02DF91CF910895109204037C
:102310001092050310920603109207031092030314
:1023200080910C0390910D0390930203809301031D
:10233000109200031092FF021092FB021092FC0216
:102340001092FD021092FE021092090310920803EF
:1023500090E080E00895CF92DF92EF92FF920F938A
:102360001F93CF938C01892B09F055C020910C034A
:1023700030910D03809101039091020340910C0371
:1023800050910D035093020340930103281739071E
:1023900081F0109200031092FF021092FB02109243
:1023A000FC021092FD021092FE021092090310929C
:1023B000080380910C0390910D03019761F58091C2
:1023C000080390910903892B21F4809186018111E2
:1023D00012C080910803909109030197E1F4809164
:1023E000FB029091FC02A091FD02B091FE020197C8
:1023F000A105B10581F41092FB021092FC0210922B
:10240000FD021092FE021092860182E090E090930D
:1024100009038093080380910C0390910D030197A9
:1024200009F01CC18091220390912303801791072A
:1024300009F014C180911E0390911F03A091200305
:10244000B0912103009709F409C120911D032111C6
:102450000DC040911E0350911F03609120037091A5
:102460002103452B462B472B09F4F8C02091080384
:10247000309109032230310509F0F0C02091FF02AC
:102480002111ECC0FC01C080D180E280F3808091FA
:102490000303882309F4D3C080910F0390911003A4
:1024A000892B09F4FDC020910F033091100381E0C6
:1024B0002230310509F080E020910F0330911003A4
:1024C000C1E02130310549F020910F033091100314
:1024D000C1E02230310509F0C0E0882309F456C07C
:1024E0002091190330911A0340911B0350911C0352
:1024F000C701B6010E940C2F87FD14C0209119035B
:1025000030911A0340911B0350911C036091040306
:102510007091050380910603909107030E944A2D54
:1025200087FD22C02091190330911A0340911B03AB
:1025300050911C03C701B6010E940C2F181634F5E8
:102540002091190330911A0340911B0350911C03F1
:102550006091040370910503809106039091070335
:102560000E944A2D811112C0809111039091120393
:10257000A0911303B0911403892B8A2B8B2B19F490
:1025800081E08093000381E08093FF02CC2309F473
:1025900056C02091190330911A0340911B035091AA
:1025A0001C03C701B6010E944A2D87FF14C0209169
:1025B000190330911A0340911B0350911C03609141
:1025C00004037091050380910603909107030E9414
:1025D0000C2F87FF22C02091190330911A034091DC
:1025E0001B0350911C03C701B6010E944A2D8111A3
:1025F00026C02091190330911A0340911B0350917A
:102600001C0360910403709105038091060390916F
:1026100007030E940C2F181694F4809111039091D7
:102620001203A0911303B0911403892B8A2B8B2BD7
:1026300019F481E08093000381E08093FF0281E040
:102640009091FF02911180E080930303C0920403F4
:10265000D0920503E0920603F0920703012B09F0E4
:1026600067C18091080390910903892BD9F41092D6
:102670000E031092FF0280918601882379F082E098
:1026800090E09093090380930803109286012091B3
:102690000C0330910D0381E0232BE9F080E01BC097
:1026A00081E00ACF1092860180910E03882349F0C1
:1026B00010920003109209031092080310920E0367
:1026C000EDCF80910C0390910D03892BE1F0809167
:1026D000FF021092FF02209108033091090322307B
:1026E000310509F45EC088F42115310509F448C0AC
:1026F0002130310509F4F3C0109200031092FF025B
:1027000010920E0338C081E0E6CF2330310509F482
:10271000B1C02430310581F74091FB025091FC0299
:102720006091FD027091FE02411551056105710530
:1027300061F041505109610971094093FB025093C6
:10274000FC026093FD027093FE024091FB025091E7
:10275000FC026091FD027091FE02452B462B472B37
:10276000D9F420910A0330910B032130310509F08F
:1027700046C01092000310920903109208030CC087
:1027800080918601882341F082E090E090930903D4
:1027900080930803109286011092F9028091000341
:1027A000CEC08823C9F38091110390911203A091A8
:1027B0001303B0911403181619061A061B060CF021
:1027C0007DC080910C0390910D03019709F076C0B4
:1027D0008091110390911203A0911303B0911403FF
:1027E0008093FB029093FC02A093FD02B093FE0243
:1027F00083E090E09093090380930803CDCF40914C
:102800001503509116036091170370911803452B1F
:10281000462B472BA9F0109200038091150390914D
:102820001603A0911703B09118038093FB029093B5
:10283000FC02A093FD02B093FE0281E090E0DACFAB
:10284000882399F08091870190918801A091890156
:10285000B0918A018093FB029093FC02A093FD0249
:10286000B093FE0284E090E0C5CF1092000382E0B6
:1028700090E0C0CF8091FB029091FC02A091FD02FC
:10288000B091FE020097A105B10559F00197A10989
:10289000B1098093FB029093FC02A093FD02B093D8
:1028A000FE028091FB029091FC02A091FD02B0918A
:1028B000FE02892B8A2B8B2B09F06ECF809187012A
:1028C00090918801A0918901B0918A01892B8A2B6E
:1028D0008B2B09F44ECF81E080930003B3CF40915E
:1028E000FB025091FC026091FD027091FE024115C5
:1028F00051056105710561F0415051096109710986
:102900004093FB025093FC026093FD027093FE0221
:102910004091FB025091FC026091FD027091FE0219
:10292000452B462B472B09F037CF8111C7CF9FCFBF
:102930008091F902882309F431CF8091FA02CF9176
:102940001F910F91FF90EF90DF90CF90089510921C
:1029500004031092050310920603109207031092CD
:1029600003031092090310920803109202031092BD
:10297000010310922303109222031092000310927D
:10298000FF021092FB021092FC021092FD021092C4
:10299000FE021092FA021092F90210921E03109297
:1029A0001F03109220031092210310921D03109216
:1029B000190310921A0310921B0310921C0388EE45
:1029C00093E0A0E0B0E08093870190938801A0930A
:1029D0008901B0938A011092150310921603109288
:1029E0001703109218031092110310921203109201
:1029F0001303109214031092100310920F0381E03E
:102A00008093860110920E0310920D0310920C0316
:102A100010920B0310920A0390E080E008958091D9
:102A20000C0390910D03892B19F580918601882361
:102A300051F080910E03811106C081E08093FA026B
:102A40008093F902089520910E033091860181E070
:102A500090E0332311F090E080E030E08223932374
:102A6000892B21F01092FA0281E0EACF1092F9024C
:102A7000089582E090E0FA01918380838FEF9FEFC9
:102A80000895CF93DF93EA01009711F00E94772514
:102A90001982188290E080E0DF91CF910895DB01E8
:102AA000009719F48FEF8C9308952EEF2C930F96C7
:102AB0008F30910508F033C0FC01EF59FA4E0C94A9
:102AC00031368D158B15891587158515811583155B
:102AD0007F157D157B1578157415701576158F1576
:102AE00080E311968C93089589E2FBCF82E2F9CFBF
:102AF00011961C92089583E2F4CF81E2F2CF81E136
:102B0000F0CF87E2EECF8AE2ECCF80E1EACF84E239
:102B1000E8CF88E2E6CF86E2E4CF81E3E2CF80E24D
:102B2000E0CF809130039091310308959093310369
:102B300080933003089580912F03089590912F037F
:102B4000892B80932F030895982F909580912F03C0
:102B5000892380932F03089580912E0308958091F7
:102B60002C0390912D0308956115710559F0FB0117
:102B700030E020E070E060E02417350719F06115BF
:102B8000710511F0CB010895A081B181A817B90793
:102B900009F4BF012F5F3F4F3696EECF809132038D
:102BA00081111CC043D249D2909325038093240302
:102BB0000E94E81E0E94FA1E909329038093280326
:102BC0000E940E220E9415229093270380932603D1
:102BD00081E08093320390E080E0089584EF9FEFDE
:102BE00008958F929F92AF92BF92CF92DF92EF9211
:102BF000FF920F931F93CF93DF93CDB7DEB72A9742
:102C00000FB6F894DEBF0FBECDBF1A8619861886A0
:102C10001F821E821D821C821B821A821982809151
:102C2000320307EF1FEF882309F48BC08E010D5F7D
:102C30001F4F9E012B5F3F4FAE01495F5F4FBE01AB
:102C4000675F7F4F90E080E00E948E238C010097A9
:102C500021F00596029708F0C7C089859A850097EC
:102C600009F4EFC0ED80FE802B813C812E0D3F1DCD
:102C70004F8158854217530708F4E3C0E80EF91E48
:102C8000D7014C912091300330913103232B09F46B
:102C900094C0413F08F069C08CE1840F8D3008F486
:102CA00083C08DE2840F803108F481C088E3840FF3
:102CB0008B3008F47FC09FE4C92E95E1D92EE9E35B
:102CC000F5E16D817E81AE014F5F5F4F89859A8509
:102CD00009955C01C114D104A1F189809A80811405
:102CE000910479F18B819C818815990508F484C041
:102CF00010E000E04B815C8170E060E0C7010E9461
:102D0000593601151105E9F449815A8169857A8599
:102D10008D819E81680F791FC501F6010995E980B3
:102D2000FA800D811E812F81388549855A856FEF84
:102D30007FEF81E090E00E942A238C01892B09F02B
:102D400053C0C8012A960FB6F894DEBF0FBECDBFA0
:102D5000DF91CF911F910F91FF90EF90DF90CF9077
:102D6000BF90AF909F908F90089530E020E0220FA9
:102D7000331FF901EC5DFC4F0190F081E02D30979D
:102D800009F499CF842F90E00995009709F493CF27
:102D9000DC011296ED91FC9113971496CD90DC9086
:102DA000309709F08ECF1EC021E030E0E0CF22E066
:102DB00030E0DDCF23E030E0DACFD12CC12CE1E4EC
:102DC000F5E14F3F09F07DCFE0912403F091250319
:102DD000309719F404EF1FEF0CC08FEF90E00995C6
:102DE0000097B1F604EF1FEF89859A85009709F4E3
:102DF000A8CF0E947725A5CF0E9457248C018985F2
:102E00009A850E94772570E060E0C4010E94F0235B
:102E100098878F830E9427239E838D836F81788577
:102E20006115710559F0C8010E940D279A8789879D
:102E300006EF1FEF892B09F05BCF5CCF08EF1FEF88
:102E400059CF08EF1FEFD0CF209132032111D7C700
:102E500087EF9FEF0895809130039091310308959B
:102E60000E941A220E947421EDD0E4E2F3E088E08F
:102E7000DF011D928A95E9F71092320390E080E01D
:102E8000089586E090E0FA019183808390E080E0ED
:102E9000089547E050E063EA71E066CEDF92EF927A
:102EA000FF920F931F93CF93DF938A01EC01C60F1C
:102EB000D71FE0903603F0903703D9800E943F245B
:102EC000D816190678F082E090E0F80191838083AB
:102ED0008EEF9FEFDF91CF911F910F91FF90EF90B9
:102EE000DF900895EF2841F482E090E0F8019183AB
:102EF000808384EF9FEFEECF89818093350390E04C
:102F00000196F8019183808390E080E0E3CFCF9336
:102F1000DF93EA010E948720882321F00E944C243D
:102F20000E94882082E090E0998388838BEF9FEF56
:102F3000DF91CF910895CF93DF93EB0186E0FB0102
:102F400011928A95E9F78FEF8883F5DD898304DE96
:102F50008A8305DE9D838C83DF91CF910895CF9383
:102F6000DF93EA010E948A20811109C082E090E08B
:102F70009983888385EF9FEFDF91CF91089590E04B
:102F800080E0D4DD81E090E09983888390E080E068
:102F9000F3CF0F931F93CF93DF93EA018C01060FBA
:102FA000171F0E948A2081110BC082E090E0998354
:102FB000888385EF9FEFDF91CF911F910F91089547
:102FC000F8018181823038F082E090E09983888333
:102FD0008EEF9FEFF0CF81E090E0A8DD88E090E0F9
:102FE0009983888390E080E0E6CFCF93DF930097CA
:102FF000D1F4EB01FB01329686E0DF011D928A9548
:10300000E9F78FEF888385E089831A820E943F2445
:103010008B830E943E249D838C8381E08E838F83EB
:10302000DF91CF910895DF91CF9139CD89E497E178
:1030300090933403809333030895809133039091E8
:10304000340308951092340310923303089580914D
:103050003603909137030895411105C0611571053C
:103060008105910561F06093360370933703809377
:1030700038039093390340933A0381E0089580E048
:103080000895FF920F931F93CF93DF938A01EC0172
:10309000C60FD71FF9800E943F24F816190668F062
:1030A00082E090E0F801918380838EEF9FEFDF91C3
:1030B000CF911F910F91FF9008956C817D818E813A
:1030C0009F814B81C9DF811108C082E090E0F80147
:1030D0009183808384EF9FEFEACF898180933503CA
:1030E00090E00196F8019183808390E080E0DFCF4B
:1030F000CF93DF93EA01FC01E60FF71F648175812E
:10310000868197814381A8DF811109C082E090E028
:103110009983888384EF9FEFDF91CF91089581E0B9
:1031200090E09983888390E080E0F6CFE6E3F3E0D7
:103130004081518162817381480F511D611D711D54
:1031400040835183628373830895CF93C091350385
:103150004C2F50E0609136037091370301960E9426
:1031600050368C2FE3DF10923503CF9108950097EE
:1031700099F480913603909137032FEFFB01208360
:10318000892B59F02091350330E02F5F3F4F2417F2
:10319000350719F4CB01D9CF82CC0895009799F463
:1031A00080913603909137032FEFFB012083892B09
:1031B00059F02091350330E02F5F3F4F241735073A
:1031C00019F4CB01C2CF6BCC08952DE0AC01249F44
:1031D000C001259F900D1124E0913F03F091400321
:1031E000E80FF91F238134812250310981E0223018
:1031F000310508F080E008950F931F93CF93DF937C
:103200000091410310914203D0E0C0E080E00C1730
:103210001D0749F491E0811190E0892FDF91CF9152
:103220001F910F9108958111F5CFCE01CEDF219628
:10323000EECFA0913F03B0914003109729F1209168
:1032400041033091420382179307F0F45DE0589FE9
:103250009001599F300D1124A20FB31FED91FC91E5
:103260001197309789F012968C91681768F485E071
:10327000689FE00DF11D112480819181892B21F03F
:1032800081E09281491708F080E00895EF92FF9263
:103290000F931F93CF93DF93EA01FC01E60FF71F13
:1032A00002811381E480F5804F2D6E2DC801C1DFAE
:1032B00081110DC082E090E0998388838EEF9FEFAB
:1032C000DF91CF911F910F91FF90EF900895C8016A
:1032D0007CDF882339F082E090E09983888388EF4F
:1032E0009FEFEECF1093920100939101E092930132
:1032F000F092940181E090E09983888390E080E0EF
:10330000DFCFCF92DF92EF92FF920F931F93CF9375
:10331000DF937A01EC01C60FD71FC0909101D090C6
:1033200092010091930110919401412F602FC601E9
:1033300080DF811110C082E090E0F70191838083EB
:103340008AEF9FEFDF91CF911F910F91FF90EF9048
:10335000DF90CF900895C60138DF882341F082E0E6
:1033600090E0F7019183808388EF9FEFEBCF4C8152
:103370005D816E817F819A8189818F3F41F082E0FA
:1033800090E0F701918380838EEF9FEFDBCFEDE03C
:10339000EC9D9001ED9D300D1124E0913F03F091E3
:1033A0004003E20FF31F0190F081E02D25E0029F22
:1033B000E00DF11D11240190F081E02D27E0129F16
:1033C000E00DF11D1124808391838B8182834383DF
:1033D0005483658376831F5F1093940181E090E0AE
:1033E000F7019183808390E080E0ACCFEF92FF9271
:1033F0000F931F93CF93DF937A018C01060F171F52
:10340000C0913F03D0914003209781F021E030E04C
:10341000F8018281938140914103509142038417C6
:10342000950710F030E020E0232B71F482E090E06B
:10343000F701918380838EEF9FEFDF91CF911F91F2
:103440000F91FF90EF9008954DE0489F9001499FA4
:10345000300D1124C20FD31FB8DE882341F082E063
:1034600090E0F7019183808388EF9FEFE6CFF8012A
:103470002481358120383105C8F687818111D6CF66
:103480004181842F90E08F7E009741F082E090E0B0
:10349000F7019183808386EF9FEFCFCF4F833E83E9
:1034A0002D83268128871986223010F421E0288771
:1034B00021E030E0F70131832083BFCF88E090E046
:1034C000FA019183808390E080E00895FB018FEF03
:1034D000808381E181838FEF9FEF9383828380E8F4
:1034E00090E095838483168217820895FB018FEF05
:1034F000808391E0918382839383848384E38583B3
:1035000081E090E09783868308954BE050E06DEC76
:1035100071E02ACB8F929F92BF92CF92DF92EF926F
:10352000FF920F931F93CF93DF93EA01FC01E60F05
:10353000F71F828193810481B580E0913F03F09170
:103540004003309791F482E090E0998388838CEF78
:103550009FEFDF91CF911F910F91FF90EF90DF9040
:10356000CF90BF909F908F9008952091410330910C
:1035700042038217930738F082E090E099838883B2
:103580008EEF9FEFE6CF2DE0289F6001299FD00CA2
:103590001124EC0DFD1DE080F180E114F10499F29D
:1035A0008281081748F785E0089F80011124E00E0A
:1035B000F11EF70180819181892B29F6BB20E1F270
:1035C000F7E0BF9E40011124C4010E942825F701A5
:1035D00091838083E0913F03F0914003EC0DFD1D4A
:1035E0000190F081E02DE00FF11F80819181009723
:1035F00039F482E090E0998388838DEF9FEFA9CF23
:10360000A40170E060E00E94593680913F039091E0
:103610004003C80ED91EF60180819181080F191F41
:10362000F801B28281E090E09983888390E080E0A5
:1036300090CFAF92BF92CF92DF92FF920F931F93E2
:10364000CF93DF93EA01FC01E60FF71F828193819C
:10365000F48000913F03109140030115110581F49E
:1036600082E090E0998388838CEF9FEFDF91CF9188
:103670001F910F91FF90DF90CF90BF90AF90089572
:1036800020914103309142038217930738F082E082
:1036900090E0998388838EEF9FEFE8CF2FEF2F0D77
:1036A0002C3FA8F72DE0289F6001299FD00C112402
:1036B0000C0D1D1DF80180819181892B89F6F5E0A3
:1036C000FF9E50011124C5010E942825F801918315
:1036D0008083E0913F03F0914003EC0DFD1D80815C
:1036E0009181009739F482E090E0998388838DEF8F
:1036F0009FEFBCCFA50170E060E00E945936E091D9
:103700003F03F0914003EC0DFD1DF28281E090E05B
:103710009983888390E080E0A9CFCF92DF92EF92E7
:10372000FF920F931F93CF93DF93860F971FFC0198
:103730000281138180913F0390914003892B81F096
:1037400082E090E0FA01918380838CEF9FEFDF911C
:10375000CF911F910F91FF90EF90DF90CF90089540
:10376000C801B0E0A0E00197A109B1098F3F9F4FC8
:10377000A105B10540F082E090E0FA0191838083D9
:103780008EEF9FEFE4CF7A018DE0809F6001819FF3
:10379000D00C1124C6010E942825EC01009741F4A9
:1037A00082E090E0F701918380838DEF9FEFCFCF90
:1037B000A60170E060E00E945936D0934003C093A8
:1037C0003F03109342030093410390E080E02FEF0A
:1037D0003FEF8017910741F481E090E0F70191837A
:1037E000808390E080E0B3CF3C872B8701962D96B5
:1037F000F0CFCF92DF92EF92FF920F931F93CF9370
:10380000DF93EC01D12CC12C10E000E0F12CE12C75
:103810008A818017110609F0BCF4AE01455F5F4F45
:1038200063E070E0C7010E94A325009721F02FEF0D
:103830003FEF3C872B87DF91CF911F910F91FF9036
:10384000EF90DF90CF900895E881F981EC0DFD1D98
:1038500023813481C90101960115110519F44F81A5
:1038600044FD049661E070E0BBD7E816F90608F461
:103870007C010F5F1F4F85E0C80ED11CC9CFF894A3
:1038800020913D0330913E0381E02115310509F07F
:1038900080E0232B09F0789408954F925F926F9205
:1038A0007F928F929F92AF92BF92CF92DF92EF92D0
:1038B000FF920F931F93CF93DF933C01660E771E09
:1038C000F301828193814C01B12CA12CC0913F0363
:1038D000D0914003209769F021E030E060914103EE
:1038E000709142038617970710F030E020E0232BF9
:1038F000C1F482E090E0FA01918380838EEF9FEF24
:10390000DF91CF911F910F91FF90EF90DF90CF90BB
:10391000BF90AF909F908F907F906F905F904F90EF
:1039200008958092950190929601A0929701B0928D
:1039300098016DE0689F9001699F300D1124C20FBE
:10394000D31FF3018181833040F082E090E0FA01DF
:103950009183808386EF9FEFD3CF2A012B813C8117
:10396000232BF1F4288139819F8191FF2EC0232BD5
:1039700009F464C0209144039A81422F490F5527CE
:10398000551FBA0141E050E06138710514F050E074
:1039900040E0452B09F452C02A87920F90934403CC
:1039A0008150823008F476C06ADF882309F4C5C0EC
:1039B000F3018181813009F480C008F470C0823045
:1039C00009F4B3C090E080E08EC0232BB9F12091C0
:1039D00043039A81E22FE90FFF27FF1F41E050E0E8
:1039E000ED3FF10514F050E040E0452B39F12A8716
:1039F000920F90934303D4CFA081B181A20FB31F44
:103A000011966C91060F111D0196295F3F4F841787
:103A1000950794F3C114D104C9F48F8184FF16C0B3
:103A20002DD721E0A8014B5F5F4F8417950708F45D
:103A300020E0A7014B5F5F4F21110EC082E090E0B4
:103A4000F2019183808387EF9FEF5ACF17D721E050
:103A5000A8014F5F5F4FE9CF88819981E80EF91E79
:103A6000F70114830383FFEFCF1ADF0A7A018A81FB
:103A70008C151D0409F00CF497CFE881F981EE0D47
:103A8000FF1D428150E030E020E010E000E090E0D7
:103A900080E0BDCFF12CE12CD12CC12CE8CF81E00E
:103AA00090E09C838B83A8DB882309F48BCF81E093
:103AB00090E03CD880E448D885CF8B859C850196E2
:103AC00051F083E090E09C838B8382E090E02ED8DD
:103AD00080E434D877CF89288A288B2879F4CE01DE
:103AE00088DE009771F3789422E030E0F2013183B0
:103AF0002083892BF9F08DEF9FEF02CF2D813E813E
:103B000080918B0190918C0128173907D1F6609133
:103B10008F0170919001AE01455F5F4F80918D01E3
:103B200090918E010E94CC26DCCF82E090E09C83B5
:103B30008B8348CF90E080E0E3CE82E090E0F2011A
:103B40009183808385EF9FEFDBCE8F929F92AF9220
:103B5000BF92CF92DF92EF92FF920F931F93CF937A
:103B6000DF93EA018C01060F171FF8018181833072
:103B700098F082E090E09983888386EF9FEFDF9151
:103B8000CF911F910F91FF90EF90DF90CF90BF905A
:103B9000AF909F908F90089580913F039091400344
:103BA000892B61F081E090E0209141033091420344
:103BB000232B11F490E080E0892B39F482E090E02F
:103BC000998388838EEF9FEFDACF59DE882309F43B
:103BD000D5C0F8018181813009F48BC0E8F08230D2
:103BE00099F42091410330914203E0913F03F09119
:103BF000400390E080E041E050E02817390709F0E9
:103C0000B3C0FADA811117C0789481E090E099830B
:103C1000888390E080E0B3CF20914103309142034C
:103C2000E0913F03F091400390E080E041E050E0FC
:103C30002817390741F481E090E00E94961580E44E
:103C40000E94A415E1CF63817481672B11F0548326
:103C5000438301963D96ECCFE0913F03F091400302
:103C6000E00FF11F238134812230310561F4238577
:103C700034852F3F3F4F39F4C114D104E104F104DE
:103C800009F5CF01B6DDEFEFCE1ADE0AEE0AFE0A25
:103C9000035F1F4F409141035091420370E060E089
:103CA000C416D506E606F70664F50097A9F27894DF
:103CB000892B09F4AACF82E090E0998388838DEF65
:103CC0009FEF5DCF4581568120918B0130918C0112
:103CD00042175307C1F6AF01455F5F4F60918F01F7
:103CE0007091900180918D0190918E010E94CC265F
:103CF000CACF10E000E090E080E0C12CD12C76012A
:103D0000C9CF0097A1F610E000E0812C912C54015E
:103D100083E0E82EF12C1AC0E0913F03F0914003BC
:103D2000E00FF11F83819481029749F4F482E382CA
:103D300082E090E00E94961580E40E949E15FFEFBD
:103D40008F1A9F0AAF0ABF0A035F1F4F809141037A
:103D500090914203B0E0A0E088169906AA06BB063F
:103D6000DCF290E080E0A3CF638174816230710562
:103D700011F45483438301963D963FCF82E090E057
:103D80009983888385EF9FEFFACE0097B9F48FEF80
:103D9000FB01808320919501309196014DE0429F77
:103DA000C001439F900D1124E0913F03F091400327
:103DB000E80FF91F8285FB01818308950C944F154C
:103DC00088E090E0FA019183808390E080E008959C
:103DD00010923E0310923D03EFE3F3E086E0DF0133
:103DE0001D928A95E9F785E89AE190933C038093C8
:103DF0003B03089580913B0390913C0308952F92DB
:103E00003F924F925F926F927F928F929F92AF926A
:103E1000BF92CF92DF92EF92FF920F931F93CF93B7
:103E2000DF93CDB7DEB762970FB6F894DEBF0FBE53
:103E3000CDBFF89420913D0330913E032F5F3F4F5B
:103E400030933E0320933D03789420913F033091BB
:103E500040033B832A83232B09F456C1209141035D
:103E600030914203232B09F44FC14D875E876F8742
:103E7000788B9C878B878A819B819A8B898BD12CAD
:103E8000C12C198210E000E080914103909142031F
:103E9000C816D90618F43981332329F1F894809192
:103EA0003D0390913E03019790933E0380933D0321
:103EB0007894C80162960FB6F894DEBF0FBECDBFEE
:103EC000DF91CF911F910F91FF90EF90DF90CF90F6
:103ED000BF90AF909F908F907F906F905F904F902A
:103EE0003F902F900895B60190E080E028D3888716
:103EF000A989BA8917968C91179781FD8DC0139661
:103F00008D919C911497039709F086C01596ED91B9
:103F1000FC91FF83EE832B853C85E217F30709F0C4
:103F20007BC0712C612C512C412C63C090D39A879B
:103F3000898710E04114510431F4A989BA89179690
:103F40001C9112951170A989BA89ED91FC91E60D29
:103F5000F71D23803480111169C0BFEF2B1A3B0A73
:103F600061E070E0C1013CD45C01A989BA891B966B
:103F70008D919C918F3F980709F45CC0B5014DD796
:103F80004C01009709F4BBC0E985FA85E80FF91FD9
:103F9000A989BA891A968C91840D808311114DC01C
:103FA0008F010F5F1F4F80918B0190918C01AE812B
:103FB000BF81A817B90709F09DC081E090E0B885DE
:103FC000BB2311F090E080E0710109851A8595010D
:103FD000A401B6019195819591093CD38C01892B5F
:103FE00011F0C40184D58FEF481A580A95E0690E84
:103FF000711CA989BA8912968C918415150429F02F
:1040000024F0B981BB2309F491CFE885EE2321F098
:10401000B60190E080E095D2FFEFCF1ADF0A298940
:104020003A89235F3F4F3A8B298B2ECFE5E02E0E46
:10403000311C96CFC5010CD5A3CF8D859E85AF854C
:10404000B88981839283A383B4838F010B5F1F4F51
:10405000AACFE080F180EC81FD81EE0EFF1ED7013A
:1040600013966D917C9114978C918F3FE1F1E1E073
:10407000F0E002C0EE0FFF1F8A95E2F7CF01092E94
:10408000000CAA0BBB0BFB01408151816281738143
:1040900084239523A623B72321E0892B8A2B8B2BFE
:1040A00009F420E0D8012C93D70111968C91080FC8
:1040B000111DEA81FB813196FB83EA832C813D81CE
:1040C000295F3F4F3D832C83A989BA89ED91FC91EB
:1040D000E60DF71D82812A813B818217130611F0BC
:1040E0000CF0B7CF6ACFF701418150E0C8010E94C0
:1040F0005036DACF1D821C821B821A82E5CF31E056
:10410000398306EF1FEF6FCF10E000E0C7CEB7CBCB
:10411000789408952F923F924F925F926F927F9280
:104120009F92AF92BF92CF92DF92EF92FF920F9346
:104130001F93CF93DF9300D000D000D0CDB7DEB770
:1041400000913F03109140039924939401151105A8
:1041500009F43EC0A0904103B090420390DB982E3A
:104160008823B1F11092400310923F031092420352
:104170001092410310924303109244038FEF9FEF7C
:10418000DC018093950190939601A0939701B093E1
:104190009801789475D31E830D83C12CD12C7601A0
:1041A000C501B0E0A0E089839A83AB83BC8322245D
:1041B0002A94322C89819A81AB81BC81C816D90698
:1041C000EA06FB06F4F0C80192D480E40E94A4152C
:1041D000892D26960FB6F894DEBF0FBECDBFDF91B6
:1041E000CF911F910F91FF90EF90DF90CF90BF90F4
:1041F000AF909F907F906F905F904F903F902F90E7
:104200000895C114D104E104F10409F5D8011B9605
:104210008D919C918F3F980709F03FD5F801348626
:104220002386ED81FE8180819181B12CA12C412CCE
:10423000512C3201892B69F5BFEFCB1ADB0AEB0A4F
:10424000FB0AED81FE813D96FE83ED83B3CFAD8108
:10425000BE8115962D913C91169780918B0190917E
:104260008C0128173907E9F61B968D919C91C3D5CF
:10427000D8CF8A0D9B1DDC018D919C91009709F090
:1042800036D4BFEF4B1A5B0A6B0A7B0AE5E0AE0E31
:10429000B11CAD81BE818D919C91119712964C916C
:1042A00050E070E060E044165506660677060CF3B1
:1042B0001ED4C2CFCF93DF93EA012CDF811109C056
:1042C00082E090E09983888385EF9FEFDF91CF9123
:1042D000089581E090E00E94961581E090E0998336
:1042E000888390E080E0F2CF15DF10923C031092BB
:1042F0003B03089542E050E06FE072E00C94B41587
:10430000FF920F931F93CF93DF938A01EC01C60FA7
:10431000D71FF980B4D20897F816190671F068F023
:1043200082E090E0F801918380838EEF9FEFDF9130
:10433000CF911F910F91FF9008956C817D818E81A7
:104340009F814B810E942C18811108C082E090E06F
:10435000F8019183808384EF9FEFE9CFF9800E9479
:1043600027184F2D50E0BE01685F7F4F0E945036E6
:1043700089810E94961881E090E0F8019183808302
:1043800090E080E0D4CFDF92EF92FF920F931F93E3
:10439000CF93DF938A01EC01C60FD71F0E94271825
:1043A0007C01D9806CD2DD2059F0029721E030E009
:1043B000D816190619F010F030E020E0232B79F41C
:1043C00082E090E0F801918380838EEF9FEFDF9190
:1043D000CF911F910F91FF90EF90DF900895EF28FC
:1043E00041F482E090E0F8019183808384EF9FEFB5
:1043F000EECFF9800E9427184F2D50E0BE016E5F6E
:104400007F4F0E94503689810E94961881E090E08B
:10441000F8019183808390E080E0D9CF8AE791E230
:1044200090934603809345030895809145039091AE
:10443000460308950895FC011182108293838283BC
:104440000895DB011D921C92DC011296ED91FC9106
:1044500013977183608313967C936E9312970895DC
:10446000FC0180819181DB018D939C93A081B181BE
:10447000109741F08D919C9191838083892B11F449
:10448000F383E2830895FC0180819181DB018D93A8
:104490009C93892B11F473836283718360830895E5
:1044A000FC0111821082938382830895CF93DF935E
:1044B00000D0CDB7DEB71A821982F894BE016F5FC3
:1044C0007F4F8CE493E0CCDF89819A81009709F0DB
:1044D0000ED389819A81892B89F7BE016F5F7F4F47
:1044E00080E593E0BDDF89819A81009709F0FFD2D2
:1044F00089819A81892B89F778940F900F90DF91A9
:10450000CF910895CF93DF9300D0CDB7DEB71A8255
:104510001982F894BE016F5F7F4F88E493E0A0DFBB
:1045200089819A81009709F0E2D289819A81892B49
:1045300089F778940F900F90DF91CF91089581E0E3
:10454000089590E080E00895EF92FF920F931F93FB
:10455000CF93DF9300D0CDB7DEB71A821982809156
:10456000470307EF1FEF8823A1F1F894BE016F5FA7
:104570007F4F80E593E074DF789489819A81EE24FF
:10458000E394F12C892B51F4F894BE016F5F7F4FB7
:104590008CE493E065DF7894F12CE12C89819A8199
:1045A0000EEF1FEF0097A9F0FC014281538164E0F8
:1045B00070E031D68C01892B61F0F89469817A81A1
:1045C000C701880F991F880F991F845B9C4F5BDF81
:1045D0007894C8010F900F90DF91CF911F910F91A8
:1045E000FF90EF9008950F931F93CF93DF9300D028
:1045F00000D0CDB7DEB71C821B821A82198280914F
:10460000470307EF1FEF8823C1F0AE014D5F5F4FF7
:1046100064E070E0CE01019671D68C01892B69F4BB
:10462000E981FA818B819C8193838283F8946981EB
:104630007A8188E493E005DF7894C8010F900F90A9
:104640000F900F90DF91CF911F910F91089576D722
:10465000049608958F929F92AF92BF92CF92DF926D
:10466000EF92FF920F931F93CF93DF9300D0CDB7BC
:10467000DEB71A821982BC016F5F7F4F633071050C
:1046800098F0AA24AA94BA2CC5010F900F90DF913C
:10469000CF911F910F91FF90EF90DF90CF90BF903F
:1046A000AF909F908F9008954115510551F34801A7
:1046B00059018A016C01CBDF8815990511F7E114C6
:1046C000F104F9F28E0D9F1DA816B906D0F2809163
:1046D00047038823F1F0F894B501645071099701FC
:1046E000AE014F5F5F4FC80104969DD65C01892BD8
:1046F00071F489819A81F80193838283C601880FBE
:10470000991F880F991FB801845B9C4F9ADE78949B
:10471000BBCF87EFA82EBB24BA94B6CFAF92BF927F
:10472000CF92DF92EF92FF920F931F93CF93DF937D
:1047300000D0CDB7DEB71A821982892B09F047C0A5
:104740006115710509F443C04115510509F43FC0D5
:104750002115310509F43BC001151105C1F1809106
:1047600047038823B9F179016A015B01F894BE011E
:104770006F5F7F4F88E493E073DE789489819A813C
:10478000009759F1DC0112966D917C91A801049675
:1047900063D68C01E981FA81D501ED93FC93828186
:1047A00093810496F6019183808351DFD7018D9325
:1047B0009C93C8010F900F90DF91CF911F910F91A3
:1047C000FF90EF90DF90CF90BF90AF9008950FEFE4
:1047D0001FEFEFCF07EF1FEFECCF0EEF1FEFE9CF8B
:1047E000CF93DF93EC01672B71F4B1D68C179D0743
:1047F00060F0A4D62496C80FD91FA3D68C0F9D1F96
:10480000DF91CF910895A0D6F1CF90E080E0F8CF6E
:104810000F931F93CF93DF932091470321112BC058
:104820008B01EC018CE493E006DE80E593E003DE8F
:1048300088E493E000DE86D00097C1F488D670E06B
:1048400060E0CEDF49E951E062E070E07CD10097A2
:1048500069F48091990190919A018BD6B801CE01AB
:10486000C0D4009719F421E020934703DF91CF9142
:104870001F910F91089584EF9FEFF8CF65C667C62B
:10488000CF93DF9367D6EC01892B11F40FDE3ADE6C
:10489000CE01DF91CF910895CF93DF935BD6EC01EA
:1048A000892B09F403DECE01DF91CF910895809129
:1048B000990190919A010895CF93DF9380914703D6
:1048C000D0E0C0E08823D1F059D6EC01892BB1F4B7
:1048D000EDDD18DE8091990190919A01DED1EDD243
:1048E000EC01892B59F48CE493E0DADD80E593E068
:1048F000D7DD88E493E0D4DD10924703CE01DF9149
:10490000CF910895CF93DF930097A1F4DF91CF91DA
:104910000895EC011A821982A883309711F09283CE
:1049200081832F5F3F4FFC01860F971F421753076C
:1049300081F7ECCF30E020E0F0E0E0E0AFEF6F5F38
:104940007F4FF4CFCF92DF92EF92FF920F931F939E
:10495000CF93DF9301E315E00C7F8BE1E82E82E03B
:10496000F82E91E2C92E92E0D92EC8E1D6E0D70107
:104970004D915D917D01F601619171916F011983F6
:1049800008835D834C835B834A837F836E839B01B3
:104990002F5F3F4F249FC001259F900D349F900DA6
:1049A000112499878887C801ADDF88859985080F0C
:1049B000191F2A96F1E2EF16F2E0FF06C1F6E6E5CE
:1049C000F3E088ED91E0DF019C011D922150304021
:1049D000E1F710925503109254031092370610928B
:1049E000360610923B0610923A0610923906109243
:1049F000380610923D0610923C0610923F06109227
:104A00003E06109241061092400610924506109202
:104A100044061092430610924206109247061092E6
:104A200046061092490610924806109215061092FA
:104A30001406109217061092160690E080E0DF919F
:104A4000CF911F910F91FF90EF90DF90CF9008953D
:104A50000097A1F1F8948131910550F480911A06E4
:104A600090911B06892B39F020E090E080E019C07E
:104A70008132910550F48091240690912506892B6E
:104A800039F021E081E090E00CC0813B9105A8F471
:104A900080912E0690912F06892B79F022E082E0FA
:104AA00090E0EAE0E89FD001E99FB00D1124A85EF4
:104AB000B94F8D919C91009721F4789490E080E01B
:104AC0000895E29FF0011124E85EF94FDC01119690
:104AD0004D915C91518340834281538141505109F2
:104AE00053834283FC012193CF017894089500976A
:104AF00049F1DC018E91853041F4E0911606F09188
:104B000017063097F9F0CD0109948530D8F4282F95
:104B100030E0F8948FEF8C938AE0829FF001839FBE
:104B2000F00D1124E85EF94F8081918112969C93DB
:104B30008E931197B183A083828193810196938391
:104B4000828378940895CF92DF92EF92FF920F9331
:104B50001F93CF93DF939C0189E593E08C7F4115F0
:104B6000510509F497C02115310509F493C0611569
:104B7000710509F48FC07A01AB01B9016D5F7F4FF8
:104B80006C7F9B012F5F3F4F249F8001259F100D5D
:104B9000349F100D1124F894209136063091370679
:104BA000232B59F420913E0630913F062115310503
:104BB00069F12017310708F056C020914006309166
:104BC0004106232B91F420913E0630913F06820F3F
:104BD000931F20914806309149062115310509F4AB
:104BE0003FC02017310708F052C07894CFEFDFEFB5
:104BF00086EF9FEFF701D183C083DF91CF911F91A3
:104C00000F91FF90EF90DF90CF900895C3E0D0E038
:104C1000C0905403D090550325ED31E02C193D0987
:104C20002017310710F32AE02C9FF0012D9FF00D83
:104C30001124E85EF94F9183808355834483538325
:104C4000428377836683118700875CDE0C0D1D1D10
:104C50001093550300935403789490E080E0CACFFA
:104C6000C4E0D0E0D5CFC3E0D0E02AE02C9FF00133
:104C70002D9FF00D1124E85EF94F918380835583B9
:104C8000448353834283778366833CDEE5CFC4E06D
:104C9000D0E0EBCF8FEF9FEFB0CFFF920F931F933A
:104CA000CF93DF939C01235031092230310508F066
:104CB00070C0EC01F89484E09AE09C9FD0019D9F25
:104CC000B00D1124A05EB94F082F10E0909FF001A5
:104CD000919FF00D1124E85EF94F20813181C017BA
:104CE000D10714F1FF24F394232B41F52AE0209FF0
:104CF000F001219FF00D1124E85EF94F80915403DB
:104D00009091550340855185841B950B90935503D5
:104D1000809354032C9FF0012D9FF00D1124E85E29
:104D2000F94F118610861CC0232B39F42D913C912C
:104D30001197232BA9F48150C7CFF12C8AE08C9FC7
:104D4000F0018D9FF00D1124E85EF94F40855185EB
:104D500070E060E0808191810E945936F110C6CFE9
:104D60008AE08C9FF0018D9FF00D1124E85EF94FD1
:104D70001182108215821482138212821782168287
:104D8000789490E080E0DF91CF911F910F91FF9098
:104D900008958FEF9FEFF7CF4115510549F1009727
:104DA00039F16115710521F1F894209114063091C3
:104DB0001506232BB9F42091160630911706232BE4
:104DC00089F49093150680931406709317066093E8
:104DD0001606789425E030E090E080E0FA01318317
:104DE0002083089578942FEF3FEF86EF9FEFF6CF63
:104DF0008FEF9FEF0895059769F4F89410921506C8
:104E0000109214061092170610921606789490E0ED
:104E100080E008958FEF9FEF08956115710519F4F3
:104E2000F0E0E0E011C08530910581F4E0911406D6
:104E3000F09115063097A1F3CB01019609950097E3
:104E400079F3FC0185E08193CF0108959C01235003
:104E500031092230310520F72AE0289FD001299F0F
:104E6000B00D1124A85EB94F2D913C911197232BC1
:104E7000B9F216962D913C9117972617370780F2B5
:104E8000F89412962D913C9113972115310529F034
:104E9000ED91FC911197309711F47894C1CF418135
:104EA000528111965C934E932150310913963C9395
:104EB0002E93129781937894C7CFEEE2F5E086EEB9
:104EC000DF011D928A95E9F7E6E5F3E088ED91E0D0
:104ED000DF019C011D9221503040E1F710925503F3
:104EE00010925403E8E1F6E082E3DF011D928A9517
:104EF000E9F7E4E1F6E084E0DF011D928A95E9F745
:104F000090E080E00895CF93DF93C0919B01D09112
:104F10009C01CF3FDC0759F4C3D390939C0180934D
:104F20009B0197FF09C0D0939C01C0939B0184EF24
:104F30009FEFDF91CF91089590E080E0FACF82302B
:104F4000910528F480934A0690E080E008958FEF61
:104F50009FEF08954F925F926F927F92AF92BF92B0
:104F6000CF92DF92EF92FF920F931F93CF93DF9335
:104F700000D0CDB7DEB71A821982009709F479C044
:104F80006115710509F475C020919B0130919C0158
:104F900007EF1FEF2F3F3F4F09F445C06B015C0146
:104FA000412C512C3201F12CE12C10E000E09E014B
:104FB0002F5F3F4FA6014E195F09B5016E0D7F1D92
:104FC00080919B0190919C01CFD3892B09F04BC01C
:104FD00089819A81009741F4E114F10429F4209128
:104FE0004A06222309F442C0E80EF91EEC14FD041F
:104FF000D0F480E8481684E858068EE1680671040B
:1050000020F560E070E0CB010E949F322AE0420E62
:10501000511C611C711C0A3F4FEF140721F0043F23
:105020008FEF1807A1F4C8010F900F90DF91CF9177
:105030001F910F91FF90EF90DF90CF90BF90AF90B6
:105040007F906F905F904F90089501EF1FEF81E088
:1050500090E0013F2FEF120711F090E080E0892BE4
:1050600009F4A5CFE0CF04EF1FEFDDCF0AEF1FEF6C
:10507000DACF0FEF1FEFD7CF4F925F926F927F92F1
:10508000AF92BF92CF92DF92EF92FF920F931F9356
:10509000CF93DF9300D0CDB7DEB71A821982009785
:1050A00009F479C06115710509F475C020919B015F
:1050B00030919C0107EF1FEF2F3F3F4F09F445C090
:1050C0006B015C01412C512C3201F12CE12C10E0E0
:1050D00000E09E012F5F3F4FA6014E195F09B50109
:1050E0006E0D7F1D80919B0190919C01F0D2892BC8
:1050F00009F04BC089819A81009741F4E114F104D1
:1051000029F420914A06222309F442C0E80EF91E30
:10511000EC14FD04D0F480E8481686E9580688E9C6
:105120006806710420F560E070E0CB010E949F32B8
:105130002AE0420E511C611C711C0E3F4FEF1407F8
:1051400021F0043F8FEF1807A1F4C8010F900F90D2
:10515000DF91CF911F910F91FF90EF90DF90CF9053
:10516000BF90AF907F906F905F904F90089502EF47
:105170001FEF81E090E0023F2FEF120711F090E067
:1051800080E0892B09F4A5CFE0CF04EF1FEFDDCF3E
:105190000EEF1FEFDACF0FEF1FEFD7CF80919B01FC
:1051A00090919C018F3F980749F072D2892B49F466
:1051B0008FEF9FEF90939C0180939B0190E080E0A4
:1051C000089584EF9FEF0895FC01680F791F90E028
:1051D00080E0E617F70709F408952191820F911DE9
:1051E000F8CF20914B06211113C08DDE009791F46A
:1051F000109251061092500610924F0610924E06D1
:1052000010924D0610924C0621E020934B06089513
:1052100084EF9FEF0895AF92BF92CF92DF92EF920B
:10522000FF920F931F93CF93DF93009709F460C011
:105230004630510508F45CC020914B06C7EFDFEF04
:10524000222309F449C08C01060F171FF801C08002
:10525000D180C114D10409F44EC096012A5F3F4F9A
:105260004217530708F447C07C0180915006909183
:10527000510693838283B6016C5F7F4F5801A60E5F
:10528000B71EC801A1DFF5019183808364E070E05F
:10529000C80160DEEC01892BF9F481E090E04FDE7B
:1052A000B601C801049656DEEC01892B91F462E048
:1052B00070E0C5014FDEEC01892B59F4C70117DC02
:1052C00080915006909151060196909351068093DB
:1052D000500690E080E033DECE01DF91CF911F9148
:1052E0000F91FF90EF90DF90CF90BF90AF90089517
:1052F000CFEFDFEFF1CFC9EFDFEFEECF6F927F920D
:105300008F929F92AF92BF92CF92DF92EF92FF92D5
:105310000F931F93CF93DF9300D000D0CDB7DEB7AC
:10532000009709F47AC04115510509F476C020911F
:105330004B0607EF1FEF222309F44DC03A017B0112
:105340005C0164E070E0CE01019696DE8C01892B51
:1053500009F041C009811A810115110509F45AC0EB
:10536000480186E0880E911CB701680D791D809177
:105370009D0190919E0151DD6C01009709F450C090
:10538000A70170E060E00E94593689819A81AB8163
:10539000BC81EC0CFD1CF70181939193A193B19317
:1053A0007F0181E090E0CBDDB801C70165DE892B8C
:1053B00031F562E070E0C701800F911F5DDE8C0166
:1053C000892BE9F490E080E0BADDF501D182C0825A
:1053D000F30191828082C8010F900F900F900F907F
:1053E000DF91CF911F910F91FF90EF90DF90CF90C1
:1053F000BF90AF909F908F907F906F90089590E0B6
:1054000080E09DDDF50111821082F301118210828E
:10541000C6016DDB09EF1FEFDECF0FEF1FEFDBCF14
:1054200006EF1FEFD8CF0097A1F04115510589F085
:105430002115310571F0F90136966E177F0748F096
:10544000DC012D933C93DA01ED93FC9390E080E036
:1054500008958FEF9FEF0895AF92BF92CF92DF92A2
:10546000EF92FF920F931F93CF93DF93009709F46E
:105470005FC04115510509F45BC06530710508F442
:1054800057C020914B06C7EFDFEF222391F1DC01DB
:10549000CD90DC9011971296ED91FC9196012A5FC8
:1054A0003F4FC9EFDFEF2617370719F5C0914C06BC
:1054B000D0914D06209749F521E030E030934D061C
:1054C00020934C067A018C01F0934F06E0934E0630
:1054D0005601B4E0AB0EB11CB50176DE0A0D1B1D02
:1054E000F801208131818217930729F5D701CD92E8
:1054F000DC92CE01DF91CF911F910F91FF90EF9041
:10550000DF90CF90BF90AF90089520914E063091DC
:105510004F062F5F3F4FCCEFDFEFE217F30790F21C
:10552000CBEFDFEF2E173F0768F2D0E0C0E0CACF25
:10553000CFEFDFEFDECFC3EFDFEFDBCF84E090E034
:10554000089582E090E008958CEF9FEF089580E247
:1055500090E00895109251061092500610924F0656
:1055600010924E0610924D0610924C0690E080E08C
:10557000089590939E0180939D01089580914B061C
:10558000882391F00BDE009789F410925106109257
:10559000500610924F0610924E0610924D06109231
:1055A0004C0610924B06089590E080E00895009715
:1055B00049F06115710531F0FC0111821082FB0187
:1055C000118210820895F3CF40E855E260E070E068
:1055D00090E080E000C026E086E896E00C948734F6
:1055E0001F920F920FB60F9211242F933F934F9358
:1055F0005F936F937F938F939F93AF93BF93EF933B
:10560000FF9386E08093B200809152068F5F809373
:105610005206893119F410925206BAD0FF91EF91D7
:10562000BF91AF919F918F917F916F915F914F91BA
:105630003F912F910F900FBE0F901F90189586E00D
:105640008093B200A0E7B0E08C918E7F8C93E0EB6A
:10565000F0E080818C7F8083E1EBF0E08081877FC8
:10566000808380818660808380818E7F80838C911F
:1056700081608C930895E0E7F0E0808190819E7FC7
:1056800090838170089581E00895109253060895E3
:1056900068EE73E080E090E052D790E080E00895FB
:1056A00026E040E050E16EE070E086E896E00E947F
:1056B000873486E896E00E94BD33892B29F086E87E
:1056C00096E00E94D733F5CF90E080E00895CF9226
:1056D000DF92EF92FF920F931F93CF93DF936B01B3
:1056E0007A01E9011982188286E896E00E94BD33AA
:1056F000892B79F18601CC24C39482E0D82E809145
:105700005306811111C086E896E00E94D7330297B4
:10571000B1F7C0925306F801D1928F018881998127
:10572000019699838883EBCF888199818E159F0597
:1057300080F486E896E00E94D7338F3F9807A1F364
:10574000F80181938F0188819981019699838883DB
:10575000EBCF90E080E0DF91CF911F910F91FF9010
:10576000EF90DF90CF9008950F931F93CF93DF9327
:10577000EA01890186E896E00E946B35F801D18341
:10578000C08390E080E0DF91CF911F910F91089549
:10579000CF92DF92EF92FF928091540691E0980FA2
:1057A00090935406882369F021E030E03093560648
:1057B0002093550680935406FF90EF90DF90CF9092
:1057C00008957894E091A101F091A201C28CD38C4C
:1057D000E48CF58C0E94F903B701A60190E080E00B
:1057E0000E943E02F894809154068150E3CFCF93FB
:1057F000DF9310925E0810925D08D7D6E5DEC09167
:10580000A101D091A201198218826FEF7FEFCB0125
:105810000E94B80270E060E090E080E00E944301E6
:105820000097A9F50E94FE0BF8947894BE016E5D76
:105830007F4F8A819B810E944601892B59F46FEF2B
:105840007FEFCB010E94D3010E94B202882311F0A6
:1058500081E08EA3F894F3DE0E94B502811104C0AA
:105860000E94B20291E0811190E090935D087894DB
:105870000E949115EC01789480915D0881110AC015
:105880000E940F0E0E949902F89490E080E0DF9150
:10589000CF9108950E9496020E94B50291E0811175
:1058A00006C00E94B20291E0811101C090E0909385
:1058B0005E0890915E0881E0911180E080935D0820
:1058C00080915E088111D7DE219729F40E949115FD
:1058D000892B09F4DADE0E949115EC01D4DECCCFDD
:1058E0005058BB27AA270ED046C237D230F03CD240
:1058F00020F031F49F3F11F41EF407C20EF4E0953E
:10590000E7FBD4C1E92F48D280F3BA1762077307C7
:105910008407950718F071F49EF577C20EF4E095B0
:105920000B2EBA2FA02D0B01B90190010C01CA0159
:10593000A0011124FF27591B99F0593F50F4503E04
:1059400068F11A16F040A22F232F342F4427585FF6
:10595000F3CF469537952795A795F0405395C9F70E
:105960007EF41F16BA0B620B730B840BBAF09150C6
:10597000A1F0FF0FBB1F661F771F881FC2F70EC065
:10598000BA0F621F731F841F48F487957795679538
:10599000B795F7959E3F08F0B3CF9395880F08F021
:1059A0009927EE0F979587950895D7D158F080E8FD
:1059B00091E009F49EEFD8D128F040E851E059F485
:1059C0005EEF09C0A2C121C2E92FE078E5D168F3FA
:1059D000092E052AC1F3261737074807590738F05B
:1059E0000E2E07F8E02569F0E025E0640AC0EF63B9
:1059F00007F8009407FADB01B9019D01DC01CA0137
:105A0000AD01EF935AD0B7D10AD05F91552331F051
:105A10002BED3FE049E450FD49EC63CF0895DF935F
:105A2000DD27B92FBF7740E85FE316161706480752
:105A30005B0710F4D92FF4D19F938F937F936F93CB
:105A40009BD2E8E6F0E064D196D12F913F914F913F
:105A50005F91F9D1DD2349F09058A2EA2AED3FE0A9
:105A600049EC5FE3D0785D274DDFDF9184C1B6D18B
:105A700080F09F3740F491110EF4C8C160E070E0EF
:105A800080E89FE3089526F01B16611D711D811D9E
:105A900013C12DC1E7D008F481E008950CD06BC18B
:105AA00063D140F05AD130F021F45F3F19F0FEC0CD
:105AB0005111ACC12AC170D198F39923C9F3552370
:105AC000B1F3951B550BBB27AA27621773078407F1
:105AD00038F09F5F5F4F220F331F441FAA1FA9F3A7
