:1000000074C000009AC0000098C0000096C00000B4
:1000100094C0000092C0000090C000008EC000009C
:100020008CC000000C94EC0888C000000C94DE0C1E
:1000300084C0000082C0000080C000007EC00000BC
:100040000C94480F7AC000000C94A4110C94D611A3
:1000500074C0000072C0000070C000006EC00000DC
:100060006CC000006AC00000084AD73B3BCE016E5E
:1000700084BCBFFDC12F3D6C74319ABD56833DDAFF
:100080003D00C77F11BED9E4BB4C3E916BAAAABE0E
:10009000000000803F000000000800020100000393
:1000A0000407000000000000000001020408102006
:1000B00040800102040810200102040810200404FA
:1000C0000404040404040202020202020303030300
:1000D000030300000000250028002B0000000000A2
:1000E000240027002A00B800FB1111241FBECFEF07
:1000F000D8E0DEBFCDBF11E0A0E0B1E0ECE1F6E278
:1001000002C005900D92AC39B107D9F723E0ACE9F4
:10011000B1E001C01D92A332B207E1F710E0C5E7DC
:10012000D0E004C02197FE010E940613C337D10717
:10013000C9F70E9451090C940C1362CF70E023E0C0
:10014000829FC001112484569E4F0C942F0E70E0A4
:1001500023E0829FC001112484569E4F0C946B0EA5
:1001600023E0829FC001112484569E4F0C94E50E1B
:100170008CE991E00E94970D8FE991E00C94970D26
:10018000CF93DF93882349F0EB0181500E94CD0F7C
:1001900099838883DF91CF910895FB0111821082AA
:1001A000F9CF0F931F938B019C0183E03695279520
:1001B000179507958A95D1F70E551E4F462F477014
:1001C00021E030E0F90102C0EE0FFF1F4A95E2F78F
:1001D000AF01F80120812423CB010196211102C037
:1001E00090E080E01F910F9108950F931F938B0172
:1001F0009C0183E036952795179507958A95D1F749
:10020000677081E090E001C0880F6A95EAF7F80115
:10021000EE55FE4F2081452B31F48095822380835B
:100220001F910F910895822BFACFCF92DF92EF9218
:10023000FF92CF93DF936B017C0160E08EE0C816E4
:10024000D104E104F10490F48EE08C0D0E941110B1
:10025000E6012196AE01C701B601C7DFCE01DF91ED
:10026000CF91FF90EF90DF90CF9008958C2DEECF3F
:10027000882341F08150682F70E090E080E050E0EA
:1002800040E0B3CF0895CF93DF93FC0181E08087F6
:10029000EB0188819981AA81BB8184839583A683A0
:1002A000B78381E090E0A0E0B0E080839183A283F7
:1002B000B38369E080E0DF91CF9140CFCF92DF92AE
:1002C000EF92FF920F931F93CF93DF938C01EB017B
:1002D000FA01C080D180E280F380A70196016C8191
:1002E0007D818E819F810E94620A882321F0CC82C9
:1002F000DD82EE82FF8280E033DF092E000CAA0B44
:10030000BB0BF80180839183A283B383DF91CF91EC
:100310001F910F91FF90EF90DF90CF9008958F92F3
:100320009F92AF92BF92CF92DF92EF92FF92CF93C4
:10033000DF936B017C0149015A0141D7882399F071
:100340006091150370911603809117039091180323
:10035000DF91CF91FF90EF90DF90CF90BF90AF9063
:100360009F908F900895C501B40129D78111E8CFDE
:10037000C701B601E1D68823D9F1C501B401DCD6A5
:100380008823B1F120E030E0A901C701B6010E9445
:10039000240CCFEFDFEF181614F4C1E0D0E020E01A
:1003A00030E0A901C501B4010E94240C6FEF7FEF7A
:1003B000181614F461E070E0072E000C880B990BFE
:1003C0000E94FC0A6B017C01BE01DD0F880B990BBA
:1003D0000E94FC0AA7019601DF91CF91FF90EF9058
:1003E000DF90CF90BF90AF909F908F900C94FC09BE
:1003F00020E030E0A901C501B4010E94620A811128
:1004000016C020E030E0A901C701B6010E94240C0B
:10041000181694F020E030E0A901C701B6010E944F
:10042000620A87FD0EC060E070E0CB0191CFA501AC
:100430009401C701B601D0CF6BED7FE089EC9FE35B
:1004400087CF6BED7FE089EC9FEB82CFCF92DF927D
:10045000EF92FF926B017C019F7720E030E040E853
:1004600059E50E94620A87FF2AC020E030E040E0A0
:100470005FE3C701B6010E94240C87FD0DC020E098
:1004800030E040E05FE3C701B60143D7FF90EF9053
:10049000DF90CF900C94370B20E030E040E05FEB32
:1004A000C701B6010E94240C181684F420E030E045
:1004B000A901C701B6010E942F0C6B017C01C70185
:1004C000B601FF90EF90DF90CF90089520E030E0EC
:1004D00040E05FE3C701B6011BD7FF90EF90DF90CC
:1004E000CF90DDC74F925F926F927F928F929F92D3
:1004F000AF92BF92CF92DF92EF92FF92CF93DF93B2
:10050000CDB7DEB72E970FB6F894DEBF0FBECDBFC6
:10051000C0900801D0900901E0900A01F0900B0111
:10052000A70196016091C1027091C2028091C3023D
:100530009091C402C7D7882341F0C092C102D092E3
:10054000C202E092C302F092C40260E170E080E077
:1005500090E027DE9093C0028093BF0243E050E01A
:10056000BE01695F7F4F0CDEC0901001D090110179
:10057000E0901201F0901301A70196016091A90289
:100580007091AA028091AB029091AC029BD7882314
:1005900041F0C092A902D092AA02E092AB02F0927E
:1005A000AC0261E170E080E090E0FBDD9093A80296
:1005B0008093A70243E050E0BE01675F7F4FE0DD1C
:1005C0008F81988529853A858217930710F09A873D
:1005D0008987C0900C01D0900D01E0900E01F09041
:1005E0000F01A70196016091B5027091B60280914A
:1005F000B7029091B80266D7882341F0C092B50245
:10060000D092B602E092B702F092B8026FE070E0CA
:1006100080E090E0C6DD9093B4028093B30243E0A3
:1006200050E0BE01695F7F4FABDDC0901801D090F4
:100630001901E0901A01F0901B01A7019601609149
:1006400091027091920280919302909194023AD714
:10065000882341F0C0929102D0929202E0929302DC
:10066000F09294026EE070E080E090E09ADD90936A
:10067000900280938F0243E050E0BE016F5F7F4F96
:100680007FDDC0901401D0901501E0901601F0902C
:100690001701A701960160919D0270919E028091C1
:1006A0009F029091A0020ED7882341F0C0929D0234
:1006B000D0929E02E0929F02F092A00262E170E06E
:1006C00080E090E06EDD90939C0280939B0243E07B
:1006D00050E0BE016D5F7F4F53DDC0901C01D09094
:1006E0001D01E0901E01F0901F01A701960160918D
:1006F0008502709186028091870290918802E2D6ED
:10070000882341F0C0928502D0928602E09287024F
:10071000F092880263E170E080E090E042DD909327
:1007200084028093830243E050E0BE016B5F7F4F01
:1007300027DDA0906C01B0906D01A985BA85950167
:100740000E94ED1257D720E030E040E054E30E94D1
:100750002F0C2B013C0189819A812F813885281724
:10076000390708F49C01D5010E94ED1243D720E01F
:1007700030E040E054E30E942F0C6B017C018D813E
:100780009E812B813C812817390708F49C01D501F3
:100790000E94ED122FD720E030E040E054E30E94A9
:1007A0002F0C4B015C01A3019201C301B2010E9415
:1007B0002F0C6B877C878D879E87A7019601C701C9
:1007C000B6010E942F0C9B01AC016B857C858D8549
:1007D0009E859FD56B877C878D879E87A501940119
:1007E000C501B4010E942F0C9B01AC016B857C8577
:1007F0008D859E858ED50E94960C6B877C878D8714
:100800009E872DE032E348E45EE3C701B6015AD685
:10081000181644F0C0905801D0905901E0905A0148
:10082000F0905B012DE032E348E45EE3C501B401E2
:1008300049D6181644F080905C0190905D01A0901C
:100840005E01B0905F012DE032E348E45EE3C30156
:10085000B20138D6181644F040905401509055011A
:1008600060905601709057012B853C854D855E85C3
:10087000C301B2012BD62B013C01A5019401C70194
:10088000B60146D52B853C854D855E851FD6A301D7
:10089000920145DD2091600130916101409162013A
:1008A00050916301DCD72091CD023091CE0240916E
:1008B000CF025091D0022DD56B017C019F7720E0B3
:1008C00030E044EB52E4C0D7181624F542E851E07A
:1008D0006CEE72E085E093E0F1DC20E030E0A9010D
:1008E000C701B601B1D718160CF023C160910503FA
:1008F0007091060380910703909108037DD62091A3
:10090000000130910101409102015091030100D595
:100910006B017C0189859A854E9708F040C18F80D4
:100920009884A980BA80B40190E080E063D62B015E
:100930003C01B50190E080E05DD69B01AC01C301B4
:10094000B20182D787FD08C19A868986AB80BC80B8
:100950008D809E80B50190E080E04CD62B013C015B
:10096000B40190E080E046D69B01AC01C301B20126
:100970006BD787FD540189859A85889708F01AC13D
:1009800089E2A816B10408F41BC146E751E06AEDFC
:1009900072E08DEF92E092DC6091FD027091FE02B8
:1009A0008091FF029091000327D620912801309179
:1009B000290140912A0150912B01AAD44B015C01DD
:1009C0008092F5029092F602A092F702B092F8029D
:1009D0006B817C8190E080E00DD6209124013091E4
:1009E0002501409126015091270193D42B013C0110
:1009F0006D817E8190E080E0FDD59B01AC01C3015B
:100A0000B20160D587FF19C020E030E04CEA52E423
:100A1000C501B40119D787FDA2C080917A019091D8
:100A20007B01A0917C01B0917D018093F5029093B0
:100A3000F602A093F702B093F8028090F50290902E
:100A4000F602A090F702B090F80220E030E048EC07
:100A500052E4B401C50136D5811102C046015701E7
:100A600020E030E044EB52E4B401C50152D46B0104
:100A70007C0120E030E0A90125D587FD99C020E068
:100A800030E044E353E4C701B601DED664EB181648
:100A9000C4F0C701B601DADC6B017C0120E030E074
:100AA00040E853E40FD56FEF87FF0BC020E030E044
:100AB000A901C701B601C8D687FD7AC0C701B60132
:100AC0006DD580E044DB4EE751E063EE72E081E0FB
:100AD00093E0F4DB609101037091020380910303C2
:100AE0009091040389D5209168013091690140916A
:100AF0006A0150916B010CD46093CD027093CE02C9
:100B00008093CF029093D0022E960FB6F894DEBF5A
:100B10000FBECDBFDF91CF91FF90EF90DF90CF90D0
:100B2000BF90AF909F908F907F906F905F904F900D
:100B300008956091050370910603809107039091D9
:100B400008035AD520910401309105014091060116
:100B500050910701DED3DCCEBA86A986F7CEA50177
:100B60009401609120017091210180912201909166
:100B70002301CFD36093F5027093F6028093F702BE
:100B80009093F8025ACF2091300130913101409179
:100B9000320150913301C501B401BAD3EBCF80903B
:100BA000500190905101A0905201B09053014DCF4F
:100BB00060E087CF88E2A816B10408F03ECF3AC0C3
:100BC00088E2A816B10409F438CF809040019090D3
:100BD0004101A0904201B0904301A50194016091B0
:100BE000C9027091CA028091CB029091CC026AD462
:100BF000882341F08092C9029092CA02A092CB024F
:100C0000B092CC0281E0ACDABC01990F880B990B51
:100C1000F3D4209148013091490140914A0150910B
:100C20004B0176D36093F5027093F6028093F7023E
:100C30009093F80289859A85899708F4FECE4EE64E
:100C400051E061ED72E089EF92E038DB6091F902EA
:100C50007091FA028091FB029091FC02CDD4209118
:100C600038013091390140913A0150913B0150D304
:100C70004B015C018092F5029092F602A092F7027D
:100C8000B092F8026F81788590E080E0B3D4209133
:100C9000340130913501409136015091370139D3FB
:100CA0002B013C0169817A8190E080E0A3D49B0113
:100CB000AC01C301B20106D487FFBFCE20E030E013
:100CC0004CEA52ECC501B401FDD318160CF45BCF0D
:100CD0008091720190917301A0917401B09175019E
:100CE000A4CE9F92AF92BF92CF92DF92EF92FF92EB
:100CF0000F931F93CF93DF9384E090E0E6D1CDE78D
:100D0000D2E000E011E08091640190916501A09132
:100D10006601B09167018093CD029093CE02A093BB
:100D2000CF02B093D00262E871E08CEE92E0ABDAD1
:100D300066E771E08AED92E0A6DA80914001909139
:100D40004101A0914201B09143018093C902909367
:100D5000CA02A093CB02B093CC02C12CD12C760155
:100D6000C394C092C502D092C602E092C702F0922C
:100D7000C80262E081E0E2D96EE671E081ED92E0C6
:100D800082DA80914C0190914D01A0914E01B09179
:100D90004F018093F5029093F602A093F702B0936F
:100DA000F8021CAEF80180859185A285B3858093F9
:100DB000C1029093C202A093C302B093C4029EEBFF
:100DC000A92E92E0B92EF5011082C092BA02D092FB
:100DD000BB02E092BC02F092BD0260E170E080E0F4
:100DE00090E023DA9093C0028093BF0299249394F9
:100DF000F50190821CA2F80180899189A289B389AA
:100E00008CA79DA7AEA7BFA719A6CDA2DEA2EFA271
:100E1000F8A661E170E080E090E007DA9BA78AA77E
:100E200099A618AAF80184859585A685B78588AF07
:100E300099AFAAAFBBAF1DAAC9AADAAAEBAAFCAAAE
:100E40006FE070E080E090E0F0D99FAB8EAB9DAAA0
:100E50001C86F801808D918DA28DB38D8C8B9D8B1E
:100E6000AE8BBF8B198ACD86DE86EF86F88A6EE060
:100E700070E080E090E0D9D99B8B8A8B998A188E9C
:100E8000F80184899589A689B78988A399A3AAA31B
:100E9000BBA31D8EC98EDA8EEB8EFC8E62E170E0F4
:100EA00080E090E0C2D99F8F8E8F9D8E1882F801CE
:100EB000848D958DA68DB78D88879987AA87BB87E6
:100EC0001D82C982DA82EB82FC8263E170E080E0FD
:100ED00090E0ABD99F838E839D8269E080E02ED91C
:100EE0006EE771E083EE92E0DF91CF911F910F9159
:100EF000FF90EF90DF90CF90BF90AF909F90C3C9CD
:100F00008091B90281111DC081E08093B902809166
:100F1000BA029091BB02A091BC02B091BD020197B0
:100F2000A105B10571F48091BE02882351F060E102
:100F300070E080E090E035D99093C0028093BF02CA
:100F400097D98091A10281111DC081E08093A102F7
:100F50008091A2029091A302A091A402B091A50257
:100F60000197A105B10571F48091A602882351F083
:100F700061E170E080E090E014D99093A802809342
:100F8000A70276D98091AD0281111DC081E08093C6
:100F9000AD028091AE029091AF02A091B002B091EB
:100FA000B1020197A105B10571F48091B2028823C5
:100FB00051F06FE070E080E090E0F3D89093B402DD
:100FC0008093B30255D98091890281111DC081E0BF
:100FD0008093890280918A0290918B02A0918C0269
:100FE000B0918D020197A105B10571F480918E0237
:100FF000882351F06EE070E080E090E0D2D89093CA
:10100000900280938F0234D98091950281111DC086
:1010100081E0809395028091960290919702A09131
:101020009802B09199020197A105B10571F48091E0
:101030009A02882351F062E170E080E090E0B1D83C
:1010400090939C0280939B0213D980917D02811121
:101050001DC081E080937D0280917E0290917F028D
:10106000A0918002B09181020197A105B10571F4B0
:1010700080918202882351F063E170E080E090E08B
:1010800090D89093840280938302F2C8089560E020
:1010900070E080E89FE7089560E070E080E89FE7F7
:1010A000089560E070E080E89FEF089560E070E0F0
:1010B00080E89FEF089560E070E080EC9FEF089576
:1010C00060E070E080EC9FEF0895F5DF609315031A
:1010D000709316038093170390931803F1DF6093C6
:1010E000090370930A0380930B0390930C03CFDFE3
:1010F000609311037093120380931303909314036E
:10110000CBDF60930D0370930E0380930F039093D6
:101110001003C7DF6093190370931A0380931B03B6
:1011200090931C03C3DF60931D0370931E03809391
:101130001F03909320030895CF92DF92EF92FF92C6
:10114000CF936B017C01AC019B0160911103709105
:1011500012038091130390911403B4D1C1E088234A
:1011600069F0A70196016091190370911A038091AB
:101170001B0390911C03A6D18111C0E08C2FCF914D
:10118000FF90EF90DF90CF9008950F931F938B0106
:101190009C010027112720783F7701151105204871
:1011A0003F4749F4AB01BC016F77772781E0452BBE
:1011B000462B472B09F480E01F910F910895E5CF4E
:1011C00040E855E260E070E090E080E000C026E09A
:1011D00080EE91E00C9444111F920F920FB60F9283
:1011E00011242F933F934F935F936F937F938F932C
:1011F0009F93AF93BF93EF93FF9386E08093B200EA
:101200008091AD018F5F8093AD01893119F4109207
:10121000AD012FD0FF91EF91BF91AF919F918F9131
:101220007F916F915F914F913F912F910F900FBEE2
:101230000F901F90189586E08093B200A0E7B0E071
:101240008C918E7F8C93E0EBF0E080818C7F8083AB
:10125000E1EBF0E08081877F8083808186608083FE
:1012600080818E7F80838C9181608C93089581E052
:1012700008958091AE0191E0980F9093AE0188237C
:1012800049F021E030E03093B0012093AF0180932A
:10129000AE010895789426D9F8948091AE018150DA
:1012A000F6CFCF93DF9310922203109221033AD608
:1012B00087DFC0918701D09188011982188211DDE2
:1012C000F894B9DF2881398181E0232B09F080E08F
:1012D000809321037894789480912103811107C031
:1012E0000FDEF89490E080E0DF91CF91089528819F
:1012F000398181E0232B09F480E0809322039091CF
:10130000220381E0911180E080932103B0DFE4CFDC
:101310005058BB27AA270ED046C237D230F03CD255
:1013200020F031F49F3F11F41EF407C20EF4E09553
:10133000E7FBD4C1E92F48D280F3BA1762077307DD
:101340008407950718F071F49EF577C20EF4E095C6
:101350000B2EBA2FA02D0B01B90190010C01CA016F
:10136000A0011124FF27591B99F0593F50F4503E1A
:1013700068F11A16F040A22F232F342F4427585F0C
:10138000F3CF469537952795A795F0405395C9F724
:101390007EF41F16BA0B620B730B840BBAF09150DC
:1013A000A1F0FF0FBB1F661F771F881FC2F70EC07B
:1013B000BA0F621F731F841F48F48795779567954E
:1013C000B795F7959E3F08F0B3CF9395880F08F037
:1013D0009927EE0F979587950895D7D158F080E813
:1013E00091E009F49EEFD8D128F040E851E059F49B
:1013F0005EEF09C0A2C121C2E92FE078E5D168F310
:10140000092E052AC1F3261737074807590738F070
:101410000E2E07F8E02569F0E025E0640AC0EF63CE
:1014200007F8009407FADB01B9019D01DC01CA014C
:10143000AD01EF935AD0B7D10AD05F91552331F067
:101440002BED3FE049E450FD49EC63CF0895DF9375
:10145000DD27B92FBF7740E85FE316161706480768
:101460005B0710F4D92FF4D19F938F937F936F93E1
:101470009BD2E8E6F0E064D196D12F913F914F9155
:101480005F91F9D1DD2349F09058A2EA2AED3FE0BF
:1014900049EC5FE3D0785D274DDFDF9184C1B6D1A1
:1014A00080F09F3740F491110EF4C8C160E070E005
:1014B00080E89FE3089526F01B16611D711D811DB4
:1014C00013C12DC1E7D008F481E008950CD06BC1A1
:1014D00063D140F05AD130F021F45F3F19F0FEC0E3
:1014E0005111ACC12AC170D198F39923C9F3552386
:1014F000B1F3951B550BBB27AA2762177307840707
:1015000038F09F5F5F4F220F331F441FAA1FA9F3BC
:1015100033D00E2E3AF0E0E830D091505040E695AE
:10152000001CCAF729D0FE2F27D0660F771F881F0F
:10153000BB1F261737074807AB07B0E809F0BB0BFE
:10154000802DBF01FF2793585F4F2AF09E3F510522
:1015500068F0C4C073C15F3FECF3983EDCF386953E
:1015600077956795B795F7959F5FC9F7880F911D98
:101570009695879597F90895E1E0660F771F881F84
:10158000BB1F621773078407BA0720F0621B730B37
:10159000840BBA0BEE1F88F7E09508951DD188F0F3
:1015A0009F5790F0B92F9927B751A0F0D1F0660F4F
:1015B000771F881F991F1AF0BA95C9F712C0B1306A
:1015C00081F03BD1B1E0089538C1672F782F88278B
:1015D000B85F39F0B93FCCF3869577956795B395A9
:1015E000D9F73EF490958095709561957F4F8F4F18
:1015F0009F4F0895E89409C097FB3EF4909580951D
:10160000709561957F4F8F4F9F4F9923A9F0F92FC8
:1016100096E9BB279395F695879577956795B79546
:10162000F111F8CFFAF4BB0F11F460FF1BC06F5F2C
:101630007F4F8F4F9F4F16C0882311F096E911C03E
:10164000772321F09EE8872F762F05C0662371F05F
:1016500096E8862F70E060E02AF09A95660F771F73
:10166000881FDAF7880F9695879597F90895CED059
:1016700080F09F3740F491110EF0E0C060E070E020
:1016800080E89FEB089526F41B16611D711D811DD6
:101690002BC045C0990F0008550FAA0BE0E8FEEFDC
:1016A00016161706E807F907C0F012161306E40726
:1016B000F50798F0621B730B840B950B39F40A261F
:1016C00061F0232B242B252B21F408950A2609F4FD
:1016D000A140A6958FEF811D811D089597F99F6701
:1016E00080E870E060E00895882371F4772321F0AA
:1016F0009850872B762F07C0662311F499270DC0C9
:101700009051862B70E060E02AF09A95660F771F63
:10171000881FDAF7880F9695879597F908959F3F68
:1017200031F0915020F4879577956795B795880F9C
:10173000911D9695879597F908959FEF80EC0895F0
:10174000DF93CF931F930F93FF92EF92DF927B0172
:101750008C01689405C0DA2EEF018DD0FE01E8946B
:10176000A5912591359145915591AEF3EF01E2DDBB
:10177000FE019701A801DA9479F7DF90EF90FF90CE
:101780000F911F91CF91DF91089500240A941616AE
:10179000170618060906089500240A94121613065F
:1017A000140605060895092E0394000C11F48823ED
:1017B00052F0BB0F40F4BF2B11F460FF04C06F5F09
:1017C0007F4F8F4F9F4F089557FD9058440F551FDF
:1017D00059F05F3F71F04795880F97FB991F61F0B3
:1017E0009F3F79F087950895121613061406551F2A
:1017F000F2CF4695F1DF08C0161617061806991F96
:10180000F1CF86957105610508940895E5DFA0F094
:10181000BEE7B91788F4BB279F3860F41616B11DD0
:10182000672F782F8827985FF7CF869577956795EC
:10183000B11D93959639C8F30895E894BB276627A0
:101840007727CB0197F9089525DF08F48FEF0895E6
:101850009B01AC0160E070E080E89FE337CE0BD0E5
:10186000A2CF93DF28F098DF18F0952309F036CF48
:1018700064CF1124E3CFA8DFA0F3959FD1F3950F98
:1018800050E0551F629FF001729FBB27F00DB11D04
:10189000639FAA27F00DB11DAA1F649F6627B00D94
:1018A000A11D661F829F2227B00DA11D621F739F7D
:1018B000B00DA11D621F839FA00D611D221F749F8B
:1018C0003327A00D611D231F849F600D211D822FD2
:1018D000762F6A2F11249F5750408AF0E1F0882319
:1018E0004AF0EE0FFF1FBB1F661F771F881F915026
:1018F0005040A9F79E3F510570F0F0CE9FCF5F3F5B
:10190000ECF3983EDCF3869577956795B795F79558
:10191000E7959F5FC1F7FE2B880F911D96958795E0
:1019200097F9089511F40EF408CFF9CE55DFD0F3EE
:101930009923D9F3CEF39F57550B87FF38D0002456
:10194000A0E640EA900180585695979528F4805C6F
:10195000660F771F881F20F026173707480730F4D7
:10196000621B730B840B202931294A2BA6951794EF
:101970000794202531254A2758F7660F771F881FBF
:1019800020F026173707480730F4620B730B840BDF
:10199000200D311D411DA09581F7B901842F91586B
:1019A000880F9695879508959B01AC0158CF91506B
:1019B0005040660F771F881FD2F708951F920F922D
:1019C0000FB60F9211242F933F934F935F936F9312
:1019D0007F938F939F93AF93BF93EF93FF938091E8
:1019E000B20187FF27C01092850010928400809179
:1019F000B2018F5F8093B2018091B201082E000C7A
:101A0000990B2091B1012817190629F024F0809133
:101A1000B2018C30D4F180918400909185000496BD
:101A200080349C4908F479C08091840090918500AD
:101A3000049675C08091B201082E000C990B20917C
:101A4000B1012817190699F294F2E091B2018E2F94
:101A5000EE0F990BFC01EE0FFF1FE80FF91FED547D
:101A6000FE4F808186FFC3CFE091B2018E2FEE0F33
:101A7000990BFC01EE0FFF1FE80FF91FED54FE4F0D
:101A8000808160E08F7309D3B2CF209184003091C0
:101A90008500E091B2018E2FEE0F990BFC01EE0F45
:101AA000FF1FE80FF91FED54FE4F81819281820FD5
:101AB000931F9093890080938800E091B2018E2F4C
:101AC000EE0F990BFC01EE0FFF1FE80FF91FED540D
:101AD000FE4F808186FF10C0E091B2018E2FEE0F85
:101AE000990BFC01EE0FFF1FE80FF91FED54FE4F9D
:101AF000808161E08F73D1D2FF91EF91BF91AF915F
:101B00009F918F917F916F915F914F913F912F9115
:101B10000F900FBE0F901F90189580E49CE9909352
:101B20008900809388008FEF8093B201E5CFFC019C
:101B30009091B1019C3098F481E0890F8093B101BC
:101B40009083892F90E0FC01EE0FFF1FE80FF91F33
:101B5000ED54FE4F88EB9BE09283818308958FEFD5
:101B600080830895DF92EF92FF920F931F93CF939C
:101B7000DF93EC01D62E7A01890188818C3008F040
:101B800065C061E08D2D4DD28881282F30E0F901AC
:101B9000EE0FFF1FE20FF31FED54FE4F9D2D9F73BD
:101BA0006081607C692B608320E232E02E193F095E
:101BB00037FF02C02D5F3F4F359527953595279507
:101BC000298320E639E0201B310B37FF02C02D5F4F
:101BD0003F4F35952795359527952A832CE0622F21
:101BE000B2D4829FB001112430E020E0AB01420F5B
:101BF000531FFA01EE0FFF1FE40FF51FED54FE4FC8
:101C0000908196FD16C02F5F3F4F2C30310571F744
:101C100081110FC01092800082E0809381001092A9
:101C2000850010928400B19A80916F008260809349
:101C30006F00E8818E2F90E0FC01EE0FFF1FE80F90
:101C4000F91FED54FE4F8081806480838881DF918D
:101C5000CF911F910F91FF90EF90DF90089520E6B4
:101C600039E040E252E07ECFDC01EC91EC3090F5BF
:101C700011968C91119728E830E0281B310987FDD7
:101C80003395220F331F220F331F6217730784F01F
:101C900012968C9128E532E0281B310987FD339597
:101CA000220F331F220F331F621773070CF49B019F
:101CB00022503109220F331F4FB7F8948E2F90E036
:101CC000FC01EE0FFF1FE80FF91FED54FE4F3283AA
:101CD00021834FBF0895AF92BF92CF92DF92EF92D0
:101CE000FF920F931F93CF93DF93EC01603282E05A
:101CF00078070CF03DC0653B710514F064EB70E0B3
:101D0000898148E8A42EB12CA81AB10887FDB394A4
:101D1000AA0CBB1CAA0CBB1C0B2C000CCC08DD08AD
:101D200077FF02C070E060E0072E000C880B990B73
:101D30002A8108E512E0021B110927FD1395000F07
:101D4000111F000F111F012E000C220B330B3F93AC
:101D50002F931F930F9314EBE12EF12C00E010E072
:101D600020E030E0A901A1D30F900F900F900F90C9
:101D7000CE01DF91CF911F910F91FF90EF90DF90F7
:101D8000CF90BF90AF9070CFFC0180818F3FD1F09A
:101D900090E0FC01EE0FFF1FE80FF91FED54FE4F1E
:101DA0008181928133E0880F991F3A95E1F7B0E085
:101DB000A0E044E0B595A795979587954A95D1F70A
:101DC0000296089590E080E008954F925F926F929E
:101DD0007F92AF92BF92CF92DF92EF92FF920F93DA
:101DE0001F93CF93DF9300D000D0CDB7DEB7FC01B7
:101DF000428128E532E0241B310947FD3395220F4B
:101E0000331F220F331FA901330F660B770B498352
:101E10005A836B837C83218158E8452E512C421ACA
:101E2000510827FD5394440C551C440C551C052C9B
:101E3000000C66087708A8DF0196BC01990F880B93
:101E4000990B1F921F921F9224EB2F93A12CB12C60
:101E50006501E980FA800B811C81A301920125D3E1
:101E60000F900F900F900F90CB010F900F900F904D
:101E70000F90DF91CF911F910F91FF90EF90DF9026
:101E8000CF90BF90AF907F906F905F904F900895EC
:101E90001F920F920FB60F9211242F933F938F939F
:101EA0009F93AF93BF938091D8019091D901A09156
:101EB000DA01B091DB013091D70123E0230F2D37F8
:101EC00058F50196A11DB11D2093D7018093D8012B
:101ED0009093D901A093DA01B093DB018091DC01EA
:101EE0009091DD01A091DE01B091DF010196A11D6D
:101EF000B11D8093DC019093DD01A093DE01B093CE
:101F0000DF01BF91AF919F918F913F912F910F90E2
:101F10000FBE0F901F90189526E8230F0296A11D63
:101F2000B11DD2CF789484B5826084BD84B58160C0
:101F300084BD85B5826085BD85B5816085BDEEE6D1
:101F4000F0E0808181608083E1E8F0E010828081B0
:101F500082608083808181608083E0E8F0E080811E
:101F600081608083E1EBF0E0808184608083E0EB3E
:101F7000F0E0808181608083EAE7F0E08081846026
:101F80008083808182608083808181608083808182
:101F9000806880831092C10008958E3008F08E50C2
:101FA0002091860190E4299F900111248770822B53
:101FB00080937C0080917A00806480937A00809185
:101FC0007A0086FDFCCF8091780090917900089589
:101FD000833081F028F4813099F08230A9F008959F
:101FE0008730A9F08830C9F08430B1F48091800046
:101FF0008F7D03C0809180008F778093800008954B
:1020000084B58F7784BD089584B58F7DFBCF809193
:10201000B0008F778093B00008958091B0008F7DDD
:10202000F9CFCF93DF9390E0FC01E655FF4F249169
:1020300082549F4FFC0184918823C9F090E0880F5F
:10204000991FFC01E452FF4FA591B491FC01EE529F
:10205000FF4FC591D49161110DC09FB7F8948C9139
:10206000209582238C938881282328839FBFDF912A
:10207000CF910895623051F49FB7F8943C91822F2C
:10208000809583238C93E8812E2BEFCF8FB7F89424
:10209000EC912E2B2C938FBFEACF1F93CF93DF931E
:1020A000282F30E0F901EA56FF4F8491F901E655F7
:1020B000FF4FD491F901E254FF4FC491CC23A1F01A
:1020C000162F811185DFEC2FF0E0EE0FFF1FEE528F
:1020D000FF4FA591B4918FB7F894EC91111108C0FE
:1020E000D095DE23DC938FBFDF91CF911F910895B0
:1020F000DE2BF8CFFC01918D228D892F90E0805C42
:102100009F4F821B91098F7399270895FC01918D30
:10211000828D981731F0828DE80FF11D858D90E04A
:1021200008958FEF9FEF0895FC01918D828D981790
:1021300061F0A28DAE0FBF2FB11D5D968C91928D77
:102140009F5F9F73928F90E008958FEF9FEF0895A8
:10215000FC01538D448D252F30E0842F90E0821BAD
:10216000930B541710F0CF96089501970895FC0132
:10217000A48DA80FB92FB11DA35ABF4F2C91848DE8
:1021800090E001968F739927848FA689B7892C9345
:10219000A089B1898C91837080648C93938D848D98
:1021A000981306C00288F389E02D80818F7D80839B
:1021B0000895CF93DF93EC01888D8823B1F0AA892D
:1021C000BB89E889F9898C9185FD03C0808186FDF2
:1021D0000CC00FB607FCF7CF8C9185FFF2CF808142
:1021E00085FFEDCFCE01C3DFEACFDF91CF91089518
:1021F000EF92FF920F931F93CF93DF93EC0181E057
:10220000888F9B8D8C8D98131AC0E889F9898081FD
:1022100085FF15C09FB7F894EE89FF896083E88930
:10222000F98980818370806480839FBF81E090E022
:10223000DF91CF911F910F91FF90EF900895F62EAF
:102240000B8D10E00F5F1F4F0F731127E02E8C8D49
:102250008E110BC00FB607FCFACFE889F98980818F
:1022600085FFF5CFCE0183DFF2CFEB8DEC0FFD2F95
:10227000F11DE35AFF4FF0829FB7F8940B8FEA8964
:10228000FB8980818062D0CFCF92DF92EF92FF9264
:102290001F93CF93DF93EC016A017B01122FE88932
:1022A000F98982E08083C11481EED806E104F1044B
:1022B00099F060E079E08DE390E0A70196014FD1BD
:1022C0002150310941095109569547953795279570
:1022D000211580E1380790F0E889F989108260E8DB
:1022E00074E88EE190E0A701960139D121503109BF
:1022F000410951095695479537952795EC85FD85F8
:102300003083EE85FF852083188EEC89FD8910834C
:10231000EA89FB89808180618083EA89FB898081E9
:1023200088608083EA89FB89808180688083EA896C
:10233000FB8980818F7D8083DF91CF911F91FF90FA
:10234000EF90DF90CF9008951F920F920FB60F92EB
:1023500011242F938F939F93EF93FF93E091F001BC
:10236000F091F1018081E091F601F091F70182FD99
:102370001BC090818091F9018F5F8F732091FA01CA
:10238000821741F0E091F901F0E0E052FE4F958FA5
:102390008093F901FF91EF919F918F912F910F9071
:1023A0000FBE0F901F9018958081F4CF1F920F924F
:1023B0000FB60F9211242F933F934F935F936F9318
:1023C0007F938F939F93AF93BF93EF93FF9380EE91
:1023D00091E0CDDEFF91EF91BF91AF919F918F91F1
:1023E0007F916F915F914F913F912F910F900FBE11
:1023F0000F901F901895E0EEF1E01382128288EEA4
:1024000093E0A0E0B0E084839583A683B7838DE852
:1024100091E09183808385EC90E09587848784ECBC
:1024200090E09787868780EC90E0918B808B81ECA1
:1024300090E0938B828B82EC90E0958B848B86EC82
:1024400090E0978B868B118E128E138E148E0895CA
:10245000AF92BF92CF92DF92EF92FF920F931F93B2
:10246000CF93DF936C017B018B01040F151FEB01F0
:102470005E01AE18BF08C017D10759F06991D601A7
:10248000ED91FC910190F081E02DC6010995892B19
:1024900079F7C501DF91CF911F910F91FF90EF90D8
:1024A000DF90CF90BF90AF9008954F925F926F9260
:1024B0007F92AF92BF92CF92DF92EF92FF920F93F3
:1024C0001F93CF93DF93CDB7DEB729013A019B016C
:1024D000AC01241935094609570989899A89AB89BC
:1024E000BC89BC01CD016A197B098C099D091CD0EE
:1024F000A8019701241935094609570952D0CA0184
:10250000B9016A0D7B1D8C1D9D1DDF91CF911F911F
:102510000F91FF90EF90DF90CF90BF90AF907F90A2
:102520006F905F904F900895DB018F939F9364D0DD
:10253000BF91AF91A29F800D911DA39F900DB29F5F
:10254000900D11240895991B79E004C0991F9617E6
:1025500008F0961B881F7A95C9F780950895A1E227
:102560001A2EAA1BBB1BFD010DC0AA1FBB1FEE1F0D
:10257000FF1FA217B307E407F50720F0A21BB30B58
:10258000E40BF50B661F771F881F991F1A9469F7D4
:1025900060957095809590959B01AC01BD01CF0130
:1025A0000895052E97FB16F400940FD057FD05D023
:1025B000D6DF07FC02D046F408C050954095309510
:1025C00021953F4F4F4F5F4F08959095809570959F
:1025D00061957F4F8F4F9F4F0895A29FB001B39F8A
:1025E000C001A39F700D811D1124911DB29F700D1C
:1025F000811D1124911D0895F0DFA59F900DB49FBA
:10260000900DA49F800D911D11240895EE0FFF1FC2
:0C2610000590F491E02D0994F894FFCFA0
:10261C000000A0400000A040000080BF000080BF70
:10262C00000080BF000080BF000080BF000080BFA2
:10263C000000A0400000C8420000B44200000000AE
:10264C000000A0400000C8420000B442000000009E
:10265C00CDCCCC3D000000000000B44200000000D6
:10266C000000C84200000000000000000000000054
:10267C00E12E6542000000000000B44228A0CDCC41
:10268C00CC3D0000B442CDCCCC3D0000B4C2CDCC8E
:10269C00CC3DCDCCCC3D01AB0100000000F81028A6
:0C26AC0012A810D9107A109410861000AB
:00000001FF
