:1000000075C000009BC0000099C0000097C00000B0
:1000100095C0000093C0000091C000008FC0000098
:100020008DC000000C94580B89C000000C94990FEF
:1000300085C0000083C0000081C000007FC00000B8
:100040000C9403127BC000000C946A140C949C1452
:1000500075C0000073C0000071C000006FC00000D8
:100060006DC000006BC00000084AD73B3BCE016E5C
:1000700084BCBFFDC12F3D6C74319ABD56833DDAFF
:100080003D00C77F11BED9E4BB4C3E916BAAAABE0E
:10009000000000803F000000000800020100000393
:1000A0000407000000000000000001020408102006
:1000B00040800102040810200102040810200404FA
:1000C0000404040404040202020202020303030300
:1000D000030300000000250028002B0000000000A2
:1000E000240027002A00B9003A0BC11411241FBEB6
:1000F000CFEFD8E0DEBFCDBF11E0A0E0B1E0EAE88D
:10010000FCE202C005900D92AA3DB107D9F723E0A9
:10011000AAEDB1E001C01D92AD37B207E1F710E0E2
:10012000C6E7D0E004C02197FE010E943D16C33708
:10013000D107C9F70E94BE0B0C94431661CF70E043
:1001400023E0829FC001112486529E4F0C94EA1036
:1001500070E023E0829FC001112486529E4F0C94D0
:10016000261123E0829FC001112486529E4F0C94D9
:10017000A0118AED91E00C945210CF93DF93882365
:1001800049F0EB0181500E94931299838883DF919B
:10019000CF910895FB0111821082F9CF0F931F9325
:1001A0008B019C0183E036952795179507958A95D5
:1001B000D1F703521E4F462F477021E030E0F9017E
:1001C00002C0EE0FFF1F4A95E2F7AF01F801208150
:1001D0002423CB010196211102C090E080E01F9101
:1001E0000F9108950F931F938B019C0183E0369527
:1001F0002795179507958A95D1F7677081E090E06C
:1002000001C0880F6A95EAF7F801E352FE4F20819A
:10021000452B31F48095822380831F910F9108959F
:10022000822BFACFCF92DF92EF92FF92CF93DF93A0
:100230006B017C0160E08EE0C816D104E104F1049A
:1002400090F48EE08C0D0E94D712E6012196AE014B
:10025000C701B601C7DFCE01DF91CF91FF90EF90CC
:10026000DF90CF9008958C2DEECF882341F0815000
:10027000682F70E090E080E050E040E0B3CF089558
:10028000CF93DF93FC0181E08087EB018881998126
:10029000AA81BB8184839583A683B78381E090E0A4
:1002A000A0E0B0E080839183A283B38369E080E023
:1002B000DF91CF9144CFCF92DF92EF92FF920F93D5
:1002C0001F93CF93DF938C01EB01FA01C080D180A3
:1002D000E280F380A70196016C817D818E819F81F0
:1002E0000E94CF0C882321F0CC82DD82EE82FF8237
:1002F00080E037DF092E000CAA0BBB0BF8018083CE
:100300009183A283B383DF91CF911F910F91FF90CF
:10031000EF90DF90CF9008958F929F92AF92BF920F
:10032000CF92DF92EF92FF92CF93DF936B017C012C
:1003300049015A01D4D7882399F060916F037091D5
:1003400070038091710390917203DF91CF91FF90C0
:10035000EF90DF90CF90BF90AF909F908F900895D7
:10036000C501B401BCD78111E8CFC701B60174D76C
:100370008823D9F1C501B4016FD78823B1F120E0FA
:1003800030E0A901C701B6010E94DF0ECFEFDFEF19
:10039000181614F4C1E0D0E020E030E0A901C50156
:1003A000B4010E94DF0E6FEF7FEF181614F461E0C6
:1003B00070E0072E000C880B990B0E94690D6B01F1
:1003C0007C01BE01DD0F880B990B0E94690DA7010E
:1003D0009601DF91CF91FF90EF90DF90CF90BF908B
:1003E000AF909F908F900C94690C20E030E0A901B1
:1003F000C501B4010E94CF0C811116C020E030E08D
:10040000A901C701B6010E94DF0E181694F020E082
:1004100030E0A901C701B6010E94CF0C87FD0EC0D4
:1004200060E070E0CB0191CFA5019401C701B60156
:10043000D0CF6BED7FE089EC9FE387CF6BED7FE062
:1004400089EC9FEB82CFCF92DF92EF92FF926B010C
:100450007C019F7720E030E040E859E50E94CF0C16
:1004600087FF2BC020E030E040E05FE3C701B6012A
:100470000E94DF0E87FD0EC020E030E040E05FE329
:10048000C701B6010E94F60BFF90EF90DF90CF906E
:100490000C94A40D20E030E040E05FEBC701B60112
:1004A0000E94DF0E181684F420E030E0A901C70195
:1004B000B6010E94EA0E6B017C01C701B601FF90F4
:1004C000EF90DF90CF90089520E030E040E05FE3D0
:1004D000C701B6010E94F50BFF90EF90DF90CF901F
:1004E0000C94BC0C4F925F926F927F928F929F926E
:1004F000AF92BF92CF92DF92EF92FF92CF93DF93B2
:10050000CDB7DEB762970FB6F894DEBF0FBECDBF92
:10051000C0904C01D0904D01E0904E01F0904F0101
:10052000A701960160912E0370912F0380913003F3
:10053000909131030E94CF0C882341F0C0922E038A
:10054000D0922F03E0923003F092310360E170E02B
:1005500080E090E023DE90932D0380932C0343E012
:1005600050E0BE01695F7F4F08DEC0905401D0901B
:100570005501E0905601F0905701A7019601609156
:1005800016037091170380911803909119030E942C
:10059000CF0C882341F0C0921603D0921703E0924B
:1005A0001803F092190361E170E080E090E0F6DD5D
:1005B000909315038093140343E050E0BE01675FFE
:1005C0007F4FDBDD8F81988529853A8582179307D8
:1005D00010F09A878987C0905001D0905101E09027
:1005E0005201F0905301A70196016091220370918E
:1005F000230380912403909125030E94CF0C88232C
:1006000041F0C0922203D0922303E0922403F0929F
:1006100025036FE070E080E090E0C0DD909321035F
:100620008093200343E050E0BE01695F7F4FA5DD6A
:10063000C0905C01D0905D01E0905E01F0905F01A0
:10064000A70196016091FE027091FF028091000364
:10065000909101030E94CF0C882341F0C092FE02CA
:10066000D092FF02E0920003F09201036EE070E08E
:1006700080E090E093DD9093FD028093FC0243E0E4
:1006800050E0BE016F5F7F4F78DDC0905801D09081
:100690005901E0905A01F0905B01A7019601609129
:1006A0000A0370910B0380910C0390910D030E943B
:1006B000CF0C882341F0C0920A03D0920B03E09242
:1006C0000C03F0920D0362E170E080E090E066DDE3
:1006D000909309038093080343E050E0BE016D5FEF
:1006E0007F4F4BDDC0906001D0906101E0906201CE
:1006F000F0906301A70196016091F2027091F302FC
:100700008091F4029091F5020E94CF0C882341F071
:10071000C092F202D092F302E092F402F092F5025B
:1007200063E170E080E090E039DD9093F102809326
:10073000F00243E050E0BE016B5F7F4F1EDDA090F2
:100740007C01B0907D01A985BA8595010E9424168F
:100750000E94670D20E030E040E054E30E94EA0E82
:100760002B013C0189819A812F813885281739070F
:1007700008F49C01D5010E9424160E94670D20E018
:1007800030E040E054E30E94EA0E6B017C018D8171
:100790009E812B813C812817390708F49C01D501E3
:1007A0000E9424160E94670D20E030E040E054E3F0
:1007B0000E94EA0E4B015C01A3019201C301B20148
:1007C0000E94EA0E6B877C878D879E87A701960122
:1007D000C701B6010E94EA0E9B01AC016B857C85C6
:1007E0008D859E850E94F60B6B877C878D879E8703
:1007F000A5019401C501B4010E94EA0E9B01AC0160
:100800006B857C858D859E85F1D70E94510F6B8706
:100810007C878D879E872DE032E348E45EE3C70145
:10082000B6010E94CF0C181644F0C0906801D09019
:100830006901E0906A01F0906B012DE032E348E439
:100840005EE3C501B4010E94CF0C181644F08090FD
:100850006C0190906D01A0906E01B0906F012DE041
:1008600032E348E45EE3C301B2010E94CF0C1816E4
:1008700044F0409064015090650160906601709072
:1008800067012B853C854D855E85C301B2010E94C1
:10089000D30C2B013C01A5019401C701B601A5D7DA
:1008A0002B853C854D855E850E94D30CA30192016A
:1008B00033DD2091700130917101409172015091AE
:1008C00073010E94EA0E4B015C012091740130918A
:1008D0007501409176015091770188D7B4DD6B01A5
:1008E0007C01FDD4811183C1C701B601B5D481114A
:1008F0007EC120E030E040E857E4C701B6010E9425
:10090000BE0D6B017C0120E030E0A9010E94CF0CFC
:1009100087FF70C1C701B60190580E943B0D7195C9
:10092000619571097093D5026093D40262E373E01C
:1009300084ED92E0D5D442E951E061E573E082EEC6
:1009400092E0B9DC8091E2029091E302A091E4028E
:10095000B091E5028B879C87AD87BE878091780137
:1009600090917901A0917A01B0917B018F87988B4A
:10097000A98BBA8B89859A85889708F02DC26F80DC
:10098000788449805A80B30190E080E00E94670D2E
:100990006B017C01B20190E080E00E94670D9B0139
:1009A000AC01C701B6010E94DF0E87FD27C17A8620
:1009B00069866B807C804D805E80B30190E080E032
:1009C0000E94670D6B017C01B20190E080E00E9403
:1009D000670D9B01AC01C701B6010E94DF0E87FDC8
:1009E000320189859A858832910508F045C1A9E2CE
:1009F0006A16710408F440C14AE851E068E473E003
:100A00008EED92E058DC6091DE027091DF02809101
:100A1000E0029091E1020E94690D20911C01309149
:100A20001D0140911E0150911F01DFD66B017C0119
:100A30006B817C8190E080E00E94670D209118011D
:100A40003091190140911A0150911B01CFD62B0111
:100A50003C016D817E8190E080E00E94670D9B01EA
:100A6000AC01C301B2019BD787FFDFC020E030E0BB
:100A70004CEA52E4C701B6010E94DF0E87FDC1C0F7
:100A800080918E0190918F01A0919001B091910180
:100A90008093D0029093D102A093D202B093D3025C
:100AA000C090D002D090D102E090D202F090D30258
:100AB00020E030E048EC52E4C701B60170D7811164
:100AC00047C06B857C858D859E850E94690D2F852D
:100AD000388949895A8989D6A501940187D66B013D
:100AE0007C019F7720E030E044EB52E40E94DF0E6F
:100AF000181674F546E951E06AE573E086EE92E077
:100B0000DADB20E030E0A901C701B6010E94DF0E68
:100B100018160CF06AC16091E6027091E7028091AC
:100B2000E8029091E902D5D720910801309109019E
:100B300040910A0150910B0158D62091000130914B
:100B4000010140910201509103014FD66B017C01DC
:100B500020E030E044EB52E4C701B60147D66B0118
:100B60007C0120E030E0A9011AD787FD5AC120E0BE
:100B700030E044E353E4C701B6010E94DF0E64EBAA
:100B80001816CCF0C701B6015EDC6B017C0120E0D9
:100B900030E040E853E403D76FEF87FF0CC020E05C
:100BA00030E0A901C701B6010E94DF0E87FD39C1FF
:100BB000C701B60160D780E0CBDA62E373E084ED71
:100BC00092E08FD362960FB6F894DEBF0FBECDBF12
:100BD000DF91CF91FF90EF90DF90CF90BF90AF90DB
:100BE0009F908F907F906F905F904F900895C12C51
:100BF000D12C7601C701B6013ED794CE5A864986DC
:100C0000D8CEA701960160910C0170910D018091E1
:100C10000E0190910F01EAD56093D0027093D1023A
:100C20008093D2029093D3023BCF20E030E040EAA1
:100C300050E4C701B601B3D687FF13C020E030E00F
:100C400040EA50ECC701B6010E94DF0E18164CF4C2
:100C50008091140190911501A0911601B091170196
:100C600017CFA70196016091100170911101809139
:100C7000120190911301CFCFB8E26B16710408F006
:100C80000FCF899708F450C042E851E06FE373E05A
:100C90008AED92E010DB6091DA027091DB028091C4
:100CA000DC029091DD0215D720913401309135019D
:100CB000409136015091370198D56B017C016F81CD
:100CC000788590E080E003D72091300130913101A8
:100CD000409132015091330189D52B013C0169814A
:100CE0007A8190E080E0F3D69B01AC01C301B201B0
:100CF00056D687FF4CC020E030E04CEA52ECC701EA
:100D0000B6014DD618167CF180918601909187012D
:100D1000A0918801B09189018093D0029093D10273
:100D2000A093D202B093D30289859A85889708F060
:100D3000B7CE4EE751E066E373E086ED92E0BBDAB2
:100D40006091D6027091D7028091D8029091D90219
:100D5000C0D6209140013091410140914201509113
:100D6000430143D559CF2091240130912501409171
:100D7000260150912701C701B60137D56093D002F3
:100D80007093D1028093D2029093D302CDCF20E012
:100D900030E040EA50E4C701B60101D687FF13C036
:100DA00020E030E040EA50ECC701B6010E94DF0EBF
:100DB00018164CF480912C0190912D01A0912E01D8
:100DC000B0912F01A9CF20912801309129014091A4
:100DD0002A0150912B01CFCFC0904801D0904901FA
:100DE000E0904A01F0904B0163CE6091E602709171
:100DF000E7028091E8029091E9026BD62091080108
:100E00003091090140910A0150910B01EED42091DB
:100E10000401309105014091060150910701E6D48B
:100E200095CE60E0C8CEAF92BF92CF92DF92EF92A4
:100E3000FF921F93CF93DF9384E090E0D6D1CAEE68
:100E4000D2E01092320310923303109234031092C6
:100E500035036AE871E088E493E012DA62E871E051
:100E60008FE393E00DDA6EE771E086E393E008DA52
:100E70008091440190914501A0914601B0914701B4
:100E80008093D0029093D102A093D202B093D30268
:100E900066E971E08AE593E0F3D91CAE80914C01DC
:100EA00090914D01A0914E01B0914F0180932E037E
:100EB00090932F03A0933003B09331038BE2A82EBD
:100EC00083E0B82EF5011082C12CD12C7601C39499
:100ED000C0922703D0922803E0922903F0922A03BC
:100EE00060E170E080E090E09DD990932D038093C5
:100EF0002C0311E0F50110831CA280915401909104
:100F00005501A0915601B09157018CA79DA7AEA79E
:100F1000BFA719A6CDA2DEA2EFA2F8A661E170E0FC
:100F200080E090E07FD99BA78AA719A718AA809193
:100F3000500190915101A0915201B091530188AF9D
:100F400099AFAAAFBBAF1DAAC9AADAAAEBAAFCAA9D
:100F50006FE070E080E090E065D99FAB8EAB1DAB99
:100F60001C8680915C0190915D01A0915E01B09121
:100F70005F018C8B9D8BAE8BBF8B198ACD86DE86F5
:100F8000EF86F88A6EE070E080E090E04BD99B8BB2
:100F90008A8B198B188E8091580190915901A091DC
:100FA0005A01B0915B0188A399A3AAA3BBA31D8E8C
:100FB000C98EDA8EEB8EFC8E62E170E080E090E00C
:100FC00031D99F8F8E8F1D8F1882809160019091F3
:100FD0006101A0916201B091630188879987AA8716
:100FE000BB871D82C982DA82EB82FC8263E170E0FA
:100FF00080E090E017D99F838E831D8362E971E0C2
:1010000081E593E03DD969E080E0DF91CF911F91C8
:10101000FF90EF90DF90CF90BF90AF9090C88091FD
:10102000260381111DC081E0809326038091270350
:1010300090912803A0912903B0912A030197A1055B
:10104000B10571F480912B03882351F060E170E0C9
:1010500080E090E0A3D890932D0380932C0305D9D2
:1010600080910E0381111DC081E080930E03809159
:101070000F0390911003A0911103B09112030197F7
:10108000A105B10571F480911303882351F061E14A
:1010900070E080E090E082D8909315038093140371
:1010A000E4D880911A0381111DC081E080931A0356
:1010B00080911B0390911C03A0911D03B0911E030E
:1010C0000197A105B10571F480911F03882351F0A8
:1010D0006FE070E080E090E061D89093210380930E
:1010E0002003C3D88091F60281111DC081E0809356
:1010F000F6028091F7029091F802A091F902B09166
:10110000FA020197A105B10571F48091FB028823D1
:1011100051F06EE070E080E090E040D89093FD02E6
:101120008093FC02A2D88091020381111DC081E04E
:10113000809302038091030390910403A09105031F
:10114000B09106030197A105B10571F480910703E1
:10115000882351F062E170E080E090E01FD8909326
:1011600009038093080381D88091EA0281111EC08F
:1011700081E08093EA028091EB029091EC02A091D1
:10118000ED02B091EE020197A105B10579F48091CD
:10119000EF02882359F063E170E080E090E00E9464
:1011A000CE009093F1028093F0025FC8089560E052
:1011B00070E080E89FE7089560E070E080E89FE7D6
:1011C000089560E070E080E89FEF089560E070E0CF
:1011D00080E89FEF089560E070E080EC9FEF089555
:1011E00060E070E080EC9FEF0895F5DF60936F039F
:1011F000709370038093710390937203F1DF609397
:101200006303709364038093650390936603CFDF59
:1012100060936B0370936C0380936D0390936E03E4
:10122000CBDF6093670370936803809369039093A7
:101230006A03C7DF6093730370937403809375032D
:1012400090937603C3DF6093770370937803809362
:10125000790390937A030895CF92DF92EF92FF92F1
:10126000CF936B017C01AC019B0160916B0370918A
:101270006C0380916D0390916E0391D3C1E088233C
:1012800069F0A701960160917303709174038091D6
:1012900075039091760383D38111C0E08C2FCF9199
:1012A000FF90EF90DF90CF9008950F931F938B01E5
:1012B0009C010027112720783F7701151105204850
:1012C0003F4749F4AB01BC016F77772781E0452B9D
:1012D000462B472B09F480E01F910F910895E5CF2D
:1012E0006EC1A3C190E080E008950895CF93DF938D
:1012F000EC0160E08E810E94131381E090E00E9477
:101300004D1261E08E810E94131381E090E00E94F3
:101310004D1260E08E810E94131384E690E0DF910D
:10132000CF910C944D12CF92DF92EF92FF920F93D8
:101330001F93CF93DF936C017C0187E0E80EF11CD3
:10134000D0E0C0E0062F10E0B8010C2E02C0759569
:1013500067950A94E2F76170F70181917F010E941D
:1013600013132196C430D10579F7C601DF91CF91CF
:101370001F910F91FF90EF90DF90CF90B7CFCF925A
:10138000DF92EF92FF920F931F93CF93DF936C0145
:101390007C0187E0E80EF11CD0E0C0E0062F10E0F1
:1013A000B8010C2E02C0759567950A94E2F761703A
:1013B000F70181917F010E9413132196C830D10556
:1013C00079F7C601DF91CF911F910F91FF90EF90B8
:1013D000DF90CF908BCF1F93CF93DF93EC01162F2D
:1013E000642F8C810E9413138D818F3F19F060E070
:1013F0000E9413138F85612F84FF05C0CE01DF91FA
:10140000CF911F91BCCF70E084E0759567958A9568
:10141000E1F7CE0188DF612FCE01DF91CF911F91DF
:1014200082CF40E0D8CF61E0FCDF80ED97E00C9404
:101430004D12443008F043E0FC012389421710F0BC
:101440004FEF420FFC01E40FF11D2489620F606829
:10145000E8CFFC016089262F2460208B6C60E1CFEF
:101460000F931F93CF93DF93EC01423018F08F85D9
:1014700088608F874B8B1C8A80E48D8B6E8B605CC1
:101480006F8B222329F0413019F48F8584608F8778
:1014900061E08C810E94D7128D818F3F19F061E04D
:1014A0000E94D71261E08E810E94D7128E019801AE
:1014B0002C1B3D0B8F8584FD0DC084E090E00F5FF9
:1014C0001F4F281739074CF461E0F80186810E940C
:1014D000D712EDCF88E090E0F2CF80E593ECDDD736
:1014E00060E08C810E94131360E08E810E941313D0
:1014F0008D818F3F19F060E00E9413136F8564FDAA
:1015000028C063E0CE010FDF84E991E1C6D763E034
:10151000CE0109DF84E991E1C0D763E0CE0103DFAA
:1015200086E990E0BAD762E0CE01FDDE6F856062A9
:10153000CE0177DF84E0888BCE018BDFCE0173DFB5
:1015400082E0898B66E0CE01DF91CF911F910F91F0
:1015500068CF6062CE0165DF84E991E19ED76F8537
:101560006062CE015EDF86E990E097D76F856062AA
:10157000CE0157DFDBCFCF92EF920F93FC011382A6
:10158000128280EC91E09183808364838FEF858366
:10159000468327830087E186C286138614861586D4
:1015A0001686178620E041E060E1CF010F91EF90B1
:1015B000CF9056CF41E00FDF81E090E00895CF93C8
:1015C000DF93EC0120E030E040E85FE3FB01608165
:1015D000718182819381E3D1811124C041E060E077
:1015E00088EE91E026DF888199818436910530F478
:1015F0006EE971E088EE91E00E942A158881998158
:101600000A9730F46DE971E088EE91E00E942A15A6
:10161000688179814AE050E088EE91E0DF91CF91D6
:101620000C948715DF91CF910895CF93DF93EB0151
:1016300020E030E040E85FE3688179818A819B8126
:10164000AED18823A1F020E042E060E188EE91E095
:1016500007DF65EA71E088EE91E00E942A1580E0DC
:1016600090E0A0E8BFE388839983AA83BB83DF91DE
:10167000CF910895CF92EF920F9382E0C82E93E01E
:10168000E92E04E025E04BE06CE088EE91E073DFAA
:101690000F91EF90CF90089540E855E260E070E040
:1016A00090E080E000C026E083E392E00C940A140E
:1016B0001F920F920FB60F9211242F933F934F93C7
:1016C0005F936F937F938F939F93AF93BF93EF93AA
:1016D000FF9386E08093B200809100028F5F809339
:1016E0000002893119F4109200022FD0FF91EF917E
:1016F000BF91AF919F918F917F916F915F914F912A
:101700003F912F910F900FBE0F901F90189586E07C
:101710008093B200A0E7B0E08C918E7F8C93E0EBD9
:10172000F0E080818C7F8083E1EBF0E08081877F37
:10173000808380818660808380818E7F80838C918E
:1017400081608C93089581E008958091010291E079
:10175000980F90930102882349F021E030E0309304
:1017600003022093020280930102089578940E945C
:101770007202F894809101028150F5CFCF93DF93EC
:1017800010927C0310927B0393D686DFC0919B015D
:10179000D0919C011982188246DBF894B8DF288129
:1017A000398181E0232B09F080E080937B037894DA
:1017B000789480917B03811107C031DCF89490E02C
:1017C00080E0DF91CF9108952881398181E0232B3A
:1017D00009F480E080937C0390917C0381E0911177
:1017E00080E080937B03AFDFE4CF5058BB27AA276C
:1017F0000ED094C285D230F08AD220F031F49F3FCF
:1018000011F41EF455C20EF4E095E7FB22C2E92F55
:1018100096D280F3BA17620773078407950718F00A
:1018200071F49EF5C5C20EF4E0950B2EBA2FA02DD3
:101830000B01B90190010C01CA01A0011124FF277D
:10184000591B99F0593F50F4503E68F11A16F04078
:10185000A22F232F342F4427585FF3CF4695379577
:101860002795A795F0405395C9F77EF41F16BA0B3C
:10187000620B730B840BBAF09150A1F0FF0FBB1FEA
:10188000661F771F881FC2F70EC0BA0F621F731F33
:10189000841F48F4879577956795B795F7959E3F90
:1018A00008F0B3CF9395880F08F09927EE0F97951E
:1018B0008795089525D258F080E891E009F49EEFCD
:1018C00026D228F040E851E059F45EEF09C0F0C19B
:1018D0006FC2E92FE07833D268F3092E052AC1F3ED
:1018E000261737074807590738F00E2E07F8E02566
:1018F00069F0E025E0640AC0EF6307F8009407FA96
:10190000DB01B9019D01DC01CA01AD01EF935AD0A1
:1019100005D20AD05F91552331F02BED3FE049E429
:1019200050FD49EC63CF0895DF93DD27B92FBF77D2
:1019300040E85FE31616170648075B0710F4D92F37
:1019400042D29F938F937F936F93E9D2E8E6F0E0C2
:10195000B2D1E4D12F913F914F915F9147D2DD23D6
:1019600049F09058A2EA2AED3FE049EC5FE3D078D5
:101970005D274DDFDF91D2C104D280F09F3740F464
:1019800091110EF416C260E070E080E89FE30895C4
:1019900026F01B16611D711D811D61C17BC135D1F2
:1019A00008F481E008950CD0B9C1B1D140F0A8D1BC
:1019B00030F021F45F3F19F04CC15111FAC178C1E8
:1019C000BED198F39923C9F35523B1F3951B550B59
:1019D000BB27AA2762177307840738F09F5F5F4F02
:1019E000220F331F441FAA1FA9F333D00E2E3AF043
:1019F000E0E830D091505040E695001CCAF729D05D
:101A0000FE2F27D0660F771F881FBB1F26173707AB
:101A10004807AB07B0E809F0BB0B802DBF01FF27DB
:101A200093585F4F2AF09E3F510568F012C1C1C123
:101A30005F3FECF3983EDCF3869577956795B79515
:101A4000F7959F5FC9F7880F911D9695879597F930
:101A50000895E1E0660F771F881FBB1F62177307A9
:101A60008407BA0720F0621B730B840BBA0BEE1FBE
:101A700088F7E09508956BD188F09F5790F0B92FC3
:101A80009927B751A0F0D1F0660F771F881F991FD3
:101A90001AF0BA95C9F712C0B13081F089D1B1E01E
:101AA000089586C1672F782F8827B85F39F0B93F2E
:101AB000CCF3869577956795B395D9F73EF49095D5
:101AC0008095709561957F4F8F4F9F4F0895E89453
:101AD00009C097FB3EF490958095709561957F4F76
:101AE0008F4F9F4F9923A9F0F92F96E9BB27939524
:101AF000F695879577956795B795F111F8CFFAF434
:101B0000BB0F11F460FF1BC06F5F7F4F8F4F9F4F64
:101B100016C0882311F096E911C0772321F09EE8C2
:101B2000872F762F05C0662371F096E8862F70E028
:101B300060E02AF09A95660F771F881FDAF7880F02
:101B40009695879597F908951CD180F09F3740F4BA
:101B500091110EF02EC160E070E080E89FEB0895D7
:101B600026F41B16611D711D811D79C093C0C8D05C
:101B700018F011F0CCD038F49BC01BC1E92FDFD096
:101B8000B0F35523C9F3E7FB621773078407950782
:101B9000A8F199F3E92FFF2788232AF03197660FE0
:101BA000771F881FDAF7952F5527442332F091507D
:101BB0005040220F331F441FD2F7BB27E91BF50B00
:101BC000621B730B840BB109C1F222F4620F731F05
:101BD000841FB11D31972AF0660F771F881FBB1F26
:101BE000EFCF915050405AF041F0882332F0660F09
:101BF000771F881F91505040C1F793954BC0869531
:101C0000779567959F5FD9F7F8CF990F0008550F23
:101C1000AA0BE0E8FEEF16161706E807F907C0F072
:101C200012161306E407F50798F0621B730B840B7A
:101C3000950B39F40A2661F0232B242B252B21F454
:101C400008950A2609F4A140A6958FEF811D811DF4
:101C5000089597F99F6780E870E060E00895882311
:101C600071F4772321F09850872B762F07C06623D5
:101C700011F499270DC09051862B70E060E02AF096
:101C80009A95660F771F881FDAF7880F96958795C4
:101C900097F908959F3F31F0915020F487957795FB
:101CA0006795B795880F911D9695879597F9089533
:101CB0009FEF80EC0895DF93CF931F930F93FF92D4
:101CC000EF92DF927B018C01689405C0DA2EEF0160
:101CD0008DD0FE01E894A5912591359145915591BE
:101CE000AEF3EF0194DDFE019701A801DA9479F7D4
:101CF000DF90EF90FF900F911F91CF91DF910895AA
:101D000000240A94161617061806090608950024DA
:101D10000A9412161306140605060895092E039454
:101D2000000C11F4882352F0BB0F40F4BF2B11F4C8
:101D300060FF04C06F5F7F4F8F4F9F4F089557FD27
:101D40009058440F551F59F05F3F71F04795880F29
:101D500097FB991F61F09F3F79F0879508951216C0
:101D600013061406551FF2CF4695F1DF08C016166C
:101D700017061806991FF1CF86957105610508941D
:101D80000895E5DFA0F0BEE7B91788F4BB279F38B8
:101D900060F41616B11D672F782F8827985FF7CF4C
:101DA000869577956795B11D93959639C8F30895F3
:101DB000E894BB2766277727CB0197F9089525DF9D
:101DC00008F48FEF08959B01AC0160E070E080E8BB
:101DD0009FE3E9CD0BD0A2CF93DF28F098DF18F076
:101DE000952309F036CF64CF1124E3CFA8DFA0F309
:101DF000959FD1F3950F50E0551F629FF001729FA0
:101E0000BB27F00DB11D639FAA27F00DB11DAA1FBE
:101E1000649F6627B00DA11D661F829F2227B00D0B
:101E2000A11D621F739FB00DA11D621F839FA00D96
:101E3000611D221F749F3327A00D611D231F849FE6
:101E4000600D211D822F762F6A2F11249F5750403D
:101E50008AF0E1F088234AF0EE0FFF1FBB1F661FD8
:101E6000771F881F91505040A9F79E3F510570F091
:101E7000F0CE9FCF5F3FECF3983EDCF386957795ED
:101E80006795B795F795E7959F5FC1F7FE2B880F8C
:101E9000911D9695879597F9089511F40EF408CF42
:101EA000F9CE55DFD0F39923D9F3CEF39F57550BD5
:101EB00087FF38D00024A0E640EA9001805856956C
:101EC000979528F4805C660F771F881F20F02617EF
:101ED0003707480730F4621B730B840B2029312924
:101EE0004A2BA69517940794202531254A2758F7A1
:101EF000660F771F881F20F026173707480730F432
:101F0000620B730B840B200D311D411DA09581F7D1
:101F1000B901842F9158880F9695879508959B0154
:101F2000AC0158CF91505040660F771F881FD2F7F1
:101F300008951F920F920FB60F9211242F933F9383
:101F40004F935F936F937F938F939F93AF93BF93C1
:101F5000EF93FF938091050287FF27C010928500C1
:101F600010928400809105028F5F8093050280911A
:101F70000502082E000C990B20910402281719065F
:101F800029F024F0809105028C30D4F180918400F6
:101F900090918500049680349C4908F479C0809122
:101FA000840090918500049675C080910502082EEA
:101FB000000C990B209104022817190699F294F24B
:101FC000E09105028E2FEE0F990BFC01EE0FFF1F23
:101FD000E80FF91FEA5FFD4F808186FFC3CFE091D4
:101FE00005028E2FEE0F990BFC01EE0FFF1FE80F7D
:101FF000F91FEA5FFD4F808160E08F7314D3B2CF89
:102000002091840030918500E09105028E2FEE0F23
:10201000990BFC01EE0FFF1FE80FF91FEA5FFD4F60
:1020200081819281820F931F909389008093880011
:10203000E09105028E2FEE0F990BFC01EE0FFF1FB2
:10204000E80FF91FEA5FFD4F808186FF10C0E09125
:1020500005028E2FEE0F990BFC01EE0FFF1FE80F0C
:10206000F91FEA5FFD4F808161E08F73DCD2FF9141
:10207000EF91BF91AF919F918F917F916F915F9100
:102080004F913F912F910F900FBE0F901F90189579
:1020900080E49CE990938900809388008FEF80937F
:1020A0000502E5CFFC01909104029C3098F481E098
:1020B000890F809304029083892F90E0FC01EE0F3A
:1020C000FF1FE80FF91FEA5FFD4F88EB9BE092834B
:1020D000818308958FEF80830895DF92EF92FF92BE
:1020E0000F931F93CF93DF93EC01D62E7A018901D2
:1020F00088818C3008F065C061E08D2D58D28881D0
:10210000282F30E0F901EE0FFF1FE20FF31FEA5F07
:10211000FD4F9D2D9F736081607C692B608320E261
:1021200032E02E193F0937FF02C02D5F3F4F359532
:10213000279535952795298320E639E0201B310B1B
:1021400037FF02C02D5F3F4F359527953595279571
:102150002A832CE0622F2ED5829FB001112430E01B
:1021600020E0AB01420F531FFA01EE0FFF1FE40FF7
:10217000F51FEA5FFD4F908196FD16C02F5F3F4F20
:102180002C30310571F781110FC01092800082E070
:10219000809381001092850010928400B19A809102
:1021A0006F00826080936F00E8818E2F90E0FC01C9
:1021B000EE0FFF1FE80FF91FEA5FFD4F808180647B
:1021C00080838881DF91CF911F910F91FF90EF90D5
:1021D000DF90089520E639E040E252E07ECFDC0156
:1021E000EC91EC3090F511968C91119728E830E045
:1021F000281B310987FD3395220F331F220F331F10
:102200006217730784F012968C9128E532E0281B40
:10221000310987FD3395220F331F220F331F6217B9
:1022200073070CF49B0122503109220F331F4FB763
:10223000F8948E2F90E0FC01EE0FFF1FE80FF91FBE
:10224000EA5FFD4F328321834FBF0895AF92BF9263
:10225000CF92DF92EF92FF920F931F93CF93DF9372
:10226000EC01603282E078070CF03DC0653B7105FF
:1022700014F064EB70E0898148E8A42EB12CA81A10
:10228000B10887FDB394AA0CBB1CAA0CBB1C0B2C79
:10229000000CCC08DD0877FF02C070E060E0072E7C
:1022A000000C880B990B2A8108E512E0021B11092A
:1022B00027FD1395000F111F000F111F012E000C99
:1022C000220B330B3F932F931F930F9314EBE12EAD
:1022D000F12C00E010E020E030E0A9011DD40F90C7
:1022E0000F900F900F90CE01DF91CF911F910F9122
:1022F000FF90EF90DF90CF90BF90AF9070CFFC0138
:1023000080818F3FD1F090E0FC01EE0FFF1FE80FBE
:10231000F91FEA5FFD4F8181928133E0880F991F99
:102320003A95E1F7B0E0A0E044E0B595A795979520
:1023300087954A95D1F70296089590E080E0089538
:102340004F925F926F927F92AF92BF92CF92DF9245
:10235000EF92FF920F931F93CF93DF9300D000D0A3
:10236000CDB7DEB7FC01428128E532E0241B3109FC
:1023700047FD3395220F331F220F331FA901330F5F
:10238000660B770B49835A836B837C83218158E8E2
:10239000452E512C421A510827FD5394440C551CCC
:1023A000440C551C052C000C66087708A8DF019624
:1023B000BC01990F880B990B1F921F921F9224EB5F
:1023C0002F93A12CB12C6501E980FA800B811C812F
:1023D000A3019201A1D30F900F900F900F90CB010A
:1023E0000F900F900F900F90DF91CF911F910F9151
:1023F000FF90EF90DF90CF90BF90AF907F906F9065
:102400005F904F9008951F920F920FB60F92112474
:102410002F933F938F939F93AF93BF9380912B0202
:1024200090912C02A0912D02B0912E0230912A029F
:1024300023E0230F2D3758F50196A11DB11D2093E0
:102440002A0280932B0290932C02A0932D02B0932A
:102450002E0280912F0290913002A0913102B09112
:1024600032020196A11DB11D80932F02909330027C
:10247000A0933102B0933202BF91AF919F918F919F
:102480003F912F910F900FBE0F901F90189526E847
:10249000230F0296A11DB11DD2CF8230910538F0D5
:1024A000880F991F880F991F05970197F1F70895D5
:1024B000789484B5826084BD84B5816084BD85B51F
:1024C000826085BD85B5816085BDEEE6F0E08081E6
:1024D00081608083E1E8F0E0108280818260808307
:1024E000808181608083E0E8F0E08081816080838A
:1024F000E1EBF0E0808184608083E0EBF0E08081BC
:1025000081608083EAE7F0E080818460808380815D
:102510008260808380818160808380818068808305
:102520001092C10008958E3008F08E5020919A01CB
:1025300090E4299F900111248770822B80937C0066
:1025400080917A00806480937A0080917A0086FD81
:10255000FCCF80917800909179000895833081F0CC
:1025600028F4813099F08230A9F008958730A9F0DD
:102570008830C9F08430B1F4809180008F7D03C031
:10258000809180008F7780938000089584B58F7745
:1025900084BD089584B58F7DFBCF8091B0008F7787
:1025A0008093B00008958091B0008F7DF9CFCF93D4
:1025B000DF9390E0FC01E655FF4F249182549F4F3A
:1025C000FC0184918823C9F090E0880F991FFC01D9
:1025D000E452FF4FA591B491FC01EE52FF4FC5911B
:1025E000D49161110DC09FB7F8948C9120958223EE
:1025F0008C938881282328839FBFDF91CF910895F2
:10260000623051F49FB7F8943C91822F80958323D8
:102610008C93E8812E2BEFCF8FB7F894EC912E2B73
:102620002C938FBFEACF1F93CF93DF93282F30E0F7
:10263000F901EA56FF4F8491F901E655FF4FD49115
:10264000F901E254FF4FC491CC23A1F0162F811160
:1026500085DFEC2FF0E0EE0FFF1FEE52FF4FA5914C
:10266000B4918FB7F894EC91111108C0D095DE2386
:10267000DC938FBFDF91CF911F910895DE2BF8CFB0
:10268000FC01918D228D892F90E0805C9F4F821BF1
:1026900091098F7399270895FC01918D828D981768
:1026A00031F0828DE80FF11D858D90E008958FEF58
:1026B0009FEF0895FC01918D828D981761F0A28D96
:1026C000AE0FBF2FB11D5D968C91928D9F5F9F7352
:1026D000928F90E008958FEF9FEF0895FC01538D46
:1026E000448D252F30E0842F90E0821B930B5417EC
:1026F00010F0CF96089501970895FC01A48DA80FBE
:10270000B92FB11DA35ABF4F2C91848D90E0019633
:102710008F739927848FA689B7892C93A089B18953
:102720008C91837080648C93938D848D981306C0F4
:102730000288F389E02D80818F7D80830895CF9377
:10274000DF93EC01888D8823B1F0AA89BB89E889E1
:10275000F9898C9185FD03C0808186FD0CC00FB680
:1027600007FCF7CF8C9185FFF2CF808185FFEDCFFD
:10277000CE01C3DFEACFDF91CF910895EF92FF92B0
:102780000F931F93CF93DF93EC0181E0888F9B8D94
:102790008C8D98131AC0E889F989808185FF15C04E
:1027A0009FB7F894EE89FF896083E889F989808171
:1027B0008370806480839FBF81E090E0DF91CF9140
:1027C0001F910F91FF90EF900895F62E0B8D10E062
:1027D0000F5F1F4F0F731127E02E8C8D8E110BC0D2
:1027E0000FB607FCFACFE889F989808185FFF5CF1C
:1027F000CE0183DFF2CFEB8DEC0FFD2FF11DE35AFD
:10280000FF4FF0829FB7F8940B8FEA89FB89808194
:102810008062D0CFCF92DF92EF92FF921F93CF933F
:10282000DF93EC016A017B01122FE889F98982E0CC
:102830008083C11481EED806E104F10499F060E0D0
:1028400079E08DE390E0A7019601C0D121503109D4
:10285000410951095695479537952795211580E1EE
:10286000380790F0E889F989108260E874E88EE111
:1028700090E0A7019601AAD12150310941095109DF
:102880005695479537952795EC85FD853083EE85E0
:10289000FF852083188EEC89FD891083EA89FB89E6
:1028A000808180618083EA89FB8980818860808360
:1028B000EA89FB89808180688083EA89FB8980813D
:1028C0008F7D8083DF91CF911F91FF90EF90DF90FC
:1028D000CF9008951F920F920FB60F9211242F934D
:1028E0008F939F93EF93FF93E0914302F091440203
:1028F0008081E0914902F0914A0282FD1BC09081E3
:1029000080914C028F5F8F7320914D02821741F0AE
:10291000E0914C02F0E0ED5CFD4F958F80934C020E
:10292000FF91EF919F918F912F910F900FBE0F907C
:102930001F9018958081F4CF1F920F920FB60F92BF
:1029400011242F933F934F935F936F937F938F93B4
:102950009F93AF93BF93EF93FF9383E392E0CDDE1A
:10296000FF91EF91BF91AF919F918F917F916F9167
:102970005F914F913F912F910F900FBE0F901F903D
:102980001895E3E3F2E01382128288EE93E0A0E070
:10299000B0E084839583A683B7838CEC91E0918328
:1029A000808385EC90E09587848784EC90E097871E
:1029B000868780EC90E0918B808B81EC90E0938B0C
:1029C000828B82EC90E0958B848B86EC90E0978BE9
:1029D000868B118E128E138E148E0895AF92BF9235
:1029E000CF92DF92EF92FF920F931F93CF93DF93DB
:1029F0006C017B018B01040F151FEB015E01AE180A
:102A0000BF08C017D10759F06991D601ED91FC912B
:102A10000190F081E02DC6010995892B79F7C50158
:102A2000DF91CF911F910F91FF90EF90DF90CF90AA
:102A3000BF90AF900895FB0101900020E9F7319716
:102A4000AF01461B570BDC01ED91FC910280F38135
:102A5000E02D09946115710509F0EDCF90E080E05B
:102A600008958F929F92AF92BF92EF92FF920F9331
:102A70001F93CF93DF93CDB7DEB7A1970FB6F8942E
:102A8000DEBF0FBECDBF7C01FA01CB0119A22230FF
:102A900008F42AE08E010F5D1F4F822E912CB12C7D
:102AA000A12CBF01A501940191D0F901CA016A309E
:102AB00004F5605DD8016E938D01232B242B252B0B
:102AC00081F790E080E0109719F0BD01C701B3DFF6
:102AD000A1960FB6F894DEBF0FBECDBFDF91CF91A8
:102AE0001F910F91FF90EF90BF90AF909F908F90AC
:102AF0000895695CDFCF2115310541F4DC01ED91CA
:102B0000FC910190F081E02D642F0994AACF9A01E5
:102B1000AB0170E060E0EFCF4F925F926F927F92D7
:102B2000AF92BF92CF92DF92EF92FF920F931F93DB
:102B3000CF93DF93CDB7DEB729013A019B01AC01FA
:102B4000241935094609570989899A89AB89BC89AD
:102B5000BC01CD016A197B098C099D091CD0A80113
:102B60009701241935094609570952D0CA01B901FC
:102B70006A0D7B1D8C1D9D1DDF91CF911F910F91C3
:102B8000FF90EF90DF90CF90BF90AF907F906F90CD
:102B90005F904F900895DB018F939F9364D0BF9116
:102BA000AF91A29F800D911DA39F900DB29F900D9C
:102BB00011240895991B79E004C0991F961708F015
:102BC000961B881F7A95C9F780950895A1E21A2E61
:102BD000AA1BBB1BFD010DC0AA1FBB1FEE1FFF1FC1
:102BE000A217B307E407F50720F0A21BB30BE40B11
:102BF000F50B661F771F881F991F1A9469F7609558
:102C00007095809590959B01AC01BD01CF01089511
:102C1000052E97FB16F400940FD057FD05D0D6DF94
:102C200007FC02D046F408C0509540953095219598
:102C30003F4F4F4F5F4F08959095809570956195E8
:102C40007F4F8F4F9F4F0895A29FB001B39FC00148
:102C5000A39F700D811D1124911DB29F700D811DC8
:102C60001124911D0895F0DFA59F900DB49F900D44
:102C7000A49F800D911D11240895EE0FFF1F059054
:0A2C8000F491E02D0994F894FFCFC1
:102C8A0000007041000020410000B44200002041D1
:102C9A000000A0400000C842000048420000B442C0
:102CAA0000000000000020410000A0400000C842CF
:102CBA00000048420000B44200000000000000008A
:102CCA000000B442000000000000C842000080BFBB
:102CDA00000080BF000080BF000080BF000080BFEE
:102CEA00000080BF0000000000000000000000009B
:102CFA00E12E65420000B4420000B44228A0CDCCC7
:102D0A00CC3DCDCCCC3D0000B442CDCCCC3D000076
:102D1A00B4C2CDCCCC3DCDCCCC3D01E601202020A7
:102D2A002020202000496E636964656E6365204136
:102D3A006E676C65205B6465675D3A0000000000A1
:102D4A00DA0AEE147209750900000000BE13EE14C7
:0A2D5A006E139F1340135A134C131D
:00000001FF
