:100000005CC0000082C0000080C000007EC0000014
:100010007CC000007AC0000078C0000076C00000FC
:1000200074C000000C94A92070C000006EC00000D5
:100030006CC000006AC0000068C0000066C000001C
:100040000C94E52462C000000C94DC270C940E286C
:100050005CC000005AC0000058C0000056C000003C
:1000600054C0000052C0000000000008000201005F
:100070000003040700000000000000000102040863
:100080001020408001020408102001020408102002
:10009000040404040404040402020202020203032E
:1000A0000303030300000000250028002B000000CC
:1000B0000000240027002A00332811241FBECFEFA0
:1000C000D8E0DEBFCDBF11E0A0E0B1E0E2ECF1E5A9
:1000D00002C005900D92AE3CB107D9F725E0AEEC19
:1000E000B1E001C01D92A231B207E1F710E0CDE509
:1000F000D0E004C02197FE010E94B028CC35D10782
:10010000C9F70E9451220C94DF287ACFCF92DF9258
:10011000EF92FF92CF93882351F16A017B01CFEFD9
:10012000C80F20E030E0A901CB01B6010E942F23C7
:1001300087FF11C0C701B60190580E94A0239B0100
:10014000AC016C2F70E090E080E0CF91FF90EF90D9
:10015000DF90CF90B2C0C701B6010E949B238C2FC5
:10016000CF91FF90EF90DF90CF900C94C525CF9169
:10017000FF90EF90DF90CF9008950F931F938B0126
:100180009C0183E036952795179507958A95D1F7B9
:1001900002531E4F462F477021E030E0F90102C0A4
:1001A000EE0FFF1F4A95E2F7AF01F80120812423EB
:1001B000CB010196211102C090E080E01F910F91C8
:1001C00008950F931F938B019C0183E0369527952B
:1001D000179507958A95D1F7677081E090E001C087
:1001E000880F6A95EAF7F801E253FE4F2081452B0C
:1001F00031F48095822380831F910F910895822B83
:10020000FACF2F923F924F925F926F927F928F928E
:100210009F92AF92BF92CF92DF92EF92FF920F9395
:100220001F93CF93DF93D62EC72E782E692E4901C8
:100230005A01280161E08D2D0E944926CD2DDC2D2B
:100240008E010F5F1F4FA8016D2D7C2D872D962DE0
:10025000B8DF20E030E0A901C201B7010E947E248E
:10026000181664F4C201B7010E94A0232B01C50136
:10027000B4010E94A023A201CE0123D0C801DF91C6
:10028000CF911F910F91FF90EF90DF90CF90BF9093
:10029000AF909F908F907F906F905F904F903F9026
:1002A0002F900895882341F08150682F70E090E0EE
:1002B00080E050E040E085CF0895862FB9010C948E
:1002C000C5259C01FC01E859FF4FE491E33061F141
:1002D00040F4E13011F1E23021F160E0822F0C9422
:1002E0008526E730C1F1E83009F441C0E430A9F7D0
:1002F000809180008C7F826080938000909181004B
:10030000907E9061692B60938100509387004093A9
:1003100086008091800080621BC084B5806884BDA7
:10032000DCCF84B58062FBCF809180008C7F8260BF
:100330008093800090918100907E9061692B609302
:1003400081005093870040938600809180008068F0
:1003500080938000C2CF8091B00080688093B0000D
:100360008091B100887F682B6093B100B6CF8091F7
:10037000B0008062F3CF90E080E008950F931F9368
:10038000009709F48BC06115710509F487C00091CD
:1003900018011091190120911A0130911B010E3F93
:1003A0001F4F2F4F3F4F09F06AC04FEF5FEFBA0169
:1003B000409318015093190160931A0170931B0127
:1003C000409118015091190160911A0170911B011F
:1003D000DC011296ED91FC9180819181A281B38123
:1003E00080934A0290934B02A0934C02B0934D022B
:1003F00084819581A681B7818093460290934702BC
:10040000A0934802B093490280859185A285B38567
:100410008093420290934302A0934402B09345021A
:1004200084859585A685B78580933E0290933F028B
:10043000A0934002B093410210923A0210923B0204
:1004400010923C0210923D0234D58EE797E09093D3
:10045000D8018093D7019093DA018093D9019093CA
:10046000DC018093DB0124D4009731F421E030E0FB
:1004700030934F0220934E021F910F9108950091E7
:1004800018011091190120911A0130911B01DB0113
:100490000D931D932D933C93139792CF8FEF9FEF66
:1004A000EBCF8F929F92AF92BF92CF92DF92EF925B
:1004B000FF921F93CF93DF934B015C011091510288
:1004C00082E090E090934F0280934E028114910459
:1004D000A104B10441F480915102811104C08091C2
:1004E0005002C1E08111C0E0C12CD12C7601809175
:1004F0005102811106C080915002811102C0CC23AB
:10050000D9F083E090E090934F0280934E02CC2389
:1005100079F1CCE9DFEF111102C00E94E20ACE01AD
:10052000DF91CF911F91FF90EF90DF90CF90BF9020
:10053000AF909F908F9008956AE070E080E090E027
:100540000E94542580E1C80E87E2D81EE11CF11CF0
:100550008FEF88169806A806B80631F0C1E08C1413
:100560009D04AE04BF0408F0C0E080E0CDD3BFCF4F
:10057000D0E0C0E0D0CFCF92DF92EF92FF920F9306
:100580001F93CF93DF938F3F910511F008F045C083
:1005900020914E0230914F022330310539F02091E5
:1005A0004E0230914F022130310531F424E030E029
:1005B00030934F0220934E026A017B01EC0183309D
:1005C0009105B0F011E0AE01C701B60170D3AB01E7
:1005D000BC0190E080E0112311F1CE01DF91CF91B9
:1005E0001F910F91FF90EF90DF90CF900C94F70C3C
:1005F0008C01000F111F09521E4FD8018D919C9143
:10060000892B01F30E94FE0C0297E1F6D801ED91CF
:10061000FC91CE010995182FD6CF8FEF9FEFDF9178
:10062000CF911F910F91FF90EF90DF90CF900895A1
:1006300080E06AC3CF93DF9386E090E090934F020F
:1006400080934E02BAD3EC01E7EDF1E086E0DF01E2
:100650001D928A95E9F74ED710924F0210924E02E2
:10066000CE01DF91CF91089580915002089580913D
:1006700039020895609318017093190180931A014B
:1006800090931B0190E080E0089521E030911A02E0
:10069000311120E0FC01218321E030911B02311156
:1006A00020E0FC012283089580911A028F5F81323D
:1006B000A0F580931A0280911B028F5F843680F52B
:1006C00080931B0260910D0270910E0280910F02C7
:1006D000909110026F5F7F4F8F4F9F4F60930D027D
:1006E00070930E0280930F02909310020E94CC230D
:1006F0009B01AC0160911102709112028091130272
:10070000909114020E9482246093090270930A025D
:1007100080930B0290930C02089510921A02CBCF93
:1007200010921B02CFCFCF92DF92EF92FF921F93D6
:10073000CF93DF9380910F05815013E0823008F052
:1007400010E010930F0580910E058150D3E08230A8
:1007500008F0D0E0D0930E0580910D058150C3E0E4
:10076000823008F0C0E0C0930D0520910401309163
:1007700005014091060150910701609100017091BF
:10078000010180910201909103010E94CB226B0133
:100790007C01C092F704D092F804E092F904F09240
:1007A000FA0420E030E0A9010E942F2381116EC0DD
:1007B0008091140190911501A0911601B09117013B
:1007C0008093FB049093FC04A093FD04B093FE047B
:1007D000112309F457C0133009F456C010930F05C4
:1007E000C090FB04D090FC04E090FD04F090FE0467
:1007F00020E030E04FE753E4C701B6010E942F2309
:10080000181634F4C12CD12C8FE7E82E83E4F82E8F
:1008100069E070E080E090E0B0DCEC0190930605C8
:100820008093050520E030E0A901C701B6010E94D0
:100830007E2487FF03C0C12CD12C760120E030E458
:100840004CE956E4C701B6010E94822420E030E062
:100850004FE753E40E943323AB01BC017058CE0133
:1008600055DC809115029091160201969093160224
:1008700080931502DF91CF911F91FF90EF90DF9051
:10088000CF90089512E0AACF11E0A8CF20E030E089
:1008900044E353E4C701B6010E942F2318164CF11C
:1008A00020910C0130910D0140910E0150910F01EA
:1008B000C701B6010E9482242091100130911101DC
:1008C00040911201509113010E94CB226093FB04CE
:1008D0007093FC048093FD049093FE04DD2329F0C3
:1008E000D33029F0D0930E057BCFD2E0FBCFD1E0FF
:1008F000F9CF8091080190910901A0910A01B0916E
:100900000B018093FB049093FC04A093FD04B0932F
:10091000FE04CC2329F0C33029F0C0930D0560CF2D
:10092000C2E0FBCFC1E0F9CFE3EFF1E084A195A1F4
:10093000019695A384A30895EF92FF920F931F93BE
:10094000CF93DF93E3EFF1E080E090E0A0E8BFEB2E
:1009500081A792A7A3A7B4A78DEC9CECACE4BDE360
:10096000868F978FA0A3B1A384EB9FE2A2E7BCE0A0
:1009700084839583A683B7838FE793E0A7EDB4E2E2
:1009800080879187A287B38781E395E2AFE5B5E2DF
:1009900084879587A687B78786E59EEAA6E5BCEBA0
:1009A000808B918BA28BB38BA7EEB1E0B383A28334
:1009B000EDEDF1E01196FC93EE9385E391E09183E8
:1009C00080832FE035E0338322832EE035E03583CA
:1009D00024832DE035E0378326839187808787E065
:1009E00092E015969C938E93149787EF91E013965F
:1009F0009C938E93129789E092E017969C938E9326
:100A00001697CFEFD4E018821D8281E090E0A0E03D
:100A1000B0E089839A83AB83BC83E12C10E4F12E90
:100A20000CE916E420E030E040E85FE369E070E0C4
:100A300080E090E0E6DB9F838E8381E08D83DF9111
:100A4000CF911F910F91FF90EF9008958091FF0437
:100A500081112BC081E08093FF048091000590916B
:100A60000105A0910205B09103050197A105B1050B
:100A7000E1F4809104058823C1F069E070E080E032
:100A800090E07BDB909306058093050540E050E005
:100A900060E070E83BDB69E070E080E090E06DDBF7
:100AA0009093060580930505FDCB08954F925F92C4
:100AB0006F927F928F929F92AF92BF92CF92DF926E
:100AC000EF92FF920F931F93F89440902D02509055
:100AD0002E0260902F0270903002C0902102D090C0
:100AE0002202E0902302F0902402452B09F0A4C0DA
:100AF0009B01AC01241935094609570929013A011E
:100B00000091290210912A0220912B0230912C028F
:100B100048015901840C951CA61CB71C801691062F
:100B2000A206B306A0F4009125021091260220919E
:100B30002702309128020F5F1F4F2F4F3F4F009326
:100B400025021093260220932702309328028092D8
:100B5000290290922A02A0922B02B0922C020091BC
:100B600025021091260220912702309128028092BE
:100B7000310290923202A0923302B092340200937A
:100B80003502109336022093370230933802609377
:100B90002D0270932E0280932F0290933002A0E5D5
:100BA000B3ECA30192010E94B6286C0D7D1D8E1D31
:100BB0009F1D6093210270932202809323029093E1
:100BC0002402009118011091190120911A0130910D
:100BD0001B010F3F1F4F2F4F3F4FF1F000911801A6
:100BE0001091190120911A0130911B010E3F1F4FE6
:100BF0002F4F3F4F89F0C0901801D0901901E0901D
:100C00001A01F0901B0121E08C149D04AE04BF0476
:100C100008F420E02093390278941F910F91FF90FF
:100C2000EF90DF90CF90BF90AF909F908F907F908C
:100C30006F905F904F9008954B015C018418950868
:100C4000A608B708A3019201261B370B480B590BC6
:100C50006415750586059705D0F082169306A406DF
:100C6000B50640F420E030E0A90181149104A1040C
:100C7000B10491F4A0E5B3EC0E94B628A701960157
:100C8000261B370B480B590BCA01B901C5CF821679
:100C90009306A406B50670F7A0E5B3ECA501940190
:100CA0000E94B6286C0D7D1D8E1D9F1DB5CFFECEFA
:100CB000CF93DF9300D000D0CDB7DEB71C821B826C
:100CC0001A821982BE016F5F7F4FCE0103960E9488
:100CD000912069817A818B819C810E94DF19009724
:100CE00061F4BE016F5F7F4FCE0103960E949D208D
:100CF00069817A818B819C8124D50F900F900F9010
:100D00000F90DF91CF910895FF920F931F93CF9390
:100D1000DF93082F60E070E0CB010E945425FF2490
:100D2000F3940E94CA18EC01892B89F010E0CE3FA1
:100D30008FEFD80769F0002361F160E070E0CB012C
:100D40000E94542581E090E0892B59F322C011E0E4
:100D50001BD5EC01892B21F0CE3F8FEFD80759F737
:100D600011111EC011E0229609F410E00E947B18B8
:100D7000EC01892B21F0CE3F8FEFD807E1F611115E
:100D800011C011E0CE3F8FEFD80709F410E0011138
:100D90000BC0CE01DF91CF911F910F91FF9008956D
:100DA00011E0E4CF11E0F3CF60E070E0CB010E94EE
:100DB00054251F25812F90E0C7CFCF93DF931ED6F8
:100DC000D0E0C0E0892B71F06AE070E080E090E054
:100DD0000E94542581E098DF11D62196C03D27E07E
:100DE000D20781F710D60E94331A10925102109246
:100DF000500210924A0210924B0210924C02109232
:100E00004D02109246021092470210924802109230
:100E10004902109242021092430210924402109230
:100E2000450210923E0210923F0210924002109230
:100E3000410210923A0210923B0210923C02109230
:100E40003D024EEF5FEF6FEF7FEF4093180150933D
:100E5000190160931A0170931B0110923902E1E3AA
:100E6000F2E028E0DF011D922A95E9F710922D02A9
:100E700010922E0210922F0210923002109229022C
:100E800010922A0210922B0210922C02109225022C
:100E9000109226021092270210922802109221022C
:100EA000109222021092230210922402DF91CF911D
:100EB000089510925D0210925E0210925F021092ED
:100EC000600210925C02809165029091660290939C
:100ED0005B0280935A0210925902109258021092AB
:100EE000540210925502109256021092570210921C
:100EF00062021092610290E080E00895CF92DF924A
:100F0000EF92FF920F931F93CF938C01892B09F0DF
:100F100055C0209165023091660280915A029091ED
:100F20005B02409165025091660250935B024093D0
:100F30005A022817390781F010925902109258026C
:100F400010925402109255021092560210925702BB
:100F50001092620210926102809165029091660285
:100F6000019761F58091610290916202892B21F4D1
:100F700080911C01811112C08091610290916202E6
:100F80000197E1F48091540290915502A09156028C
:100F9000B09157020197A105B10581F41092540256
:100FA00010925502109256021092570210921C0194
:100FB00082E090E0909362028093610280916502EA
:100FC00090916602019709F01CC180917B0290917B
:100FD0007C028017910709F014C1809177029091EB
:100FE0007802A0917902B0917A02009709F409C1C0
:100FF0002091760221110DC0409177025091780224
:101000006091790270917A02452B462B472B09F4A7
:10101000F8C020916102309162022230310509F05E
:10102000F0C0209158022111ECC0FC01C080D18099
:10103000E280F38080915C02882309F4D3C0809120
:10104000680290916902892B09F4FDC02091680221
:101050003091690281E02230310509F080E0209171
:10106000680230916902C1E02130310549F02091D8
:10107000680230916902C1E02230310509F0C0E018
:10108000882309F456C02091720230917302409176
:10109000740250917502C701B6010E947E2487FD3B
:1010A00014C02091720230917302409174025091E9
:1010B000750260915D0270915E0280915F02909175
:1010C00060020E942F2387FD22C02091720230917E
:1010D00073024091740250917502C701B6010E94DB
:1010E0007E24181634F520917202309173024091DB
:1010F00074025091750260915D0270915E02809160
:101100005F02909160020E942F23811112C0809192
:101110006A0290916B02A0916C02B0916D02892BD2
:101120008A2B8B2B19F481E08093590281E0809304
:101130005802CC2309F456C02091720230917302F8
:101140004091740250917502C701B6010E942F238D
:1011500087FF14C020917202309173024091740293
:101160005091750260915D0270915E0280915F0204
:10117000909160020E947E2487FF22C0209172021B
:10118000309173024091740250917502C701B6010B
:101190000E942F23811126C0209172023091730288
:1011A000409174025091750260915D0270915E02EF
:1011B00080915F02909160020E947E24181694F440
:1011C00080916A0290916B02A0916C02B0916D02C5
:1011D000892B8A2B8B2B19F481E08093590281E0B3
:1011E0008093580281E090915802911180E08093A1
:1011F0005C02C0925D02D0925E02E0925F02F092C9
:101200006002012B09F067C1809161029091620236
:10121000892BD9F4109267021092580280911C0118
:10122000882379F082E090E09093620280936102DB
:1012300010921C01209165023091660281E0232BFF
:10124000E9F080E01BC081E00ACF10921C01809180
:101250006702882349F0109259021092620210929C
:10126000610210926702EDCF809165029091660253
:10127000892BE1F08091580210925802209161026E
:10128000309162022230310509F45EC088F42115E4
:10129000310509F448C02130310509F4F3C010923A
:1012A0005902109258021092670238C081E0E6CFCE
:1012B0002330310509F4B1C02430310581F7409164
:1012C0005402509155026091560270915702411597
:1012D00051056105710561F04150510961097109BC
:1012E00040935402509355026093560270935702F4
:1012F00040915402509155026091560270915702EC
:10130000452B462B472BD9F4209163023091640280
:101310002130310509F046C0109259021092620244
:10132000109261020CC080911C01882341F082E080
:1013300090E0909362028093610210921C011092DF
:10134000520280915902CEC08823C9F380916A026B
:1013500090916B02A0916C02B0916D021816190663
:101360001A061B060CF07DC0809165029091660202
:10137000019709F076C080916A0290916B02A0916A
:101380006C02B0916D028093540290935502A09329
:101390005602B093570283E090E0909362028093EC
:1013A0006102CDCF40916E0250916F026091700248
:1013B00070917102452B462B472BA9F010925902D0
:1013C00080916E0290916F02A0917002B0917102B3
:1013D0008093540290935502A0935602B093570203
:1013E00081E090E0DACF882399F080911D019091FF
:1013F0001E01A0911F01B09120018093540290938F
:101400005502A0935602B093570284E090E0C5CFF6
:101410001092590282E090E0C0CF809154029091E6
:101420005502A0915602B09157020097A105B1054F
:1014300059F00197A109B109809354029093550284
:10144000A0935602B0935702809154029091550296
:10145000A0915602B0915702892B8A2B8B2B09F051
:101460006ECF80911D0190911E01A0911F01B0913E
:101470002001892B8A2B8B2B09F44ECF81E080939E
:101480005902B3CF409154025091550260915602D7
:1014900070915702411551056105710561F0415088
:1014A00051096109710940935402509355026093A8
:1014B0005602709357024091540250915502609128
:1014C000560270915702452B462B472B09F037CF18
:1014D0008111C7CF9FCF80915202882309F431CF69
:1014E00080915302CF911F910F91FF90EF90DF9069
:1014F000CF90089510925D0210925E0210925F02EA
:101500001092600210925C021092620210926102CC
:1015100010925B0210925A0210927C0210927B028F
:1015200010925902109258021092540210925502D1
:1015300010925602109257021092530210925202C9
:1015400010927702109278021092790210927A0229
:10155000109276021092720210927302109274022C
:101560001092750288EE93E0A0E0B0E080931D0138
:1015700090931E01A0931F01B093200110926E0260
:1015800010926F02109270021092710210926A0211
:1015900010926B0210926C0210926D02109269020E
:1015A0001092680281E080931C01109267021092F1
:1015B000660210926502109264021092630290E03B
:1015C00080E008958091650290916602892B19F55B
:1015D00080911C01882351F080916702811106C01F
:1015E00081E0809353028093520208952091670214
:1015F00030911C0181E090E0332311F090E080E015
:1016000030E082239323892B21F01092530281E052
:10161000EACF10925202089582E090E0FA0191839D
:1016200080838FEF9FEF0895CF93DF93EA010097B8
:1016300011F00E94451B1982188290E080E0DF9132
:10164000CF910895DB01009719F48FEF8C930895E3
:101650002EEF2C930F968F30910508F033C0FC01CC
:10166000EC5CF44F0C94B028600B5E0B5C0B5A0BD7
:10167000580B540B560B520B500B4E0B4B0B470B8E
:10168000430B490B620B80E311968C93089589E21A
:10169000FBCF82E2F9CF11961C92089583E2F4CF3A
:1016A00081E2F2CF81E1F0CF87E2EECF8AE2ECCFA8
:1016B00080E1EACF84E2E8CF88E2E6CF86E2E4CFB9
:1016C00081E3E2CF80E2E0CF8091890290918A02AB
:1016D000089590938A0280938902089580918802E8
:1016E000089590918802892B809388020895982FFD
:1016F0009095809188028923809388020895809133
:10170000870208958091850290918602089561155F
:10171000710559F0FB0130E020E070E060E0241733
:10172000350719F06115710511F0CB010895A081FD
:10173000B181A817B90709F4BF012F5F3F4F369653
:10174000EECF80918B0281111CC043D249D290937D
:101750007E0280937D020E94BE140E94D01490935A
:101760008202809381020E94E5170E94EC179093F9
:10177000800280937F0281E080938B0290E080E082
:10178000089584EF9FEF08958F929F92AF92BF923A
:10179000CF92DF92EF92FF920F931F93CF93DF933D
:1017A000CDB7DEB72A970FB6F894DEBF0FBECDBF18
:1017B0001A86198618861F821E821D821C821B8231
:1017C0001A82198280918B0207EF1FEF882309F498
:1017D0008BC08E010D5F1F4F9E012B5F3F4FAE01EF
:1017E000495F5F4FBE01675F7F4F90E080E00E94DE
:1017F00065198C01009721F00596029708F0C7C083
:1018000089859A85009709F4EFC0ED80FE802B81D1
:101810003C812E0D3F1D4F8158854217530708F418
:10182000E3C0E80EF91ED7014C9120918902309156
:101830008A02232B09F494C0413F08F069C08CE16F
:10184000840F8D3008F483C08DE2840F803108F45A
:1018500081C088E3840F8B3008F47FC092E2C92EE8
:101860009BE0D92EECE0FBE06D817E81AE014F5F05
:101870005F4F89859A8509955C01C114D104A1F156
:1018800089809A808114910479F18B819C818815DB
:10189000990508F484C010E000E04B815C8170E0A1
:1018A00060E0C7010E94D82801151105E9F44981BB
:1018B0005A8169857A858D819E81680F791FC5015E
:1018C000F6010995E980FA800D811E812F81388506
:1018D00049855A856FEF7FEF81E090E00E94011902
:1018E0008C01892B09F053C0C8012A960FB6F894D1
:1018F000DEBF0FBECDBFDF91CF911F910F91FF9043
:10190000EF90DF90CF90BF90AF909F908F90089511
:1019100030E020E0220F331FF901E358FD4F019022
:10192000F081E02D309709F499CF842F90E009954C
:10193000009709F493CFDC011296ED91FC91139777
:101940001496CD90DC90309709F08ECF1EC021E028
:1019500030E0E0CF22E030E0DDCF23E030E0DACF4E
:10196000D12CC12CE4E1FBE04F3F09F07DCFE091A9
:101970007D02F0917E02309719F404EF1FEF0CC046
:101980008FEF90E009950097B1F604EF1FEF89857E
:101990009A85009709F4A8CF0E94451BA5CF0E9405
:1019A0002E1A8C0189859A850E94451B70E060E0A3
:1019B000C4010E94C71998878F830E94FE189E83D6
:1019C0008D836F8178856115710559F0C8010E947A
:1019D000C91C9A87898706EF1FEF892B09F05BCF17
:1019E0005CCF08EF1FEF59CF08EF1FEFD0CF20914A
:1019F0008B022111DAC787EF9FEF0895809189024A
:101A000090918A0208950E94F1170E944B17EDD021
:101A1000EDE7F2E088E0DF011D928A95E9F7109288
:101A20008B0290E080E0089586E090E0FA019183D7
:101A3000808390E080E0089547E050E068E371E043
:101A400066CEDF92EF92FF920F931F93CF93DF93B7
:101A50008A01EC01C60FD71FE0908F02F090900230
:101A6000D9800E94161AD816190678F082E090E004
:101A7000F801918380838EEF9FEFDF91CF911F91CB
:101A80000F91FF90EF90DF900895EF2841F482E0EE
:101A900090E0F8019183808384EF9FEFEECF8981FE
:101AA00080938E0290E00196F8019183808390E00C
:101AB00080E0E3CFCF93DF93EA010E945D16882395
:101AC00021F00E94231A0E945E1682E090E0998322
:101AD00088838BEF9FEFDF91CF910895CF93DF93B2
:101AE000EB0186E0FB0111928A95E9F78FEF88837D
:101AF000F5DD898304DE8A8305DE9D838C83DF9197
:101B0000CF910895CF93DF93EA010E94601681116F
:101B100009C082E090E09983888385EF9FEFDF9191
:101B2000CF91089590E080E0D4DD81E090E099834A
:101B3000888390E080E0F3CF0F931F93CF93DF93E0
:101B4000EA018C01060F171F0E94601681110BC05D
:101B500082E090E09983888385EF9FEFDF91CF91BA
:101B60001F910F910895F8018181823038F082E051
:101B700090E0998388838EEF9FEFF0CF81E090E033
:101B8000A8DD88E090E09983888390E080E0E6CF4C
:101B9000CF93DF930097D1F4EB01FB01329686E0FF
:101BA000DF011D928A95E9F78FEF888385E08983AD
:101BB0001A820E94161A8B830E94151A9D838C83A9
:101BC00081E08E838F83DF91CF910895DF91CF9154
:101BD00039CD8CE19DE090938D0280938C02089525
:101BE00080918C0290918D02089510928D02109236
:101BF0008C02089580918F02909190020895411176
:101C000005C0611571058105910561F060938F0232
:101C1000709390028093910290939202409393026A
:101C200081E0089580E00895FF920F931F93CF9372
:101C3000DF938A01EC01C60FD71FF9800E94161AA4
:101C4000F816190668F082E090E0F801918380832D
:101C50008EEF9FEFDF91CF911F910F91FF9008952D
:101C60006C817D818E819F814B81C9DF811108C08C
:101C700082E090E0F8019183808384EF9FEFEACFC8
:101C8000898180938E0290E00196F8019183808390
:101C900090E080E0DFCFCF93DF93EA01FC01E60F15
:101CA000F71F64817581868197814381A8DF811147
:101CB00009C082E090E09983888384EF9FEFDF91F1
:101CC000CF91089581E090E09983888390E080E04F
:101CD000F6CFEFE8F2E04081518162817381480FD5
:101CE000511D611D711D408351836283738308956B
:101CF000CF93C0918E024C2F50E060918F02709173
:101D0000900201960E94CF288C2FE3DF10928E0262
:101D1000CF910895009799F480918F02909190024D
:101D20002FEFFB012083892B59F020918E0230E0A8
:101D30002F5F3F4F2417350719F4CB01D9CF82CC41
:101D40000895009799F480918F02909190022FEF5F
:101D5000FB012083892B59F020918E0230E02F5F08
:101D60003F4F2417350719F4CB01C2CF6BCC089530
:101D70002DE0AC01249FC001259F900D1124E0911E
:101D80009802F0919902E80FF91F238134812250C3
:101D9000310981E02230310508F080E008950F9389
:101DA0001F93CF93DF9300919A0210919B02D0E092
:101DB000C0E080E00C171D0749F491E0811190E02C
:101DC000892FDF91CF911F910F9108958111F5CF48
:101DD000CE01CEDF2196EECFA0919802B09199026C
:101DE000109729F120919A0230919B028217930754
:101DF000F0F45DE0589F9001599F300D1124A20F1F
:101E0000B31FED91FC911197309789F012968C9148
:101E1000681768F485E0689FE00DF11D112480814A
:101E20009181892B21F081E09281491708F080E0AF
:101E30000895EF92FF920F931F93CF93DF93EA01E0
:101E4000FC01E60FF71F02811381E480F5804F2D1E
:101E50006E2DC801C1DF81110DC082E090E0998331
:101E600088838EEF9FEFDF91CF911F910F91FF90AD
:101E7000EF900895C8017CDF882339F082E090E07C
:101E80009983888388EF9FEFEECF1093280100930A
:101E90002701E0922901F0922A0181E090E09983E4
:101EA000888390E080E0DFCFCF92DF92EF92FF92C5
:101EB0000F931F93CF93DF937A01EC01C60FD71FC7
:101EC000C0902701D09028010091290110912A018A
:101ED000412F602FC60180DF811110C082E090E0A9
:101EE000F701918380838AEF9FEFDF91CF911F915C
:101EF0000F91FF90EF90DF90CF900895C60138DFEB
:101F0000882341F082E090E0F7019183808388EF9D
:101F10009FEFEBCF4C815D816E817F819A818981BA
:101F20008F3F41F082E090E0F701918380838EEF54
:101F30009FEFDBCFEDE0EC9D9001ED9D300D112486
:101F4000E0919802F0919902E20FF31F0190F08165
:101F5000E02D25E0029FE00DF11D11240190F0819C
:101F6000E02D27E0129FE00DF11D11248083918365
:101F70008B81828343835483658376831F5F1093B1
:101F80002A0181E090E0F7019183808390E080E076
:101F9000ACCFEF92FF920F931F93CF93DF937A0111
:101FA0008C01060F171FC0919802D09199022097BB
:101FB00081F021E030E0F8018281938140919A0222
:101FC00050919B028417950710F030E020E0232BFE
:101FD00071F482E090E0F701918380838EEF9FEFB0
:101FE000DF91CF911F910F91FF90EF9008954DE0F9
:101FF000489F9001499F300D1124C20FD31FB8DEB6
:10200000882341F082E090E0F7019183808388EF9C
:102010009FEFE6CFF8012481358120383105C8F6DD
:1020200087818111D6CF4181842F90E08F7E0097E8
:1020300041F082E090E0F7019183808386EF9FEF8B
:10204000CFCF4F833E832D83268128871986223068
:1020500010F421E0288721E030E0F701318320836C
:10206000BFCF88E090E0FA019183808390E080E028
:102070000895FB018FEF808381E181838FEF9FEFD4
:102080009383828380E890E095838483168217820D
:102090000895FB018FEF808391E091838283938386
:1020A000848384E3858381E090E097838683089529
:1020B0004BE050E062E671E02ACB8F929F92BF9294
:1020C000CF92DF92EF92FF920F931F93CF93DF9304
:1020D000EA01FC01E60FF71F828193810481B5803C
:1020E000E0919802F0919902309791F482E090E0AB
:1020F000998388838CEF9FEFDF91CF911F910F9190
:10210000FF90EF90DF90CF90BF909F908F900895B9
:1021100020919A0230919B028217930738F082E057
:1021200090E0998388838EEF9FEFE6CF2DE0289F84
:102130006001299FD00C1124EC0DFD1DE080F18081
:10214000E114F10499F28281081748F785E0089FAD
:1021500080011124E00EF11EF70180819181892B0D
:1021600029F6BB20E1F2F7E0BF9E40011124C40133
:102170000E94FA1AF70191838083E0919802F0910E
:102180009902EC0DFD1D0190F081E02DE00FF11F93
:1021900080819181009739F482E090E0998388836F
:1021A0008DEF9FEFA9CFA40170E060E00E94D828D6
:1021B0008091980290919902C80ED91EF6018081F3
:1021C0009181080F191FF801B28281E090E0998394
:1021D000888390E080E090CFAF92BF92CF92DF9261
:1021E000FF920F931F93CF93DF93EA01FC01E60F59
:1021F000F71F82819381F4800091980210919902D7
:102200000115110581F482E090E0998388838CEFB9
:102210009FEFDF91CF911F910F91FF90DF90CF90B3
:10222000BF90AF90089520919A0230919B0282173F
:10223000930738F082E090E0998388838EEF9FEFD8
:10224000E8CF2FEF2F0D2C3FA8F72DE0289F60013E
:10225000299FD00C11240C0D1D1DF8018081918146
:10226000892B89F6F5E0FF9E50011124C5010E94DB
:10227000FA1AF80191838083E0919802F091990213
:10228000EC0DFD1D80819181009739F482E090E092
:10229000998388838DEF9FEFBCCFA50170E060E04C
:1022A0000E94D828E0919802F0919902EC0DFD1D52
:1022B000F28281E090E09983888390E080E0A9CF6A
:1022C000CF92DF92EF92FF920F931F93CF93DF9302
:1022D000860F971FFC0102811381809198029091D3
:1022E0009902892B81F082E090E0FA01918380834A
:1022F0008CEF9FEFDF91CF911F910F91FF90EF90A7
:10230000DF90CF900895C801B0E0A0E00197A10947
:10231000B1098F3F9F4FA105B10540F082E090E0E9
:10232000FA01918380838EEF9FEFE4CF7A018DE0F5
:10233000809F6001819FD00C1124C6010E94FA1A6F
:10234000EC01009741F482E090E0F70191838083F3
:102350008DEF9FEFCFCFA60170E060E00E94D828FC
:10236000D0939902C093980210939B0200939A0213
:1023700090E080E02FEF3FEF8017910741F481E07C
:1023800090E0F7019183808390E080E0B3CF3C87B9
:102390002B8701962D96F0CFCF92DF92EF92FF928E
:1023A0000F931F93CF93DF93EC01D12CC12C10E03E
:1023B00000E0F12CE12C8A818017110609F0BCF4B1
:1023C000AE01455F5F4F63E070E0C7010E94711B83
:1023D000009721F02FEF3FEF3C872B87DF91CF91C4
:1023E0001F910F91FF90EF90DF90CF900895E881BB
:1023F000F981EC0DFD1D23813481C9010196011580
:10240000110519F44F8144FD049661E070E0BFD7D7
:10241000E816F90608F47C010F5F1F4F85E0C80E2F
:10242000D11CC9CFF894209196023091970281E097
:102430002115310509F080E0232B09F078940895E7
:102440004F925F926F927F928F929F92AF92BF92C4
:10245000CF92DF92EF92FF920F931F93CF93DF9370
:102460003C01660E771EF301828193814C01B12CF1
:10247000A12CC0919802D0919902209769F021E097
:1024800030E060919A0270919B028617970710F0D6
:1024900030E020E0232BC1F482E090E0FA01918348
:1024A00080838EEF9FEFDF91CF911F910F91FF906F
:1024B000EF90DF90CF90BF90AF909F908F907F90E4
:1024C0006F905F904F90089580922B0190922C0115
:1024D000A0922D01B0922E016DE0689F9001699F3E
:1024E000300D1124C20FD31FF3018181833040F0DE
:1024F00082E090E0FA019183808386EF9FEFD3CF53
:102500002A012B813C81232BF1F4288139819F8181
:1025100091FF2EC0232B09F464C020919D029A8163
:10252000422F490F5527551FBA0141E050E061384D
:10253000710514F050E040E0452B09F452C02A87A1
:10254000920F90939D028150823008F476C06ADF2A
:10255000882309F4C7C0F3018181813009F480C068
:1025600008F470C0823009F4B5C090E080E090C0FB
:10257000232BB9F120919C029A81E22FE90FFF27CA
:10258000FF1F41E050E0ED3FF10514F050E040E066
:10259000452B39F12A87920F90939C02D4CFA081CA
:1025A000B181A20FB31F11966C91060F111D0196F8
:1025B000295F3F4F8417950794F3C114D104C9F4E0
:1025C0008F8184FF16C031D721E0A8014B5F5F4F98
:1025D0008417950708F420E0A7014B5F5F4F211196
:1025E0000EC082E090E0F2019183808387EF9FEF3D
:1025F0005ACF1BD721E0A8014F5F5F4FE9CF8881F9
:102600009981E80EF91EF70114830383FFEFCF1AB7
:10261000DF0A7A018A818C151D0409F00CF497CF2A
:10262000E881F981EE0DFF1D428150E030E020E0AD
:1026300010E000E090E080E0BDCFF12CE12CD12C47
:10264000C12CE8CF81E090E09C838B83A8DB8823BA
:1026500009F48BCF81E090E03CD880E448D885CF66
:102660008B859C85019651F083E090E09C838B8361
:1026700082E090E02ED880E434D877CF23E0821631
:102680009104A104B1047CF4CE0186DE009761F3CD
:10269000789422E030E0F20131832083892BF9F035
:1026A0008DEF9FEF00CF2D813E8180912101909190
:1026B000220128173907C1F6609125017091260182
:1026C000AE01455F5F4F80912301909124010E94EC
:1026D000881CDCCF82E090E09C838B8346CF90E027
:1026E00080E0E1CE82E090E0F2019183808385EF8B
:1026F0009FEFD9CE8F929F92AF92BF92CF92DF92EF
:10270000EF92FF920F931F93CF93DF93EA018C0117
:10271000060F171FF8018181833098F082E090E066
:102720009983888386EF9FEFDF91CF911F910F915F
:10273000FF90EF90DF90CF90BF90AF909F908F90E1
:1027400008958091980290919902892B61F081E01F
:1027500090E020919A0230919B02232B11F490E09B
:1027600080E0892B39F482E090E0998388838EEFB2
:102770009FEFDACF57DE882309F4D6C0F8018181B4
:10278000813009F48CC0E8F0823099F420919A02EB
:1027900030919B02E0919802F091990290E080E0E4
:1027A00041E050E02817390709F0B4C0F8DA811188
:1027B00017C0789481E090E09983888390E080E06E
:1027C000B3CF20919A0230919B02E0919802F09150
:1027D000990290E080E041E050E02817390741F489
:1027E00081E090E00E94690B80E40E94770BE1CFCA
:1027F00063817481672B11F05483438301963D9666
:10280000ECCFE0919802F0919902E00FF11F238143
:1028100034812230310569F4238534852F3F3F4FC1
:1028200041F423E0C216D104E104F1040CF5CF0118
:10283000B3DD4FEFC41AD40AE40AF40A035F1F4F52
:1028400040919A0250919B0270E060E0C416D50658
:10285000E606F70664F50097A1F27894892B09F44F
:10286000A9CF82E090E0998388838DEF9FEF5CCFC2
:102870004581568120912101309122014217530751
:10288000C1F6AF01455F5F4F609125017091260150
:1028900080912301909124010E94881CCACF10E0EE
:1028A00000E090E080E0C12CD12C7601C9CF0097E8
:1028B000A1F610E000E0812C912C540183E0E82E79
:1028C000F12C1AC0E0919802F0919902E00FF11FEB
:1028D00083819481029749F4F482E38282E090E05C
:1028E0000E94690B80E40E94710B8FEF881A980A8E
:1028F000A80AB80A035F1F4F80919A0290919B0229
:10290000B0E0A0E088169906AA06BB06DCF290E0CB
:1029100080E0A3CF638174816230710511F4548328
:10292000438301963D963ECF82E090E09983888371
:1029300085EF9FEFF9CE0097B9F48FEFFB0180830D
:1029400020912B0130912C014DE0429FC001439F0B
:10295000900D1124E0919802F0919902E80FF91F6F
:102960008285FB01818308950C94220B88E090E01E
:10297000FA019183808390E080E00895109297029D
:1029800010929602E8E9F2E086E0DF011D928A9556
:10299000E9F788E590E19093950280939402089579
:1029A000809194029091950208952F923F924F92B8
:1029B0005F926F927F928F929F92AF92BF92CF92CF
:1029C000DF92EF92FF920F931F93CF93DF93CDB7D8
:1029D000DEB762970FB6F894DEBF0FBECDBFF89496
:1029E00020919602309197022F5F3F4F30939702CC
:1029F00020939602789420919802309199023B831B
:102A00002A83232B09F456C120919A0230919B020C
:102A1000232B09F44FC14D875E876F87788B9C8786
:102A20008B878A819B819A8B898BD12CC12C1982AF
:102A300010E000E080919A0290919B02C816D9069E
:102A400018F43981332329F1F894809196029091FA
:102A50009702019790939702809396027894C80109
:102A600062960FB6F894DEBF0FBECDBFDF91CF9157
:102A70001F910F91FF90EF90DF90CF90BF90AF909C
:102A80009F908F907F906F905F904F903F902F908E
:102A90000895B60190E080E029D38887A989BA8992
:102AA00017968C91179781FD8DC013968D919C91EF
:102AB0001497039709F086C01596ED91FC91FF835A
:102AC000EE832B853C85E217F30709F07BC0712C60
:102AD000612C512C412C63C091D39A87898710E0D7
:102AE0004114510431F4A989BA8917961C911295A1
:102AF0001170A989BA89ED91FC91E60DF71D23802B
:102B00003480111169C0BFEF2B1A3B0A61E070E0FD
:102B1000C1013DD45C01A989BA891B968D919C9114
:102B20008F3F980709F45CC0B50133D74C0100977B
:102B300009F4BBC0E985FA85E80FF91FA989BA89AC
:102B40001A968C91840D808311114DC08F010F5FF7
:102B50001F4F8091210190912201AE81BF81A81762
:102B6000B90709F09DC081E090E0B885BB2311F062
:102B700090E080E0710109851A859501A401B601F4
:102B80009195819591093DD38C01892B11F0C40158
:102B90007CD58FEF481A580A95E0690E711CA989F7
:102BA000BA8912968C918415150429F024F0B98104
:102BB000BB2309F491CFE885EE2321F0B60190E024
:102BC00080E096D2FFEFCF1ADF0A29893A89235F86
:102BD0003F4F3A8B298B2ECFE5E02E0E311C96CF3E
:102BE000C50108D5A3CF8D859E85AF85B889818322
:102BF0009283A383B4838F010B5F1F4FAACFE08022
:102C0000F180EC81FD81EE0EFF1ED70113966D91D0
:102C10007C9114978C918F3FE1F1E1E0F0E002C0EC
:102C2000EE0FFF1F8A95E2F7CF01092E000CAA0BC9
:102C3000BB0BFB0140815181628173818423952309
:102C4000A623B72321E0892B8A2B8B2B09F420E0C4
:102C5000D8012C93D70111968C91080F111DEA8190
:102C6000FB813196FB83EA832C813D81295F3F4FB5
:102C70003D832C83A989BA89ED91FC91E60DF71D5E
:102C800082812A813B818217130611F00CF0B7CFA5
:102C90006ACFF701418150E0C8010E94CF28DACF06
:102CA0001D821C821B821A82E5CF31E0398306EF38
:102CB0001FEF6FCF10E000E0C7CEB4CB789408953B
:102CC0002F923F924F925F926F927F929F92AF921C
:102CD000BF92CF92DF92EF92FF920F931F93CF9309
:102CE000DF9300D000D000D0CDB7DEB700919802BE
:102CF00010919902992493940115110509F43EC08D
:102D0000A0909A02B0909B028DDB982E8823B1F19F
:102D1000109299021092980210929B0210929A02BD
:102D200010929C0210929D028FEF9FEFDC01809326
:102D30002B0190932C01A0932D01B0932E01789438
:102D400076D31E830D83C12CD12C7601C501B0E052
:102D5000A0E089839A83AB83BC8322242A94322CFB
:102D600089819A81AB81BC81C816D906EA06FB0627
:102D7000F4F0C8018AD480E40E94770B892D26964E
:102D80000FB6F894DEBF0FBECDBFDF91CF911F917C
:102D90000F91FF90EF90DF90CF90BF90AF909F90FA
:102DA0007F906F905F904F903F902F900895AD81EE
:102DB000BE8193E0C916D104E104F1040CF51B9621
:102DC0008D919C918F3F980709F023D5ED81FE816D
:102DD00034862386ED81FE8180819181B12CA12CE6
:102DE000412C512C3201892B59F5BFEFCB1ADB0A4C
:102DF000EB0AFB0AED81FE813D96FE83ED83B0CFA9
:102E000015962D913C911697809121019091220168
:102E100028173907F9F61B968D919C91A8D5DACF22
:102E20008A0D9B1DDC018D919C91009709F02DD49A
:102E3000BFEF4B1A5B0A6B0A7B0AE5E0AE0EB11CD2
:102E4000AD81BE818D919C91119712964C9150E06D
:102E500070E060E044165506660677060CF315D45C
:102E6000C4CFCF93DF93EA012BDF811109C082E049
:102E700090E09983888385EF9FEFDF91CF9108954C
:102E800081E090E00E94690B81E090E09983888363
:102E900090E080E0F2CF14DF10929502109294023D
:102EA000089542E050E064EA71E00C94870BFF92D1
:102EB0000F931F93CF93DF938A01EC01C60FD71FA7
:102EC000F980B4D20897F816190671F068F082E01C
:102ED00090E0F801918380838EEF9FEFDF91CF9197
:102EE0001F910F91FF9008956C817D818E819F814C
:102EF0004B810E94FF0D811108C082E090E0F80133
:102F00009183808384EF9FEFE9CFF9800E94FA0DCF
:102F10004F2D50E0BE01685F7F4F0E94CF2889810E
:102F20000E94690E81E090E0F8019183808390E037
:102F300080E0D4CFDF92EF92FF920F931F93CF9355
:102F4000DF938A01EC01C60FD71F0E94FA0D7C01A6
:102F5000D9806CD2DD2059F0029721E030E0D816FC
:102F6000190619F010F030E020E0232B79F482E00C
:102F700090E0F801918380838EEF9FEFDF91CF91F6
:102F80001F910F91FF90EF90DF900895EF2841F48B
:102F900082E090E0F8019183808384EF9FEFEECF91
:102FA000F9800E94FA0D4F2D50E0BE016E5F7F4FF9
:102FB0000E94CF2889810E94690E81E090E0F8018B
:102FC0009183808390E080E0D9CF81E597E1909371
:102FD0009F0280939E02089580919E0290919F028D
:102FE00008950895FC0111821082938382830895CD
:102FF000DB011D921C92DC011296ED91FC9113975E
:103000007183608313967C936E9312970895FC01ED
:1030100080819181DB018D939C93A081B181109778
:1030200041F08D919C9191838083892B11F4F383DE
:10303000E2830895FC0180819181DB018D939C9353
:10304000892B11F473836283718360830895FC017B
:1030500011821082938382830895CF93DF9300D0EF
:10306000CDB7DEB71A821982F894BE016F5F7F4F29
:1030700085EA92E0CCDF89819A81009709F005D337
:1030800089819A81892B89F7BE016F5F7F4F89EA19
:1030900092E0BDDF89819A81009709F0F6D289819B
:1030A0009A81892B89F778940F900F90DF91CF91B7
:1030B0000895CF93DF9300D0CDB7DEB71A8219827F
:1030C000F894BE016F5F7F4F81EA92E0A0DF8981B3
:1030D0009A81009709F0D9D289819A81892B89F741
:1030E00078940F900F90DF91CF91089581E008952B
:1030F00090E080E00895EF92FF920F931F93CF939B
:10310000DF9300D0CDB7DEB71A8219828091A0027A
:1031100007EF1FEF8823A1F1F894BE016F5F7F4F87
:1031200089EA92E074DF789489819A81EE24E394AD
:10313000F12C892B51F4F894BE016F5F7F4F85EA23
:1031400092E065DF7894F12CE12C89819A810EEF71
:103150001FEF0097A9F0FC014281538164E070E009
:1031600014D68C01892B61F0F89469817A81C701AA
:10317000880F991F880F991F8B559D4F5BDF78949F
:10318000C8010F900F90DF91CF911F910F91FF9089
:10319000EF9008950F931F93CF93DF9300D000D04B
:1031A000CDB7DEB71C821B821A8219828091A002E1
:1031B00007EF1FEF8823C1F0AE014D5F5F4F64E062
:1031C00070E0CE01019654D68C01892B69F4E98117
:1031D000FA818B819C8193838283F89469817A81BF
:1031E00081EA92E005DF7894C8010F900F900F906C
:1031F0000F90DF91CF911F910F91089559D70496A9
:1032000008958F929F92AF92BF92CF92DF92EF92EA
:10321000FF920F931F93CF93DF9300D0CDB7DEB70C
:103220001A821982BC016F5F7F4F6330710598F07D
:10323000AA24AA94BA2CC5010F900F90DF91CF91C8
:103240001F910F91FF90EF90DF90CF90BF90AF90C4
:103250009F908F9008954115510551F348015901F0
:103260008A016C01CBDF8815990511F7E114F1048F
:10327000F9F28E0D9F1DA816B906D0F28091A0021A
:103280008823F1F0F894B501645071099701AE01FB
:103290004F5F5F4FC801049680D65C01892B71F4A3
:1032A00089819A81F80193838283C601880F991FCF
:1032B000880F991FB8018B559D4F9ADE7894BBCF2C
:1032C00087EFA82EBB24BA94B6CFAF92BF92CF920D
:1032D000DF92EF92FF920F931F93CF93DF9300D073
:1032E000CDB7DEB71A821982892B09F047C0611564
:1032F000710509F443C04115510509F43FC021157A
:10330000310509F43BC001151105C1F18091A002FE
:103310008823B9F179016A015B01F894BE016F5FFE
:103320007F4F81EA92E073DE789489819A810097D9
:1033300059F1DC0112966D917C91A801049646D654
:103340008C01E981FA81D501ED93FC93828193810F
:103350000496F6019183808351DFD7018D939C936E
:10336000C8010F900F90DF91CF911F910F91FF90A7
:10337000EF90DF90CF90BF90AF9008950FEF1FEFC9
:10338000EFCF07EF1FEFECCF0EEF1FEFE9CFCF939B
:10339000DF93EC01672B71F494D68C179D0760F0D6
:1033A00087D62496C80FD91F86D68C0F9D1FDF9114
:1033B000CF91089583D6F1CF90E080E0F8CF0F93BE
:1033C0001F93CF93DF932091A00221112BC08B017B
:1033D000EC0185EA92E006DE89EA92E003DE81EA0A
:1033E00092E000DE86D00097C1F46BD670E060E01A
:1033F000CEDF4FE251E062E070E073D1009769F4F4
:1034000080912F01909130016ED6B801CE01A3D4E6
:10341000009719F421E02093A002DF91CF911F9132
:103420000F91089584EF9FEFF8CF48C64AC6CF9317
:10343000DF934AD6EC01892B11F40FDE3ADECE0180
:10344000DF91CF910895CF93DF933ED6EC01892B86
:1034500009F403DECE01DF91CF91089580912F0111
:10346000909130010895CF93DF938091A002D0E036
:10347000C0E08823D1F03CD6EC01892BB1F4EDDD1E
:1034800018DE80912F0190913001C3D1D2D2EC018E
:10349000892B59F485EA92E0DADD89EA92E0D7DDFA
:1034A00081EA92E0D4DD1092A002CE01DF91CF91AB
:1034B0000895CF93DF930097A1F4DF91CF91089502
:1034C000EC011A821982A883309711F092838183CC
:1034D0002F5F3F4FFC01860F971F4217530781F75D
:1034E000ECCF30E020E0F0E0E0E0AFEF6F5F7F4F47
:1034F000F4CFAF92BF92CF92DF92EF92FF920F93F1
:103500001F93CF93DF9382EB93E07C012CEFE222B9
:1035100080EBC82E81E0D82E96EBA92E91E0B92E33
:10352000C9EFD3E08E01D6014D915D916D01F5019A
:10353000619171915F01D8011196FC92EE921596FE
:103540005C934E93149713965C934E931297179631
:103550007C936E9316979B012F5F3F4F249FC00172
:10356000259F900D349F900D112419969C938E9356
:103570001897C7019EDFF80180859185E80EF91E36
:10358000065F1F4FF6EBCF16F1E0DF0661F6EFEABC
:10359000F2E080E091E0DF019C011D92215030407B
:1035A000E1F71092AE021092AD0281E294E01F8E1C
:1035B0001E8E1BA21AA219A218A21DA21CA21FA233
:1035C0001EA22A968C179D0791F71092F60310926F
:1035D000F5031092F8031092F70390E080E0DF917A
:1035E000CF911F910F91FF90EF90DF90CF90BF9000
:1035F000AF900895009761F1F8948131910580F4BE
:103600008091FB039091FC03892B29F5809105049F
:1036100090910604892B31F021E081E090E00BC00D
:103620008197A8F480910F0490911004892B79F070
:1036300022E082E090E0EAE0E89FD001E99FB00D4F
:103640001124A750BC4F8D919C91009741F4789420
:1036500090E080E0089520E090E080E0ECCFE29FF1
:10366000F0011124E750FC4FDC0111964D915C9163
:103670005183408342815381415051095383428396
:10368000FC012193CF0178940895009749F1DC0162
:103690008E91873041F4E091F703F091F803309771
:1036A000F9F0CD0109948730D8F4282F30E0F89450
:1036B0008FEF8C938AE0829FF001839FF00D11249D
:1036C000E750FC4F8081918112969C938E931197C5
:1036D000B183A083828193810196938382837894BE
:1036E0000895CF92DF92EF92FF920F931F93CF93A3
:1036F000DF939C0182EB92E08C7F4115510509F428
:1037000085C02115310509F481C06115710509F4E1
:103710007DC08A01AB01B9016D5F7F4F6C7F9B015A
:103720002F5F3F4F249F7001259FF00C349FF00CBA
:103730001124F894E9EFF3E023E030E0E901A6A1D9
:10374000B7A1C68CD78CCD2809F054C0109709F0CA
:103750003CC0C090AD02D090AE022DEF30E02C19ED
:103760003D092E153F0530F47894CFEFDFEF86EF5B
:103770009FEF1FC02AE02C9FF0012D9FF00D112418
:10378000E750FC4F91838083558344835383428366
:1037900077836683F186E0868CDEEC0CFD1CF0926C
:1037A000AE02E092AD027894CF3FDC0701F390E0E7
:1037B00080E0F801D183C083DF91CF911F910F91F9
:1037C000FF90EF90DF90CF900895AE15BF0590F079
:1037D0002AE02C9FF0012D9FF00D1124E750FC4FA3
:1037E00091838083558344835383428377836683A5
:1037F00060DED9CF8A0F9B1F2F5F3F4F3A9627304D
:10380000310509F09BCFCFEFDFEFCDCF8FEF9FEFEB
:10381000D3CFFF920F931F93CF93DF939C0123503D
:1038200031092430310508F070C0EC01F89486E0CD
:103830009AE09C9FD0019D9FB00D1124AF5FBB4FBC
:10384000082F10E0909FF001919FF00D1124E75098
:10385000FC4F20813181C017D10714F1FF24F3946C
:10386000232B41F52AE0209FF001219FF00D112428
:10387000E750FC4F8091AD029091AE02408551859A
:10388000841B950B9093AE028093AD022C9FF001A8
:103890002D9FF00D1124E750FC4F118610861CC09F
:1038A000232B39F42D913C911197232BA9F48150AE
:1038B000C7CFF12C8AE08C9FF0018D9FF00D112471
:1038C000E750FC4F4085518570E060E08081918138
:1038D0000E94D828F110C6CF8AE08C9FF0018D9FFE
:1038E000F00D1124E750FC4F1182108215821482D2
:1038F0001382128217821682789490E080E0DF9122
:10390000CF911F910F91FF9008958FEF9FEFF7CF09
:103910004115510549F1009739F16115710521F102
:10392000F8942091F5033091F603232BB9F42091FC
:10393000F7033091F803232B89F49093F6038093D7
:10394000F5037093F8036093F703789427E030E071
:1039500090E080E0FA0131832083089578942FEF7E
:103960003FEF86EF9FEFF6CF8FEF9FEF089507971A
:1039700069F4F8941092F6031092F5031092F8038C
:103980001092F703789490E080E008958FEF9FEF16
:1039900008956115710519F4F0E0E0E011C0873079
:1039A000910581F4E091F503F091F6033097A1F3CE
:1039B000CB0101960995009779F3FC0187E081938B
:1039C000CF0108959C01235031092430310520F79F
:1039D0002AE0289FD001299FB00D1124A750BC4F89
:1039E0002D913C911197232BB9F216962D913C9174
:1039F00017972617370780F2F89412962D913C916D
:103A000013972115310529F0ED91FC91119730970D
:103A100011F47894C1CF4181528111965C934E93F9
:103A20002150310913963C932E93129781937894E9
:103A3000C7CF86E4EFEAF3E0DF01482F1D924A95F5
:103A4000E9F7EFEAF2E020E031E0DF01A9011D92A1
:103A500041505040E1F71092AE021092AD02E9EFF2
:103A6000F3E0DF011D928A95E9F7E5EFF3E084E0EA
:103A7000DF011D928A95E9F790E080E00895CF93E9
:103A8000DF93C0913101D0913201CF3FDC0759F46F
:103A9000C0D3909332018093310197FF09C0D09336
:103AA0003201C093310184EF9FEFDF91CF910895F0
:103AB00090E080E0FACF8230910528F480933F04B3
:103AC00090E080E008958FEF9FEF08954F925F920E
:103AD0006F927F92AF92BF92CF92DF92EF92FF925E
:103AE0000F931F93CF93DF9300D0CDB7DEB71A8229
:103AF0001982009709F478C06115710509F474C042
:103B0000209131013091320107EF1FEF2F3F3F4FDE
:103B100009F444C06B015C01412C512C3201F12CA1
:103B2000E12C10E000E09E012F5F3F4FA6014E19EF
:103B30005F09B5016E0D7F1D8091310190913201B9
:103B4000C6D3892B09F04AC089819A81009741F434
:103B5000E114F10429F420913F04222309F441C027
:103B6000E80EF91EEC14FD04C8F480E8481684E859
:103B700058068EE16806710418F560E070E0CB012C
:103B800093D72AE0420E511C611C711C0A3F4FEF73
:103B9000140721F0043F8FEF1807A1F4C8010F901C
:103BA0000F90DF91CF911F910F91FF90EF90DF90D9
:103BB000CF90BF90AF907F906F905F904F9008959F
:103BC00001EF1FEF81E090E0013F2FEF120711F0AE
:103BD00090E080E0892B09F4A6CFE0CF04EF1FEF3F
:103BE000DDCF0AEF1FEFDACF0FEF1FEFD7CF4F92E6
:103BF0005F926F927F92AF92BF92CF92DF92EF92DD
:103C0000FF920F931F93CF93DF9300D0CDB7DEB712
:103C10001A821982009709F478C06115710509F4B8
:103C200074C0209131013091320107EF1FEF2F3F17
:103C30003F4F09F444C06B015C01412C512C32010F
:103C4000F12CE12C10E000E09E012F5F3F4FA60118
:103C50004E195F09B5016E0D7F1D80913101909164
:103C60003201EBD2892B09F04AC089819A810097F1
:103C700041F4E114F10429F420913F04222309F4D2
:103C800041C0E80EF91EEC14FD04C8F480E84816A3
:103C900086E9580688E96806710418F560E070E066
:103CA000CB0102D72AE0420E511C611C711C0E3F51
:103CB0004FEF140721F0043F8FEF1807A1F4C8015C
:103CC0000F900F90DF91CF911F910F91FF90EF9088
:103CD000DF90CF90BF90AF907F906F905F904F90AC
:103CE000089502EF1FEF81E090E0023F2FEF1207EF
:103CF00011F090E080E0892B09F4A6CFE0CF04EF2B
:103D00001FEFDDCF0EEF1FEFDACF0FEF1FEFD7CF93
:103D100080913101909132018F3F980749F071D223
:103D2000892B49F48FEF9FEF9093320180933101FB
:103D300090E080E0089584EF9FEF0895FC01680F04
:103D4000791F90E080E0E617F70709F408952191C4
:103D5000820F911DF8CF20914004211113C08FDEF6
:103D6000009791F410924604109245041092440476
:103D700010924304109242041092410421E02093D7
:103D80004004089584EF9FEF0895AF92BF92CF92C1
:103D9000DF92EF92FF920F931F93CF93DF930097E1
:103DA00009F460C04630510508F45CC0209140041D
:103DB000C7EFDFEF222309F449C08C01060F171F5C
:103DC000F801C080D180C114D10409F44EC096011D
:103DD0002A5F3F4F4217530708F447C07C01809188
:103DE00045049091460493838283B6016C5F7F4FB4
:103DF0005801A60EB71EC801A1DFF501918380838B
:103E000064E070E0C80162DEEC01892BF9F481E026
:103E100090E051DEB601C801049658DEEC01892B12
:103E200091F462E070E0C50151DEEC01892B59F498
:103E3000C7012BDC80914504909146040196909334
:103E400046048093450490E080E035DECE01DF91AA
:103E5000CF911F910F91FF90EF90DF90CF90BF9087
:103E6000AF900895CFEFDFEFF1CFC9EFDFEFEECFE7
:103E70006F927F928F929F92AF92BF92CF92DF927A
:103E8000EF92FF920F931F93CF93DF9300D000D058
:103E9000CDB7DEB7009709F47AC04115510509F492
:103EA00076C02091400407EF1FEF222309F44DC094
:103EB0003A017B015C0164E070E0CE01019697DE7F
:103EC0008C01892B09F041C009811A810115110566
:103ED00009F45AC0480186E0880E911CB701680DAC
:103EE000791D809133019091340153DD6C0100976D
:103EF00009F450C0A70170E060E00E94D8288981D1
:103F00009A81AB81BC81EC0CFD1CF70181939193EC
:103F1000A193B1937F0181E090E0CDDDB801C701AD
:103F200066DE892B31F562E070E0C701800F911FDA
:103F30005EDE8C01892BE9F490E080E0BCDDF501C8
:103F4000D182C082F30191828082C8010F900F90CC
:103F50000F900F90DF91CF911F910F91FF90EF90F5
:103F6000DF90CF90BF90AF909F908F907F906F9099
:103F7000089590E080E09FDDF50111821082F30149
:103F800011821082C60181DB09EF1FEFDECF0FEF38
:103F90001FEFDBCF06EF1FEFD8CF0097A1F0411541
:103FA000510589F02115310571F0F90136966E172A
:103FB0007F0748F0DC012D933C93DA01ED93FC93ED
:103FC00090E080E008958FEF9FEF0895AF92BF9249
:103FD000CF92DF92EF92FF920F931F93CF93DF93D5
:103FE000009709F45FC04115510509F45BC06530C5
:103FF000710508F457C020914004C7EFDFEF22237A
:1040000091F1DC01CD90DC9011971296ED91FC912D
:1040100096012A5F3F4FC9EFDFEF2617370719F5E3
:10402000C0914104D0914204209749F521E030E04D
:1040300030934204209341047A018C01F0934404AC
:10404000E09343045601B4E0AB0EB11CB50176DE3B
:104050000A0D1B1DF801208131818217930729F574
:10406000D701CD92DC92CE01DF91CF911F910F91BC
:10407000FF90EF90DF90CF90BF90AF900895209188
:104080004304309144042F5F3F4FCCEFDFEFE21742
:10409000F30790F2CBEFDFEF2E173F0768F2D0E087
:1040A000C0E0CACFCFEFDFEFDECFC3EFDFEFDBCF74
:1040B00084E090E0089582E090E008958CEF9FEF17
:1040C000089580E290E0089510924604109245040D
:1040D000109244041092430410924204109241043E
:1040E00090E080E008959093340180933301089527
:1040F00080914004882391F00BDE009789F41092A0
:104100004604109245041092440410924304109205
:1041100042041092410410924004089590E080E01F
:104120000895009749F06115710531F0FC01118285
:104130001082FB01118210820895F3CF40E855E20E
:1041400060E070E090E080E000C026E08AE594E066
:10415000D3C61F920F920FB60F9211242F933F9345
:104160004F935F936F937F938F939F93AF93BF937F
:10417000EF93FF9383E88093B200809147048F5FB1
:1041800080934704893119F410924704B3D0FF910A
:10419000EF91BF91AF919F918F917F916F915F91BF
:1041A0004F913F912F910F900FBE0F901F90189538
:1041B00083E88093B200A0E7B0E08C918E7F8C936F
:1041C000E0EBF0E080818C7F8083E1EBF0E08081A8
:1041D000877F808380818660808380818E7F8083DB
:1041E0008C9181608C930895E0E7F0E0808190816C
:1041F0009E7F90838170089581E008951092480415
:10420000089568EE73E080E090E04ED490E080E0A6
:10421000089526E040E050E16EE070E08AE594E029
:104220006BD68AE594E09ED5892B21F08AE594E04F
:10423000B3D5F7CF90E080E00895CF92DF92EF9270
:10424000FF920F931F93CF93DF936B017A01E901E4
:10425000198218828AE594E085D5892B69F1860157
:10426000CC24C39482E0D82E80914804811110C0E0
:104270008AE594E091D50297B9F7C0924804F80115
:10428000D1928F0188819981019699838883ECCF9F
:10429000888199818E159F0578F48AE594E07CD514
:1042A0008F3F9807A9F3F80181938F018881998145
:1042B000019699838883ECCF90E080E0DF91CF91E5
:1042C0001F910F91FF90EF90DF90CF9008950F9383
:1042D0001F93CF93DF93EA0189018AE594E0F0D63A
:1042E000F801D183C08390E080E0DF91CF911F91EE
:1042F0000F9108953F924F925F926F927F928F92AB
:104300009F92AF92BF92CF92DF92EF92FF920F9364
:104310001F93CF93DF9300D01F92CDB7DEB780916C
:104320004C0491E0980F90934C048823E9F021E02D
:1043300030E03093500420934F0480934C040F904E
:104340000F900F90DF91CF911F910F91FF90EF9001
:10435000DF90CF90BF90AF909F908F907F906F90A5
:104360005F904F903F900895CE0101960E944503C3
:104370007894A0903601B0903701F501C28CD38CAF
:10438000E48CF58C0E945403B701A60190E080E014
:104390000E94BB02F89480914C04815080934C049D
:1043A0008A8181114BC08B81811154C00CE414E0CF
:1043B00099E4E92E94E0F92ECC24C394D12C332433
:1043C000339434E6832E41E2942EF80181818111E9
:1043D000B6CFF7018181882319F1F80131827894F1
:1043E000F2E0CF16D10409F44BC0F50182A193A1EC
:1043F000989E2001999E500C1124712C612C0E94D2
:104400009303B301A20181E090E00E94BB02F89403
:10441000F701818181508183F801818181508183FD
:104420000F5F1F4FFFEFEF1AFF0A82E0C816D1049B
:1044300009F485CF82E0C82ED12CC7CF80914A04E1
:1044400091E0980F90934A04882309F4ACCF21E0BF
:1044500030E00BC080914B0491E0980F90934B0497
:1044600022E030E0882309F4A1CF41E050E05093EE
:10447000500440934F04275B3B4FF901808396CF54
:10448000F50184A195A1889E2001899E500C1124DC
:10449000712C612C0E949404B301A20182E090E08F
:1044A000B4CFCF93DF93109211051092100532D341
:1044B00045DEC0913601D0913701198218826FEF25
:1044C0007FEFCB010E943A0370E060E090E080E073
:1044D0000E94BB010097A9F50E949C04F89478946F
:1044E000BE01675D7F4F8A819B810E94BE01892B3F
:1044F00059F46FEF7FEFCB010E9451020E94340309
:10450000882311F081E08DA7F89452DE0E943703D2
:10451000811104C00E94340391E0811190E09093D6
:10452000100578940E94640BEC017894809110053A
:1045300081110AC00E9426050E941A03F89490E097
:1045400080E0DF91CF9108950E9418030E94370305
:1045500091E0811106C00E94340391E0811101C0F5
:1045600090E0909311059091110581E0911180E008
:104570008093100580911105811136DE219729F471
:104580000E94640B892B09F439DE0E94640BEC0154
:1045900033DECCCF5058BB27AA270ED075C166D1C9
:1045A00030F06BD120F031F49F3F11F41EF45BC169
:1045B0000EF4E095E7FB51C1E92F77D180F3BA17EC
:1045C000620773078407950718F071F49EF58FC191
:1045D0000EF4E0950B2EBA2FA02D0B01B90190011E
:1045E0000C01CA01A0011124FF27591B99F0593F62
:1045F00050F4503E68F11A16F040A22F232F342FAA
:104600004427585FF3CF469537952795A795F040F7
:104610005395C9F77EF41F16BA0B620B730B840B0C
:10462000BAF09150A1F0FF0FBB1F661F771F881FC4
:10463000C2F70EC0BA0F621F731F841F48F487951C
:1046400077956795B795F7959E3F08F0B3CF93950B
:10465000880F08F09927EE0F979587950895D9D080
:1046600008F481E008950CD00FC107D140F0FED0CE
:1046700030F021F45F3F19F0F0C0511139C1F3C09F
:1046800014D198F39923C9F35523B1F3951B550B16
:10469000BB27AA2762177307840738F09F5F5F4F15
:1046A000220F331F441FAA1FA9F333D00E2E3AF056
:1046B000E0E830D091505040E695001CCAF729D070
:1046C000FE2F27D0660F771F881FBB1F26173707BF
:1046D0004807AB07B0E809F0BB0B802DBF01FF27EF
:1046E00093585F4F2AF09E3F510568F0B6C000C155
:1046F0005F3FECF3983EDCF3869577956795B79529
:10470000F7959F5FC9F7880F911D9695879597F943
:104710000895E1E0660F771F881FBB1F62177307BC
:104720008407BA0720F0621B730B840BBA0BEE1FD1
:1047300088F7E095089504D06894B111D9C0089520
:10474000BCD088F09F5790F0B92F9927B751A0F0AF
:10475000D1F0660F771F881F991F1AF0BA95C9F715
:1047600012C0B13081F0C3D0B1E00895C0C0672F4E
:10477000782F8827B85F39F0B93FCCF386957795C5
:104780006795B395D9F73EF49095809570956195AE
:104790007F4F8F4F9F4F0895E89409C097FB3EF4D9
:1047A00090958095709561957F4F8F4F9F4F99237E
:1047B000A9F0F92F96E9BB279395F69587957795FC
:1047C0006795B795F111F8CFFAF4BB0F11F460FFBC
:1047D0001BC06F5F7F4F8F4F9F4F16C0882311F014
:1047E00096E911C0772321F09EE8872F762F05C028
:1047F000662371F096E8862F70E060E02AF09A95C3
:10480000660F771F881FDAF7880F9695879597F9B7
:104810000895990F0008550FAA0BE0E8FEEF161651
:104820001706E807F907C0F012161306E407F507A4
:1048300098F0621B730B840B950B39F40A2661F018
:10484000232B242B252B21F408950A2609F4A140BB
:10485000A6958FEF811D811D089597F99F6780E8C8
:1048600070E060E008959FEF80EC089500240A94C2
:104870001616170618060906089500240A9412163B
:104880001306140605060895092E0394000C11F46E
:10489000882352F0BB0F40F4BF2B11F460FF04C01B
:1048A0006F5F7F4F8F4F9F4F089557FD9058440F74
:1048B000551F59F05F3F71F04795880F97FB991F7F
:1048C00061F09F3F79F0879508951216130614063C
:1048D000551FF2CF4695F1DF08C0161617061806C9
:1048E000991FF1CF86957105610508940895E894A4
:1048F000BB2766277727CB0197F908958ADF08F44D
:104900008FEF08950BD0C0CFB1DF28F0B6DF18F0DD
:10491000952309F0A2CFA7CF1124EACFC6DFA0F3D9
:10492000959FD1F3950F50E0551F629FF001729F44
:10493000BB27F00DB11D639FAA27F00DB11DAA1F63
:10494000649F6627B00DA11D661F829F2227B00DB0
:10495000A11D621F739FB00DA11D621F839FA00D3B
:10496000611D221F749F3327A00D611D231F849F8B
:10497000600D211D822F762F6A2F11249F575040E2
:104980008AF0E1F088234AF0EE0FFF1FBB1F661F7D
:10499000771F881F91505040A9F79E3F510570F036
:1049A0005CCFA6CF5F3FECF3983EDCF3869577951E
:1049B0006795B795F795E7959F5FC1F7FE2B880F31
:1049C000911D9695879597F908951F920F920FB6AE
:1049D0000F9211242F933F938F939F93AF93BF9385
:1049E0008091520490915304A0915404B0915504C5
:1049F0003091510423E0230F2D3758F50196A11D66
:104A0000B11D209351048093520490935304A093BA
:104A10005404B09355048091560490915704A0918A
:104A20005804B09159040196A11DB11D80935604FC
:104A300090935704A0935804B0935904BF91AF9139
:104A40009F918F913F912F910F900FBE0F901F90CC
:104A5000189526E8230F0296A11DB11DD2CF3FB7AE
:104A6000F8948091560490915704A0915804B09105
:104A7000590426B5A89B05C02F3F19F00196A11D2A
:104A8000B11D3FBFBA2FA92F982F8827BC01CD0198
:104A9000620F711D811D911D42E0660F771F881FF7
:104AA000991F4A95D1F708958F929F92AF92BF9226
:104AB000CF92DF92EF92FF926B017C01D0DF4B012E
:104AC0005C01C114D104E104F104D9F026D3C7DF9D
:104AD000681979098A099B09683E73408105910527
:104AE00080F321E0C21AD108E108F10888EE880EAF
:104AF00083E0981EA11CB11CC114D104E104F1048F
:104B000031F7FF90EF90DF90CF90BF90AF909F90E4
:104B10008F900895789484B5826084BD84B5816057
:104B200084BD85B5826085BD85B5816085BDEEE6B5
:104B3000F0E0808181608083E1E8F0E01082808194
:104B400082608083808181608083E0E8F0E0808102
:104B500081608083E1EBF0E0808184608083E0EB22
:104B6000F0E0808181608083EAE7F0E0808184600A
:104B70008083808182608083808181608083808166
:104B8000806880831092C10008951F93CF93DF93B4
:104B9000182FEB0161E07DD0209731F460E0812F88
:104BA000DF91CF911F91B1C0CF3FD10511F461E0EA
:104BB000F6CFE12FF0E0E859FF4FE491E33031F117
:104BC00040F4E130B1F0E230E1F0C038D1057CF7DB
:104BD000E5CFE73029F1E83059F1E430B1F78091C1
:104BE0008000806280938000D0938B00C0938A0005
:104BF00004C084B5806884BDC7BDDF91CF911F918B
:104C0000089584B5806284BDC8BDF7CF80918000CF
:104C1000806880938000D0938900C0938800EDCF96
:104C20008091B00080688093B000C093B300E5CF5E
:104C30008091B00080628093B000C093B400DDCF5B
:104C4000833081F028F4813099F08230A9F0089502
:104C50008730A9F08830C9F08430B1F480918000A9
:104C60008F7D03C0809180008F77809380000895AE
:104C700084B58F7784BD089584B58F7DFBCF8091F7
:104C8000B0008F778093B00008958091B0008F7D41
:104C9000F9CFCF93DF9390E0FC01E458FF4F2491CC
:104CA00080579F4FFC0184918823C9F090E0880FC2
:104CB000991FFC01E255FF4FA591B491FC01EC5501
:104CC000FF4FC591D49161110DC09FB7F8948C919D
:104CD000209582238C938881282328839FBFDF918E
:104CE000CF910895623051F49FB7F8943C91822F90
:104CF000809583238C93E8812E2BEFCF8FB7F89488
:104D0000EC912E2B2C938FBFEACF1F93CF93DF9381
:104D1000282F30E0F901E859FF4F8491F901E45858
:104D2000FF4FD491F901E057FF4FC491CC23A1F07C
:104D3000162F811185DFEC2FF0E0EE0FFF1FEC55F1
:104D4000FF4FA591B4918FB7F894EC91111108C061
:104D5000D095DE23DC938FBFDF91CF911F91089513
:104D6000DE2BF8CFFC01918D228D892F90E0805CA5
:104D70009F4F821B91098F7399270895FC01918D94
:104D8000828D981731F0828DE80FF11D858D90E0AE
:104D900008958FEF9FEF0895FC01918D828D9817F4
:104DA00061F0A28DAE0FBF2FB11D5D968C91928DDB
:104DB0009F5F9F73928F90E008958FEF9FEF08950C
:104DC000FC01538D448D252F30E0842F90E0821B11
:104DD000930B541710F0CF96089501970895FC0196
:104DE000A48DA80FB92FB11DA35ABF4F2C91848D4C
:104DF00090E001968F739927848FA689B7892C93A9
:104E0000A089B1898C91837080648C93938D848DFB
:104E1000981306C00288F389E02D80818F7D8083FE
:104E20000895CF93DF93EC01888D8823B1F0AA8990
:104E3000BB89E889F9898C9185FD03C0808186FD55
:104E40000CC00FB607FCF7CF8C9185FFF2CF8081A5
:104E500085FFEDCFCE01C3DFEACFDF91CF9108957B
:104E6000EF92FF920F931F93CF93DF93EC0181E0BA
:104E7000888F9B8D8C8D98131AC0E889F989808161
:104E800085FF15C09FB7F894EE89FF896083E88994
:104E9000F98980818370806480839FBF81E090E086
:104EA000DF91CF911F910F91FF90EF900895F62E13
:104EB0000B8D10E00F5F1F4F0F731127E02E8C8DAD
:104EC0008E110BC00FB607FCFACFE889F9898081F3
:104ED00085FFF5CFCE0183DFF2CFEB8DEC0FFD2FF9
:104EE000F11DE35AFF4FF0829FB7F8940B8FEA89C8
:104EF000FB8980818062D0CFCF92DF92EF92FF92C8
:104F00001F93CF93DF93EC016A017B01122FE88995
:104F1000F98982E08083C11481EED806E104F104AE
:104F200099F060E079E08DE390E0A7019601F6D07A
:104F300021503109410951095695479537952795D3
:104F4000211580E1380790F0E889F989108260E83E
:104F500074E88EE190E0A7019601E0D0215031097C
:104F6000410951095695479537952795EC85FD855B
:104F70003083EE85FF852083188EEC89FD891083B0
:104F8000EA89FB89808180618083EA89FB8980814D
:104F900088608083EA89FB89808180688083EA89D0
:104FA000FB8980818F7D8083DF91CF911F91FF905E
:104FB000EF90DF90CF9008951F920F920FB60F924F
:104FC00011242F938F939F93EF93FF93E0916A04A3
:104FD000F0916B048081E0917004F091710482FD86
:104FE0001BC09081809173048F5F8F732091740434
:104FF000821741F0E0917304F0E0E65AFB4F958F81
:1050000080937304FF91EF919F918F912F910F9057
:105010000FBE0F901F9018958081F4CF1F920F92B2
:105020000FB60F9211242F933F934F935F936F937B
:105030007F938F939F93AF93BF93EF93FF938AE5F3
:1050400094E0CDDEFF91EF91BF91AF919F918F9151
:105050007F916F915F914F913F912F910F900FBE74
:105060000F901F901895EAE5F4E01382128288EE03
:1050700093E0A0E0B0E084839583A683B78380ECBF
:1050800091E09183808385EC90E09587848784EC20
:1050900090E09787868780EC90E0918B808B81EC05
:1050A00090E0938B828B82EC90E0958B848B86ECE6
:1050B00090E0978B868B118E128E138E148E08952E
:1050C000AF92BF92CF92DF92EF92FF920F931F9316
:1050D000CF93DF936C017B018B01040F151FEB0154
:1050E0005E01AE18BF08C017D10759F06991D6010B
:1050F000ED91FC910190F081E02DC6010995892B7D
:1051000079F7C501DF91CF911F910F91FF90EF903B
:10511000DF90CF90BF90AF9008950895A1E21A2E2E
:10512000AA1BBB1BFD010DC0AA1FBB1FEE1FFF1F4B
:10513000A217B307E407F50720F0A21BB30BE40B9B
:10514000F50B661F771F881F991F1A9469F76095E2
:105150007095809590959B01AC01BD01CF0108959C
:10516000EE0FFF1F0590F491E02D099409D0A59F43
:10517000900DB49F900DA49F800D911D1124089552
:10518000A29FB001B39FC001A39F700D811D112488
:10519000911DB29F700D811D1124911D0895FB0179
:1051A000DC0102C001900D9241505040D8F70895A3
:1051B000DC0101C06D9341505040E0F70895F89430
:0251C000FFCF1F
:1051C200000096420000B44200007E439FF4893FF3
:1051D2000000704200007042FEFFFFFF01E8030082
:1051E20000FFFF00000000FFFFFFFFFFFFFFFFFFC8
:1051F200FFFFFFFFFF01F301FF009C0DC80DFE0042
:10520200820D220BFD00140D6E0DFC005A0D220BB7
:10521200F6004B0E220BF500210D8A0EF400140E3F
:10522200A10EDE0020129B14DD007A13220BDA009D
:1052320031103910D900B6144910E200190F220BAF
:10524200E100540F220BE000C90F220BD6003117E8
:10525200220BD5006011220BD400EC10220BD300DC
:105262005D10220BF0009A17220BED005717220B4C
:1052720001000100010010001000200000000000E9
:0E52820030276028E0261127B226CC26BE2653
:00000001FF
