:1000000074C000009AC0000098C0000096C00000B4
:1000100094C0000092C0000090C000008EC000009C
:100020008CC000000C943A2B88C000000C94103057
:1000300084C0000082C0000080C000007EC00000BC
:100040000C947A327AC000000C9431350C946335EC
:1000500074C0000072C0000070C000006EC00000DC
:100060006CC000006AC00000084AD73B3BCE016E5E
:1000700084BCBFFDC12F3D6C74319ABD56833DDAFF
:100080003D00C77F11BED9E4BB4C3E916BAAAABE0E
:10009000000000803F000000000800020100000393
:1000A0000407000000000000000001020408102006
:1000B00040800102040810200102040810200404FA
:1000C0000404040404040202020202020303030300
:1000D000030300000000250028002B0000000000A2
:1000E000240027002A00B800883511241FBECFEF56
:1000F000D8E0DEBFCDBF12E0A0E0B1E0E8E5FDE66C
:1001000002C005900D92AE33B107D9F728E0AEE3F7
:10011000B2E001C01D92A538B207E1F710E0C5E7D3
:10012000D0E004C02197FE010E947B36C337D1077F
:10013000C9F70E94412C0C94AA3662CF70E023E0EC
:10014000829FC0011124825C9D4F0C94613170E04C
:1001500023E0829FC0011124825C9D4F0C949D314D
:1001600023E0829FC0011124825C9D4F0C941732C2
:100170008EE392E00E94C93081E492E00C94C93091
:10018000CF93DF93882349F0EB0181500E945A33CB
:1001900099838883DF91CF910895FB0111821082AA
:1001A000F9CF0F931F938B019C0183E03695279520
:1001B000179507958A95D1F70C5B1D4F462F477011
:1001C00021E030E0F90102C0EE0FFF1F4A95E2F78F
:1001D000AF01F80120812423CB010196211102C037
:1001E00090E080E01F910F9108950F931F938B0172
:1001F0009C0183E036952795179507958A95D1F749
:10020000677081E090E001C0880F6A95EAF7F80115
:10021000EC5BFD4F2081452B31F480958223808358
:100220001F910F910895822BFACFCF92DF92EF9218
:10023000FF92CF93DF936B017C0160E08EE0C816E4
:10024000D104E104F10490F48EE08C0D0E949E3301
:10025000E6012196AE01C701B601C7DFCE01DF91ED
:10026000CF91FF90EF90DF90CF9008958C2DEECF3F
:10027000882341F08150682F70E090E080E050E0EA
:1002800040E0B3CF089590E080E008950F931F936E
:10029000009709F485C06115710509F481C00091CA
:1002A00086011091870120918801309189010E3FCC
:1002B0001F4F2F4F3F4F09F064C04FEF5FEFBA0160
:1002C0004093860150938701609388017093890160
:1002D0004091860150918701609188017091890158
:1002E000DC011296ED91FC9180819181A281B38114
:1002F0008093F7029093F802A093F902B093FA0268
:1003000084819581A681B7818093F3029093F40252
:10031000A093F502B093F60280859185A285B385FE
:100320008093EF029093F002A093F102B093F20257
:1003300084859585A685B7858093EB029093EC0222
:10034000A093ED02B093EE021092E7021092E80241
:100350001092E9021092EA020E94D01185EF91E119
:1003600090934E0280934D020E94CF10009731F47B
:1003700021E030E03093FC022093FB021F910F91AB
:100380000895009186011091870120918801309194
:100390008901DB010D931D932D933C93139798CF07
:1003A0008FEF9FEFEBCF8F929F92AF92BF92CF9242
:1003B000DF92EF92FF921F93CF93DF934B015C018B
:1003C0001091FE0282E090E09093FC028093FB0289
:1003D00081149104A104B10441F48091FE028111C1
:1003E00004C08091FD02C1E08111C0E0C12CD12C7C
:1003F00076018091FE02811106C08091FD0281117B
:1004000002C0CC23D9F083E090E09093FC0280936B
:10041000FB02CC2381F1CCE9DFEF111102C00E9475
:100420005915CE01DF91CF911F91FF90EF90DF9092
:10043000CF90BF90AF909F908F9008956AE070E04A
:1004400080E090E00E94E93280E1C80E87E2D81E89
:10045000E11CF11C8FEF88169806A806B80631F04B
:10046000C1E08C149D04AE04BF0408F0C0E080E03D
:100470000E94FB10BECFD0E0C0E0CFCFCF92DF9282
:10048000EF92FF921F93CF93DF938F3F910511F06F
:1004900008F042C02091FB023091FC02233031056C
:1004A00039F02091FB023091FC022130310531F40A
:1004B00024E030E03093FC022093FB026A017B01D0
:1004C000EC01892BB1F011E0AE01C701B6010E9429
:1004D000CE10AB01BC0190E080E01123F9F0CE0119
:1004E000DF91CF911F91FF90EF90DF90CF900C9410
:1004F0006E1780914D0290914E02892B21F30E943C
:100500007517029701F7E0914D02F0914E0290E0CD
:1005100080E00995182FD8CF8FEF9FEFDF91CF9113
:100520001F91FF90EF90DF90CF90089580E00C94A2
:10053000FB10CF93DF9386E090E09093FC028093D2
:10054000FB020E945411EC0110924E0210924D02D7
:100550000E94F1141092FC021092FB02CE01DF9176
:10056000CF9108958091FD0208958091E60208954B
:10057000609386017093870180938801909389012D
:1005800090E080E00895CF93DF93FC0181E08087C5
:10059000EB0188819981AA81BB8184839583A6839D
:1005A000B78381E090E0A0E0B0E080839183A283F4
:1005B000B38369E080E0DF91CF91C0CDCF92DF922D
:1005C000EF92FF920F931F93CF93DF938C01EB0178
:1005D000FA01C080D180E280F380A70196016C818E
:1005E0007D818E819F810E94942D882321F0CC8271
:1005F000DD82EE82FF8280E0B3DD092E000CAA0BC3
:10060000BB0BF80180839183A283B383DF91CF91E9
:100610001F910F91FF90EF90DF90CF9008958F92F0
:100620009F92AF92BF92CF92DF92EF92FF92CF93C1
:10063000DF936B017C0149015A010E94C60F882398
:1006400099F060917708709178088091790890917D
:100650007A08DF91CF91FF90EF90DF90CF90BF901D
:10066000AF909F908F900895C501B4010E94C60F6E
:100670008111E7CFC701B6010E94810F8823E1F104
:10068000C501B4010E94810F8823B1F120E030E060
:10069000A901C701B6010E94562FCFEFDFEF181650
:1006A00014F4C1E0D0E020E030E0A901C501B401BC
:1006B0000E94562F6FEF7FEF181614F461E070E080
:1006C000072E000C880B990B0E942E2E6B017C01CB
:1006D000BE01DD0F880B990B0E942E2EA7019601FB
:1006E000DF91CF91FF90EF90DF90CF90BF90AF90D0
:1006F0009F908F900C942E2D20E030E0A901C50131
:10070000B4010E94942D811116C020E030E0A901AF
:10071000C701B6010E94562F181694F020E030E071
:10072000A901C701B6010E94942D87FD0EC060E0AB
:1007300070E0CB018ECFA5019401C701B601D0CFE7
:100740006BED7FE089EC9FE384CF6BED7FE089EC7C
:100750009FEB7FCFCF92DF92EF92FF926B017C01F4
:100760009F7720E030E040E859E50E94942D87FF14
:100770002BC020E030E040E05FE3C701B6010E94FB
:10078000562F87FD0EC020E030E040E05FE3C70158
:10079000B6010E94BB2CFF90EF90DF90CF900C949D
:1007A000692E20E030E040E05FEBC701B6010E9417
:1007B000562F181684F420E030E0A901C701B601D5
:1007C0000E94612F6B017C01C701B601FF90EF9081
:1007D000DF90CF90089520E030E040E05FE3C70174
:1007E000B6010E94BA2CFF90EF90DF90CF900C944E
:1007F000812D4F925F926F927F928F929F92AF92D4
:10080000BF92CF92DF92EF92FF920F931F93CF93FD
:10081000DF9380914D088150823008F474C580E0E8
:1008200080934D0880914C088150823008F46DC54A
:1008300080E080934C0880914B088150823008F40E
:1008400066C580E080934B0880914A0881508230D1
:1008500008F45FC580E080934A0880914908815080
:10086000823008F458C580E0809349088091480898
:100870008150823008F451C580E08093480880910F
:1008800047088150823008F44AC580E080934708C9
:10089000809146088150823008F443C580E08093FF
:1008A0004608809145088150823008F43CC580E0BC
:1008B00080934508809144088150823008F435C502
:1008C00080E080934408809143088150823008F48E
:1008D0002EC580E080934308809142088150823089
:1008E00008F427C580E08093420880916108815018
:1008F000823008F420C580E080936108809141082F
:100900008150823008F419C580E0809341088091BD
:1009100040088150823008F412C580E0809340087E
:1009200080913F088150823008F40BC580E08093AD
:100930003F0880913E088150823008F404C580E071
:1009400080933E0880913D088150823008F4FDC4B8
:1009500080E080933D0880913C088150823008F40B
:10096000F6C480E080933C0880913B08815082303F
:1009700008F4EFC480E080933B0880913A088150EE
:10098000823008F4E8C480E080933A088091390806
:100990008150823008F4E1C480E08093390880916E
:1009A00038088150823008F4DAC480E08093380837
:1009B000809137088150823008F4D3C480E080935E
:1009C0003708C0901001D0901101E0901201F09012
:1009D0001301A70196016091E5077091E6078091E8
:1009E000E7079091E8070E94942D882341F0C09278
:1009F000E507D092E607E092E707F092E80760E1AA
:100A000070E080E090E0CDDB9093E4078093E30713
:100A100043E050E063E977E0B3DBC0901801D09089
:100A20001901E0901A01F0901B01A7019601609155
:100A3000CD077091CE078091CF079091D0070E948B
:100A4000942D882341F0C092CD07D092CE07E0923A
:100A5000CF07F092D00761E170E080E090E0A1DB89
:100A60009093CC078093CB0743E050E06FE877E0AA
:100A700087DB80918F0790919007C0919307D09169
:100A80009407C817D90708F4EC01C0901401D0905E
:100A90001501E0901601F0901701A70196016091F1
:100AA000D9077091DA078091DB079091DC070E94EB
:100AB000942D882341F0C092D907D092DA07E092B2
:100AC000DB07F092DC076FE070E080E090E069DB2C
:100AD0009093D8078093D70743E050E061E977E02F
:100AE0004FDBC0902001D0902101E0902201F090D6
:100AF0002301A70196016091B5077091B607809117
:100B0000B7079091B8070E94942D882341F0C092B6
:100B1000B507D092B607E092B707F092B8076EE03B
:100B200070E080E090E03DDB9093B4078093B307E2
:100B300043E050E06BE877E023DBC0901C01D090ED
:100B40001D01E0901E01F0901F01A7019601609128
:100B5000C1077091C2078091C3079091C4070E949A
:100B6000942D882341F0C092C107D092C207E09231
:100B7000C307F092C40762E170E080E090E011DB0F
:100B80009093C0078093BF0743E050E06DE877E0A3
:100B9000F7DAC0902401D0902501E0902601F09072
:100BA0002701A70196016091A9077091AA0780917A
:100BB000AB079091AC070E94942D882341F0C0921E
:100BC000A907D092AA07E092AB07F092AC0763E1C5
:100BD00070E080E090E0E5DA9093A8078093A707A3
:100BE00043E050E069E877E0CBDA009170011091C2
:100BF00071019801DE010E9481360E942C2E20E0B6
:100C000030E040E054E30E94612F4B015C01809290
:100C10003D0790923E07A0923F07B0924007809117
:100C20008B0790918C07209191073091920728179C
:100C3000390708F49C01D8010E9481360E942C2EAD
:100C400020E030E040E054E30E94612F6B017C0122
:100C5000C0924107D0924207E0924307F0924407C6
:100C60008091890790918A0720918D0730918E0796
:100C70002817390708F49C01D8010E9481360E9488
:100C80002C2E20E030E040E054E30E94612F60937E
:100C900045077093460780934707909348072DE0D8
:100CA00032E348E45EE3C501B4010E94942D1816B6
:100CB0000CF460C380915C0190915D01A0915E0194
:100CC000B0915F018093490790934A07A0934B0727
:100CD000B0934C0780914708882309F448C38330B8
:100CE00009F041C381E090E0809347082DE032E3B2
:100CF00048E45EE3C701B6010E94942D18160CF477
:100D00005AC38091600190916101A0916201B091FC
:100D1000630180934D0790934E07A0934F07B093C4
:100D2000500780914508882309F442C3833009F0B5
:100D30003BC381E090E080934508C0904507D09088
:100D40004607E0904707F09048072DE032E348E47B
:100D50005EE3C701B6010E94942D18160CF44CC333
:100D60008091640190916501A0916601B091670145
:100D70008093510790935207A0935307B093540761
:100D800080914308882309F434C3833009F02DC3CC
:100D900081E090E08093430860913D0770913E07A9
:100DA00080913F07909140078090410790904207C3
:100DB000A0904307B09044079B01AC010E94612FB3
:100DC0002B013C01A5019401C501B4010E94612FD2
:100DD0009B01AC01C301B2010E94BB2C4B015C0121
:100DE000A7019601C701B6010E94612F9B01AC01CA
:100DF000C501B4010E94BB2C0E94C82F4B015C01AD
:100E0000AC019B016091490770914A0780914B07A3
:100E100090914C070E94982D6B017C01C092550760
:100E2000D0925607E0925707F09258072091510749
:100E300030915207409153075091540760914D07EC
:100E400070914E0780914F07909150070E94BA2CE5
:100E5000A50194010E94982D6093590770935A0739
:100E600080935B0790935C07809068019090690184
:100E7000A0906A01B0906B01A7019601D0DB9B01A5
:100E8000AC01C501B4010E94612F60935D077093AE
:100E90005E0780935F0790936007C0900C01D0902D
:100EA0000D01E0900E01F0900F01A70196016091F5
:100EB000F5077091F6078091F7079091F8070E9467
:100EC000942D882341F0C092F507D092F607E09266
:100ED000F707F092F80780E043D9BC01990F880B1F
:100EE000990B60938507709386078093870790938B
:100EF00088070E942E2E20916C0130916D01409147
:100F00006E0150916F010E94BA2C6093610770933B
:100F10006207809363079093640720915D07309187
:100F20005E0740915F07509160070E94BB2C6B01E8
:100F30007C01C0926507D0926607E0926707F09245
:100F400068079F7720E030E044EB52E40E94562F80
:100F500018160CF0A7C242E851E062E678E08DE98D
:100F600097E02CDB20E030E0A901609165077091EB
:100F7000660780916707909168070E94562F1816A0
:100F80000CF05BC260919D0770919E0780919F0756
:100F90009091A0070E942E2E209108013091090106
:100FA00040910A0150910B010E94BA2C209100013E
:100FB0003091010140910201509103010E94BA2C2D
:100FC00060936D0770936E0780936F07909370071F
:100FD00080914B08882309F42DC2833009F026C282
:100FE00081E090E080934B0880914908882309F4C0
:100FF00056C2833009F04FC281E090E080934908E7
:101000006E9708F097C30091910710919207C091D5
:101010008B07D0918C07B80190E080E00E942C2EC5
:101020006B017C01BE0190E080E00E942C2E9B01B0
:10103000AC01C701B6010E94562F87FFE801E0907E
:101040008D07F0908E070091890710918A07B701EC
:1010500090E080E00E942C2E4B015C01B80190E0F2
:1010600080E00E942C2E9B01AC01C501B4010E94BE
:10107000562F87FF8701C832D10508F073C20932A5
:10108000110508F46FC24AE751E068E578E089E9A4
:1010900097E094DA6091990770919A0780919B0785
:1010A00090919C070E942E2E2091300130913101A9
:1010B00040913201509133010E94BA2C6B017C01A6
:1010C000C0928107D0928207E0928307F092840752
:1010D00060918D0770918E0790E080E00E942C2E29
:1010E00020912C0130912D0140912E0150912F0122
:1010F0000E94BB2C4B015C016091890770918A07AB
:1011000090E080E00E942C2E9B01AC01C501B4014F
:101110000E94942D87FF0DC220E030E04CEA52E49B
:10112000C701B6010E94562F87FDD6C180917E016E
:1011300090917F01A0918001B091810180938107FE
:1011400090938207A0938307B0938407809140080F
:10115000882309F4EBC1833009F0E4C181E090E019
:10116000809340088091810790918207A091830726
:10117000B09184078093710790937207A0937307CF
:10118000B093740780913E08882309F4E8C1833046
:1011900009F0E1C181E090E080933E088091710701
:1011A00090917207A0917307B091740780936907BB
:1011B00090936A07A0936B07B0936C0780913808EF
:1011C000882309F4B4C2833009F0ADC281E090E015
:1011D00080933808C0906907D0906A07E0906B0749
:1011E000F0906C0720E030E048EC52E4C701B60113
:1011F0000E94942D8111C7C280914D08882309F463
:10120000BFC2833009F0B8C281E090E080934D08FE
:1012100020E030E044EB52E460916D0770916E077E
:1012200080916F07909170070E94BB2C6B017C012D
:1012300020E030E0A9010E94942D87FDBEC220E08D
:1012400030E044E353E4C701B6010E94562F64EB3B
:101250001816DCF0C701B6017DDA6B017C0120E0D5
:1012600030E040E853E40E94942D6FEF87FF0DC0FB
:1012700020E030E0A901C701B6010E94562F87FD8A
:101280009CC2C701B6010E94002E80E00E94A70008
:101290006091C1027091C2028091C3029091C40218
:1012A0006F5F7F4F8F4F9F4F6093C1027093C20259
:1012B0008093C3029093C4020E942C2E9B01AC0128
:1012C0006091C5027091C6028091C7029091C802D8
:1012D0000E94612F6093BD027093BE028093BF0293
:1012E0009093C002DF91CF911F910F91FF90EF90EB
:1012F000DF90CF90BF90AF909F908F907F906F9036
:101300005F904F90089583E08BCA83E092CA83E098
:1013100099CA83E0A0CA83E0A7CA83E0AECA83E08B
:10132000B5CA83E0BCCA83E0C3CA83E0CACA83E00B
:10133000D1CA83E0D8CA83E0DFCA83E0E6CA83E08B
:10134000EDCA83E0F4CA83E0FBCA83E002CB83E00A
:1013500009CB83E010CB83E017CB83E01ECB83E087
:1013600025CB83E02CCB082E000C990BBDCC82E062
:1013700090E0BACC8092490790924A07A0924B071E
:10138000B0924C0780914608882359F0833029F4A5
:1013900081E090E080934608A9CC082E000C990BC0
:1013A000F9CF82E090E0F6CF082E000C990BC3CC69
:1013B00082E090E0C0CCC0924D07D0924E07E09200
:1013C0004F07F092500780914408882359F08330EA
:1013D00029F481E090E080934408AFCC082E000C03
:1013E000990BF9CF82E090E0F6CF082E000C990B14
:1013F000D1CC82E090E0CECCC0925107D09252077F
:10140000E0925307F092540780914208882359F0E4
:10141000833029F481E090E080934208BDCC082E0F
:10142000000C990BF9CF82E090E0F6CF082E000C6B
:10143000990BD8CD82E090E0D5CD60919D07709159
:101440009E0780919F079091A0070E942E2E2091C9
:1014500004013091050140910601509107010E945D
:10146000BB2C60936D0770936E0780936F0790930A
:10147000700780914A08882359F0833029F481E06D
:1014800090E080934A08B0CD082E000C990BF9CF5C
:1014900082E090E0F6CF082E000C990BAFCD82E0F1
:1014A00090E0ACCDC0926D07D0926E07E0926F07CE
:1014B000F092700780914808882359F0833029F40E
:1014C00081E090E0809348089BCD082E000C990B9A
:1014D000F9CF82E090E0F6CFA70196016091280154
:1014E0007091290180912A0190912B010E94BB2CBF
:1014F000609381077093820780938307909384079A
:1015000080914108882359F0833029F481E090E0EC
:10151000809341081BCE082E000C990BF9CF82E076
:1015200090E0F6CF082E000C990B1ACE82E090E0E6
:1015300017CE80913F08882359F0833029F481E049
:1015400090E080933F080ECE082E000C990BF9CF47
:1015500082E090E0F6CF082E000C990B1DCE82E0C1
:1015600090E01ACE0832110508F018CEC932D10524
:1015700008F425C142E751E06EE478E085E997E0A0
:101580001DD860919507709196078091970790916B
:1015900098070E942E2E20914001309141014091E8
:1015A0004201509143010E94BA2C6B017C01C09210
:1015B0007D07D0927E07E0927F07F09280076091CE
:1015C00091077091920790E080E00E942C2E20916C
:1015D0003C0130913D0140913E0150913F010E94FC
:1015E000BB2C4B015C0160918B0770918C0790E0E4
:1015F00080E00E942C2E9B01AC01C501B4010E9429
:10160000942D87FF70C020E030E04CEA52ECC70117
:10161000B6010E94942D1816CCF18091760190911C
:101620007701A0917801B091790180937D07909323
:101630007E07A0937F07B093800780913C088823A2
:1016400009F44EC0833009F047C081E090E08093F8
:101650003C0880917D0790917E07A0917F07B09113
:1016600080078093710790937207A0937307B093DC
:10167000740780913A08882309F44BC0833009F03D
:1016800044C081E090E080933A0888CD20913801F1
:101690003091390140913A0150913B01C701B601A7
:1016A0000E94BA2C60937D0770937E0780937F071A
:1016B0009093800780913D08882359F0833029F466
:1016C00081E090E080933D08B8CF082E000C990B84
:1016D000F9CF82E090E0F6CF082E000C990BB7CF3F
:1016E00082E090E0B4CF80913B08882359F08330AA
:1016F00029F481E090E080933B08ABCF082E000CEA
:10170000990BF9CF82E090E0F6CF082E000C990BF0
:10171000BACF82E090E0B7CF082E000C990BA5C09D
:1017200082E090E0A2C0082E000C990B51CD82E01F
:1017300090E04ECD8091580190915901A0915A01AD
:10174000B0915B018093690790936A07A0936B0740
:10175000B0936C0780913708882359F0833029F4BF
:1017600081E090E08093370835CD082E000C990B6E
:10177000F9CF82E090E0F6CF082E000C990B46CD11
:1017800082E090E043CDC0926D07D0926E07E09268
:101790006F07F092700780914C08882359F08330CE
:1017A00029F481E090E080934C0832CD082E000CA3
:1017B000990BF9CF82E090E0F6CF60E066CDA89774
:1017C00008F0ECCCC0904801D0904901E0904A016B
:1017D000F0904B01A70196016091ED077091EE0723
:1017E0008091EF079091F0070E94942D882341F09B
:1017F000C092ED07D092EE07E092EF07F092F0076B
:1018000081E00E94B000BC01990F880B990B0E94E7
:101810002E2E209150013091510140915201509152
:1018200053010E94BA2C60937507709376078093DA
:10183000770790937807609371077093720780938E
:101840007307909374076093790770937A07809376
:101850007B0790937C0780913908882309F460CF37
:10186000833009F059CF81E090E08093390896CC1D
:101870009F92AF92BF92CF92DF92EF92FF920F931F
:101880001F93CF93DF9384E090E004D3E7EAF2E084
:1018900080E090E0A0E8BFEB82A393A3A4A3B5A34C
:1018A0008DEC9CECACECBDE3868F978FA0A3B1A32D
:1018B00082E49AE9A9E7B1E984839583A683B78393
:1018C00080E29FE9A0E3B8E380879187A287B3878E
:1018D00083E195E7A1E9B2E584879587A687B78775
:1018E00082E990EBA3E6B9E7808B918BA28BB38B57
:1018F000ABE9B2E0B383A283EFE4F2E01196FC938C
:10190000EE9384EA91E091838083938382832DE434
:1019100038E0358324832CE438E0378326832BE4B6
:1019200038E0318720872AE438E03387228729E4AA
:1019300038E0358724873787268728E438E0318BDD
:10194000208B938B828B27E438E0358B248B26E425
:1019500038E0378B268B25E438E0318F208F24E464
:1019600038E0338F228F23E438E0358F248F22E450
:1019700038E0378F268F91A380A393A382A395A3EA
:1019800084A397A386A391A780A793A782A787E3A1
:1019900098E095A784A789E398E097A786A791ABDD
:1019A00080AB81E698E093AB82AB81E498E095ABA5
:1019B00084AB80E498E097AB86AB8FE398E091AF7F
:1019C00080AF8EE398E093AF82AF95AF84AF87E5A9
:1019D00098E097AF86AF8DE398E090939002809364
:1019E0008F028CE398E090939202809391028BE3B4
:1019F00098E090939402809393028AE398E0909306
:101A0000960280939502909398028093970288E3C0
:101A100098E090939A02809399028BEB92E015964E
:101A20009C938E9314978BEA92E013969C938E93DB
:101A300012978DEB92E017969C938E93169762E81F
:101A400071E082E698E00E94C3028DE3A82E87E051
:101A5000B82E00E011E0F80184A995A9A6A9B7A9BC
:101A60008093810790938207A0938307B0938407A4
:101A70006AE771E088E598E00E94C3028091440122
:101A800090914501A0914601B091470180937D0757
:101A900090937E07A0937F07B093800762E771E081
:101AA0008EE498E00E94C302C1EAD7E08091480129
:101AB00090914901A0914A01B0914B018093ED07AB
:101AC0009093EE07A093EF07B093F007C12CD12CB1
:101AD0007601C394C092E907D092EA07E092EB073F
:101AE000F092EC0762E081E00E949E0080914C0140
:101AF00090914D01A0914E01B0914F01F50184AF3D
:101B000095AFA6AFB7AF8091540190915501A091C8
:101B10005601B091570184AB95ABA6ABB7AB1CAEE9
:101B2000F80180899189A289B3898093E507909310
:101B3000E607A093E707B093E80722EEA22E27E07E
:101B4000B22EF5011082C092DE07D092DF07E0923C
:101B5000E007F092E10760E170E080E090E00E9431
:101B600015019093E4078093E30799249394F5017A
:101B700090821CA2F801808D918DA28DB38D8CA7CF
:101B80009DA7AEA7BFA719A6CDA2DEA2EFA2F8A679
:101B900061E170E080E090E00E9415019BA78AA7B8
:101BA00099A618AAF80184899589A689B78988AF6A
:101BB00099AFAAAFBBAF1DAAC9AADAAAEBAAFCAA21
:101BC0006FE070E080E090E00E9415019FAB8EAB6B
:101BD0009DAA1C86F80180A191A1A2A1B3A18C8B22
:101BE0009D8BAE8BBF8B198ACD86DE86EF86F88AF9
:101BF0006EE070E080E090E00E9415019B8B8A8B84
:101C0000998A188EF801848D958DA68DB78D88A33D
:101C100099A3AAA3BBA31D8EC98EDA8EEB8EFC8E70
:101C200062E170E080E090E00E9415019F8F8E8F4E
:101C30009D8E1882F80184A195A1A6A1B7A18887DD
:101C40009987AA87BB871D82C982DA82EB82FC82D0
:101C500063E170E080E090E00E9415019F838E8335
:101C60009D82F80184859585A685B7858093F507C3
:101C70009093F607A093F707B093F807C092F10787
:101C8000D092F207E092F307F092F40769E080E067
:101C90000E949E0069E080E0DF91CF911F910F913B
:101CA000FF90EF90DF90CF90BF90AF909F900C94FB
:101CB0009E008091DD0781111FC081E08093DD07C8
:101CC0008091DE079091DF07A091E007B091E107D6
:101CD0000197A105B10581F48091E207882361F0A5
:101CE00060E170E080E090E00E94D1009093E40712
:101CF0008093E3070E9438018091C50781111FC0BE
:101D000081E08093C5078091C6079091C707A09195
:101D1000C807B091C9070197A105B10581F4809169
:101D2000CA07882361F061E170E080E090E00E94E2
:101D3000D1009093CC078093CB070E94380180910B
:101D4000D10781111FC081E08093D1078091D20714
:101D50009091D307A091D407B091D5070197A10521
:101D6000B10581F48091D607882361F06FE070E0BF
:101D700080E090E00E94D1009093D8078093D7072D
:101D80000E9438018091AD0781111FC081E08093CE
:101D9000AD078091AE079091AF07A091B007B091C9
:101DA000B1070197A105B10581F48091B20788239D
:101DB00061F06EE070E080E090E00E94D1009093CE
:101DC000B4078093B3070E9438018091B90781114D
:101DD0001FC081E08093B9078091BA079091BB073B
:101DE000A091BC07B091BD070197A105B10581F491
:101DF0008091BE07882361F062E170E080E090E0AE
:101E00000E94D1009093C0078093BF070E943801C1
:101E10008091A10781111FC081E08093A10780916B
:101E2000A2079091A307A091A407B091A5070197DD
:101E3000A105B10581F48091A607882361F063E1D3
:101E400070E080E090E00E94D1009093A80780931A
:101E5000A7070C943801089560E070E080E89FE7E0
:101E6000089560E070E080E89FE7089560E070E02A
:101E700080E89FEF089560E070E080E89FEF0895AC
:101E800060E070E080EC9FEF089560E070E080EC2F
:101E90009FEF0895F5DF609377087093780880933B
:101EA000790890937A08F1DF60936B0870936C085F
:101EB00080936D0890936E08CFDF609373087093E2
:101EC00074088093750890937608CBDF60936F0851
:101ED000709370088093710890937208C7DF6093C5
:101EE0007B0870937C0880937D0890937E08C3DF05
:101EF00060937F0870938008809381089093820894
:101F00000895CF92DF92EF92FF92CF936B017C0105
:101F1000AC019B0160917308709174088091750801
:101F2000909176080E94942DC1E0882371F0A7015A
:101F3000960160917B0870917C0880917D0890915A
:101F40007E080E94942D8111C0E08C2FCF91FF90CC
:101F5000EF90DF90CF9008950F931F938B019C011A
:101F60000027112720783F770115110520483F47AA
:101F700049F4AB01BC016F77772781E0452B462BF5
:101F8000472B09F480E01F910F910895E5CF4F9200
:101F90005F926F927F928F929F92AF92BF92CF92F9
:101FA000DF92EF92FF920F931F93F8944090DA0222
:101FB0005090DB026090DC027090DD02C090CE0297
:101FC000D090CF02E090D002F090D102452B09F0E2
:101FD000A6C09B01AC0124193509460957092901FE
:101FE0003A010091D6021091D7022091D802309187
:101FF000D90248015901840C951CA61CB71C8016F7
:102000009106A206B306A0F40091D2021091D30269
:102010002091D4023091D5020F5F1F4F2F4F3F4FB9
:102020000093D2021093D3022093D4023093D502AE
:102030008092D6029092D702A092D802B092D90292
:102040000091D2021091D3022091D4023091D50296
:102050008092DE029092DF02A092E002B092E10252
:102060000093E2021093E3022093E4023093E5022E
:102070006093DA027093DB028093DC029093DD02BE
:10208000A301920160EA76E881E090E00E942236A6
:102090006C0D7D1D8E1D9F1D6093CE027093CF022F
:1020A0008093D0029093D102009186011091870114
:1020B00020918801309189010F3F1F4F2F4F3F4FD3
:1020C000F1F00091860110918701209188013091F3
:1020D00089010E3F1F4F2F4F3F4F89F0C09086015F
:1020E000D0908701E0908801F090890121E08C1464
:1020F0009D04AE04BF0408F420E02093E602789427
:102100001F910F91FF90EF90DF90CF90BF90AF9015
:102110009F908F907F906F905F904F9008954B01AC
:102120005C0184189508A608B708A3019201261B34
:10213000370B480B590B6415750586059705E0F0BC
:1021400082169306A406B50640F420E030E0A9010B
:1021500081149104A104B104A1F460EA76E881E05D
:1021600090E00E942236A7019601261B370B480BF0
:10217000590BCA01B901C3CF82169306A406B5064E
:1021800060F7A501940160EA76E881E090E00E94A2
:1021900022366C0D7D1D8E1D9F1DB1CFF8CECF93C5
:1021A000DF9300D000D0CDB7DEB71C821B821A822D
:1021B0001982BE016F5F7F4FCE0103960E94212BD3
:1021C00069817A818B819C810E945224009761F4FD
:1021D000BE016F5F7F4FCE0103960E942D2B698158
:1021E0007A818B819C8124D50F900F900F900F9056
:1021F000DF91CF910895FF920F931F93CF93DF93B9
:10220000082F60E070E0CB010E94E932FF24F394D4
:102210000E943D23EC01892B89F010E0CE3F8FEF27
:10222000D80769F0002361F160E070E0CB010E9403
:10223000E93281E090E0892B59F322C011E01BD5EF
:10224000EC01892B21F0CE3F8FEFD80759F7111100
:102250001EC011E0229609F410E00E94EE22EC016B
:10226000892B21F0CE3F8FEFD807E1F6111111C075
:1022700011E0CE3F8FEFD80709F410E001110BC039
:10228000CE01DF91CF911F910F91FF90089511E042
:10229000E4CF11E0F3CF60E070E0CB010E94E932BF
:1022A0001F25812F90E0C7CFCF93DF931ED6D0E0BC
:1022B000C0E0892B71F06AE070E080E090E00E945D
:1022C000E93281E098DF11D62196C03D27E0D207A0
:1022D00081F710D60E94A6241092FE021092FD02F1
:1022E0001092F7021092F8021092F9021092FA027C
:1022F0001092F3021092F4021092F5021092F6027C
:102300001092EF021092F0021092F1021092F2027B
:102310001092EB021092EC021092ED021092EE027B
:102320001092E7021092E8021092E9021092EA027B
:102330004EEF5FEF6FEF7FEF409386015093870181
:1023400060938801709389011092E602EEEDF2E04D
:1023500028E0DF011D922A95E9F71092DA02109227
:10236000DB021092DC021092DD021092D602109273
:10237000D7021092D8021092D9021092D202109273
:10238000D3021092D4021092D5021092CE02109273
:10239000CF021092D0021092D102DF91CF91089516
:1023A00010920A0310920B0310920C0310920D036B
:1023B00010920903809112039091130390930803E4
:1023C00080930703109206031092050310920103F5
:1023D00010920203109203031092040310920F0351
:1023E00010920E0390E080E00895CF92DF92EF927A
:1023F000FF920F931F93CF938C01892B09F055C047
:1024000020911203309113038091070390910803E8
:102410004091120350911303509308034093070314
:102420002817390781F010920603109205031092C5
:1024300001031092020310920303109204031092FE
:102440000F0310920E0380911203909113030197D2
:1024500061F580910E0390910F03892B21F48091F7
:102460008A01811112C080910E0390910F03019790
:10247000E1F48091010390910203A0910303B091D4
:1024800004030197A105B10581F410920103109294
:102490000203109203031092040310928A0182E057
:1024A00090E090930F0380930E038091120390911C
:1024B0001303019709F01CC180912803909129030F
:1024C0008017910709F014C180912403909125038E
:1024D000A0912603B0912703009709F409C1209128
:1024E000230321110DC040912403509125036091D5
:1024F000260370912703452B462B472B09F4F8C080
:1025000020910E0330910F032230310509F0F0C005
:10251000209105032111ECC0FC01C080D180E28034
:10252000F38080910903882309F4D3C080911503B7
:1025300090911603892B09F4FDC020911503309169
:10254000160381E02230310509F080E02091150367
:1025500030911603C1E02130310549F02091150377
:1025600030911603C1E02230310509F0C0E0882324
:1025700009F456C020911F0330912003409121039C
:1025800050912203C701B6010E94562F87FD14C047
:1025900020911F0330912003409121035091220389
:1025A00060910A0370910B0380910C0390910D03CD
:1025B0000E94942D87FD22C020911F03309120039B
:1025C0004091210350912203C701B6010E94562F6A
:1025D000181634F520911F033091200340912103F8
:1025E0005091220360910A0370910B0380910C03B8
:1025F00090910D030E94942D811112C080911703B8
:1026000090911803A0911903B0911A03892B8A2B7A
:102610008B2B19F481E08093060381E080930503FE
:10262000CC2309F456C020911F0330912003409120
:10263000210350912203C701B6010E94942D87FF08
:1026400014C020911F033091200340912103509129
:10265000220360910A0370910B0380910C03909107
:102660000D030E94562F87FF22C020911F03309137
:1026700020034091210350912203C701B6010E941B
:10268000942D811126C020911F0330912003409189
:1026900021035091220360910A0370910B038091F2
:1026A0000C0390910D030E94562F181694F48091FC
:1026B000170390911803A0911903B0911A03892B65
:1026C0008A2B8B2B19F481E08093060381E08093A1
:1026D000050381E090910503911180E08093090347
:1026E000C0920A03D0920B03E0920C03F0920D0308
:1026F000012B09F067C180910E0390910F03892B84
:10270000D9F4109214031092050380918A01882352
:1027100079F082E090E090930F0380930E03109283
:102720008A01209112033091130381E0232BE9F0F9
:1027300080E01BC081E00ACF10928A0180911403CF
:10274000882349F01092060310920F0310920E0393
:1027500010921403EDCF8091120390911303892BF3
:10276000E1F0809105031092050320910E03309152
:102770000F032230310509F45EC088F421153105BC
:1027800009F448C02130310509F4F3C01092060362
:10279000109205031092140338C081E0E6CF233075
:1027A000310509F4B1C02430310581F740910103AE
:1027B0005091020360910303709104034115510588
:1027C0006105710561F0415051096109710940933A
:1027D0000103509302036093030370930403409139
:1027E0000103509102036091030370910403452B90
:1027F000462B472BD9F4209110033091110321303F
:10280000310509F046C01092060310920F03109292
:102810000E030CC080918A01882341F082E090E091
:1028200090930F0380930E0310928A011092FF027F
:1028300080910603CEC08823C9F38091170390913D
:102840001803A0911903B0911A03181619061A0655
:102850001B060CF07DC08091120390911303019729
:1028600009F076C08091170390911803A091190385
:10287000B0911A038093010390930203A093030382
:10288000B093040383E090E090930F0380930E03D2
:10289000CDCF40911B0350911C0360911D0370919B
:1028A0001E03452B462B472BA9F01092060380915F
:1028B0001B0390911C03A0911D03B0911E038093F4
:1028C000010390930203A0930303B093040381E0F8
:1028D00090E0DACF882399F080918B0190918C0160
:1028E000A0918D01B0918E0180930103909302031A
:1028F000A0930303B093040384E090E0C5CF10924B
:10290000060382E090E0C0CF809101039091020322
:10291000A0910303B09104030097A105B10559F0FC
:102920000197A109B1098093010390930203A09339
:102930000303B09304038091010390910203A091DB
:102940000303B0910403892B8A2B8B2B09F06ECFE4
:1029500080918B0190918C01A0918D01B0918E019D
:10296000892B8A2B8B2B09F44ECF81E080930603B1
:10297000B3CF409101035091020360910303709122
:102980000403411551056105710561F0415051097C
:10299000610971094093010350930203609303039B
:1029A000709304034091010350910203609103036B
:1029B00070910403452B462B472B09F037CF81112B
:1029C000C7CF9FCF8091FF02882309F431CF809138
:1029D0000003CF911F910F91FF90EF90DF90CF9068
:1029E000089510920A0310920B0310920C03109298
:1029F0000D031092090310920F0310920E03109210
:102A000008031092070310922903109228031092D2
:102A10000603109205031092010310920203109214
:102A2000030310920403109200031092FF0210920D
:102A3000240310922503109226031092270310926C
:102A4000230310921F03109220031092210310926F
:102A5000220388EE93E0A0E0B0E080938B01909396
:102A60008C01A0938D01B0938E0110921B031092E4
:102A70001C0310921D0310921E0310921703109254
:102A800018031092190310921A0310921603109251
:102A9000150381E080938A011092140310921303AE
:102AA00010921203109211031092100390E080E034
:102AB00008958091120390911303892B19F5809149
:102AC0008A01882351F080911403811106C081E0AE
:102AD000809300038093FF020895209114033091A6
:102AE0008A0181E090E0332311F090E080E030E053
:102AF00082239323892B21F01092000381E0EACFF7
:102B00001092FF02089582E090E0FA0191838083A1
:102B10008FEF9FEF0895CF93DF93EA01009711F0B5
:102B20000E94C1251982188290E080E0DF91CF9148
:102B30000895DB01009719F48FEF8C9308952EEF21
:102B40002C930F968F30910508F033C0FC01E555AA
:102B5000FA4E0C947B36D715D515D315D115CF1554
:102B6000CB15CD15C915C715C515C215BE15BA1596
:102B7000C015D91580E311968C93089589E2FBCF97
:102B800082E2F9CF11961C92089583E2F4CF81E29C
:102B9000F2CF81E1F0CF87E2EECF8AE2ECCF80E1A5
:102BA000EACF84E2E8CF88E2E6CF86E2E4CF81E3B1
:102BB000E2CF80E2E0CF8091360390913703089511
:102BC00090933703809336030895809135030895D9
:102BD00090913503892B809335030895982F909514
:102BE00080913503892380933503089580913403C0
:102BF0000895809132039091330308956115710512
:102C000059F0FB0130E020E070E060E02417350768
:102C100019F06115710511F0CB010895A081B18102
:102C2000A817B90709F4BF012F5F3F4F3696EECFC3
:102C30008091380381111CC043D249D290932B0359
:102C400080932A030E94321F0E94441F90932F03F7
:102C500080932E030E9458220E945F2290932D039E
:102C600080932C0381E08093380390E080E0089506
:102C700084EF9FEF08958F929F92AF92BF92CF9271
:102C8000DF92EF92FF920F931F93CF93DF93CDB715
:102C9000DEB72A970FB6F894DEBF0FBECDBF1A86F7
:102CA000198618861F821E821D821C821B821A8230
:102CB00019828091380307EF1FEF882309F48BC036
:102CC0008E010D5F1F4F9E012B5F3F4FAE01495F8D
:102CD0005F4FBE01675F7F4F90E080E00E94D82386
:102CE0008C01009721F00596029708F0C7C08985EE
:102CF0009A85009709F4EFC0ED80FE802B813C811E
:102D00002E0D3F1D4F8158854217530708F4E3C02D
:102D1000E80EF91ED7014C9120913603309137030C
:102D2000232B09F494C0413F08F069C08CE1840F63
:102D30008D3008F483C08DE2840F803108F481C0A7
:102D400088E3840F8B3008F47FC099E9C92E95E1A0
:102D5000D92EE3E8F5E16D817E81AE014F5F5F4FD3
:102D600089859A8509955C01C114D104A1F18980F6
:102D70009A808114910479F18B819C818815990541
:102D800008F484C010E000E04B815C8170E060E0FA
:102D9000C7010E94A33601151105E9F449815A8142
:102DA00069857A858D819E81680F791FC501F6013D
:102DB0000995E980FA800D811E812F81388549852A
:102DC0005A856FEF7FEF81E090E00E9474238C01C1
:102DD000892B09F053C0C8012A960FB6F894DEBFBC
:102DE0000FBECDBFDF91CF911F910F91FF90EF905C
:102DF000DF90CF90BF90AF909F908F90089530E07C
:102E000020E0220F331FF901E65DFC4F0190F081B5
:102E1000E02D309709F499CF842F90E00995009721
:102E200009F493CFDC011296ED91FC91139714965F
:102E3000CD90DC90309709F08ECF1EC021E030E0BD
:102E4000E0CF22E030E0DDCF23E030E0DACFD12C5C
:102E5000C12CEBE8F5E14F3F09F07DCFE0912A036B
:102E6000F0912B03309719F404EF1FEF0CC08FEF94
:102E700090E009950097B1F604EF1FEF89859A85D8
:102E8000009709F4A8CF0E94C125A5CF0E94A124D4
:102E90008C0189859A850E94C12570E060E0C4019B
:102EA0000E943A2498878F830E9471239E838D838A
:102EB0006F8178856115710559F0C8010E94572707
:102EC0009A87898706EF1FEF892B09F05BCF5CCFCC
:102ED00008EF1FEF59CF08EF1FEFD0CF2091380335
:102EE0002111D7C787EF9FEF089580913603909106
:102EF000370308950E9464220E94BE21EDD0EAE2C9
:102F0000F3E088E0DF011D928A95E9F7109238031B
:102F100090E080E0089586E090E0FA01918380835C
:102F200090E080E0089547E050E067EA71E066CE07
:102F3000DF92EF92FF920F931F93CF93DF938A015B
:102F4000EC01C60FD71FE0903C03F0903D03D98001
:102F50000E948924D816190678F082E090E0F801E2
:102F6000918380838EEF9FEFDF91CF911F910F911F
:102F7000FF90EF90DF900895EF2841F482E090E019
:102F8000F8019183808384EF9FEFEECF8981809356
:102F90003B0390E00196F8019183808390E080E00C
:102FA000E3CFCF93DF93EA010E94D120882321F061
:102FB0000E9496240E94D22082E090E09983888328
:102FC0008BEF9FEFDF91CF910895CF93DF93EB01CC
:102FD00086E0FB0111928A95E9F78FEF8883F5DD92
:102FE000898304DE8A8305DE9D838C83DF91CF9104
:102FF0000895CF93DF93EA010E94D420811109C084
:1030000082E090E09983888385EF9FEFDF91CF91F5
:10301000089590E080E0D4DD81E090E0998388839A
:1030200090E080E0F3CF0F931F93CF93DF93EA01FB
:103030008C01060F171F0E94D42081110BC082E063
:1030400090E09983888385EF9FEFDF91CF911F9167
:103050000F910895F8018181823038F082E090E08C
:10306000998388838EEF9FEFF0CF81E090E0A8DD19
:1030700088E090E09983888390E080E0E6CFCF936A
:10308000DF930097D1F4EB01FB01329686E0DF017C
:103090001D928A95E9F78FEF888385E089831A82EC
:1030A0000E9489248B830E9488249D838C8381E0E5
:1030B0008E838F83DF91CF910895DF91CF9139CDAA
:1030C00083E997E190933A038093390308958091BF
:1030D000390390913A03089510923A0310923903FC
:1030E000089580913C0390913D030895411105C0DE
:1030F000611571058105910561F060933C03709342
:103100003D0380933E0390933F034093400381E04F
:10311000089580E00895FF920F931F93CF93DF935C
:103120008A01EC01C60FD71FF9800E948924F81686
:10313000190668F082E090E0F801918380838EEFB9
:103140009FEFDF91CF911F910F91FF9008956C81B8
:103150007D818E819F814B81C9DF811108C082E012
:1031600090E0F8019183808384EF9FEFEACF89811B
:1031700080933B0390E00196F8019183808390E077
:1031800080E0DFCFCF93DF93EA01FC01E60FF71F6A
:1031900064817581868197814381A8DF811109C08F
:1031A00082E090E09983888384EF9FEFDF91CF9155
:1031B000089581E090E09983888390E080E0F6CFE5
:1031C000ECE3F3E04081518162817381480F511D2E
:1031D000611D711D40835183628373830895CF9372
:1031E000C0913B034C2F50E060913C0370913D0334
:1031F00001960E949A368C2FE3DF10923B03CF9109
:103200000895009799F480913C0390913D032FEF2E
:10321000FB012083892B59F020913B0330E02F5F85
:103220003F4F2417350719F4CB01D9CF82CC08952D
:10323000009799F480913C0390913D032FEFFB019F
:103240002083892B59F020913B0330E02F5F3F4FC3
:103250002417350719F4CB01C2CF6BCC08952DE0AC
:10326000AC01249FC001259F900D1124E0914503DE
:10327000F0914603E80FF91F238134812250310970
:1032800081E02230310508F080E008950F931F930C
:10329000CF93DF930091470310914803D0E0C0E043
:1032A00080E00C171D0749F491E0811190E0892F0F
:1032B000DF91CF911F910F9108958111F5CFCE012C
:1032C000CEDF2196EECFA0914503B0914603109733
:1032D00029F1209147033091480382179307F0F4B6
:1032E0005DE0589F9001599F300D1124A20FB31F2C
:1032F000ED91FC911197309789F012968C91681797
:1033000068F485E0689FE00DF11D112480819181B2
:10331000892B21F081E09281491708F080E008951F
:10332000EF92FF920F931F93CF93DF93EA01FC017B
:10333000E60FF71F02811381E480F5804F2D6E2D7B
:10334000C801C1DF81110DC082E090E099838883BC
:103350008EEF9FEFDF91CF911F910F91FF90EF9034
:103360000895C8017CDF882339F082E090E09983DA
:10337000888388EF9FEFEECF10939601009395011D
:10338000E0929701F092980181E090E09983888320
:1033900090E080E0DFCFCF92DF92EF92FF920F9329
:1033A0001F93CF93DF937A01EC01C60FD71FC09014
:1033B0009501D09096010091970110919801412FAD
:1033C000602FC60180DF811110C082E090E0F7011C
:1033D000918380838AEF9FEFDF91CF911F910F91AF
:1033E000FF90EF90DF90CF900895C60138DF8823DB
:1033F00041F082E090E0F7019183808388EF9FEFB6
:10340000EBCF4C815D816E817F819A8189818F3F75
:1034100041F082E090E0F701918380838EEF9FEF8F
:10342000DBCFEDE0EC9D9001ED9D300D1124E0919E
:103430004503F0914603E20FF31F0190F081E02D68
:1034400025E0029FE00DF11D11240190F081E02D97
:1034500027E0129FE00DF11D1124808391838B8161
:10346000828343835483658376831F5F109398011F
:1034700081E090E0F7019183808390E080E0ACCF21
:10348000EF92FF920F931F93CF93DF937A018C01FA
:10349000060F171FC0914503D0914603209781F076
:1034A00021E030E0F80182819381409147035091FF
:1034B00048038417950710F030E020E0232B71F4C7
:1034C00082E090E0F701918380838EEF9FEFDF91A0
:1034D000CF911F910F91FF90EF9008954DE0489F7D
:1034E0009001499F300D1124C20FD31FB8DE8823ED
:1034F00041F082E090E0F7019183808388EF9FEFB5
:10350000E6CFF8012481358120383105C8F687815E
:103510008111D6CF4181842F90E08F7E009741F0BA
:1035200082E090E0F7019183808386EF9FEFCFCF19
:103530004F833E832D83268128871986223010F4FD
:1035400021E0288721E030E0F70131832083BFCFDD
:1035500088E090E0FA019183808390E080E0089514
:10356000FB018FEF808381E181838FEF9FEF938356
:10357000828380E890E09583848316821782089581
:10358000FB018FEF808391E0918382839383848317
:1035900084E3858381E090E09783868308954BE000
:1035A00050E061ED71E02ACB8F929F92BF92CF9253
:1035B000DF92EF92FF920F931F93CF93DF93EA0175
:1035C000FC01E60FF71F828193810481B580E091B1
:1035D0004503F0914603309791F482E090E099839F
:1035E00088838CEF9FEFDF91CF911F910F91FF9018
:1035F000EF90DF90CF90BF909F908F900895209193
:103600004703309148038217930738F082E090E037
:10361000998388838EEF9FEFE6CF2DE0289F60018E
:10362000299FD00C1124EC0DFD1DE080F180E114E8
:10363000F10499F28281081748F785E0089F80011C
:103640001124E00EF11EF70180819181892B29F66A
:10365000BB20E1F2F7E0BF9E40011124C4010E94AB
:103660007225F70191838083E0914503F091460331
:10367000EC0DFD1D0190F081E02DE00FF11F808128
:103680009181009739F482E090E0998388838DEFEF
:103690009FEFA9CFA40170E060E00E94A336809163
:1036A000450390914603C80ED91EF6018081918191
:1036B000080F191FF801B28281E090E09983888396
:1036C00090E080E090CFAF92BF92CF92DF92FF92D6
:1036D0000F931F93CF93DF93EA01FC01E60FF71FCF
:1036E00082819381F4800091450310914603011576
:1036F000110581F482E090E0998388838CEF9FEF3D
:10370000DF91CF911F910F91FF90DF90CF90BF90ED
:10371000AF90089520914703309148038217930793
:1037200038F082E090E0998388838EEF9FEFE8CFB6
:103730002FEF2F0D2C3FA8F72DE0289F6001299F28
:10374000D00C11240C0D1D1DF80180819181892B55
:1037500089F6F5E0FF9E50011124C5010E947225F3
:10376000F80191838083E0914503F0914603EC0DCD
:10377000FD1D80819181009739F482E090E099836A
:1037800088838DEF9FEFBCCFA50170E060E00E94C1
:10379000A336E0914503F0914603EC0DFD1DF28246
:1037A00081E090E09983888390E080E0A9CFCF9278
:1037B000DF92EF92FF920F931F93CF93DF93860FC9
:1037C000971FFC010281138180914503909146036C
:1037D000892B81F082E090E0FA01918380838CEF65
:1037E0009FEFDF91CF911F910F91FF90EF90DF90AE
:1037F000CF900895C801B0E0A0E00197A109B109F8
:103800008F3F9F4FA105B10540F082E090E0FA01A3
:10381000918380838EEF9FEFE4CF7A018DE0809FCC
:103820006001819FD00C1124C6010E947225EC0119
:10383000009741F482E090E0F701918380838DEF5F
:103840009FEFCFCFA60170E060E00E94A336D09337
:103850004603C0934503109348030093470390E049
:1038600080E02FEF3FEF8017910741F481E090E077
:10387000F7019183808390E080E0B3CF3C872B8772
:1038800001962D96F0CFCF92DF92EF92FF920F9399
:103890001F93CF93DF93EC01D12CC12C10E000E0FB
:1038A000F12CE12C8A818017110609F0BCF4AE01DD
:1038B000455F5F4F63E070E0C7010E94ED25009710
:1038C00021F02FEF3FEF3C872B87DF91CF911F91A6
:1038D0000F91FF90EF90DF90CF900895E881F981EC
:1038E000EC0DFD1D23813481C901019601151105DF
:1038F00019F44F8144FD049661E070E0BBD7E816EF
:10390000F90608F47C010F5F1F4F85E0C80ED11C3B
:10391000C9CFF894209143033091440381E02115ED
:10392000310509F080E0232B09F0789408954F9237
:103930005F926F927F928F929F92AF92BF92CF923F
:10394000DF92EF92FF920F931F93CF93DF933C018F
:10395000660E771EF301828193814C01B12CA12C5C
:10396000C0914503D0914603209769F021E030E0F3
:1039700060914703709148038617970710F030E075
:1039800020E0232BC1F482E090E0FA019183808350
:103990008EEF9FEFDF91CF911F910F91FF90EF90EE
:1039A000DF90CF90BF90AF909F908F907F906F905F
:1039B0005F904F9008958092990190929A01A09201
:1039C0009B01B0929C016DE0689F9001699F300D52
:1039D0001124C20FD31FF3018181833040F082E0B4
:1039E00090E0FA019183808386EF9FEFD3CF2A0185
:1039F0002B813C81232BF1F4288139819F8191FF18
:103A00002EC0232B09F464C020914A039A81422FCF
:103A1000490F5527551FBA0141E050E06138710543
:103A200014F050E040E0452B09F452C02A87920F71
:103A300090934A038150823008F476C06ADF88236D
:103A400009F4C5C0F3018181813009F480C008F414
:103A500070C0823009F4B3C090E080E08EC0232BA8
:103A6000B9F1209149039A81E22FE90FFF27FF1F47
:103A700041E050E0ED3FF10514F050E040E0452B0F
:103A800039F12A87920F90934903D4CFA081B18155
:103A9000A20FB31F11966C91060F111D0196295F9D
:103AA0003F4F8417950794F3C114D104C9F48F8153
:103AB00084FF16C02DD721E0A8014B5F5F4F84170C
:103AC000950708F420E0A7014B5F5F4F21110EC05E
:103AD00082E090E0F2019183808387EF9FEF5ACFDD
:103AE00017D721E0A8014F5F5F4FE9CF8881998107
:103AF000E80EF91EF70114830383FFEFCF1ADF0AE4
:103B00007A018A818C151D0409F00CF497CFE881A5
:103B1000F981EE0DFF1D428150E030E020E010E021
:103B200000E090E080E0BDCFF12CE12CD12CC12C45
:103B3000E8CF81E090E09C838B83A8DB882309F4A5
:103B40008BCF81E090E03CD880E448D885CF8B854E
:103B50009C85019651F083E090E09C838B8382E00A
:103B600090E02ED880E434D877CF89288A288B2813
:103B700079F4CE0188DE009771F3789422E030E08A
:103B8000F20131832083892BF9F08DEF9FEF02CF73
:103B90002D813E8180918F019091900128173907E6
:103BA000D1F66091930170919401AE01455F5F4F32
:103BB00080919101909192010E941627DCCF82E0C2
:103BC00090E09C838B8348CF90E080E0E3CE82E05E
:103BD00090E0F2019183808385EF9FEFDBCE8F929F
:103BE0009F92AF92BF92CF92DF92EF92FF920F938C
:103BF0001F93CF93DF93EA018C01060F171FF80183
:103C00008181833098F082E090E09983888386EF09
:103C10009FEFDF91CF911F910F91FF90EF90DF9079
:103C2000CF90BF90AF909F908F9008958091450363
:103C300090914603892B61F081E090E02091470349
:103C400030914803232B11F490E080E0892B39F464
:103C500082E090E0998388838EEF9FEFDACF59DE80
:103C6000882309F4D5C0F8018181813009F48BC023
:103C7000E8F0823099F42091470330914803E091B5
:103C80004503F091460390E080E041E050E02817C2
:103C9000390709F0B3C0FADA811117C0789481E0CE
:103CA00090E09983888390E080E0B3CF2091470330
:103CB00030914803E0914503F091460390E080E0A5
:103CC00041E050E02817390741F481E090E00E947C
:103CD000E01580E40E94EE15E1CF63817481672BCB
:103CE00011F05483438301963D96ECCFE091450358
:103CF000F0914603E00FF11F23813481223031051A
:103D000061F4238534852F3F3F4F39F4C114D1042A
:103D1000E104F10409F5CF01B6DDEFEFCE1ADE0ABA
:103D2000EE0AFE0A035F1F4F40914703509148037C
:103D300070E060E0C416D506E606F70664F5009765
:103D4000A9F27894892B09F4AACF82E090E09983B4
:103D500088838DEF9FEF5DCF4581568120918F0144
:103D60003091900142175307C1F6AF01455F5F4F95
:103D700060919301709194018091910190919201D1
:103D80000E941627CACF10E000E090E080E0C12C2E
:103D9000D12C7601C9CF0097A1F610E000E0812C6C
:103DA000912C540183E0E82EF12C1AC0E0914503D8
:103DB000F0914603E00FF11F83819481029749F44B
:103DC000F482E38282E090E00E94E01580E40E94A9
:103DD000E815FFEF8F1A9F0AAF0ABF0A035F1F4F54
:103DE0008091470390914803B0E0A0E088169906BF
:103DF000AA06BB06DCF290E080E0A3CF6381748169
:103E00006230710511F45483438301963D963FCF90
:103E100082E090E09983888385EF9FEFFACE009748
:103E2000B9F48FEFFB0180832091990130919A01C1
:103E30004DE0429FC001439F900D1124E091450346
:103E4000F0914603E80FF91F8285FB0181830895F5
:103E50000C94991588E090E0FA019183808390E0BA
:103E600080E008951092440310924303E5E4F3E0E8
:103E700086E0DF011D928A95E9F78FEC9AE1909335
:103E8000420380934103089580914103909142033E
:103E900008952F923F924F925F926F927F928F92EE
:103EA0009F92AF92BF92CF92DF92EF92FF920F93C9
:103EB0001F93CF93DF93CDB7DEB762970FB6F89419
:103EC000DEBF0FBECDBFF894209143033091440371
:103ED0002F5F3F4F30934403209343037894209106
:103EE0004503309146033B832A83232B09F456C1B3
:103EF0002091470330914803232B09F44FC14D878C
:103F00005E876F87788B9C878B878A819B819A8B52
:103F1000898BD12CC12C198210E000E080914703DD
:103F200090914803C816D90618F43981332329F132
:103F3000F894809143039091440301979093440334
:103F4000809343037894C80162960FB6F894DEBF5D
:103F50000FBECDBFDF91CF911F910F91FF90EF90DA
:103F6000DF90CF90BF90AF909F908F907F906F9099
:103F70005F904F903F902F900895B60190E080E0C1
:103F800028D38887A989BA8917968C91179781FDBC
:103F90008DC013968D919C911497039709F086C05C
:103FA0001596ED91FC91FF83EE832B853C85E217FE
:103FB000F30709F07BC0712C612C512C412C63C09C
:103FC00090D39A87898710E04114510431F4A9896C
:103FD000BA8917961C9112951170A989BA89ED9129
:103FE000FC91E60DF71D23803480111169C0BFEFED
:103FF0002B1A3B0A61E070E0C1013CD45C01A98945
:10400000BA891B968D919C918F3F980709F45CC0EB
:10401000B5014DD74C01009709F4BBC0E985FA857D
:10402000E80FF91FA989BA891A968C91840D8083AB
:1040300011114DC08F010F5F1F4F80918F01909123
:104040009001AE81BF81A817B90709F09DC081E03A
:1040500090E0B885BB2311F090E080E07101098504
:104060001A859501A401B6019195819591093CD3DA
:104070008C01892B11F0C40184D58FEF481A580A9E
:1040800095E0690E711CA989BA8912968C918415E4
:10409000150429F024F0B981BB2309F491CFE885F8
:1040A000EE2321F0B60190E080E095D2FFEFCF1A29
:1040B000DF0A29893A89235F3F4F3A8B298B2ECF1C
:1040C000E5E02E0E311C96CFC5010CD5A3CF8D8512
:1040D0009E85AF85B88981839283A383B4838F0142
:1040E0000B5F1F4FAACFE080F180EC81FD81EE0EC7
:1040F000FF1ED70113966D917C9114978C918F3F81
:10410000E1F1E1E0F0E002C0EE0FFF1F8A95E2F777
:10411000CF01092E000CAA0BBB0BFB014081518182
:104120006281738184239523A623B72321E0892B01
:104130008A2B8B2B09F420E0D8012C93D701119600
:104140008C91080F111DEA81FB813196FB83EA8374
:104150002C813D81295F3F4F3D832C83A989BA89FA
:10416000ED91FC91E60DF71D82812A813B8182173A
:10417000130611F00CF0B7CF6ACFF701418150E080
:10418000C8010E949A36DACF1D821C821B821A82D5
:10419000E5CF31E0398306EF1FEF6FCF10E000E08D
:1041A000C7CEB7CB789408952F923F924F925F92EB
:1041B0006F927F929F92AF92BF92CF92DF92EF92D7
:1041C000FF920F931F93CF93DF9300D000D000D0C6
:1041D000CDB7DEB70091450310914603992493941F
:1041E0000115110509F43EC0A0904703B0904803A3
:1041F00090DB982E8823B1F110924603109245036C
:1042000010924803109247031092490310924A03F8
:104210008FEF9FEFDC018093990190939A01A09317
:104220009B01B0939C01789475D31E830D83C12CA0
:10423000D12C7601C501B0E0A0E089839A83AB83DD
:10424000BC8322242A94322C89819A81AB81BC813F
:10425000C816D906EA06FB06F4F0C80192D480E439
:104260000E94EE15892D26960FB6F894DEBF0FBE7C
:10427000CDBFDF91CF911F910F91FF90EF90DF9015
:10428000CF90BF90AF909F907F906F905F904F9036
:104290003F902F900895C114D104E104F10409F571
:1042A000D8011B968D919C918F3F980709F03FD5BF
:1042B000F80134862386ED81FE8180819181B12CC5
:1042C000A12C412C512C3201892B69F5BFEFCB1A5F
:1042D000DB0AEB0AFB0AED81FE813D96FE83ED834E
:1042E000B3CFAD81BE8115962D913C9116978091EB
:1042F0008F019091900128173907E9F61B968D914F
:104300009C91C3D5D8CF8A0D9B1DDC018D919C91CA
:10431000009709F036D4BFEF4B1A5B0A6B0A7B0A91
:10432000E5E0AE0EB11CAD81BE818D919C911197DF
:1043300012964C9150E070E060E044165506660617
:1043400077060CF31ED4C2CFCF93DF93EA012CDFA4
:10435000811109C082E090E09983888385EF9FEF07
:10436000DF91CF91089581E090E00E94E01581E017
:1043700090E09983888390E080E0F2CF15DF10927F
:10438000420310924103089542E050E063E172E07D
:104390000C94FE15FF920F931F93CF93DF938A0126
:1043A000EC01C60FD71FF980B4D20897F81619068A
:1043B00071F068F082E090E0F801918380838EEFE5
:1043C0009FEFDF91CF911F910F91FF9008956C8126
:1043D0007D818E819F814B810E947618811108C05A
:1043E00082E090E0F8019183808384EF9FEFE9CF32
:1043F000F9800E9471184F2D50E0BE01685F7F4F19
:104400000E949A3689810E94E01881E090E0F801CC
:104410009183808390E080E0D4CFDF92EF92FF928F
:104420000F931F93CF93DF938A01EC01C60FD71F21
:104430000E9471187C01D9806CD2DD2059F002975E
:1044400021E030E0D816190619F010F030E020E035
:10445000232B79F482E090E0F801918380838EEF42
:104460009FEFDF91CF911F910F91FF90EF90DF9021
:104470000895EF2841F482E090E0F8019183808371
:1044800084EF9FEFEECFF9800E9471184F2D50E01E
:10449000BE016E5F7F4F0E949A3689810E94E018AC
:1044A00081E090E0F8019183808390E080E0D9CFB3
:1044B00084EC91E290934C0380934B030895809198
:1044C0004B0390914C0308950895FC0111821082D2
:1044D000938382830895DB011D921C92DC01129666
:1044E000ED91FC9113977183608313967C936E9387
:1044F00012970895FC0180819181DB018D939C933B
:10450000A081B181109741F08D919C91918380831E
:10451000892B11F4F383E2830895FC01808191815A
:10452000DB018D939C93892B11F4738362837183D8
:1045300060830895FC011182108293838283089521
:10454000CF93DF9300D0CDB7DEB71A821982F894EB
:10455000BE016F5F7F4F82E593E0CCDF89819A8156
:10456000009709F00ED389819A81892B89F7BE01C2
:104570006F5F7F4F86E593E0BDDF89819A81009769
:1045800009F0FFD289819A81892B89F778940F905D
:104590000F90DF91CF910895CF93DF9300D0CDB7E7
:1045A000DEB71A821982F894BE016F5F7F4F8EE4E6
:1045B00093E0A0DF89819A81009709F0E2D2898196
:1045C0009A81892B89F778940F900F90DF91CF9182
:1045D000089581E0089590E080E00895EF92FF92C1
:1045E0000F931F93CF93DF9300D0CDB7DEB71A821E
:1045F000198280914D0307EF1FEF8823A1F1F894F2
:10460000BE016F5F7F4F86E593E074DF7894898108
:104610009A81EE24E394F12C892B51F4F894BE0195
:104620006F5F7F4F82E593E065DF7894F12CE12C9A
:1046300089819A810EEF1FEF0097A9F0FC0142815A
:10464000538164E070E031D68C01892B61F0F894DD
:1046500069817A81C701880F991F880F991F8E5A27
:104660009C4F5BDF7894C8010F900F90DF91CF9142
:104670001F910F91FF90EF9008950F931F93CF9389
:10468000DF9300D000D0CDB7DEB71C821B821A8228
:10469000198280914D0307EF1FEF8823C1F0AE010F
:1046A0004D5F5F4F64E070E0CE01019671D68C01E2
:1046B000892B69F4E981FA818B819C8193838283C0
:1046C000F89469817A818EE493E005DF7894C801DB
:1046D0000F900F900F900F90DF91CF911F910F913E
:1046E000089576D7049608958F929F92AF92BF92C5
:1046F000CF92DF92EF92FF920F931F93CF93DF93AE
:1047000000D0CDB7DEB71A821982BC016F5F7F4F30
:104710006330710598F0AA24AA94BA2CC5010F90B1
:104720000F90DF91CF911F910F91FF90EF90DF904D
:10473000CF90BF90AF909F908F90089541155105F5
:1047400051F3480159018A016C01CBDF88159905A5
:1047500011F7E114F104F9F28E0D9F1DA816B906A8
:10476000D0F280914D038823F1F0F894B5016450A4
:1047700071099701AE014F5F5F4FC80104969DD646
:104780005C01892B71F489819A81F801938382837A
:10479000C601880F991F880F991FB8018E5A9C4F28
:1047A0009ADE7894BBCF87EFA82EBB24BA94B6CFFD
:1047B000AF92BF92CF92DF92EF92FF920F931F932F
:1047C000CF93DF9300D0CDB7DEB71A821982892B41
:1047D00009F047C06115710509F443C04115510541
:1047E00009F43FC02115310509F43BC0011511053D
:1047F000C1F180914D038823B9F179016A015B0110
:10480000F894BE016F5F7F4F8EE493E073DE78947F
:1048100089819A81009759F1DC0112966D917C9102
:10482000A801049663D68C01E981FA81D501ED9344
:10483000FC93828193810496F6019183808351DFFA
:10484000D7018D939C93C8010F900F90DF91CF916A
:104850001F910F91FF90EF90DF90CF90BF90AF909E
:1048600008950FEF1FEFEFCF07EF1FEFECCF0EEF25
:104870001FEFE9CFCF93DF93EC01672B71F4B1D633
:104880008C179D0760F0A4D62496C80FD91FA3D615
:104890008C0F9D1FDF91CF910895A0D6F1CF90E0AE
:1048A00080E0F8CF0F931F93CF93DF9320914D03B8
:1048B00021112BC08B01EC0182E593E006DE86E539
:1048C00093E003DE8EE493E000DE86D00097C1F42F
:1048D00088D670E060E0CEDF4DE951E062E070E044
:1048E0007CD1009769F480919D0190919E018BD6B7
:1048F000B801CE01C0D4009719F421E020934D03F4
:10490000DF91CF911F910F91089584EF9FEFF8CF22
:1049100065C667C6CF93DF9367D6EC01892B11F488
:104920000FDE3ADECE01DF91CF910895CF93DF9372
:104930005BD6EC01892B09F403DECE01DF91CF9128
:10494000089580919D0190919E010895CF93DF93EA
:1049500080914D03D0E0C0E08823D1F059D6EC011E
:10496000892BB1F4EDDD18DE80919D0190919E01BF
:10497000DED1EDD2EC01892B59F482E593E0DADD4A
:1049800086E593E0D7DD8EE493E0D4DD10924D030D
:10499000CE01DF91CF910895CF93DF930097A1F4DB
:1049A000DF91CF910895EC011A821982A883309784
:1049B00011F0928381832F5F3F4FFC01860F971F79
:1049C0004217530781F7ECCF30E020E0F0E0E0E061
:1049D000AFEF6F5F7F4FF4CFCF92DF92EF92FF92F6
:1049E0000F931F93CF93DF9303E415E00C7F8FE1C8
:1049F000E82E82E0F82E95E2C92E92E0D92EC2E38D
:104A0000D6E0D7014D915D917D01F60161917191E3
:104A10006F01198308835D834C835B834A837F83A3
:104A20006E839B012F5F3F4F249FC001259F900DF8
:104A3000349F900D112499878887C801ADDF888540
:104A40009985080F191F2A96F5E2EF16F2E0FF0686
:104A5000C1F6ECE5F3E084EE91E0DF019C011D92EC
:104A600021503040E1F710925B0310925A031092EC
:104A7000510610925006109255061092540610924C
:104A80005306109252061092570610925606109234
:104A900059061092580610925B0610925A06109210
:104AA0005F0610925E0610925D0610925C061092F0
:104AB00061061092600610926306109262061092D0
:104AC0002F0610922E06109231061092300690E0BA
:104AD00080E0DF91CF911F910F91FF90EF90DF90D9
:104AE000CF9008950097A1F1F8948131910550F489
:104AF0008091340690913506892B39F020E090E0C2
:104B000080E019C08132910550F480913E06909169
:104B10003F06892B39F021E081E090E00CC0893B11
:104B20009105A8F48091480690914906892B79F067
:104B300022E082E090E0EAE0E89FD001E99FB00D3A
:104B40001124AE5CB94F8D919C91009721F478941B
:104B500090E080E00895E29FF0011124EE5CF94FAF
:104B6000DC0111964D915C915183408342815381C8
:104B70004150510953834283FC012193CF01789422
:104B80000895009749F1DC018E91853041F4E09160
:104B90003006F09131063097F9F0CD010994853057
:104BA000D8F4282F30E0F8948FEF8C938AE0829F1E
:104BB000F001839FF00D1124EE5CF94F808191810B
:104BC00012969C938E931197B183A08382819381D7
:104BD00001969383828378940895CF92DF92EF9227
:104BE000FF920F931F93CF93DF939C018FE593E088
:104BF0008C7F4115510509F497C02115310509F441
:104C000093C06115710509F48FC07A01AB01B90138
:104C10006D5F7F4F6C7F9B012F5F3F4F249F800113
:104C2000259F100D349F100D1124F89420915006EB
:104C300030915106232B59F4209158063091590692
:104C40002115310569F12017310708F056C0209170
:104C50005A0630915B06232B91F42091580630912F
:104C60005906820F931F2091620630916306211529
:104C7000310509F43FC02017310708F052C078947D
:104C8000CFEFDFEF86EF9FEFF701D183C083DF9196
:104C9000CF911F910F91FF90EF90DF90CF900895EB
:104CA000C3E0D0E0C0905A03D0905B0321EE31E026
:104CB0002C193D092017310710F32AE02C9FF00131
:104CC0002D9FF00D1124EE5CF94F91838083558365
:104CD00044835383428377836683118700875CDE36
:104CE0000C0D1D1D10935B0300935A03789490E004
:104CF00080E0CACFC4E0D0E0D5CFC3E0D0E02AE066
:104D00002C9FF0012D9FF00D1124EE5CF94F918343
:104D100080835583448353834283778366833CDE59
:104D2000E5CFC4E0D0E0EBCF8FEF9FEFB0CFFF92A5
:104D30000F931F93CF93DF939C01235031092230AF
:104D4000310508F070C0EC01F89484E09AE09C9F73
:104D5000D0019D9FB00D1124A65CB94F082F10E023
:104D6000909FF001919FF00D1124EE5CF94F20818E
:104D70003181C017D10714F1FF24F394232B41F59F
:104D80002AE0209FF001219FF00D1124EE5CF94FE5
:104D900080915A0390915B0340855185841B950B4C
:104DA00090935B0380935A032C9FF0012D9FF00D8D
:104DB0001124EE5CF94F118610861CC0232B39F4A8
:104DC0002D913C911197232BA9F48150C7CFF12C41
:104DD0008AE08C9FF0018D9FF00D1124EE5CF94F5D
:104DE0004085518570E060E0808191810E94A3360A
:104DF000F110C6CF8AE08C9FF0018D9FF00D112439
:104E0000EE5CF94F11821082158214821382128295
:104E100017821682789490E080E0DF91CF911F9105
:104E20000F91FF9008958FEF9FEFF7CF4115510538
:104E300049F1009739F16115710521F1F89420913C
:104E40002E0630912F06232BB9F420913006309195
:104E50003106232B89F490932F0680932E067093AE
:104E6000310660933006789425E030E090E080E0F1
:104E7000FA0131832083089578942FEF3FEF86EF76
:104E80009FEFF6CF8FEF9FEF0895059769F4F894A1
:104E900010922F0610922E061092310610923006B4
:104EA000789490E080E008958FEF9FEF089561156A
:104EB000710519F4F0E0E0E011C08530910581F44E
:104EC000E0912E06F0912F063097A1F3CB010196C9
:104ED0000995009779F3FC0185E08193CF0108954E
:104EE0009C01235031092230310520F72AE0289F08
:104EF000D001299FB00D1124AE5CB94F2D913C918A
:104F00001197232BB9F216962D913C9117972617DE
:104F1000370780F2F89412962D913C911397211542
:104F2000310529F0ED91FC911197309711F47894A7
:104F3000C1CF4181528111965C934E93215031092A
:104F400013963C932E93129781937894C7CFE0E405
:104F5000F5E08EEEDF011D928A95E9F7ECE5F3E0CE
:104F600084EE91E0DF019C011D9221503040E1F779
:104F700010925B0310925A03E2E3F6E082E3DF0152
:104F80001D928A95E9F7EEE2F6E084E0DF011D92DA
:104F90008A95E9F790E080E00895CF93DF93C09180
:104FA0009F01D091A001CF3FDC0759F4C3D3909368
:104FB000A00180939F0197FF09C0D093A001C093E7
:104FC0009F0184EF9FEFDF91CF91089590E080E003
:104FD000FACF8230910528F48093640690E080E057
:104FE00008958FEF9FEF08954F925F926F927F9297
:104FF000AF92BF92CF92DF92EF92FF920F931F93E7
:10500000CF93DF9300D0CDB7DEB71A821982009715
:1050100009F479C06115710509F475C020919F01EB
:105020003091A00107EF1FEF2F3F3F4F09F445C01C
:105030006B015C01412C512C3201F12CE12C10E070
:1050400000E09E012F5F3F4FA6014E195F09B50199
:105050006E0D7F1D80919F019091A001CFD3892B70
:1050600009F04BC089819A81009741F4E114F10461
:1050700029F420916406222309F442C0E80EF91EA7
:10508000EC14FD04D0F480E8481684E858068EE15C
:105090006806710420F560E070E0CB010E94E932FF
:1050A0002AE0420E511C611C711C0A3F4FEF14078D
:1050B00021F0043F8FEF1807A1F4C8010F900F9063
:1050C000DF91CF911F910F91FF90EF90DF90CF90E4
:1050D000BF90AF907F906F905F904F90089501EFD9
:1050E0001FEF81E090E0013F2FEF120711F090E0F9
:1050F00080E0892B09F4A5CFE0CF04EF1FEFDDCFCF
:105100000AEF1FEFDACF0FEF1FEFD7CF4F925F926B
:105110006F927F92AF92BF92CF92DF92EF92FF9207
:105120000F931F93CF93DF9300D0CDB7DEB71A82D2
:105130001982009709F479C06115710509F475C0E9
:1051400020919F013091A00107EF1FEF2F3F3F4FAC
:1051500009F445C06B015C01412C512C3201F12C4A
:10516000E12C10E000E09E012F5F3F4FA6014E1999
:105170005F09B5016E0D7F1D80919F019091A00187
:10518000F0D2892B09F04BC089819A81009741F4B4
:10519000E114F10429F420916406222309F442C0A9
:1051A000E80EF91EEC14FD04D0F480E8481686E9F8
:1051B000580688E96806710420F560E070E0CB01CC
:1051C0000E94E9322AE0420E511C611C711C0E3F04
:1051D0004FEF140721F0043F8FEF1807A1F4C80127
:1051E0000F900F90DF91CF911F910F91FF90EF9053
:1051F000DF90CF90BF90AF907F906F905F904F9077
:10520000089502EF1FEF81E090E0023F2FEF1207B9
:1052100011F090E080E0892B09F4A5CFE0CF04EFF6
:105220001FEFDDCF0EEF1FEFDACF0FEF1FEFD7CF5E
:1052300080919F019091A0018F3F980749F072D211
:10524000892B49F48FEF9FEF9093A00180939F01EA
:1052500090E080E0089584EF9FEF0895FC01680FCF
:10526000791F90E080E0E617F70709F4089521918F
:10527000820F911DF8CF20916506211113C08DDE9C
:10528000009791F410926B0610926A0610926906CC
:1052900010926806109267061092660621E020932D
:1052A0006506089584EF9FEF0895AF92BF92CF9265
:1052B000DF92EF92FF920F931F93CF93DF930097AC
:1052C00009F460C04630510508F45CC020916506C1
:1052D000C7EFDFEF222309F449C08C01060F171F27
:1052E000F801C080D180C114D10409F44EC09601E8
:1052F0002A5F3F4F4217530708F447C07C01809153
:105300006A0690916B0693838283B6016C5F7F4F30
:105310005801A60EB71EC801A1DFF5019183808355
:1053200064E070E0C80160DEEC01892BF9F481E0F3
:1053300090E04FDEB601C801049656DEEC01892BE1
:1053400091F462E070E0C5014FDEEC01892B59F465
:10535000C70117DC80916A0690916B0601969093C5
:105360006B0680936A0690E080E033DECE01DF9129
:10537000CF911F910F91FF90EF90DF90CF90BF9052
:10538000AF900895CFEFDFEFF1CFC9EFDFEFEECFB2
:105390006F927F928F929F92AF92BF92CF92DF9245
:1053A000EF92FF920F931F93CF93DF9300D000D023
:1053B000CDB7DEB7009709F47AC04115510509F45D
:1053C00076C02091650607EF1FEF222309F44DC038
:1053D0003A017B015C0164E070E0CE01019696DE4B
:1053E0008C01892B09F041C009811A810115110531
:1053F00009F45AC0480186E0880E911CB701680D77
:10540000791D8091A1019091A20151DD6C0100975D
:1054100009F450C0A70170E060E00E94A3368981C2
:105420009A81AB81BC81EC0CFD1CF70181939193B7
:10543000A193B1937F0181E090E0CBDDB801C7017A
:1054400065DE892B31F562E070E0C701800F911FA6
:105450005DDE8C01892BE9F490E080E0BADDF50196
:10546000D182C082F30191828082C8010F900F9097
:105470000F900F90DF91CF911F910F91FF90EF90C0
:10548000DF90CF90BF90AF909F908F907F906F9064
:10549000089590E080E09DDDF50111821082F30116
:1054A00011821082C6016DDB09EF1FEFDECF0FEF17
:1054B0001FEFDBCF06EF1FEFD8CF0097A1F041150C
:1054C000510589F02115310571F0F90136966E17F5
:1054D0007F0748F0DC012D933C93DA01ED93FC93B8
:1054E00090E080E008958FEF9FEF0895AF92BF9214
:1054F000CF92DF92EF92FF920F931F93CF93DF93A0
:10550000009709F45FC04115510509F45BC065308F
:10551000710508F457C020916506C7EFDFEF22231D
:1055200091F1DC01CD90DC9011971296ED91FC91F8
:1055300096012A5F3F4FC9EFDFEF2617370719F5AE
:10554000C0916606D0916706209749F521E030E0CA
:1055500030936706209366067A018C01F093690602
:10556000E09368065601B4E0AB0EB11CB50176DEDF
:105570000A0D1B1DF801208131818217930729F53F
:10558000D701CD92DC92CE01DF91CF911F910F9187
:10559000FF90EF90DF90CF90BF90AF900895209153
:1055A0006806309169062F5F3F4FCCEFDFEFE217BF
:1055B000F30790F2CBEFDFEF2E173F0768F2D0E052
:1055C000C0E0CACFCFEFDFEFDECFC3EFDFEFDBCF3F
:1055D00084E090E0089582E090E008958CEF9FEFE2
:1055E000089580E290E0089510926B0610926A068A
:1055F000109269061092680610926706109266066D
:1056000090E080E008959093A2018093A101089515
:1056100080916506882391F00BDE009789F4109243
:105620006B0610926A061092690610926806109234
:1056300067061092660610926506089590E080E075
:105640000895009749F06115710531F0FC01118250
:105650001082FB01118210820895F3CF40E855E2D9
:1056600060E070E090E080E000C026E080EA96E034
:105670000C94D1341F920F920FB60F9211242F93D6
:105680003F934F935F936F937F938F939F93AF93CA
:10569000BF93EF93FF9386E08093B20080916C06F6
:1056A0008F5F80936C06893119F410926C06BAD022
:1056B000FF91EF91BF91AF919F918F917F916F91EA
:1056C0005F914F913F912F910F900FBE0F901F90C0
:1056D000189586E08093B200A0E7B0E08C918E7FB1
:1056E0008C93E0EBF0E080818C7F8083E1EBF0E055
:1056F0008081877F808380818660808380818E7FA8
:1057000080838C9181608C930895E0E7F0E0808144
:1057100090819E7F90838170089581E0089510921A
:105720006D06089568EE73E080E090E052D790E057
:1057300080E0089526E040E050E16EE070E080EA0D
:1057400096E00E94D13480EA96E00E940734892BCB
:1057500029F080EA96E00E942134F5CF90E080E0C5
:105760000895CF92DF92EF92FF920F931F93CF9302
:10577000DF936B017A01E9011982188280EA96E0D1
:105780000E940734892B79F18601CC24C39482E0EE
:10579000D82E80916D06811111C080EA96E00E949A
:1057A00021340297B1F7C0926D06F801D1928F01B2
:1057B00088819981019699838883EBCF888199812B
:1057C0008E159F0580F480EA96E00E9421348F3F79
:1057D0009807A1F3F80181938F018881998101963F
:1057E00099838883EBCF90E080E0DF91CF911F9188
:1057F0000F91FF90EF90DF90CF9008950F931F933C
:10580000CF93DF93EA01890180EA96E00E94B535E3
:10581000F801D183C08390E080E0DF91CF911F91A8
:105820000F910895CF92DF92EF92FF9280916E06D2
:1058300091E0980F90936E06882369F021E030E0A4
:105840003093700620936F0680936E06FF90EF9062
:10585000DF90CF9008957894E091A501F091A60192
:10586000C28CD38CE48CF58C0E94F903B701A6019D
:1058700090E080E00E943E02F89480916E06815094
:10588000E3CFCF93DF931092840810928308D7D68A
:10589000E5DEC091A501D091A601198218826FEFB3
:1058A0007FEFCB010E94B80270E060E090E080E002
:1058B0000E9443010097A9F50E94380CF89478944F
:1058C000BE016E5D7F4F8A819B810E944601892BBC
:1058D00059F46FEF7FEFCB010E94D3010E94B20217
:1058E000882311F081E08EA3F894F3DE0E94B502C4
:1058F000811104C00E94B20291E0811190E0909366
:10590000830878940E94DB15EC01789480918308D9
:1059100081110AC00E94590E0E949902F89490E0E9
:1059200080E0DF91CF9108950E9496020E94B50217
:1059300091E0811106C00E94B20291E0811101C084
:1059400090E0909384089091840881E0911180E028
:1059500080938308809184088111D7DE219729F4F0
:105960000E94DB15892B09F4DADE0E94DB15EC01BD
:10597000D4DECCCF5058BB27AA270ED046C237D290
:1059800030F03CD220F031F49F3F11F41EF407C2F6
:105990000EF4E095E7FBD4C1E92F48D280F3BA17A3
:1059A000620773078407950718F071F49EF577C2B4
:1059B0000EF4E0950B2EBA2FA02D0B01B90190012A
:1059C0000C01CA01A0011124FF27591B99F0593F6E
:1059D00050F4503E68F11A16F040A22F232F342FB6
:1059E0004427585FF3CF469537952795A795F04004
:1059F0005395C9F77EF41F16BA0B620B730B840B19
:105A0000BAF09150A1F0FF0FBB1F661F771F881FD0
:105A1000C2F70EC0BA0F621F731F841F48F4879528
:105A200077956795B795F7959E3F08F0B3CF939517
:105A3000880F08F09927EE0F979587950895D7D18D
:105A400058F080E891E009F49EEFD8D128F040E8C2
:105A500051E059F45EEF09C0A2C121C2E92FE078FC
:105A6000E5D168F3092E052AC1F326173707480741
:105A7000590738F00E2E07F8E02569F0E025E064BC
:105A80000AC0EF6307F8009407FADB01B9019D0132
:105A9000DC01CA01AD01EF935AD0B7D10AD05F91B2
:105AA000552331F02BED3FE049E450FD49EC63CF45
:105AB0000895DF93DD27B92FBF7740E85FE316161F
:105AC000170648075B0710F4D92FF4D19F938F93E3
:105AD0007F936F939BD2E8E6F0E064D196D12F914B
