:100000005DC0000083C0000081C000007FC0000010
:100010007DC000007BC0000079C0000077C00000F8
:1000200075C000000C947D1F71C000000C94F82274
:100030006DC000006BC0000069C0000067C0000018
:100040000C94622563C000000C94FE270C943028A9
:100050005DC000005BC0000059C0000057C0000038
:1000600055C0000053C0000000000008000201005D
:100070000003040700000000000000000102040863
:100080001020408001020408102001020408102002
:10009000040404040404040402020202020203032E
:1000A0000303030300000000250028002B000000CC
:1000B0000000240027002A00A100552811241FBE9B
:1000C000CFEFD8E0DEBFCDBF11E0A0E0B1E0E2EFBE
:1000D000F2E502C005900D92A43DB107D9F725E0E5
:1000E000A4EDB1E001C01D92A83BB207E1F710E01A
:1000F000CEE5D0E004C02197FE010E944829CC350E
:10010000D107C9F70E9468200C94772979CF70E055
:1001100023E0829FC00111248C529E4F0C944924ED
:1001200070E023E0829FC00111248C529E4F0C94FA
:10013000852423E0829FC00111248C529E4F0C9491
:10014000FF2484ED91E00E94B12387ED91E00C94AF
:10015000B12390E080E008950F931F93009709F476
:1001600087C06115710509F483C000910C011091DD
:100170000D0120910E0130910F010E3F1F4F2F4FA7
:100180003F4F09F066C04FEF5FEFBA0140930C019B
:1001900050930D0160930E0170930F0140910C017B
:1001A00050910D0160910E0170910F01DC011296CA
:1001B000ED91FC9180819181A281B3818093D202E3
:1001C0009093D302A093D402B093D50284819581F9
:1001D000A681B7818093CE029093CF02A093D002E4
:1001E000B093D10280859185A285B3858093CA02A0
:1001F0009093CB02A093CC02B093CD0284859585D9
:10020000A685B7858093C6029093C702A093C802C3
:10021000B093C9021092C2021092C3021092C4029B
:100220001092C50216D58EE496E09093DB01809380
:10023000DA019093DD018093DC010AD4009731F458
:1002400021E030E03093D7022093D6021F910F9126
:10025000089500910C0110910D0120910E01309133
:100260000F01DB010D931D932D933C93139796CFB4
:100270008FEF9FEFEBCF8F929F92AF92BF92CF9273
:10028000DF92EF92FF921F93CF93DF934B015C01BC
:100290001091D90282E090E09093D7028093D60229
:1002A00081149104A104B10441F48091D902811117
:1002B00004C08091D802C1E08111C0E0C12CD12CD2
:1002C00076018091D902811106C08091D8028111F6
:1002D00002C0CC23D9F083E090E09093D7028093C2
:1002E000D602CC2379F1CCE9DFEF111102C00E94D4
:1002F000B309CE01DF91CF911F91FF90EF90DF9076
:10030000CF90BF90AF909F908F9008956AE070E07B
:1003100080E090E00E94D12580E1C80E87E2D81EDF
:10032000E11CF11C8FEF88169806A806B80631F07C
:10033000C1E08C149D04AE04BF0408F0C0E080E06E
:10034000B3D3BFCFD0E0C0E0D0CFCF92DF92EF9257
:10035000FF920F931F93CF93DF938F3F910511F07F
:1003600008F045C02091D6023091D70223303105E4
:1003700039F02091D6023091D7022130310531F485
:1003800024E030E03093D7022093D6026A017B014B
:10039000EC0182309105B0F011E0AE01C701B60169
:1003A00056D3AB01BC0190E080E0112311F1CE01E6
:1003B000DF91CF911F910F91FF90EF90DF90CF9041
:1003C0000C94C80B8C01000F111F06521E4FD80150
:1003D0008D919C91892B01F30E94CF0B0297E1F63E
:1003E000D801ED91FC91CE010995182FD6CF8FEF52
:1003F0009FEFDF91CF911F910F91FF90EF90DF90D2
:10040000CF90089580E050C3CF93DF9386E090E0D3
:100410009093D7028093D602A0D3EC01EAEDF1E0ED
:1004200084E0DF011D928A95E9F735D71092D70253
:100430001092D602CE01DF91CF9108958091D8021B
:1004400008958091C102089560930C0170930D018D
:1004500080930E0190930F0190E080E00895CF9378
:10046000DF93FC0181E08087EB0188819981AA817B
:10047000BB8184839583A683B78381E090E0A0E06D
:10048000B0E080839183A283B38369E080E0DF9151
:10049000CF913DCECF92DF92EF92FF920F931F93B9
:1004A000CF93DF938C01EB01FA01C080D180E28011
:1004B000F380A70196016C817D818E819F810E94CE
:1004C0005C21882321F0CC82DD82EE82FF8280E0F5
:1004D00030DE092E000CAA0BBB0BF8018083918340
:1004E000A283B383DF91CF911F910F91FF90EF9083
:1004F000DF90CF900895CF92DF92EF92FF926B0141
:100500007C019F7720E030E040E859E50E945C21C3
:1005100087FF2BC020E030E040E05FE3C701B60179
:100520000E94912287FD0EC020E030E040E05FE3B2
:10053000C701B6010E94E520FF90EF90DF90CF90B9
:100540000C94C92120E030E040E05FEBC701B60128
:100550000E949122181684F420E030E0A901C7011E
:10056000B6010E9495226B017C01C701B601FF9084
:10057000EF90DF90CF90089520E030E040E05FE31F
:10058000C701B6010E94E420FF90EF90DF90CF906A
:100590000C944921CF92DF92EF92FF92CF93DF9399
:1005A00020E030E044EB52E46091000170910101E1
:1005B00080910201909103010E94E5206B017C0172
:1005C00020E030E0A9010E945C2187FD93C020E07B
:1005D00030E044E353E4C701B6010E94912264EB8A
:1005E0001816DCF0C701B60186DF6B017C0120E044
:1005F00030E040E853E40E945C216FEF87FF0DC0BC
:1006000020E030E0A901C701B6010E94912287FDD8
:1006100071C0C701B6010E94602180E081DD48E021
:1006200051E065EA75E082EB95E034DF44E051E0AB
:100630006CE975E08EEA95E02DDF60E081E070DD29
:1006400040918C0250918D0260918E0270918F02C8
:1006500090E080E07ADE40919402509195026091A2
:1006600096027091970281E090E06FDE60918C02BB
:1006700070918D0280918E0290918F026F5F7F4FFB
:100680008F4F9F4F60938C0270938D0280938E02E8
:1006900090938F02C0919F02D091A0020E948C2162
:1006A0009B01AC0160919002709191028091920245
:1006B000909193020E949522688379838A839B8319
:1006C0008091940290919502A0919602B091970228
:1006D0000196A11DB11D8093940290939502A09361
:1006E0009602B0939702DF91CF91FF90EF90DF9049
:1006F000CF90089560E091CF0F931F93CF93DF9336
:10070000E4EFF1E08CE992E097838683CFE9D2E0D1
:10071000D0933502C093340200E912E0158B048BAC
:10072000F0935F02E0935E02F583E48321E030E022
:10073000DC012D933C9389E291E09387828721EA43
:1007400032E03983288340E050E060E87FEB40935B
:1007500098025093990260939A0270939B024DEC19
:100760005CEC6CEC7DE3D8014D935D936D937C93D1
:100770001397CAE7D2E085E896E7A4EEB4EC888345
:100780009983AA83BB8384E59AE3ACE5BEEA8093B0
:100790007E0290937F02A0938002B09381028AED43
:1007A00097E4A9EABEED8093820290938302A0931E
:1007B0008402B09385028DE098E8ACE2BAEF8093B2
:1007C000860290938702A0938802B0938902A8EED4
:1007D000B1E0B383A283EEEDF1E01196FC93EE93CA
:1007E0008BE391E0918380839383828395838483D9
:1007F00097838683918780878AE892E015969C93F9
:100800008E9314971396DC93CE93129717963C937E
:100810002E93169769E080E07ADC68E071E085EA63
:1008200095E01DDE64E071E08CE995E018DE62E0A1
:1008300081E0DF91CF911F910F9169CC08954F9284
:100840005F926F927F928F929F92AF92BF92CF9260
:10085000DF92EF92FF920F931F93F8944090B502AE
:100860005090B6026090B7027090B802C090A90292
:10087000D090AA02E090AB02F090AC02413051055A
:1008800009F0A6C09B01AC01241935094609570996
:1008900029013A010091B1021091B2022091B302F4
:1008A0003091B40248015901840C951CA61CB71C58
:1008B00080169106A206B306A0F40091AD02109135
:1008C000AE022091AF023091B0020F5F1F4F2F4F49
:1008D0003F4F0093AD021093AE022093AF023093CE
:1008E000B0028092B1029092B202A092B302B09292
:1008F000B4020091AD021091AE022091AF0230918E
:10090000B0028092B9029092BA02A092BB02B09259
:10091000BC020093BD021093BE022093BF0230932D
:10092000C0026093B5027093B6028093B7029093B1
:10093000B802A301920160EA76E881E090E00E94AB
:10094000EF286C0D7D1D8E1D9F1D6093A902709375
:10095000AA028093AB029093AC0200910C0110911B
:100960000D0120910E0130910F010F3F1F4F2F4FAE
:100970003F4FF1F000910C0110910D0120910E01FB
:1009800030910F010E3F1F4F2F4F3F4F89F0C09006
:100990000C01D0900D01E0900E01F0900F0121E0CC
:1009A0008C149D04AE04BF0408F420E02093C1021F
:1009B00078941F910F91FF90EF90DF90CF90BF90B0
:1009C000AF909F908F907F906F905F904F90089521
:1009D0004B015C0184189508A608B708A301920191
:1009E000261B370B480B590B6415750586059705B3
:1009F000E0F082169306A406B50640F420E030E04D
:100A0000A90181149104A104B104A1F460EA76E87B
:100A100081E090E00E94EF28A7019601261B370B8A
:100A2000480B590BCA01B901C3CF82169306A4061D
:100A3000B50660F7A501940160EA76E881E090E0F0
:100A40000E94EF286C0D7D1D8E1D9F1DB1CFF7CE2E
:100A5000CF93DF9300D000D0CDB7DEB71C821B82CE
:100A60001A821982BE016F5F7F4FCE0103960E94EA
:100A7000641F69817A818B819C810E94B0180097E4
:100A800061F4BE016F5F7F4FCE0103960E94701F1D
:100A900069817A818B819C8125D50F900F900F9071
:100AA0000F90DF91CF910895FF920F931F93CF93F3
:100AB000DF93082F60E070E0CB010E94D125FF2476
:100AC000F3940E949B17EC01892B89F010E0CE3F34
:100AD0008FEFD80769F0002361F160E070E0CB018F
:100AE0000E94D12581E090E0892B59F322C011E0CA
:100AF0001CD5EC01892B21F0CE3F8FEFD80759F799
:100B000011111EC011E0229609F410E00E944C174A
:100B1000EC01892B21F0CE3F8FEFD807E1F61111C0
:100B200011C011E0CE3F8FEFD80709F410E001119A
:100B30000BC0CE01DF91CF911F910F91FF900895CF
:100B400011E0E4CF11E0F3CF60E070E0CB010E9450
:100B5000D1251F25812F90E0C7CFCF93DF931FD6DC
:100B6000D0E0C0E0892B71F06AE070E080E090E0B6
:100B70000E94D12581E098DF12D62196C03D27E062
:100B8000D20781F711D60E9404191092D90210924F
:100B9000D8021092D2021092D3021092D402109274
:100BA000D5021092CE021092CF021092D002109273
:100BB000D1021092CA021092CB021092CC02109273
:100BC000CD021092C6021092C7021092C802109273
:100BD000C9021092C2021092C3021092C402109273
:100BE000C5024EEF5FEF6FEF7FEF40930C01509324
:100BF0000D0160930E0170930F011092C102E9EB99
:100C0000F2E028E0DF011D922A95E9F71092B50283
:100C10001092B6021092B7021092B8021092B1026E
:100C20001092B2021092B3021092B4021092AD026E
:100C30001092AE021092AF021092B0021092A9026E
:100C40001092AA021092AB021092AC02DF91CF91E7
:100C500008951092E5021092E6021092E7021092B7
:100C6000E8021092E4028091ED029091EE029093DE
:100C7000E3028093E2021092E1021092E0021092ED
:100C8000DC021092DD021092DE021092DF0210925E
:100C9000EA021092E90290E080E00895CF92DF929C
:100CA000EF92FF920F931F93CF938C01019709F05E
:100CB00055C02091ED023091EE028091E2029091B8
:100CC000E3024091ED025091EE025093E302409313
:100CD000E2022817390781F01092E1021092E00237
:100CE0001092DC021092DD021092DE021092DF02FE
:100CF0001092EA021092E9028091ED029091EE02C8
:100D0000019761F58091E9029091EA02892B21F423
:100D100080911001811112C08091E9029091EA0244
:100D20000197E1F48091DC029091DD02A091DE0256
:100D3000B091DF020197A105B10581F41092DC02A8
:100D40001092DD021092DE021092DF02109210016A
:100D500082E090E09093EA028093E9028091ED02B4
:100D60009091EE02019709F01CC1809103039091CC
:100D700004038017910709F014C18091FF0290913C
:100D80000003A0910103B0910203009709F409C187
:100D90002091FE0221110DC04091FF0250910003ED
:100DA0006091010370910203452B462B472B09F4F8
:100DB000F8C02091E9023091EA022230310509F0B1
:100DC000F0C02091E0022111ECC0FC01C080D18074
:100DD000E280F3808091E402882309F4D3C08091FB
:100DE000F0029091F102892B09F4FEC02091F002EB
:100DF0003091F10281E02230310509F080E020914C
:100E0000F0023091F102C1E02130310549F020912A
:100E1000F0023091F102C1E02230310509F0C0E06A
:100E2000882309F456C02091FA023091FB024091C8
:100E3000FC025091FD02C701B6010E94912287FD7C
:100E400014C02091FA023091FB024091FC025091B3
:100E5000FD026091E5027091E6028091E7029091B7
:100E6000E8020E945C2187FD22C02091FA023091A5
:100E7000FB024091FC025091FD02C701B6010E94A5
:100E80009122181634F52091FA023091FB0240911C
:100E9000FC025091FD026091E5027091E6028091A2
:100EA000E7029091E8020E945C21811112C08091BA
:100EB000F2029091F302A091F402B091F502892B15
:100EC0008A2B8B2B19F481E08093E10281E08093DF
:100ED000E002CC2309F456C02091FA023091FB02C3
:100EE0004091FC025091FD02C701B6010E945C21B5
:100EF00087FF14C02091FA023091FB024091FC025E
:100F00005091FD026091E5027091E6028091E70246
:100F10009091E8020E94912287FF22C02091FA025C
:100F20003091FB024091FC025091FD02C701B601D5
:100F30000E945C21811126C02091FA023091FB02AF
:100F40004091FC025091FD026091E5027091E60231
:100F50008091E7029091E8020E949122181694F481
:100F60008091F2029091F302A091F402B091F50207
:100F7000892B8A2B8B2B19F481E08093E10281E08D
:100F80008093E00281E09091E002911180E08093F3
:100F9000E402C092E502D092E602E092E702F0920B
:100FA000E8020130110509F067C18091E9029091D2
:100FB000EA02892BD9F41092EF021092E00280919C
:100FC0001001882379F082E090E09093EA02809308
:100FD000E902109210012091ED023091EE0281E0C1
:100FE000232BE9F080E01BC081E009CF10921001B3
:100FF0008091EF02882349F01092E1021092EA02F8
:101000001092E9021092EF02EDCF8091ED029091E3
:10101000EE02892BE1F08091E0021092E002209133
:10102000E9023091EA022230310509F45EC088F409
:101030002115310509F448C02130310509F4F3C008
:101040001092E1021092E0021092EF0238C081E0AB
:10105000E6CF2330310509F4B1C02430310581F7E2
:101060004091DC025091DD026091DE027091DF025E
:10107000411551056105710561F041505109610942
:1010800071094093DC025093DD026093DE0270939D
:10109000DF024091DC025091DD026091DE0270912E
:1010A000DF02452B462B472BD9F42091EB023091E0
:1010B000EC022130310509F046C01092E102109295
:1010C000EA021092E9020CC080911001882341F0DD
:1010D00082E090E09093EA028093E902109210017E
:1010E0001092DA028091E102CEC08823C9F3809188
:1010F000F2029091F302A091F402B091F502181659
:1011000019061A061B060CF07DC08091ED02909125
:10111000EE02019709F076C08091F2029091F302FD
:10112000A091F402B091F5028093DC029093DD026D
:10113000A093DE02B093DF0283E090E09093EA0296
:101140008093E902CDCF4091F6025091F702609171
:10115000F8027091F902452B462B472BA9F010920B
:10116000E1028091F6029091F702A091F802B0910D
:10117000F9028093DC029093DD02A093DE02B0932B
:10118000DF0281E090E0DACF882399F080911101AD
:1011900090911201A0911301B09114018093DC028F
:1011A0009093DD02A093DE02B093DF0284E090E032
:1011B000C5CF1092E10282E090E0C0CF8091DC02C6
:1011C0009091DD02A091DE02B091DF020097A105AF
:1011D000B10559F00197A109B1098093DC02909300
:1011E000DD02A093DE02B093DF028091DC029091D9
:1011F000DD02A091DE02B091DF02892B8A2B8B2BBE
:1012000009F06ECF8091110190911201A09113010C
:10121000B0911401892B8A2B8B2B09F44ECF81E0DE
:101220008093E102B3CF4091DC025091DD026091E6
:10123000DE027091DF02411551056105710561F013
:1012400041505109610971094093DC025093DD025C
:101250006093DE027093DF024091DC025091DD0268
:101260006091DE027091DF02452B462B472B09F07F
:1012700037CF8111C7CF9FCF8091DA02882309F43D
:1012800031CF8091DB02CF911F910F91FF90EF90B2
:10129000DF90CF9008951092E5021092E60210922E
:1012A000E7021092E8021092E4021092EA02109211
:1012B000E9021092E3021092E202109204031092EB
:1012C00003031092E1021092E0021092DC021092ED
:1012D000DD021092DE021092DF021092DB02109209
:1012E000DA021092FF021092000310920103109292
:1012F00002031092FE021092FA021092FB02109268
:10130000FC021092FD0288EE93E0A0E0B0E0809332
:10131000110190931201A0931301B0931401109244
:10132000F6021092F7021092F8021092F90210924F
:10133000F2021092F3021092F4021092F50210924F
:10134000F1021092F00281E0809310011092EF02FE
:101350001092EE021092ED021092EC021092EB024B
:1013600090E080E008958091ED029091EE02892B4B
:1013700019F580911001882351F08091EF028111BD
:1013800006C081E08093DB028093DA020895209109
:10139000EF023091100181E090E0332311F090E0F2
:1013A00080E030E082239323892B21F01092DB022E
:1013B00081E0EACF1092DA02089582E090E0FA012B
:1013C000918380838FEF9FEF0895CF93DF93EA019E
:1013D000009711F00E94161A1982188290E080E09E
:1013E000DF91CF910895DB01009719F48FEF8C9373
:1013F00008952EEF2C930F968F30910508F033C08F
:10140000FC01EB5FF54F0C944829310A2F0A2D0A95
:101410002B0A290A250A270A230A210A1F0A1C0A5D
:10142000180A140A1A0A330A80E311968C93089555
:1014300089E2FBCF82E2F9CF11961C92089583E2F4
:10144000F4CF81E2F2CF81E1F0CF87E2EECF8AE202
:10145000ECCF80E1EACF84E2E8CF88E2E6CF86E213
:10146000E4CF81E3E2CF80E2E0CF8091110390915D
:1014700012030895909312038093110308958091AD
:101480001003089590911003892B80931003089501
:10149000982F9095809110038923809310030895CD
:1014A00080910F03089580910D0390910E0308958C
:1014B0006115710559F0FB0130E020E070E060E05B
:1014C0002417350719F06115710511F0CB01089546
:1014D000A081B181A817B90709F4BF012F5F3F4F61
:1014E0003696EECF8091130381111CC043D249D2AE
:1014F00090930603809305030E948F130E94A1130B
:1015000090930A03809309030E94B6160E94BD16A9
:10151000909308038093070381E08093130390E086
:1015200080E0089584EF9FEF08958F929F92AF928D
:10153000BF92CF92DF92EF92FF920F931F93CF93C0
:10154000DF93CDB7DEB72A970FB6F894DEBF0FBE94
:10155000CDBF1A86198618861F821E821D821C82A4
:101560001B821A8219828091130307EF1FEF8823D1
:1015700009F48BC08E010D5F1F4F9E012B5F3F4F03
:10158000AE01495F5F4FBE01675F7F4F90E080E033
:101590000E9436188C01009721F00596029708F0FA
:1015A000C7C089859A85009709F4EFC0ED80FE8059
:1015B0002B813C812E0D3F1D4F81588542175307CB
:1015C00008F4E3C0E80EF91ED7014C9120911103F5
:1015D00030911203232B09F494C0413F08F069C0F5
:1015E0008CE1840F8D3008F483C08DE2840F80314C
:1015F00008F481C088E3840F8B3008F47FC093EF38
:10160000C92E99E0D92EEDEDF9E06D817E81AE0114
:101610004F5F5F4F89859A8509955C01C114D1049C
:10162000A1F189809A808114910479F18B819C8148
:101630008815990508F484C010E000E04B815C81B6
:1016400070E060E0C7010E94702901151105E9F4FE
:1016500049815A8169857A858D819E81680F791FBC
:10166000C501F6010995E980FA800D811E812F815F
:10167000388549855A856FEF7FEF81E090E00E94C1
:10168000D2178C01892B09F053C0C8012A960FB6D6
:10169000F894DEBF0FBECDBFDF91CF911F910F91A8
:1016A000FF90EF90DF90CF90BF90AF909F908F9082
:1016B000089530E020E0220F331FF901EB5FFC4F6B
:1016C0000190F081E02D309709F499CF842F90E0BC
:1016D0000995009709F493CFDC011296ED91FC91E6
:1016E00013971496CD90DC90309709F08ECF1EC0E2
:1016F00021E030E0E0CF22E030E0DDCF23E030E059
:10170000DACFD12CC12CE5EEF9E04F3F09F07DCFC7
:10171000E0910503F0910603309719F404EF1FEFF1
:101720000CC08FEF90E009950097B1F604EF1FEF22
:1017300089859A85009709F4A8CF0E94161AA5CF2B
:101740000E94FF188C0189859A850E94161A70E004
:1017500060E0C4010E94981898878F830E94CF1779
:101760009E838D836F8178856115710559F0C8015D
:101770000E949A1B9A87898706EF1FEF892B09F031
:101780005BCF5CCF08EF1FEF59CF08EF1FEFD0CF33
:10179000209113032111DAC787EF9FEF08958091FD
:1017A00011039091120308950E94C2160E941C1604
:1017B000EDD0E5E0F3E088E0DF011D928A95E9F7DE
:1017C0001092130390E080E0089586E090E0FA0123
:1017D0009183808390E080E0089547E050E06EE3DD
:1017E00071E066CEDF92EF92FF920F931F93CF933B
:1017F000DF938A01EC01C60FD71FE0901703F0902A
:101800001803D9800E94E718D816190678F082E0EC
:1018100090E0F801918380838EEF9FEFDF91CF916D
:101820001F910F91FF90EF90DF900895EF2841F402
:1018300082E090E0F8019183808384EF9FEFEECF08
:1018400089818093160390E00196F801918380834B
:1018500090E080E0E3CFCF93DF93EA010E942E1562
:10186000882321F00E94F4180E942F1582E090E056
:10187000998388838BEF9FEFDF91CF910895CF936A
:10188000DF93EB0186E0FB0111928A95E9F78FEF78
:101890008883F5DD898304DE8A8305DE9D838C835E
:1018A000DF91CF910895CF93DF93EA010E94311524
:1018B000811109C082E090E09983888385EF9FEFD2
:1018C000DF91CF91089590E080E0D4DD81E090E059
:1018D0009983888390E080E0F3CF0F931F93CF9399
:1018E000DF93EA018C01060F171F0E943115811149
:1018F0000BC082E090E09983888385EF9FEFDF91B2
:10190000CF911F910F910895F8018181823038F0B5
:1019100082E090E0998388838EEF9FEFF0CF81E0A3
:1019200090E0A8DD88E090E09983888390E080E0F3
:10193000E6CFCF93DF930097D1F4EB01FB01329612
:1019400086E0DF011D928A95E9F78FEF888385E0B5
:1019500089831A820E94E7188B830E94E6189D8370
:101960008C8381E08E838F83DF91CF910895DF9107
:10197000CF9139CD8DEE9BE09093150380931403A6
:101980000895809114039091150308951092150302
:1019900010921403089580911703909118030895ED
:1019A000411105C0611571058105910561F06093D4
:1019B0001703709318038093190390931A034093AD
:1019C0001B0381E0089580E00895FF920F931F9319
:1019D000CF93DF938A01EC01C60FD71FF9800E94D5
:1019E000E718F816190668F082E090E0F801918394
:1019F00080838EEF9FEFDF91CF911F910F91FF902A
:101A000008956C817D818E819F814B81C9DF811119
:101A100008C082E090E0F8019183808384EF9FEF1B
:101A2000EACF89818093160390E00196F8019183B3
:101A3000808390E080E0DFCFCF93DF93EA01FC0169
:101A4000E60FF71F64817581868197814381A8DF46
:101A5000811109C082E090E09983888384EF9FEF31
:101A6000DF91CF91089581E090E09983888390E0A1
:101A700080E0F6CFE7E1F3E040815181628173813C
:101A8000480F511D611D711D408351836283738313
:101A90000895CF93C09116034C2F50E06091170327
:101AA0007091180301960E9467298C2FE3DF109232
:101AB0001603CF910895009799F4809117039091A0
:101AC00018032FEFFB012083892B59F02091160377
:101AD00030E02F5F3F4F2417350719F4CB01D9CFE2
:101AE00082CC0895009799F4809117039091180380
:101AF0002FEFFB012083892B59F02091160330E052
:101B00002F5F3F4F2417350719F4CB01C2CF6BCCA1
:101B100008952DE0AC01249FC001259F900D112454
:101B2000E0912003F0912103E80FF91F2381348114
:101B30002250310981E02230310508F080E008951B
:101B40000F931F93CF93DF930091220310912303F0
:101B5000D0E0C0E080E00C171D0749F491E081114E
:101B600090E0892FDF91CF911F910F9108958111FE
:101B7000F5CFCE01CEDF2196EECFA0912003B0911C
:101B80002103109729F1209122033091230382171A
:101B90009307F0F45DE0589F9001599F300D112498
:101BA000A20FB31FED91FC911197309789F0129617
:101BB0008C91681768F485E0689FE00DF11D112491
:101BC00080819181892B21F081E09281491708F071
:101BD00080E00895EF92FF920F931F93CF93DF93CE
:101BE000EA01FC01E60FF71F02811381E480F58012
:101BF0004F2D6E2DC801C1DF81110DC082E090E034
:101C0000998388838EEF9FEFDF91CF911F910F9182
:101C1000FF90EF900895C8017CDF882339F082E0BF
:101C200090E09983888388EF9FEFEECF10931C019B
:101C300000931B01E0921D01F0921E0181E090E0F3
:101C40009983888390E080E0DFCFCF92DF92EF929C
:101C5000FF920F931F93CF93DF937A01EC01C60F8E
:101C6000D71FC0901B01D0901C0100911D01109145
:101C70001E01412F602FC60180DF811110C082E05C
:101C800090E0F701918380838AEF9FEFDF91CF91FE
:101C90001F910F91FF90EF90DF90CF900895C601B4
:101CA00038DF882341F082E090E0F7019183808360
:101CB00088EF9FEFEBCF4C815D816E817F819A81B0
:101CC00089818F3F41F082E090E0F701918380832A
:101CD0008EEF9FEFDBCFEDE0EC9D9001ED9D300DA1
:101CE0001124E0912003F0912103E20FF31F0190F2
:101CF000F081E02D25E0029FE00DF11D11240190FF
:101D0000F081E02D27E0129FE00DF11D112480836A
:101D100091838B81828343835483658376831F5FA2
:101D200010931E0181E090E0F7019183808390E0A1
:101D300080E0ACCFEF92FF920F931F93CF93DF938E
:101D40007A018C01060F171FC0912003D091210347
:101D5000209781F021E030E0F80182819381409169
:101D60002203509123038417950710F030E020E000
:101D7000232B71F482E090E0F701918380838EEF52
:101D80009FEFDF91CF911F910F91FF90EF900895FA
:101D90004DE0489F9001499F300D1124C20FD31F81
:101DA000B8DE882341F082E090E0F70191838083E0
:101DB00088EF9FEFE6CFF801248135812038310587
:101DC000C8F687818111D6CF4181842F90E08F7E24
:101DD000009741F082E090E0F7019183808386EFE5
:101DE0009FEFCFCF4F833E832D832681288719868F
:101DF000223010F421E0288721E030E0F701318320
:101E00002083BFCF88E090E0FA019183808390E047
:101E100080E00895FB018FEF808381E181838FEF64
:101E20009FEF9383828380E890E09583848316827A
:101E300017820895FB018FEF808391E09183828365
:101E40009383848384E3858381E090E09783868312
:101E500008954BE050E068E671E02ACB8F929F92A4
:101E6000BF92CF92DF92EF92FF920F931F93CF9387
:101E7000DF93EA01FC01E60FF71F82819381048161
:101E8000B580E0912003F0912103309791F482E036
:101E900090E0998388838CEF9FEFDF91CF911F9122
:101EA0000F91FF90EF90DF90CF90BF909F908F9019
:101EB000089520912203309123038217930738F06D
:101EC00082E090E0998388838EEF9FEFE6CF2DE04C
:101ED000289F6001299FD00C1124EC0DFD1DE0808E
:101EE000F180E114F10499F28281081748F785E046
:101EF000089F80011124E00EF11EF701808191817D
:101F0000892B29F6BB20E1F2F7E0BF9E40011124A6
:101F1000C4010E94CB19F70191838083E0912003D3
:101F2000F0912103EC0DFD1D0190F081E02DE00FFB
:101F3000F11F80819181009739F482E090E09983CC
:101F400088838DEF9FEFA9CFA40170E060E00E942D
:101F500070298091200390912103C80ED91EF601AB
:101F600080819181080F191FF801B28281E090E011
:101F70009983888390E080E090CFAF92BF92CF9218
:101F8000DF92FF920F931F93CF93DF93EA01FC013F
:101F9000E60FF71F82819381F48000912003109156
:101FA00021030115110581F482E090E09983888373
:101FB0008CEF9FEFDF91CF911F910F91FF90DF90FA
:101FC000CF90BF90AF9008952091220330912303CA
:101FD0008217930738F082E090E0998388838EEF30
:101FE0009FEFE8CF2FEF2F0D2C3FA8F72DE0289F74
:101FF0006001299FD00C11240C0D1D1DF80180815A
:102000009181892B89F6F5E0FF9E50011124C501CD
:102010000E94CB19F80191838083E0912003F09115
:102020002103EC0DFD1D80819181009739F482E040
:1020300090E0998388838DEF9FEFBCCFA50170E07E
:1020400060E00E947029E0912003F0912103EC0DE3
:10205000FD1DF28281E090E09983888390E080E02A
:10206000A9CFCF92DF92EF92FF920F931F93CF935E
:10207000DF93860F971FFC0102811381809120035B
:1020800090912103892B81F082E090E0FA01918305
:1020900080838CEF9FEFDF91CF911F910F91FF9085
:1020A000EF90DF90CF900895C801B0E0A0E00197D5
:1020B000A109B1098F3F9F4FA105B10540F082E012
:1020C00090E0FA01918380838EEF9FEFE4CF7A0155
:1020D0008DE0809F6001819FD00C1124C6010E9479
:1020E000CB19EC01009741F482E090E0F701918375
:1020F00080838DEF9FEFCFCFA60170E060E00E945C
:102100007029D0932103C0932003109323030093DD
:10211000220390E080E02FEF3FEF8017910741F41A
:1021200081E090E0F7019183808390E080E0B3CF7D
:102130003C872B8701962D96F0CFCF92DF92EF92BE
:10214000FF920F931F93CF93DF93EC01D12CC12CFF
:1021500010E000E0F12CE12C8A818017110609F0D3
:10216000BCF4AE01455F5F4F63E070E0C7010E94C1
:10217000421A009721F02FEF3FEF3C872B87DF912A
:10218000CF911F910F91FF90EF90DF90CF90089526
:10219000E881F981EC0DFD1D23813481C90101968F
:1021A0000115110519F44F8144FD049661E070E0BA
:1021B000BFD7E816F90608F47C010F5F1F4F85E0D2
:1021C000C80ED11CC9CFF89420911E0330911F0373
:1021D00081E02115310509F080E0232B09F0789486
:1021E00008954F925F926F927F928F929F92AF92DB
:1021F000BF92CF92DF92EF92FF920F931F93CF93F4
:10220000DF933C01660E771EF301828193814C01BE
:10221000B12CA12CC0912003D0912103209769F00B
:1022200021E030E060912203709123038617970725
:1022300010F030E020E0232BC1F482E090E0FA01BE
:10224000918380838EEF9FEFDF91CF911F910F914C
:10225000FF90EF90DF90CF90BF90AF909F908F90C6
:102260007F906F905F904F90089580921F019092A1
:102270002001A0922101B09222016DE0689F90019F
:10228000699F300D1124C20FD31FF3018181833068
:1022900040F082E090E0FA019183808386EF9FEF27
:1022A000D3CF2A012B813C81232BF1F42881398162
:1022B0009F8191FF2EC0232B09F464C02091250338
:1022C0009A81422F490F5527551FBA0141E050E02E
:1022D0006138710514F050E040E0452B09F452C01C
:1022E0002A87920F909325038150823008F476C09C
:1022F0006ADF882309F4C7C0F3018181813009F4C2
:1023000080C008F470C0823009F4B5C090E080E06D
:1023100090C0232BB9F1209124039A81E22FE90F79
:10232000FF27FF1F41E050E0ED3FF10514F050E0C2
:1023300040E0452B39F12A87920F90932403D4CFA4
:10234000A081B181A20FB31F11966C91060F111DD0
:102350000196295F3F4F8417950794F3C114D10468
:10236000C9F48F8184FF16C031D721E0A8014B5FEB
:102370005F4F8417950708F420E0A7014B5F5F4F7C
:1023800021110EC082E090E0F2019183808387EFFB
:102390009FEF5ACF1BD721E0A8014F5F5F4FE9CFD6
:1023A00088819981E80EF91EF70114830383FFEFFA
:1023B000CF1ADF0A7A018A818C151D0409F00CF40A
:1023C00097CFE881F981EE0DFF1D428150E030E0AA
:1023D00020E010E000E090E080E0BDCFF12CE12CA7
:1023E000D12CC12CE8CF81E090E09C838B83A8DBCB
:1023F000882309F48BCF81E090E03CD880E448D872
:1024000085CF8B859C85019651F083E090E09C837D
:102410008B8382E090E02ED880E434D877CF22E01E
:1024200082169104A104B1047CF4CE0186DE0097EB
:1024300061F3789422E030E0F20131832083892B2C
:10244000F9F08DEF9FEF00CF2D813E818091150136
:102450009091160128173907C1F660911901709102
:102460001A01AE01455F5F4F8091170190911801ED
:102470000E94591BDCCF82E090E09C838B8346CF87
:1024800090E080E0E1CE82E090E0F20191838083F1
:1024900085EF9FEFD9CE8F929F92AF92BF92CF924E
:1024A000DF92EF92FF920F931F93CF93DF93EA0196
:1024B0008C01060F171FF8018181833098F082E0AC
:1024C00090E09983888386EF9FEFDF91CF911F91F2
:1024D0000F91FF90EF90DF90CF90BF90AF909F90C3
:1024E0008F9008958091200390912103892B61F0B2
:1024F00081E090E02091220330912303232B11F4FB
:1025000090E080E0892B39F482E090E09983888321
:102510008EEF9FEFDACF57DE882309F4D6C0F8019B
:102520008181813009F48CC0E8F0823099F42091E7
:10253000220330912303E0912003F091210390E0E6
:1025400080E041E050E02817390709F0B4C0F8DA1C
:10255000811117C0789481E090E09983888390E09E
:1025600080E0B3CF2091220330912303E091200338
:10257000F091210390E080E041E050E02817390716
:1025800041F481E090E00E943A0A80E40E94480A07
:10259000E1CF63817481672B11F0548343830196EB
:1025A0003D96ECCFE0912003F0912103E00FF11F65
:1025B000238134812230310569F4238534852F3F0E
:1025C0003F4F41F422E0C216D104E104F1040CF5BE
:1025D000CF01B3DD4FEFC41AD40AE40AF40A035F53
:1025E0001F4F409122035091230370E060E0C41616
:1025F000D506E606F70664F50097A1F27894892BD4
:1026000009F4A9CF82E090E0998388838DEF9FEF52
:102610005CCF4581568120911501309116014217FA
:102620005307C1F6AF01455F5F4F6091190170918B
:102630001A0180911701909118010E94591BCACF6D
:1026400010E000E090E080E0C12CD12C7601C9CFF1
:102650000097A1F610E000E0812C912C540183E05A
:10266000E82EF12C1AC0E0912003F0912103E00F35
:10267000F11F83819481029749F4F482E38282E01E
:1026800090E00E943A0A80E40E94420A8FEF881A82
:10269000980AA80AB80A035F1F4F809122039091FD
:1026A0002303B0E0A0E088169906AA06BB06DCF278
:1026B00090E080E0A3CF638174816230710511F4F2
:1026C0005483438301963D963ECF82E090E0998308
:1026D000888385EF9FEFF9CE0097B9F48FEFFB0168
:1026E000808320911F01309120014DE0429FC00165
:1026F000439F900D1124E0912003F0912103E80FF6
:10270000F91F8285FB01818308950C94F30988E009
:1027100090E0FA019183808390E080E00895109228
:102720001F0310921E03E0E2F3E086E0DF011D923A
:102730008A95E9F789E29FE090931D0380931C033B
:10274000089580911C0390911D0308952F923F924C
:102750004F925F926F927F928F929F92AF92BF92B1
:10276000CF92DF92EF92FF920F931F93CF93DF935D
:10277000CDB7DEB762970FB6F894DEBF0FBECDBF00
:10278000F89420911E0330911F032F5F3F4F309329
:102790001F0320931E03789420912003309121037E
:1027A0003B832A83232B09F456C1209122033091C5
:1027B0002303232B09F44FC14D875E876F87788BE6
:1027C0009C878B878A819B819A8B898BD12CC12C8A
:1027D000198210E000E08091220390912303C81633
:1027E000D90618F43981332329F1F89480911E0316
:1027F00090911F03019790931F0380931E03789479
:10280000C80162960FB6F894DEBF0FBECDBFDF9150
:10281000CF911F910F91FF90EF90DF90CF90BF90DD
:10282000AF909F908F907F906F905F904F903F9070
:102830002F900895B60190E080E029D38887A98978
:10284000BA8917968C91179781FD8DC013968D913B
:102850009C911497039709F086C01596ED91FC9111
:10286000FF83EE832B853C85E217F30709F07BC0DD
:10287000712C612C512C412C63C091D39A8789878C
:1028800010E04114510431F4A989BA8917961C91BA
:1028900012951170A989BA89ED91FC91E60DF71D89
:1028A00023803480111169C0BFEF2B1A3B0A61E00D
:1028B00070E0C1013DD45C01A989BA891B968D9154
:1028C0009C918F3F980709F45CC0B50133D74C0148
:1028D000009709F4BBC0E985FA85E80FF91FA989BB
:1028E000BA891A968C91840D808311114DC08F0185
:1028F0000F5F1F4F8091150190911601AE81BF812E
:10290000A817B90709F09DC081E090E0B885BB2306
:1029100011F090E080E0710109851A859501A4010C
:10292000B6019195819591093DD38C01892B11F0C8
:10293000C4017CD58FEF481A580A95E0690E711CC6
:10294000A989BA8912968C918415150429F024F06E
:10295000B981BB2309F491CFE885EE2321F0B601BC
:1029600090E080E096D2FFEFCF1ADF0A29893A89FA
:10297000235F3F4F3A8B298B2ECFE5E02E0E311C83
:1029800096CFC50108D5A3CF8D859E85AF85B88923
:1029900081839283A383B4838F010B5F1F4FAACFE0
:1029A000E080F180EC81FD81EE0EFF1ED7011396D1
:1029B0006D917C9114978C918F3FE1F1E1E0F0E013
:1029C00002C0EE0FFF1F8A95E2F7CF01092E000C1F
:1029D000AA0BBB0BFB01408151816281738184236F
:1029E0009523A623B72321E0892B8A2B8B2B09F46F
:1029F00020E0D8012C93D70111968C91080F111D5E
:102A0000EA81FB813196FB83EA832C813D81295F3A
:102A10003F4F3D832C83A989BA89ED91FC91E60D46
:102A2000F71D82812A813B818217130611F00CF079
:102A3000B7CF6ACFF701418150E0C8010E946729F2
:102A4000DACF1D821C821B821A82E5CF31E03983E6
:102A500006EF1FEF6FCF10E000E0C7CEB4CB789445
:102A600008952F923F924F925F926F927F929F9222
:102A7000AF92BF92CF92DF92EF92FF920F931F938C
:102A8000CF93DF9300D000D000D0CDB7DEB7009158
:102A9000200310912103992493940115110509F441
:102AA0003EC0A0902203B09023038DDB982E882394
:102AB000B1F110922103109220031092230310927F
:102AC000220310922403109225038FEF9FEFDC0165
:102AD00080931F0190932001A0932101B0932201C4
:102AE000789476D31E830D83C12CD12C7601C50139
:102AF000B0E0A0E089839A83AB83BC8322242A942C
:102B0000322C89819A81AB81BC81C816D906EA062C
:102B1000FB06F4F0C8018AD480E40E94480A892D9B
:102B200026960FB6F894DEBF0FBECDBFDF91CF91D2
:102B30001F910F91FF90EF90DF90CF90BF90AF90DB
:102B40009F907F906F905F904F903F902F9008954F
:102B5000AD81BE8192E0C916D104E104F1040CF507
:102B60001B968D919C918F3F980709F023D5ED819D
:102B7000FE8134862386ED81FE8180819181B12C96
:102B8000A12C412C512C3201892B59F5BFEFCB1AC6
:102B9000DB0AEB0AFB0AED81FE813D96FE83ED83A5
:102BA000B0CF15962D913C9116978091150190917B
:102BB000160128173907F9F61B968D919C91A8D517
:102BC000DACF8A0D9B1DDC018D919C91009709F055
:102BD0002DD4BFEF4B1A5B0A6B0A7B0AE5E0AE0E01
:102BE000B11CAD81BE818D919C91119712964C9133
:102BF00050E070E060E044165506660677060CF378
:102C000015D4C4CFCF93DF93EA012BDF811109C024
:102C100082E090E09983888385EF9FEFDF91CF91E9
:102C2000089581E090E00E943A0A81E090E0998363
:102C3000888390E080E0F2CF14DF10921D031092A1
:102C40001C03089542E050E06AEA71E00C94580ACF
:102C5000FF920F931F93CF93DF938A01EC01C60F6E
:102C6000D71FF980B4D20897F816190671F068F0EA
:102C700082E090E0F801918380838EEF9FEFDF91F7
:102C8000CF911F910F91FF9008956C817D818E816E
:102C90009F814B810E94D00C811108C082E090E09E
:102CA000F8019183808384EF9FEFE9CFF9800E9440
:102CB000CB0C4F2D50E0BE01685F7F4F0E9467290B
:102CC00089810E943A0D81E090E0F8019183808330
:102CD00090E080E0D4CFDF92EF92FF920F931F93AA
:102CE000CF93DF938A01EC01C60FD71F0E94CB0C54
:102CF0007C01D9806CD2DD2059F0029721E030E0D0
:102D0000D816190619F010F030E020E0232B79F4E2
:102D100082E090E0F801918380838EEF9FEFDF9156
:102D2000CF911F910F91FF90EF90DF900895EF28C2
:102D300041F482E090E0F8019183808384EF9FEF7B
:102D4000EECFF9800E94CB0C4F2D50E0BE016E5F9C
:102D50007F4F0E94672989810E943A0D81E090E0AF
:102D6000F8019183808390E080E0D9CF82E296E100
:102D700090932703809326030895809126039091D2
:102D8000270308950895FC011182108293838283A2
:102D90000895DB011D921C92DC011296ED91FC91CD
:102DA00013977183608313967C936E9312970895A3
:102DB000FC0180819181DB018D939C93A081B18185
:102DC000109741F08D919C9191838083892B11F410
:102DD000F383E2830895FC0180819181DB018D936F
:102DE0009C93892B11F473836283718360830895AC
:102DF000FC0111821082938382830895CF93DF9325
:102E000000D0CDB7DEB71A821982F894BE016F5F89
:102E10007F4F8DE293E0CCDF89819A81009709F0A2
:102E200005D389819A81892B89F7BE016F5F7F4F16
:102E300081E393E0BDDF89819A81009709F0F6D2A2
:102E400089819A81892B89F778940F900F90DF916F
:102E5000CF910895CF93DF9300D0CDB7DEB71A821C
:102E60001982F894BE016F5F7F4F89E293E0A0DF83
:102E700089819A81009709F0D9D289819A81892B19
:102E800089F778940F900F90DF91CF91089581E0AA
:102E9000089590E080E00895EF92FF920F931F93C2
:102EA000CF93DF9300D0CDB7DEB71A82198280911D
:102EB000280307EF1FEF8823A1F1F894BE016F5F8D
:102EC0007F4F81E393E074DF789489819A81EE24C7
:102ED000E394F12C892B51F4F894BE016F5F7F4F7E
:102EE0008DE293E065DF7894F12CE12C89819A8161
:102EF0000EEF1FEF0097A9F0FC014281538164E0BF
:102F000070E016D68C01892B61F0F89469817A8182
:102F1000C701880F991F880F991F835D9C4F5BDF46
:102F20007894C8010F900F90DF91CF911F910F916E
:102F3000FF90EF9008950F931F93CF93DF9300D0EE
:102F400000D0CDB7DEB71C821B821A821982809115
:102F5000280307EF1FEF8823C1F0AE014D5F5F4FDD
:102F600064E070E0CE01019656D68C01892B69F49D
:102F7000E981FA818B819C8193838283F8946981B2
:102F80007A8189E293E005DF7894C8010F900F9071
:102F90000F900F90DF91CF911F910F9108955BD704
:102FA000049608958F929F92AF92BF92CF92DF9234
:102FB000EF92FF920F931F93CF93DF9300D0CDB783
:102FC000DEB71A821982BC016F5F7F4F63307105D3
:102FD00098F0AA24AA94BA2CC5010F900F90DF9103
:102FE000CF911F910F91FF90EF90DF90CF90BF9006
:102FF000AF909F908F9008954115510551F348016E
:1030000059018A016C01CBDF8815990511F7E1148C
:10301000F104F9F28E0D9F1DA816B906D0F2809129
:1030200028038823F1F0F894B501645071099701E1
:10303000AE014F5F5F4FC801049682D65C01892BB9
:1030400071F489819A81F80193838283C601880F84
:10305000991F880F991FB801835D9C4F9ADE789461
:10306000BBCF87EFA82EBB24BA94B6CFAF92BF9246
:10307000CF92DF92EF92FF920F931F93CF93DF9344
:1030800000D0CDB7DEB71A821982892B09F047C06C
:103090006115710509F443C04115510509F43FC09C
:1030A0002115310509F43BC001151105C1F18091CD
:1030B00028038823B9F179016A015B01F894BE0104
:1030C0006F5F7F4F89E293E073DE789489819A8104
:1030D000009759F1DC0112966D917C91A80104963C
:1030E00048D68C01E981FA81D501ED93FC93828168
:1030F00093810496F6019183808351DFD7018D93EC
:103100009C93C8010F900F90DF91CF911F910F9169
:10311000FF90EF90DF90CF90BF90AF9008950FEFAA
:103120001FEFEFCF07EF1FEFECCF0EEF1FEFE9CF51
:10313000CF93DF93EC01672B71F496D68C179D0724
:1031400060F089D62496C80FD91F88D68C0F9D1F92
:10315000DF91CF91089585D6F1CF90E080E0F8CF50
:103160000F931F93CF93DF932091280321112BC03E
:103170008B01EC018DE293E006DE81E393E003DE58
:1031800089E293E000DE86D00097C1F46DD670E04E
:1031900060E0CEDF43E251E062E070E073D100977F
:1031A00069F4809123019091240170D6B801CE0179
:1031B000A5D4009719F421E020932803DF91CF9143
:1031C0001F910F91089584EF9FEFF8CF4AC64CC628
:1031D000CF93DF934CD6EC01892B11F40FDE3ADE4E
:1031E000CE01DF91CF910895CF93DF9340D6EC01CC
:1031F000892B09F403DECE01DF91CF9108958091F0
:103200002301909124010895CF93DF9380912803A7
:10321000D0E0C0E08823D1F03ED6EC01892BB1F498
:10322000EDDD18DE8091230190912401C3D1D2D22B
:10323000EC01892B59F48DE293E0DADD81E393E030
:10324000D7DD89E293E0D4DD10922803CE01DF912F
:10325000CF910895CF93DF930097A1F4DF91CF91A1
:103260000895EC011A821982A883309711F0928395
:1032700081832F5F3F4FFC01860F971F4217530733
:1032800081F7ECCF30E020E0F0E0E0E0AFEF6F5FFF
:103290007F4FF4CFAF92BF92CF92DF92EF92FF9227
:1032A0000F931F93CF93DF938AE394E07C012CEF7D
:1032B000E22286EBC82E81E0D82E9CEBA92E91E06D
:1032C000B92EC1E8D4E08E01D6014D915D916D011A
:1032D000F501619171915F01D8011196FC92EE9216
:1032E00015965C934E93149713965C934E93129796
:1032F00017967C936E9316979B012F5F3F4F249FE9
:10330000C001259F900D349F900D112419969C9318
:103310008E931897C7019EDFF80180859185E80E8E
:10332000F91E065F1F4FFCEBCF16F1E0DF0661F6DA
:10333000E7E3F3E080E091E0DF019C011D92215082
:103340003040E1F710923603109235038FE994E094
:103350001F8E1E8E1BA21AA219A218A21DA21CA2A9
:103360001FA21EA22A968C179D0791F710927E0429
:1033700010927D041092800410927F0490E080E00F
:10338000DF91CF911F910F91FF90EF90DF90CF9041
:10339000BF90AF900895009761F1F8948131910545
:1033A00080F48091830490918404892B29F5809185
:1033B0008D0490918E04892B31F021E081E090E022
:1033C0000BC08197A8F48091970490919804892B61
:1033D00079F022E082E090E0EAE0E89FD001E99F06
:1033E000B00D1124AF57BB4F8D919C91009741F4C4
:1033F000789490E080E0089520E090E080E0ECCFC9
:10340000E29FF0011124EF57FB4FDC0111964D9123
:103410005C915183408342815381415051095383D0
:103420004283FC012193CF0178940895009749F1DC
:10343000DC018E91863041F4E0917F04F0918004AC
:103440003097F9F0CD0109948630D8F4282F30E078
:10345000F8948FEF8C938AE0829FF001839FF00DA8
:103460001124EF57FB4F8081918112969C938E938C
:103470001197B183A0838281938101969383828384
:1034800078940895CF92DF92EF92FF920F931F935B
:10349000CF93DF939C018AE393E08C7F4115510524
:1034A00009F485C02115310509F481C06115710544
:1034B00009F47DC08A01AB01B9016D5F7F4F6C7F5C
:1034C0009B012F5F3F4F249F7001259FF00C349F7D
:1034D000F00C1124F894E1E8F4E023E030E0E90195
:1034E000A6A1B7A1C68CD78CCD2809F054C01097DF
:1034F00009F03CC0C0903503D09036032DEF30E08A
:103500002C193D092E153F0530F47894CFEFDFEFED
:1035100086EF9FEF1FC02AE02C9FF0012D9FF00D3A
:103520001124EF57FB4F918380835583448353834A
:10353000428377836683F186E0868CDEEC0CFD1C8B
:10354000F0923603E09235037894CF3FDC0701F325
:1035500090E080E0F801D183C083DF91CF911F918B
:103560000F91FF90EF90DF90CF900895AE15BF05BB
:1035700090F02AE02C9FF0012D9FF00D1124EF57C1
:10358000FB4F9183808355834483538342837783A6
:10359000668360DED9CF8A0F9B1F2F5F3F4F3A961D
:1035A0002630310509F09BCFCFEFDFEFCDCF8FEF86
:1035B0009FEFD3CFFF920F931F93CF93DF939C0185
:1035C000235031092330310508F070C0EC01F89424
:1035D00085E09AE09C9FD0019D9FB00D1124A757D4
:1035E000BB4F082F10E0909FF001919FF00D112428
:1035F000EF57FB4F20813181C017D10714F1FF2411
:10360000F394232B41F52AE0209FF001219FF00D38
:103610001124EF57FB4F809135039091360340857D
:103620005185841B950B90933603809335032C9F13
:10363000F0012D9FF00D1124EF57FB4F11861086DE
:103640001CC0232B39F42D913C911197232BA9F405
:103650008150C7CFF12C8AE08C9FF0018D9FF00D37
:103660001124EF57FB4F4085518570E060E0808169
:1036700091810E947029F110C6CF8AE08C9FF001E1
:103680008D9FF00D1124EF57FB4F11821082158290
:1036900014821382128217821682789490E080E05E
:1036A000DF91CF911F910F91FF9008958FEF9FEFC2
:1036B000F7CF4115510549F1009739F161157105B1
:1036C00021F1F89420917D0430917E04232BB9F4EC
:1036D00020917F0430918004232B89F490937E0401
:1036E00080937D047093800460937F04789426E037
:1036F00030E090E080E0FA013183208308957894EF
:103700002FEF3FEF86EF9FEFF6CF8FEF9FEF0895FC
:10371000069769F4F89410927E0410927D0410923A
:10372000800410927F04789490E080E008958FEFF9
:103730009FEF08956115710519F4F0E0E0E011C004
:103740008630910581F4E0917D04F0917E043097FC
:10375000A1F3CB0101960995009779F3FC0186E06E
:103760008193CF0108959C01235031092330310505
:1037700020F72AE0289FD001299FB00D1124AF57D0
:10378000BB4F2D913C911197232BB9F216962D9199
:103790003C9117972617370780F2F89412962D91CF
:1037A0003C9113972115310529F0ED91FC9111976A
:1037B000309711F47894C1CF4181528111965C9376
:1037C0004E932150310913963C932E931297819377
:1037D0007894C7CFE7E3F4E086E4DF011D928A9591
:1037E000E9F7E7E3F3E080E091E0DF019C011D925F
:1037F00021503040E1F71092360310923503E1E892
:10380000F4E08CE3DF011D928A95E9F7EDE7F4E03F
:1038100084E0DF011D928A95E9F790E080E0089549
:10382000CF93DF93C0912501D0912601CF3FDC07D4
:1038300059F4C3D3909326018093250197FF09C0C3
:10384000D0932601C093250184EF9FEFDF91CF91A4
:10385000089590E080E0FACF8230910528F48093BB
:10386000BD0490E080E008958FEF9FEF08954F92A0
:103870005F926F927F92AF92BF92CF92DF92EF9260
:10388000FF920F931F93CF93DF9300D0CDB7DEB796
:103890001A821982009709F479C06115710509F43B
:1038A00075C0209125013091260107EF1FEF2F3FB2
:1038B0003F4F09F445C06B015C01412C512C320192
:1038C000F12CE12C10E000E09E012F5F3F4FA6019C
:1038D0004E195F09B5016E0D7F1D809125019091F4
:1038E0002601C9D3892B09F04BC089819A810097A1
:1038F00041F4E114F10429F42091BD04222309F4D8
:1039000042C0E80EF91EEC14FD04D0F480E848161D
:1039100084E858068EE16806710420F560E070E0E6
:10392000CB010E94D1252AE0420E511C611C711C62
:103930000A3F4FEF140721F0043F8FEF1807A1F45F
:10394000C8010F900F90DF91CF911F910F91FF90C1
:10395000EF90DF90CF90BF90AF907F906F905F908F
:103960004F90089501EF1FEF81E090E0013F2FEFAE
:10397000120711F090E080E0892B09F4A5CFE0CF89
:1039800004EF1FEFDDCF0AEF1FEFDACF0FEF1FEFCE
:10399000D7CF4F925F926F927F92AF92BF92CF92AA
:1039A000DF92EF92FF920F931F93CF93DF9300D09C
:1039B000CDB7DEB71A821982009709F479C0611574
:1039C000710509F475C0209125013091260107EF9A
:1039D0001FEF2F3F3F4F09F445C06B015C01412CA5
:1039E000512C3201F12CE12C10E000E09E012F5F00
:1039F0003F4FA6014E195F09B5016E0D7F1D8091E5
:103A0000250190912601EDD2892B09F04BC08981C7
:103A10009A81009741F4E114F10429F42091BD0446
:103A2000222309F442C0E80EF91EEC14FD04D0F480
:103A300080E8481686E9580688E96806710420F58A
:103A400060E070E0CB010E94D1252AE0420E511CBB
:103A5000611C711C0E3F4FEF140721F0043F8FEFE4
:103A60001807A1F4C8010F900F90DF91CF911F911B
:103A70000F91FF90EF90DF90CF90BF90AF907F902D
:103A80006F905F904F90089502EF1FEF81E090E0FC
:103A9000023F2FEF120711F090E080E0892B09F42C
:103AA000A5CFE0CF04EF1FEFDDCF0EEF1FEFDACF92
:103AB0000FEF1FEFD7CF80912501909126018F3F07
:103AC000980749F072D2892B49F48FEF9FEF9093BA
:103AD00026018093250190E080E0089584EF9FEF18
:103AE0000895FC01680F791F90E080E0E617F70762
:103AF00009F408952191820F911DF8CF2091BE0401
:103B0000211113C08DDE009791F41092C40410921D
:103B1000C3041092C2041092C1041092C004109207
:103B2000BF0421E02093BE04089584EF9FEF089521
:103B3000AF92BF92CF92DF92EF92FF920F931F93BB
:103B4000CF93DF93009709F460C04630510508F425
:103B50005CC02091BE04C7EFDFEF222309F449C007
:103B60008C01060F171FF801C080D180C114D10449
:103B700009F44EC096012A5F3F4F4217530708F4DD
:103B800047C07C018091C3049091C40493838283D5
:103B9000B6016C5F7F4F5801A60EB71EC801A1DFAA
:103BA000F5019183808364E070E0C80160DEEC0180
:103BB000892BF9F481E090E04FDEB601C80104964C
:103BC00056DEEC01892B91F462E070E0C5014FDE16
:103BD000EC01892B59F4C70129DC8091C304909131
:103BE000C40401969093C4048093C30490E080E0E1
:103BF00033DECE01DF91CF911F910F91FF90EF90B7
:103C0000DF90CF90BF90AF900895CFEFDFEFF1CF6F
:103C1000C9EFDFEFEECF6F927F928F929F92AF92BC
:103C2000BF92CF92DF92EF92FF920F931F93CF93A9
:103C3000DF9300D000D0CDB7DEB7009709F47AC08B
:103C40004115510509F476C02091BE0407EF1FEF1E
:103C5000222309F44DC03A017B015C0164E070E06D
:103C6000CE01019696DE8C01892B09F041C00981B5
:103C70001A810115110509F45AC0480186E0880E21
:103C8000911CB701680D791D809127019091280141
:103C900051DD6C01009709F450C0A70170E060E0AD
:103CA0000E94702989819A81AB81BC81EC0CFD1C3A
:103CB000F70181939193A193B1937F0181E090E00B
:103CC000CBDDB801C70165DE892B31F562E070E01C
:103CD000C701800F911F5DDE8C01892BE9F490E014
:103CE00080E0BADDF501D182C082F3019182808249
:103CF000C8010F900F900F900F90DF91CF911F91FF
:103D00000F91FF90EF90DF90CF90BF90AF909F907A
:103D10008F907F906F90089590E080E09DDDF50199
:103D200011821082F30111821082C6017FDB09EF3C
:103D30001FEFDECF0FEF1FEFDBCF06EF1FEFD8CF68
:103D40000097A1F04115510589F02115310571F059
:103D5000F90136966E177F0748F0DC012D933C93EE
:103D6000DA01ED93FC9390E080E008958FEF9FEFF0
:103D70000895AF92BF92CF92DF92EF92FF920F938E
:103D80001F93CF93DF93009709F45FC0411551054E
:103D900009F45BC06530710508F457C02091BE047A
:103DA000C7EFDFEF222391F1DC01CD90DC9011977A
:103DB0001296ED91FC9196012A5F3F4FC9EFDFEF1C
:103DC0002617370719F5C091BF04D091C00420977A
:103DD00049F521E030E03093C0042093BF047A011C
:103DE0008C01F093C204E093C1045601B4E0AB0E21
:103DF000B11CB50176DE0A0D1B1DF8012081318151
:103E00008217930729F5D701CD92DC92CE01DF917D
:103E1000CF911F910F91FF90EF90DF90CF90BF90C7
:103E2000AF9008952091C1043091C2042F5F3F4F9D
:103E3000CCEFDFEFE217F30790F2CBEFDFEF2E17B7
:103E40003F0768F2D0E0C0E0CACFCFEFDFEFDECFB0
:103E5000C3EFDFEFDBCF84E090E0089582E090E0F5
:103E600008958CEF9FEF089580E290E008951092FE
:103E7000C4041092C3041092C2041092C1041092A0
:103E8000C0041092BF0490E080E008959093280150
:103E90008093270108958091BE04882391F00BDE62
:103EA000009789F41092C4041092C3041092C204C3
:103EB0001092C1041092C0041092BF041092BE046C
:103EC000089590E080E00895009749F0611571052C
:103ED00031F0FC0111821082FB01118210820895E1
:103EE000F3CF40E855E260E070E090E080E000C091
:103EF00026E089EF94E00C949E271F920F920FB654
:103F00000F9211242F933F934F935F936F937F935F
:103F10008F939F93AF93BF93EF93FF9386E080932C
:103F2000B2008091C5048F5F8093C504893119F474
:103F30001092C504B4D0FF91EF91BF91AF919F91C2
:103F40008F917F916F915F914F913F912F910F9042
:103F50000FBE0F901F90189586E08093B200A0E7E7
:103F6000B0E08C918E7F8C93E0EBF0E080818C7FD1
:103F70008083E1EBF0E08081877F808380818660B1
:103F8000808380818E7F80838C9181608C93089563
:103F9000E0E7F0E0808190819E7F908381700895BA
:103FA00081E008951092C604089568EE73E080E001
:103FB00090E0F7D590E080E0089526E040E050E101
:103FC0006EE070E089EF94E0B9D789EF94E0ECD629
:103FD000892B21F089EF94E001D7F7CF90E080E0C2
:103FE0000895CF92DF92EF92FF920F931F93CF939A
:103FF000DF936B017A01E9011982188289EF94E05D
:10400000D3D6892B69F18601CC24C39482E0D82EC3
:104010008091C604811110C089EF94E0DFD6029729
:10402000B9F7C092C604F801D1928F0188819981B5
:10403000019699838883ECCF888199818E159F059D
:1040400078F489EF94E0CAD68F3F9807A9F3F80176
:1040500081938F0188819981019699838883ECCF20
:1040600090E080E0DF91CF911F910F91FF90EF9052
:10407000DF90CF9008950F931F93CF93DF93EA01C2
:10408000890189EF94E00E948228F801D183C083DE
:1040900090E080E0DF91CF911F910F910895809182
:1040A000C70491E0980F9093C704882349F021E05A
:1040B00030E03093C9042093C8048093C704089566
:1040C00078940E94CA02F8948091C7048150F5CF79
:1040D000CF93DF931092B7051092B60598D501DF04
:1040E000C0913C01D0913D01198218826FEF7FEFA2
:1040F000CB010E94240270E060E090E080E00E942A
:10410000A900009709F037C00E947C03F8947894C6
:10411000BE016C557F4F8A819B810E94AC00892B28
:1041200069F46FEF7FEFCB010E943B010E941E02FA
:10413000882321F0C655DF4F81E08883F8940CDF97
:104140000E942102811104C00E941E0291E081118F
:1041500090E09093B60578940E94350AEC0178942B
:104160008091B60581110AC00E941E040E940402BB
:10417000F89490E080E0DF91CF9108950E940202D0
:104180000E94210291E0811106C00E941E0291E06E
:10419000811101C090E09093B7059091B70581E03F
:1041A000911180E08093B6058091B7058111F0DE12
:1041B000219729F40E94350A892B09F4F3DE0E9425
:1041C000350AEC01EDDECCCF5058BB27AA270ED024
:1041D00057C148D130F04DD120F031F49F3F11F458
:1041E0001EF43DC10EF4E095E7FB0AC1E92F59D159
:1041F00080F3BA17620773078407950718F071F404
:104200009EF588C10EF4E0950B2EBA2FA02D0B0160
:10421000B90190010C01CA01A0011124FF27591B0B
:1042200099F0593F50F4503E68F11A16F040A22F11
:10423000232F342F4427585FF3CF46953795279582
:10424000A795F0405395C9F77EF41F16BA0B620B81
:10425000730B840BBAF09150A1F0FF0FBB1F661FC8
:10426000771F881FC2F70EC0BA0F621F731F841F0B
:1042700048F4879577956795B795F7959E3F08F031
:10428000B3CF9395880F08F09927EE0F97958795F0
:10429000089529D180F09F3740F491110EF43BC16D
:1042A00060E070E080E89FE3089526F01B16611D32
:1042B000711D811DABC0C5C07FD008F481E0089599
:1042C000F8D088F09F5790F0B92F9927B751A0F0F8
:1042D000D1F0660F771F881F991F1AF0BA95C9F79A
:1042E00012C0B13081F016D1B1E0089513C1672F2B
:1042F000782F8827B85F39F0B93FCCF3869577954A
:104300006795B395D9F73EF4909580957095619532
:104310007F4F8F4F9F4F0895E89409C097FB3EF45D
:1043200090958095709561957F4F8F4F9F4F992302
:10433000A9F0F92F96E9BB279395F6958795779580
:104340006795B795F111F8CFFAF4BB0F11F460FF40
:104350001BC06F5F7F4F8F4F9F4F16C0882311F098
:1043600096E911C0772321F09EE8872F762F05C0AC
:10437000662371F096E8862F70E060E02AF09A9547
:10438000660F771F881FDAF7880F9695879597F93C
:104390000895A9D080F09F3740F491110EF0BBC072
:1043A00060E070E080E89FEB089526F41B16611D25
:1043B000711D811D2BC045C0990F0008550FAA0B18
:1043C000E0E8FEEF16161706E807F907C0F0121628
:1043D0001306E407F50798F0621B730B840B950B2B
:1043E00039F40A2661F0232B242B252B21F4089580
:1043F0000A2609F4A140A6958FEF811D811D08951D
:1044000097F99F6780E870E060E00895882371F471
:10441000772321F09850872B762F07C0662311F45D
:1044200099270DC09051862B70E060E02AF09A9594
:10443000660F771F881FDAF7880F9695879597F98B
:1044400008959F3F31F0915020F4879577956795B7
:10445000B795880F911D9695879597F908959FEFC9
:1044600080EC089500240A9416161706180609060B
:10447000089500240A9412161306140605060895DA
:10448000092E0394000C11F4882352F0BB0F40F462
:10449000BF2B11F460FF04C06F5F7F4F8F4F9F4FA2
:1044A000089557FD9058440F551F59F05F3F71F024
:1044B0004795880F97FB991F61F09F3F79F087958B
:1044C0000895121613061406551FF2CF4695F1DF14
:1044D00008C0161617061806991FF1CF86957105A4
:1044E000610508940895E5DFA0F0BEE7B91788F4E8
:1044F000BB279F3860F41616B11D672F782F8827C9
:10450000985FF7CF869577956795B11D9395963906
:10451000C8F30895E894BB2766277727CB0197F95E
:1045200008954ADF08F48FEF08950BD0A9CF9ADFE2
:1045300028F09FDF18F0952309F062CF90CF112467
:10454000EACFAFDFA0F3959FD1F3950F50E0551F51
:10455000629FF001729FBB27F00DB11D639FAA27D8
:10456000F00DB11DAA1F649F6627B00DA11D661F27
:10457000829F2227B00DA11D621F739FB00DA11D48
:10458000621F839FA00D611D221F749F3327A00D02
:10459000611D231F849F600D211D822F762F6A2F9E
:1045A00011249F5750408AF0E1F088234AF0EE0F23
:1045B000FF1FBB1F661F771F881F91505040A9F730
:1045C0009E3F510570F01CCFA6CF5F3FECF3983EA5
:1045D000DCF3869577956795B795F795E7959F5F97
:1045E000C1F7FE2B880F911D9695879597F9089531
:1045F0001F920F920FB60F9211242F933F934F9358
:104600005F936F937F938F939F93AF93BF93EF933A
:10461000FF938091CB0487FF27C0109285001092F2
:1046200084008091CB048F5F8093CB048091CB0476
:10463000082E000C990B2091CA042817190629F09E
:1046400024F08091CB048C30D4F18091840090913F
:104650008500049680349C4908F479C080918400D8
:1046600090918500049675C08091CB04082E000CB3
:10467000990B2091CA042817190699F294F2E09137
:10468000CB048E2FEE0F990BFC01EE0FFF1FE80FEE
:10469000F91FE453FB4F808186FFC3CFE091CB0429
:1046A0008E2FEE0F990BFC01EE0FFF1FE80FF91F85
:1046B000E453FB4F808160E08F7349D3B2CF2091E8
:1046C000840030918500E091CB048E2FEE0F990B82
:1046D000FC01EE0FFF1FE80FF91FE453FB4F818130
:1046E0009281820F931F9093890080938800E091BC
:1046F000CB048E2FEE0F990BFC01EE0FFF1FE80F7E
:10470000F91FE453FB4F808186FF10C0E091CB047A
:104710008E2FEE0F990BFC01EE0FFF1FE80FF91F14
:10472000E453FB4F808161E08F7311D3FF91EF91D0
:10473000BF91AF919F918F917F916F915F914F91B9
:104740003F912F910F900FBE0F901F90189580E40E
:104750009CE990938900809388008FEF8093CB042D
:10476000E5CFFC019091CA049C3098F481E0890F58
:104770008093CA049083892F90E0FC01EE0FFF1F05
:10478000E80FF91FE453FB4F88EB9BE09283818392
:1047900008958FEF80830895DF92EF92FF920F9339
:1047A0001F93CF93DF93EC01D62E7A018901888184
:1047B0008C3008F065C061E08D2D8DD28881282F66
:1047C00030E0F901EE0FFF1FE20FF31FE453FB4F40
:1047D0009D2D9F736081607C692B608320E232E0B5
:1047E0002E193F0937FF02C02D5F3F4F35952795A2
:1047F00035952795298320E639E0201B310B37FFBB
:1048000002C02D5F3F4F35952795359527952A8313
:104810002CE0622FF3D4829FB001112430E020E01D
:10482000AB01420F531FFA01EE0FFF1FE40FF51FFC
:10483000E453FB4F908196FD16C02F5F3F4F2C3005
:10484000310571F781110FC01092800082E08093D2
:1048500081001092850010928400B19A80916F00BF
:10486000826080936F00E8818E2F90E0FC01EE0F54
:10487000FF1FE80FF91FE453FB4F808180648083A2
:104880008881DF91CF911F910F91FF90EF90DF9082
:10489000089520E639E040E252E07ECFDC01EC9161
:1048A000EC3090F511968C91119728E830E0281B98
:1048B000310987FD3395220F331F220F331F6217F3
:1048C000730784F012968C9128E532E0281B310999
:1048D00087FD3395220F331F220F331F6217730793
:1048E0000CF49B0122503109220F331F4FB7F8946B
:1048F0008E2F90E0FC01EE0FFF1FE80FF91FE4532D
:10490000FB4F328321834FBF0895AF92BF92CF9266
:10491000DF92EF92FF920F931F93CF93DF93EC01FF
:10492000603282E078070CF03DC0653B710514F001
:1049300064EB70E0898148E8A42EB12CA81AB10874
:1049400087FDB394AA0CBB1CAA0CBB1C0B2C000C3F
:10495000CC08DD0877FF02C070E060E0072E000C95
:10496000880B990B2A8108E512E0021B110927FD2B
:104970001395000F111F000F111F012E000C220BA9
:10498000330B3F932F931F930F9314EBE12EF12CD6
:1049900000E010E020E030E0A901E1D30F900F909B
:1049A0000F900F90CE01DF91CF911F910F91FF904B
:1049B000EF90DF90CF90BF90AF9070CFFC018081DF
:1049C0008F3FD1F090E0FC01EE0FFF1FE80FF91FC1
:1049D000E453FB4F8181928133E0880F991F3A9510
:1049E000E1F7B0E0A0E044E0B595A79597958795ED
:1049F0004A95D1F70296089590E080E008954F928D
:104A00005F926F927F92AF92BF92CF92DF92EF92BE
:104A1000FF920F931F93CF93DF9300D000D0CDB7B9
:104A2000DEB7FC01428128E532E0241B310947FD55
:104A30003395220F331F220F331FA901330F660B4B
:104A4000770B49835A836B837C83218158E8452EF9
:104A5000512C421A510827FD5394440C551C440C08
:104A6000551C052C000C66087708A8DF0196BC01D0
:104A7000990F880B990B1F921F921F9224EB2F9373
:104A8000A12CB12C6501E980FA800B811C81A30166
:104A9000920165D30F900F900F900F90CB010F9064
:104AA0000F900F900F90DF91CF911F910F91FF907A
:104AB000EF90DF90CF90BF90AF907F906F905F901E
:104AC0004F9008951F920F920FB60F9211242F93BB
:104AD0003F938F939F93AF93BF938091F1049091F5
:104AE000F204A091F304B091F4043091F00423E0B7
:104AF000230F2D3758F50196A11DB11D2093F00409
:104B00008093F1049093F204A093F304B093F4041F
:104B10008091F5049091F604A091F704B091F80407
:104B20000196A11DB11D8093F5049093F604A09306
:104B3000F704B093F804BF91AF919F918F913F918B
:104B40002F910F900FBE0F901F90189526E8230FFE
:104B50000296A11DB11DD2CF3FB7F8948091F50404
:104B60009091F604A091F704B091F80426B5A89BA3
:104B700005C02F3F19F00196A11DB11D3FBFBA2FEF
:104B8000A92F982F8827BC01CD01620F711D811DAF
:104B9000911D42E0660F771F881F991F4A95D1F734
:104BA00008958F929F92AF92BF92CF92DF92EF9231
:104BB000FF926B017C01D0DF4B015C01C114D10479
:104BC000E104F104D9F00AD3C7DF681979098A0929
:104BD0009B09683E73408105910580F321E0C21A6C
:104BE000D108E108F10888EE880E83E0981EA11C28
:104BF000B11CC114D104E104F10431F7FF90EF902E
:104C0000DF90CF90BF90AF909F908F900895789451
:104C100084B5826084BD84B5816084BD85B58260C1
:104C200085BD85B5816085BDEEE6F0E0808181605F
:104C30008083E1E8F0E0108280818260808380815F
:104C400081608083E0E8F0E0808181608083E1EB37
:104C5000F0E0808184608083E0EBF0E0808181601F
:104C60008083EAE7F0E080818460808380818260D5
:104C700080838081816080838081806880831092BE
:104C8000C1000895833081F028F4813099F082309A
:104C9000A9F008958730A9F08830C9F08430B1F4C4
:104CA000809180008F7D03C0809180008F778093FA
:104CB0008000089584B58F7784BD089584B58F7D75
:104CC000FBCF8091B0008F778093B00008958091E2
:104CD000B0008F7DF9CFCF93DF9390E0FC01E458D3
:104CE000FF4F249180579F4FFC0184918823C9F086
:104CF00090E0880F991FFC01E255FF4FA591B491F8
:104D0000FC01EC55FF4FC591D49161110DC09FB7C7
:104D1000F8948C91209582238C9388812823288372
:104D20009FBFDF91CF910895623051F49FB7F894FF
:104D30003C91822F809583238C93E8812E2BEFCF9B
:104D40008FB7F894EC912E2B2C938FBFEACF1F9343
:104D5000CF93DF93282F30E0F901E859FF4F84917A
:104D6000F901E458FF4FD491F901E057FF4FC49186
:104D7000CC23A1F0162F811185DFEC2FF0E0EE0F90
:104D8000FF1FEC55FF4FA591B4918FB7F894EC91AC
:104D9000111108C0D095DE23DC938FBFDF91CF9136
:104DA0001F910895DE2BF8CFFC01918D228D892F64
:104DB00090E0805C9F4F821B91098F739927089523
:104DC000FC01918D828D981731F0828DE80FF11DD5
:104DD000858D90E008958FEF9FEF0895FC01918DF0
:104DE000828D981761F0A28DAE0FBF2FB11D5D9619
:104DF0008C91928D9F5F9F73928F90E008958FEFBB
:104E00009FEF0895FC01538D448D252F30E0842FB2
:104E100090E0821B930B541710F0CF9608950197E2
:104E20000895FC01A48DA80FB92FB11DA35ABF4F3F
:104E30002C91848D90E001968F739927848FA68999
:104E4000B7892C93A089B1898C91837080648C93ED
:104E5000938D848D981306C00288F389E02D80819C
:104E60008F7D80830895CF93DF93EC01888D882315
:104E7000B1F0AA89BB89E889F9898C9185FD03C0C5
:104E8000808186FD0CC00FB607FCF7CF8C9185FFA3
:104E9000F2CF808185FFEDCFCE01C3DFEACFDF9176
:104EA000CF910895EF92FF920F931F93CF93DF93CB
:104EB000EC0181E0888F9B8D8C8D98131AC0E88956
:104EC000F989808185FF15C09FB7F894EE89FF8925
:104ED0006083E889F98980818370806480839FBFC3
:104EE00081E090E0DF91CF911F910F91FF90EF90C3
:104EF0000895F62E0B8D10E00F5F1F4F0F731127D3
:104F0000E02E8C8D8E110BC00FB607FCFACFE8890E
:104F1000F989808185FFF5CFCE0183DFF2CFEB8D5C
:104F2000EC0FFD2FF11DE35AFF4FF0829FB7F8946D
:104F30000B8FEA89FB8980818062D0CFCF92DF928C
:104F4000EF92FF921F93CF93DF93EC016A017B01F5
:104F5000122FE889F98982E08083C11481EED80696
:104F6000E104F10499F060E079E08DE390E0A701BD
:104F7000960150D121503109410951095695479563
:104F800037952795211580E1380790F0E889F98950
:104F9000108260E874E88EE190E0A70196013AD1B2
:104FA0002150310941095109569547953795279563
:104FB000EC85FD853083EE85FF852083188EEC8996
:104FC000FD891083EA89FB89808180618083EA8979
:104FD000FB89808188608083EA89FB898081806881
:104FE0008083EA89FB8980818F7D8083DF91CF91E7
:104FF0001F91FF90EF90DF90CF9008951F920F9236
:105000000FB60F9211242F938F939F93EF93FF93DB
:10501000E0910905F0910A058081E0910F05F0917A
:10502000100582FD1BC09081809112058F5F8F73E8
:1050300020911305821741F0E0911205F0E0E7504E
:10504000FB4F958F80931205FF91EF919F918F9168
:105050002F910F900FBE0F901F9018958081F4CF65
:105060001F920F920FB60F9211242F933F934F93DD
:105070005F936F937F938F939F93AF93BF93EF93C0
:10508000FF9389EF94E0CDDEFF91EF91BF91AF9157
:105090009F918F917F916F915F914F913F912F9150
:1050A0000F900FBE0F901F901895E9EFF4E0138258
:1050B000128288EE93E0A0E0B0E084839583A6831B
:1050C000B78386EC91E09183808385EC90E09587AF
:1050D000848784EC90E09787868780EC90E0918BC2
:1050E000808B81EC90E0938B828B82EC90E0958BAF
:1050F000848B86EC90E0978B868B118E128E138EAC
:10510000148E0895AF92BF92CF92DF92EF92FF92EA
:105110000F931F93CF93DF936C017B018B01040FDF
:10512000151FEB015E01AE18BF08C017D10759F07B
:105130006991D601ED91FC910190F081E02DC601BD
:105140000995892B79F7C501DF91CF911F910F91B7
:10515000FF90EF90DF90CF90BF90AF9008954F9267
:105160005F926F927F92AF92BF92CF92DF92EF9257
:10517000FF920F931F93CF93DF93CDB7DEB7290133
:105180003A019B01AC01241935094609570989895F
:105190009A89AB89BC89BC01CD016A197B098C094C
:1051A0009D091DD0A8019701241935094609570901
:1051B00053D0CA01B9016A0D7B1D8C1D9D1DDF9165
:1051C000CF911F910F91FF90EF90DF90CF90BF9004
:1051D000AF907F906F905F904F9008950895DB019E
:1051E0008F939F935BD0BF91AF91A29F800D911D34
:1051F000A39F900DB29F900D11240895991B79E003
:1052000004C0991F961708F0961B881F7A95C9F756
:1052100080950895A1E21A2EAA1BBB1BFD010DC0AB
:10522000AA1FBB1FEE1FFF1FA217B307E407F50756
:1052300020F0A21BB30BE40BF50B661F771F881F32
:10524000991F1A9469F760957095809590959B01C8
:10525000AC01BD01CF010895052E97FB16F4009413
:105260000FD057FD05D0D6DF07FC02D046F408C0AA
:1052700050954095309521953F4F4F4F5F4F089582
:1052800090958095709561957F4F8F4F9F4F0895B2
:10529000EE0FFF1F0590F491E02D099409D0A59F12
:1052A000900DB49F900DA49F800D911D1124089521
:1052B000A29FB001B39FC001A39F700D811D112457
:1052C000911DB29F700D811D1124911D0895FB0148
:1052D000DC0102C001900D9241505040D8F7089572
:1052E000DC0101C06D9341505040E0F70895F894FF
:0252F000FFCFEE
:1052F20000000000CDCCCC3DCDCCCC3DFEFFFFFF6D
:1053020001E8030000FFFF00000000FFFFFFFFFFB6
:10531200FFFFFFFFFFFFFFFFFF46697865645374DD
:10532200657044697363726574650001F401FF007E
:105332006D0C990CFE00530CF309FD00E50B3F0CBC
:10534200FC002B0CF309F6001C0DF309F500F20B1F
:105352005B0DF400E50C720DDE00F1106C13DD0044
:105362004B12F309DA00020F0A0FD90087131A0F42
:10537200E200EA0DF309E100250EF309E0009A0EBE
:10538200F309D6000216F309D5003110F309D4004F
:10539200BD0FF309D3002E0FF309F0006B16F309CA
:1053A200ED002816F30901000100010010001000B1
:1053B2002000000000005227822802273327D4262B
:0453C200EE26E026CD
:00000001FF
